:020000040000FA
:100000000C945D000C94AB060C9484060C94850053
:100010000C9485000C9485000C9485000C9485004C
:100020000C9485000C9485000C9485000C9485003C
:100030000C9485000C9449080C9485000C94850060
:100040000C943A060C9485000C94F8060C94D20695
:100050000C9485000C9485000C9485000C9485000C
:100060000C942A070C94850000000008000201008F
:100070000003040700000000000000000000000072
:10008000250028002B0000000000240027002A0083
:10009000040404040404040402020202020203032E
:1000A0000303030301020408102040800102040836
:1000B0001020010204081020300911241FBECFEFC8
:1000C000D8E0DEBFCDBF11E0A0E0B1E0ECEAFEE198
:1000D00002C005900D92AC39B107D9F727E0ACE921
:1000E000B1E001C01D92AC3DB207E1F710E0CDE5F3
:1000F000D0E004C02197FE010E947C0CCC35D107D2
:10010000C9F70E94D0090C94540F0C94000090E0A1
:10011000FC01EC55FF4F249180579F4FFC018491C7
:10012000882399F090E0880F991FFC01EA57FF4F50
:10013000A591B491FC01E458FF4F859194918FB73C
:10014000F894EC91E22BEC938FBF089590E0FC01C2
:10015000E859FF4F2491FC01EC55FF4F3491FC010D
:10016000E057FF4FE491EE23C9F0222339F023300A
:1001700001F1A8F4213019F1223029F1F0E0EE0F5D
:10018000FF1FE458FF4FA591B4918FB7F894EC91FD
:10019000611126C030953E233C938FBF08952730D0
:1001A000A9F02830C9F0243049F7809180008F7D74
:1001B00003C0809180008F7780938000DFCF84B56B
:1001C0008F7784BDDBCF84B58F7DFBCF8091B0006E
:1001D0008F778093B000D2CF8091B0008F7DF9CF20
:1001E0003E2BDACF3FB7F8948091DC059091DD0586
:1001F000A091DE05B091DF0526B5A89B05C02F3F75
:1002000019F00196A11DB11D3FBFBA2FA92F982F3C
:100210008827BC01CD01620F711D811D911D42E037
:10022000660F771F881F991F4A95D1F708958F92FF
:100230009F92AF92BF92CF92DF92EF92FF924B01CB
:100240005C010E94F2006B017C010E94F2006C19BB
:100250007D098E099F09683E734081059105A8F3C9
:1002600021E0821A9108A108B10888EEC80E83E047
:10027000D81EE11CF11C81149104A104B10429F7DA
:10028000FF90EF90DF90CF90BF90AF909F908F90B6
:10029000089580910F0590911005A0911105B091DE
:1002A00012050196A11DB11D80930F0590931005B5
:1002B000A0931105B0931205EFEEF1E080819181DA
:1002C000A281B381892B8A2B8B2B59F08481958154
:1002D000A681B7810196A11DB11D84839583A68354
:1002E000B783709685E0EF30F80741F708950895D9
:1002F000AF92BF92CF92DF92EF92FF920F931F9334
:10030000CF93DF936C017B018B01040F151FEB0171
:100310005E01AE18BF08C017D10759F06991D60128
:10032000ED91FC910190F081E02DC6010995892B9A
:1003300079F7C501DF91CF911F910F91FF90EF9059
:10034000DF90CF90BF90AF900895FC01538D448D06
:10035000252F30E0842F90E0821B930B541710F070
:10036000CF96089501970895FC01918D828D98177D
:1003700061F0A28DAE0FBF2FB11D5D968C91928D55
:100380009F5F9F73928F90E008958FEF9FEF089586
:10039000FC01918D828D981731F0828DE80FF11D4F
:1003A000858D90E008958FEF9FEF0895FC01918D6A
:1003B000228D892F90E0805C9F4F821B91098F7363
:1003C0009927089586E596E00E94D60121E0892BC1
:1003D00009F420E0822F089580E090E0892B29F035
:1003E0000E94E20181110C9400000895FC01A48D8B
:1003F000A80FB92FB11DA35ABF4F2C91848D90E047
:1004000001968F739927848FA689B7892C93A08929
:10041000B1898C91837080648C93938D848D9813B3
:1004200006C00288F389E02D80818F7D8083089546
:10043000EF92FF920F931F93CF93DF93EC0181E034
:10044000888F9B8D8C8D98131AC0E889F9898081DB
:1004500085FF15C09FB7F894EE89FF896083E8890E
:10046000F98980818370806480839FBF81E090E000
:10047000DF91CF911F910F91FF90EF900895F62E8D
:100480000B8D10E00F5F1F4F0F731127E02E8C8D27
:100490008E110CC00FB607FCFACFE889F98980816C
:1004A00085FFF5CFCE010E94F601F1CFEB8DEC0F69
:1004B000FD2FF11DE35AFF4FF0829FB7F8940B8F89
:1004C000EA89FB8980818062CFCFCF93DF93EC01F3
:1004D000888D8823B9F0AA89BB89E889F9898C912C
:1004E00085FD03C0808186FD0DC00FB607FCF7CFE8
:1004F0008C9185FFF2CF808185FFEDCFCE010E94E8
:10050000F601E9CFDF91CF910895089508952091E4
:10051000C701260F3327331F21323105ECF4209118
:100520002806FC0190E080E0243069F082E0089524
:10053000A091C7012191AC0149555E4FA40FB52F81
:10054000B11D2C930196861798F38091C701680F0F
:100550006093C70180E0089581E008951092280615
:1005600081E0809327061092020661E082E10E94FA
:10057000A60061E083E10E94A600E9EBF0E0808143
:100580008E7F808380818D7F808388E48093B80014
:1005900085E48093BC000895CF93DF9391E090931E
:1005A000A6018823B9F0C091B800D091BA0080911B
:1005B000BC008A7B8093BC0060E082E10E94A600C0
:1005C00060E083E10E94A6000E94AE02D093BA00D0
:1005D000C093B800DF91CF9108958F929F92AF9210
:1005E000BF92CF92DF92EF92FF920F931F93CF9320
:1005F000DF93D0915106D13208F0D7C0182FC091A7
:1006000050060E94F2006B017C0180912806811146
:100610006BC082E080932806109327068FEF8093AB
:10062000260610922506D0932406A0E3B6E0E4E067
:10063000F6E080E0D81391C0109203068091030683
:10064000CC0FC82BC093030680910206813009F0BD
:1006500088C0109202060E94F2006B017C0180911A
:1006600003068093BB0080912A0690912B06A091EF
:100670002C06B0912D06892B8A2B8B2BA1F00E9482
:10068000F20000912A0610912B0620912C06309141
:100690002D066C197D098E099F0906171707280773
:1006A000390708F442C08091BC0083FDD8CF85ECA7
:1006B0008093BC000E94F2006B017C0180912806AF
:1006C000823009F450C0809126068F3F09F46FC034
:1006D00080912606803209F46CC080912606803312
:1006E00009F469C084E026C080912A0690912B0607
:1006F000A0912C06B0912D06892B8A2B8B2B09F407
:1007000084CF0E94F20080902A0690902B06A09041
:100710002C06B0902D066C197D098E099F0986164E
:100720009706A806B90608F070CF809129060E94A6
:10073000CC0285E010922F061092510610922E06E0
:10074000DF91CF911F910F91FF90EF90DF90CF90AD
:10075000BF90AF909F908F9008959D9191938F5FE0
:1007600069CF85EEA5CF80912A0690912B06A091A6
:100770002C06B0912D06892B8A2B8B2B09F49ECF4A
:100780000E94F20000912A0610912B0620912C065F
:1007900030912D066C197D098E099F0906171707E0
:1007A0002807390708F08ACFC0CF81E0C3CF80E0A7
:1007B000C1CF82E0BFCF83E0BDCF0895E091E105D6
:1007C0008091E005E81730F4F0E0EE51FA4F8081B7
:1007D00090E008958FEF9FEF08959091E10580914B
:1007E000E0052FEF3FEF981748F4E92FF0E0EE51C6
:1007F000FA4F208130E09F5F9093E105C901089591
:100800008091E0059091E105891B990B0895CF92A5
:10081000DF92EF92FF920F931F93CF93DF937C01B0
:10082000CB018A0120912E06222389F0EB016B0176
:10083000C40ED51ECC15DD0569F06991D701ED9187
:10084000FC910190F081E02DC7010995F3CF642F51
:100850000E948702C801DF91CF911F910F91FF90F5
:10086000EF90DF90CF900895CF93DF931F92CDB795
:10087000DEB7698320912E062223F9F020915106DC
:10088000203258F021E030E0FC013383228390E0F5
:1008900080E00F90DF91CF91089580912F06E82F8F
:1008A000F0E0E05DF94F998190838F5F80932F0690
:1008B0008093510681E090E0ECCF61E0CE0101969B
:1008C0000E948702F7CFCF93C42FFC01808191E073
:1008D00090932E068093500610922F061092510688
:1008E00083EF96E00E9434046C2F83EF96E00E9421
:1008F000340481E0CF910C94ED02CF93DF93EC01AF
:100900001092E1051092E00510922F061092510608
:100910000E94AE0285E892E09093ED018093EC0195
:1009200086E892E09093EB018093EA0140E060E07A
:10093000CE01DF91CF910C94630490E080E00895A4
:100940000895CF93DF93FC0101900020E9F73197E0
:10095000AF01481B590BBC0186E596E00E94780167
:10096000EC0142E050E06AE271E086E596E00E9428
:1009700078018C0F9D1FDF91CF9108958F929F92E8
:10098000AF92BF92CF92DF92EF92FF920F931F939D
:10099000CF93DF93EC01888191E090932E068093B2
:1009A000500610922F061092510660E083EF96E0F9
:1009B0000E94340481E00E94ED0218810E94F2003E
:1009C0006B017C0180912806811164C081E08093D5
:1009D0002806809327069FEF9093260610922506FF
:1009E000109224068093030680910306110F182BA2
:1009F0001093030680910206813009F0A3C0109283
:100A000002060E94F2006B017C0180910306809334
:100A1000BB0080912A0690912B06A0912C06B091E4
:100A20002D06892B8A2B8B2BA1F00E94F2000091BE
:100A30002A0610912B0620912C0630912D066C1958
:100A40007D098E099F09061717072807390708F43B
:100A500042C08091BC0083FDD8CF85EC8093BC0060
:100A60000E94F2006B017C0180912806813009F41C
:100A70006BC080912506811189C080912506A4E074
:100A8000B6E0E2EEF5E090E0981751F12D91219358
:100A90009F5FFACF80912A0690912B06A0912C0699
:100AA000B0912D06892B8A2B8B2B09F48BCF0E94BA
:100AB000F20080902A0690902B06A0902C06B09011
:100AC0002D066C197D098E099F0986169706A806C2
:100AD000B90608F077CF809129060E94CC0280E009
:100AE0001092E1058093E00583EF96E00E94ED030C
:100AF000182F482F4F76406160E0CE010E946304BA
:100B00004CE36EEFCE010E946304412F60E0CE0102
:100B10000E94630465E070E080E090E00E941701AD
:100B2000412F416A60E0CE01DF91CF911F910F917B
:100B3000FF90EF90DF90CF90BF90AF909F908F90FD
:100B40000C94630485EE8ACF80912A0690912B063F
:100B5000A0912C06B0912D06892B8A2B8B2B09F4A2
:100B600083CF0E94F20000912A0610912B0620915B
:100B70002C0630912D066C197D098E099F090617E8
:100B800017072807390708F06FCFA5CF81E077CF87
:100B900085ED8093BC0080912A0690912B06A09150
:100BA0002C06B0912D060796A11DB11D23E0B69528
:100BB000A795979587952A95D1F72091BC0024FD9C
:100BC00003C010922806089540912A0650912B06E2
:100BD00060912C0670912D06452B462B472B69F30F
:100BE0000097A105B10541F025E32A95F1F7000032
:100BF0000197A109B109E1CF809129060C94CC029B
:100C00000F931F93CF93DF93CDB7DEB7DA950FB66F
:100C1000F894DEBF0FBECDBF80911305813079F00F
:100C20008DE291E00E94A104D3950FB6F894DEBF47
:100C30000FBECDBFDF91CF911F910F910895F89412
:100C400078948E010F5F1F4F80E091E0F8019C01C6
:100C5000119221503040E1F7AE01475F5E4FC95F0E
:100C6000DE4F68817981C750D140C8010E94820C53
:100C7000C801D8CF1F920F920FB60F9211242F9355
:100C80003F938F939F93AF93BF9380915206909120
:100C90005306A0915406B09155063091DB0523E030
:100CA000230F2D3758F50196A11DB11D2093DB05AB
:100CB0008093520690935306A0935406B093550622
:100CC0008091DC059091DD05A091DE05B091DF05F6
:100CD0000196A11DB11D8093DC059093DD05A093C5
:100CE000DE05B093DF05BF91AF919F918F913F914A
:100CF0002F910F900FBE0F901F90189526E8230F8D
:100D00000296A11DB11DD2CF1F920F920FB60F9266
:100D100011242F933F934F935F936F937F938F9300
:100D20009F93AF93BF93EF93FF93E0910201F091F4
:100D300003010995FF91EF91BF91AF919F918F9121
:100D40007F916F915F914F913F912F910F900FBEC7
:100D50000F901F9018951F920F920FB60F921124AB
:100D60002F933F934F935F936F937F938F939F93B3
:100D7000AF93BF93EF93FF93E0910001F0910101D6
:100D80000995FF91EF91BF91AF919F918F917F91C5
:100D90006F915F914F913F912F910F900FBE0F90E8
:100DA0001F9018951F920F920FB60F9211242F9338
:100DB0003F934F935F936F937F938F939F93AF93E3
:100DC000BF93EF93FF9386E596E00E94F601FF91B3
:100DD000EF91BF91AF919F918F917F916F915F91B3
:100DE0004F913F912F910F900FBE0F901F9018952C
:100DF0001F920F920FB60F9211242F938F939F93F0
:100E0000EF93FF93E0916606F09167068081E09191
:100E10006C06F0916D0682FD1BC0908180916F067B
:100E20008F5F8F7320917006821741F0E0916F06FB
:100E3000F0E0EA5AF94F958F80936F06FF91EF919A
:100E40009F918F912F910F900FBE0F901F9018952B
:100E50008081F4CF1F920F920FB60F9211242F931F
:100E60003F934F935F936F937F938F939F93AF9332
:100E7000BF93EF93FF938091B900887F803609F488
:100E80004AC0F0F5883209F4A7C018F5803109F49A
:100E90009BC0B8F4882309F4F9C0883009F494C0E1
:100EA000FF91EF91BF91AF919F918F917F916F9142
:100EB0005F914F913F912F910F900FBE0F901F9018
:100EC0001895883109F488C0803251F7809326063E
:100ED00014C0803409F49DC040F48033B9F38833E2
:100EE000F9F68093260685ECB0C0803509F485C0FC
:100EF000883509F496C0883499F60E94C805D0CF89
:100F0000883909F48CC038F5883729F050F48836D0
:100F100011F0803729F683E0809328061092E901CA
:100F200057C0883809F47BC0803919F0803809F03F
:100F3000B7CF8091E901803208F071C0E091E901FA
:100F400081E08E0F8093E9018091BB00F0E0E753D0
:100F5000FE4F80833DC0803B39F0E0F4803A09F4D5
:100F600079C0883A09F09CCF84E0809328061092DB
:100F7000C8011092C701E091EC01F091ED010995D3
:100F80008091C70181110FC081E08093C701109249
:100F9000A70109C0803C09F4A6CF883C09F4A3CF7F
:100FA000883B09F07DCFE091C80181E08E0F8093EE
:100FB000C801F0E0E955FE4F80818093BB0090911D
:100FC000C8018091C70129C0809103068093BB00AE
:100FD00085EC8093BC0064CF909125068091240617
:100FE000981758F5E091250681E08E0F809325062D
:100FF000F0E0EC5FF94F8081E9CFE091250681E0D8
:101000008E0F809325068091BB00F0E0EC5FF94FD6
:10101000808390912506809124069817C8F285E870
:10102000D8CFE091250681E08E0F80932506809130
:10103000BB00F0E0EC5FF94F8083809127068111BF
:101040005CCF81E08093020684EA8093BC0010921A
:10105000280626CF85EC8093BC001092280680914C
:10106000E901803230F4E091E901F0E0E753FE4F0E
:1010700010826091E90170E0E091EA01F091EB01EA
:1010800089EC91E009951092E9010ACF10922606A9
:1010900034CF1F920F920FB60F9211242F933F93CC
:1010A0004F935F936F937F938F939F93AF93BF9370
:1010B000EF93FF93E0910401F09105010995FF91F1
:1010C000EF91BF91AF919F918F917F916F915F91C0
:1010D0004F913F912F910F900FBE0F901F90189539
:1010E0004F925F926F927F928F929F92AF92BF9238
:1010F000CF92DF92EF92FF920F931F93CF93DF93E4
:10110000CDB7DEB74C0127013801DC015F965C9357
:101110004E935E975D967C936E935C9791963C930D
:101120002E939097DA961C92FC0112AA13AA14AA85
:1011300015AA80E090E0AFE7B3E486AB97ABA0AF31
:10114000B1AF84E690E0A0E0B0E086A797A7A0AB9F
:10115000B1AB118E108E20E030E0A901C801B701BB
:101160000E94230B87FD53C020E030E0A901C60197
:10117000B5010E94230B87FD4AC020E030E0A901A1
:101180006B897C898D899E890E94230B87FD3FC0D6
:1011900081E090E0D4015B969C938E935A97DB9606
:1011A0008C93DB97F40140825182628273821496A1
:1011B000AD92BD92CD92DC9217978B899C89AD89B7
:1011C000BE8980879187A287B387448655866686C5
:1011D00077862DEC3CEC4CEC5DE3C601B5010E943A
:1011E0000F0CF401608B718B828B938B2DEC3CEC9C
:1011F0004CEC5DE36B897C898D899E890E94280B6C
:10120000D40154966D937D938D939C9357972FB7EC
:10121000F8948091520690915306A0915406B09193
:1012200055062FBFF40146A557A560A971A9841BD7
:10123000950BA60BB70B82A393A3A4A3B5A3DF9131
:10124000CF911F910F91FF90EF90DF90CF90BF90C3
:10125000AF909F908F907F906F905F904F90089588
:101260007F928F929F92AF92BF92CF92DF92EF9236
:10127000FF920F931F93CF93DF93E6E5F6E013827F
:10128000128288EE93E0A0E0B0E084839583A68389
:10129000B7832AE031E03183208325EC30E03587C5
:1012A000248724EC30E03787268720EC30E0318B30
:1012B000208B21EC30E0338B228B22EC30E0358B1D
:1012C000248B26EC30E0378B268B118E128E138EFA
:1012D000148EE3EFF6E01382128284839583A68353
:1012E000B7838CE191E09183808381E48093000750
:1012F00082E48093FF068EE3782E7F929CE4892E11
:101300008F922CEC922E9F92DDECDF93A12CB12CCE
:101310006501E12CF12C00E810E422E037E046E022
:1013200057E06AE077E08EE097E00E947008C3E43F
:10133000C0930107C0934A077F928F929F92DF93D9
:1013400024E937E048E957E06CE977E080EA97E084
:101350000E9470087F928F929F92DF932CE437E077
:1013600040E557E064E577E088E597E00E94700883
:10137000C0934B078DB79EB70C960FB6F8949EBFDF
:101380000FBE8DBFDF91CF911F910F91FF90EF9016
:10139000DF90CF90BF90AF909F908F907F900895F7
:1013A000CF93DF93CDB7DEB762970FB6F894DEBF69
:1013B0000FBECDBF789484B5826084BD84B5816052
:1013C00084BD85B5826085BD85B5816085BD809110
:1013D0006E00816080936E00109281008091810088
:1013E0008260809381008091810081608093810080
:1013F000809180008160809380008091B100846042
:101400008093B1008091B00081608093B0008091A2
:101410007A00846080937A0080917A008260809361
:101420007A0080917A00816080937A0080917A00BE
:10143000806880937A001092C100E0916606F09176
:10144000670682E08083E0916206F0916306108275
:10145000E0916406F091650690E1908310926E062B
:10146000E0916A06F0916B0686E08083E091680661
:10147000F0916906808180618083E0916806F09137
:101480006906808188608083E0916806F091690632
:10149000808180688083E0916806F0916906808190
:1014A0008F7D808310920F05109210051092110508
:1014B00010921205EFEEF1E020E233E0DF01A90126
:1014C0001D9241505040E1F79093810010928000AE
:1014D00081E08093EE0120E43FE130938700209388
:1014E000860091E19093810029E431E03093050179
:1014F0002093040180936F00109281001092850068
:10150000109284009091EE019061909381008093FD
:101510001305E5E1F5E080E090E0DC018083918354
:10152000A283B383148215821682178210861286D4
:1015300011860196A11DB11D3B9682319105A10531
:10154000B10561F780E097E00E947D0480E097E0BC
:101550000E94BE048FEF96E00E947D048FEF96E01C
:101560000E94BE041FB7F89480911405811124C015
:10157000EAE9F0E08491EEEAF0E09491E82FF0E0FF
:10158000EE0FFF1FEA57FF4FA591B491EC91E923AD
:1015900021F461E08AE00E94A6008AE00E948700B0
:1015A0008CB580618CBD8CB580648CBD8DE00E9453
:1015B00087008BE00E948700809114058F5F8093E5
:1015C00014051FBF61E08AE00E94A6008FE391E04E
:1015D0000E94A10461E070E080E090E00E941701A9
:1015E0000CE411E080E0E82E80E0F82EDE01119698
:1015F000E5E1F5E080858D933B9655E0EB3DF50701
:10160000C9F71F930F930E9400061F930F930E9428
:1016100000068CE591E00E94A10487E791E00E941A
:10162000A1048DE891E00E94A1040F900F900F900B
:101630000F90E114F104D1F20E94E2018823B1F28B
:101640000E940000D3CF0E949A0B08F481E0089515
:101650000E943C0B0C94D50B0E94CE0B58F00E94BC
:10166000C70B40F029F45F3F29F00C94BE0B5111D9
:101670000C94090C0C94C40B0E94E60B68F399239C
:10168000B1F3552391F3951B550BBB27AA2762177E
:101690007307840738F09F5F5F4F220F331F441F8B
:1016A000AA1FA9F335D00E2E3AF0E0E832D09150BF
:1016B0005040E695001CCAF72BD0FE2F29D0660FAC
:1016C000771F881FBB1F261737074807AB07B0E8EF
:1016D00009F0BB0B802DBF01FF2793585F4F3AF0F5
:1016E0009E3F510578F00C94BE0B0C94090C5F3FA3
:1016F000E4F3983ED4F3869577956795B795F7957B
:101700009F5FC9F7880F911D9695879597F9089562
:10171000E1E0660F771F881FBB1F621773078407FE
:10172000BA0720F0621B730B840BBA0BEE1F88F70D
:10173000E0950895990F0008550FAA0BE0E8FEEF19
:1017400016161706E807F907C0F012161306E40785
:10175000F50798F0621B730B840B950B39F40A267E
:1017600061F0232B242B252B21F408950A2609F45C
:10177000A140A6958FEF811D811D089597F99F6760
:1017800080E870E060E008959FEF80EC0895002409
:101790000A941616170618060906089500240A94D6
:1017A00012161306140605060895092E0394000C5C
:1017B00011F4882352F0BB0F40F4BF2B11F460FFEB
:1017C00004C06F5F7F4F8F4F9F4F089557FD905814
:1017D000440F551F59F05F3F71F04795880F97FBF5
:1017E000991F61F09F3F79F08795089512161306AF
:1017F0001406551FF2CF4695F1DF08C016161706DE
:101800001806991FF1CF8695710561050894089512
:10181000E894BB2766277727CB0197F908950E94A4
:10182000220C0C94D50B0E94C70B38F00E94CE0BF3
:1018300020F0952311F00C94BE0B0C94C40B1124D2
:101840000C94090C0E94E60B70F3959FC1F3950F61
:1018500050E0551F629FF001729FBB27F00DB11D34
:10186000639FAA27F00DB11DAA1F649F6627B00DC4
:10187000A11D661F829F2227B00DA11D621F739FAD
:10188000B00DA11D621F839FA00D611D221F749FBB
:101890003327A00D611D231F849F600D211D822F02
:1018A000762F6A2F11249F5750409AF0F1F0882329
:1018B0004AF0EE0FFF1FBB1F661F771F881F915056
:1018C0005040A9F79E3F510580F00C94BE0B0C943C
:1018D000090C5F3FE4F3983ED4F3869577956795BE
:1018E000B795F795E7959F5FC1F7FE2B880F911D80
:1018F0009695879597F90895EE0FFF1F0590F4913F
:10190000E02D0994AEE0B0E0E8E8FCE00C942B0F89
:101910008C0186E08C831A8309838FEF9FE79E8377
:101920008D83CE0101960E949F0C2F813885020F76
:10193000131FF80110822E96E4E00C94470FABE0E1
:10194000B0E0E5EAFCE00C941D0F7C013B018A014C
:10195000FC0117821682838181FFC8C1CE010196E6
:101960005C01F7019381F30193FD859193FF8191D0
:101970003F01882309F453C1853239F493FD8591E1
:1019800093FF81913F01853229F4B70190E00E94D5
:101990008F0EE7CF912C212C312CFFE1F31538F07D
:1019A0008B3211F190F4803209F1833229F137FC46
:1019B0003CC020ED280F2A3050F536FE20C08AE0CA
:1019C000989E200D1124922E06C08D3291F0803306
:1019D00071F7689430F8F30193FD859193FF81913D
:1019E0003F018111DACF21C0689431F8689432F850
:1019F000F2CF689433F8EFCF689434F8ECCFEAE094
:101A00002E9E200D1124222E689435F8E4CF8E32BC
:101A100029F436FC04C1689436F8DDCF8C3619F40D
:101A2000689437F8D8CF8836B1F2982F9F7D9554B7
:101A30009330E0F08336A1F18337C1F1833509F0AB
:101A400063C02801F2E04F0E511CF801C080D18024
:101A5000692D70E036FC02C06FEF7FEFC6010E9477
:101A6000790E4C01689437F882010AC00C5F1F4F51
:101A7000FFE3F98388248394912C6501E89437F877
:101A800033FE2DC0522C8114910471F5552009F4B8
:101A900068CFB70180E290E00E948F0E5A94F6CF93
:101AA000F801808189830E5F1F4FE4CF2801F2E0A7
:101AB0004F0E511CF801C080D180692D70E036FCBA
:101AC00002C06FEF7FEFC6010E94840E4C018201BD
:101AD000D5CFB70180E290E00E948F0E2A9428149F
:101AE000190409F0B0F7CECFF60137FC859137FE27
:101AF00081916F01B70190E00E948F0E51105A94AE
:101B0000F1E08F1A9108BFCF843619F0893609F0B9
:101B100077C0F80137FE6BC060817181828193814B
:101B20000C5F1F4FF32DFF763F2E97FF09C0909556
:101B30008095709561957F4F8F4F9F4F689437F8D0
:101B40002AE030E0A5010E94BF0EC82ECA188C2CD6
:101B5000432C36FE0CC0E89440F8C91440F434FE1F
:101B600005C032FC03C0F32DFE7E4F2E892C44FEAF
:101B700095C0FE01EC0DF11D8081803309F087C016
:101B8000242D297E422E842D8870582E43FC95C02A
:101B900040FE8FC09C2C821418F42C0C922C9818A8
:101BA00044FE91C0B70180E390E00E948F0E42FE98
:101BB00009C088E790E041FE02C088E590E0B701E7
:101BC0000E948F0EC91408F48AC0CA94D12C9FEFCA
:101BD000C91AD90ACA0CDB1CF60182916F01B70140
:101BE00090E00E948F0EAC14BD04B1F74FCF60811E
:101BF0007181072E000C880B990B0E5F1F4F92CF3F
:101C0000D32CE894D4F82AE030E0853739F1232D3D
:101C1000297FD22E8F3601F148F48835A9F0F701DB
:101C2000868197812B96E2E10C94390F803749F039
:101C30008837A9F7D4FE02C06894D2F820E130E0DA
:101C40000DC06894D4F8F6CF34FE03C0822F8660AE
:101C5000D82E20E132E002C028E030E0F801D7FEC3
:101C60000FC060817181828193810C5F1F4FA5013C
:101C70000E94BF0EC82ECA183D2CE89437F867CFD3
:101C80006081718190E080E00E5F1F4FF0CF42FCD9
:101C900002C0839478CF8394839475CF842D867803
:101CA00009F471CFF6CFB70180E290E00E948F0E69
:101CB00083948214C0F3512C73CF522C5818821481
:101CC00008F46ECFF8CF842D867809F47BCF8BE2B1
:101CD00041FE80E247FC8DE2B70190E071CFB70191
:101CE00080E390E00E948F0E9A946CCF8FEF9FEF6D
:101CF00099CFFC010590615070400110D8F7809594
:101D000090958E0F9F1F0895FC01615070400190C7
:101D10000110D8F7809590958E0F9F1F08950F930F
:101D20001F93CF93DF93182F092FEB018B8181FD38
:101D300009C01FEF0FEF812F902FDF91CF911F91DF
:101D40000F91089582FF14C02E813F818C819D8167
:101D5000281739073CF4E881F981CF01019699836E
:101D6000888310838E819F8101969F838E83E3CF2A
:101D7000E885F985812F0995892BA1F3DACFFA013E
:101D8000AA27283051F1203181F1E8946F936E7FBA
:101D90006E5F7F4F8F4F9F4FAF4FB1E03ED0B4E0AB
:101DA0003CD0670F781F891F9A1FA11D680F791FEC
:101DB0008A1F911DA11D6A0F711D811D911DA11DFD
:101DC00020D009F468943F912AE0269F112430190D
:101DD000305D3193DEF6CF010895462F4770405DA8
:101DE0004193B3E00FD0C9F7F6CF462F4F70405D57
:101DF0004A3318F0495D31FD4052419302D0A9F7B2
:101E0000EACFB4E0A6959795879577956795BA95AB
:101E1000C9F700976105710508959B01AC010A2E71
:101E200006945795479537952795BA95C9F7620F48
:101E3000731F841F951FA01D08952F923F924F92EC
:101E40005F926F927F928F929F92AF92BF92CF924A
:101E5000DF92EF92FF920F931F93CF93DF93CDB753
:101E6000DEB7CA1BDB0B0FB6F894DEBF0FBECDBFCB
:101E700009942A88398848885F846E847D848C849C
:101E80009B84AA84B984C884DF80EE80FD800C81A5
:101E90001B81AA81B981CE0FD11D0FB6F894DEBF88
:101EA0000FBECDBFED010895F894FFCF7701770104
:101EB000A0040000000018027801A5016502D60107
:101EC000B401C80100000000340407049D04DD03D0
:101ED0000004ED03DE030D0A002053797374656D71
:101EE000206E6F7420696E69742000537973746575
:101EF0006D20537461727400E5BC95E695B0E38281
:101F0000A8E383A9E383BC005741524E494E4720C2
:101F10002D2D2D204E4F4E205343454E45202D2D27
:101F20002D0A000A2D2D2D20544553542053544181
:101F30005254202D2D2D2D0A000A2D2D2D20454ED9
:081F400044202D2D2D2D0A0077
:107E0000112484B714BE81FFF0D085E080938100F7
:107E100082E08093C00088E18093C10086E0809377
:107E2000C20080E18093C4008EE0C9D0259A86E02C
:107E300020E33CEF91E0309385002093840096BBD3
:107E4000B09BFECF1D9AA8958150A9F7CC24DD24C4
:107E500088248394B5E0AB2EA1E19A2EF3E0BF2EE7
:107E6000A2D0813461F49FD0082FAFD0023811F036
:107E7000013811F484E001C083E08DD089C08234E0
:107E800011F484E103C0853419F485E0A6D080C0E4
:107E9000853579F488D0E82EFF2485D0082F10E0AE
:107EA000102F00270E291F29000F111F8ED06801E7
:107EB0006FC0863521F484E090D080E0DECF843638
:107EC00009F040C070D06FD0082F6DD080E0C81688
:107ED00080E7D80618F4F601B7BEE895C0E0D1E017
:107EE00062D089930C17E1F7F0E0CF16F0E7DF06D8
:107EF00018F0F601B7BEE89568D007B600FCFDCFD4
:107F0000A601A0E0B1E02C9130E011968C91119780
:107F100090E0982F8827822B932B1296FA010C0160
:107F200087BEE89511244E5F5F4FF1E0A038BF0790
:107F300051F7F601A7BEE89507B600FCFDCF97BE46
:107F4000E89526C08437B1F42ED02DD0F82E2BD052
:107F50003CD0F601EF2C8F010F5F1F4F84911BD097
:107F6000EA94F801C1F70894C11CD11CFA94CF0C13
:107F7000D11C0EC0853739F428D08EE10CD085E9AC
:107F80000AD08FE07ACF813511F488E018D01DD067
:107F900080E101D065CF982F8091C00085FFFCCF94
:107FA0009093C60008958091C00087FFFCCF809118
:107FB000C00084FD01C0A8958091C6000895E0E648
:107FC000F0E098E1908380830895EDDF803219F02E
:107FD00088E0F5DFFFCF84E1DECF1F93182FE3DFCA
:107FE0001150E9F7F2DF1F91089580E0E8DFEE27F6
:047FF000FF270994CA
:027FFE00040479
:00000001FF
