:020000040000FA
:100000000C945B010C94E30E0C94B80E0C948D0EC2
:100010000C94620E0C94370E0C940C0E0C94E10DA3
:100020000C94B60D0C948C010C948C010C948C01E6
:100030000C948C010C948C010C948C010C948C010C
:100040000C948C010C948C010C948C010C948C01FC
:100050000C9492100C948C010C948C010C946C0DEB
:100060000C948C010C94380F0C940E0F0C948C0192
:100070000C948C010C948C010C948C010C948C01CC
:100080000C948C010C948C010C948C010C948C01BC
:100090000C948C010C948C010C948C010C946E0FBC
:1000A0000C948C010C948C010C948C010C948C019C
:1000B0000C948C010C948C010C948C010C948C018C
:1000C0000C948C010C948C010C948C010C948C017C
:1000D0000C948C010C948C010C948C010C948C016C
:1000E0000C948C010C9413020C94E20C0C94EA0115
:1000F0000C94A4080C9453050C94F0010C94C004C7
:100100000C9406050C94DB070C94F4010C94380D48
:100110000C94C1070C94DC030C946F040C9405023E
:100120000C94B2070C940F020C9408080C9425024E
:100130000C94F8010C942A020C9470040C940A0C90
:100140000C9477030C942F020C94CE040C941D0293
:100150000C94FF010C9412030C9409020C94A70850
:100160000C94FC010C949D040C9421020C94AC049E
:100170000C9441040C945A060C9417020C945906E2
:100180000C94D4070C940D0D0C94BD100C94B10775
:100190000C942B0200002100240027002A002D00CF
:1001A0003000330001010000040107010A010000D2
:1001B0002200250028002B002E003100340002010F
:1001C0000000050108010B010000200023002600AB
:1001D00029002C002F00320000010000030106015D
:1001E00009010505050507050808080802020202BD
:1001F0000A0A0808040404040101010101010101C3
:100200000303030303030303040707070C0C0C0C8D
:100210000C0C0C0C02020202060606060606060676
:100220000B0B0B0B0B0B0B0B010210202008081003
:100230002040102040800201020108040201010256
:10024000040810204080804020100804020180042F
:10025000020180402010080402010804020101028A
:100260000408102040800102040810204080000093
:100270000A0B02090C0D0E08070304010000000020
:10028000000000000000000000000000000000006E
:10029000000000000000000000001211100000002B
:1002A000000000000000000000000000000000004E
:1002B00000000000BD1011241FBECFEFD1E2DEBF51
:1002C000CDBF00E00CBF12E1A0E0B2E0E8E5F1E450
:1002D00000E00BBF02C007900D92A832B107D9F71A
:1002E00028E1A8E2B2E101C01D92AE39B207E1F700
:1002F00011E0CBE5D1E000E006C021970109802F95
:10030000FE010E94CB1DCA35D10780E00807A9F77E
:100310000E945D110C94AA200C940000CF92DF92F1
:10032000EF92FF92CF93DF93EC016EA57FA588A992
:1003300099A90E944F1C9B01AC0160E070E088EC21
:1003400091E40E94A71B6B017C01AC019B016889B1
:1003500079898A899B890E945E1D688B798B8A8B3B
:100360009B8BA70196016C897D898E899F890E944C
:10037000A71B6C8B7D8B8E8B9F8B89E190E0A0E01F
:10038000B0E08EA79FA7A8ABB9ABDF91CF91FF904C
:10039000EF90DF90CF9008958150823108F05AC0DD
:1003A000E82FF0E08827E852FE4F8F4F0C94CB1DCA
:1003B000F801FC01EA01F001F4012A02FF01050243
:1003C00009020F02130217021D0221022A0225024E
:1003D0002B022F02809180008F77809380000895F8
:1003E000809180008F7DF9CF80918000877FF5CF4D
:1003F00084B58F7784BD089584B58F7DFBCF8091C0
:10040000B0008F778093B00008958091B0008F7D09
:10041000F9CF809190008F7780939000089580911C
:1004200090008F7DF9CF80919000877FF5CF8091EC
:10043000A0008F778093A00008958091A0008F7D09
:10044000F9CF8091A000877FF5CF809120018F7731
:10045000809320010895809120018F7DF9CF8091B4
:100460002001877FF5CFCF93DF93282F30E0F9016C
:10047000E259FD4F8491F901E85DFD4FD491F901F6
:10048000EE51FE4FC491CC23A1F081110E94CC010A
:10049000EC2FF0E0EE0FFF1FE853FE4FA591B49153
:1004A000EC91ED2381E090E009F480E0DF91CF91C1
:1004B000089580E090E0FACF1F93CF93DF93282F29
:1004C00030E0F901E259FD4F8491F901E85DFD4FFB
:1004D000D491F901EE51FE4FC491CC23A9F0162F0F
:1004E00081110E94CC01EC2FF0E0EE0FFF1FE255CE
:1004F000FE4FA591B4918FB7F894EC91111108C0FB
:10050000D095DE23DC938FBFDF91CF911F910895AB
:10051000DE2BF8CFCF93DF9390E0FC01E85DFD4F39
:1005200024918E519E4FFC0184918823D1F090E05C
:10053000880F991FFC01EC56FE4FA591B491FC0168
:10054000E255FE4FC591D49161110EC09FB7F8944A
:100550008C91E22FE0958E238C932881E223E8830F
:100560009FBFDF91CF9108958FB7F894EC91E22B64
:10057000EC938FBFF6CF3FB7F8948091C01690915F
:10058000C116A091C216B091C31626B5A89B05C08E
:100590002F3F19F00196A11DB11D3FBFBA2FA92F02
:1005A000982F8827BC01CD01620F711D811D911DFF
:1005B00042E0660F771F881F991F4A95D1F708956B
:1005C0008F929F92AF92BF92CF92DF92EF92FF9263
:1005D0004B015C010E94BB026B017C010E94BB02CB
:1005E0006C197D098E099F09683E7340810591054C
:1005F000A8F321E0821A9108A108B10888EEC80E7C
:1006000083E0D81EE11CF11C81149104A104B10403
:1006100029F7FF90EF90DF90CF90BF90AF909F9021
:100620008F900895CF92DF92EF92FF92CF93DF9356
:1006300082E10E943302C091AC12D091AD120197B9
:1006400039F488E10E943302892B39F4219706C0DE
:1006500088E10E943302892BC9F72196D093AD120D
:10066000C093AC126091AC127091AD12072E000CC9
:10067000880B990B0E94511C6B017C012FE832EC16
:100680004DE850E40E94591D1816F4F42FE832EC9E
:100690004DE850E4C701B6010E94351B0E94191CA9
:1006A0007093AD126093AC128091AE129091AF1224
:1006B00001969093AF128093AE12DF91CF91FF908D
:1006C000EF90DF90CF9008952FE832EC4DE850EC9A
:1006D000C701B6010E94A21B87FFEFCF2FE832ECC3
:1006E0004DE850E4C701B6010E94361BD7CFCF9228
:1006F000DF92EF92FF92CF93DF9382E00E9433026A
:10070000C091A612D091A712019739F486E10E94F8
:100710003302892B39F4219706C086E10E94330207
:10072000892BC9F72196D093A712C093A612609186
:10073000A6127091A712072E000C880B990B0E942D
:10074000511C6B017C0126E636E64EEB51E40E941B
:10075000591D1816F4F426E636E64EEB51E4C701AF
:10076000B6010E94351B0E94191C7093A71260935A
:10077000A6128091AA129091AB1201969093AB129F
:100780008093AA12DF91CF91FF90EF90DF90CF90EE
:10079000089526E636E64EEB51ECC701B6010E94FD
:1007A000A21B87FFEFCF26E636E64EEB51E4C701EA
:1007B000B6010E94361BD7CFCF92DF92EF92FF9205
:1007C000CF93DF9383E00E943302C091A412D091B3
:1007D000A512019739F487E10E943302892B39F47D
:1007E000219706C087E10E943302892BC9F7219621
:1007F000D093A512C093A4126091A4127091A51277
:10080000072E000C880B990B0E94511C6B017C0178
:1008100026E636E64EEB51E40E94591D1816F4F414
:1008200026E636E64EEB51E4C701B6010E94351BC1
:100830000E94191C7093A5126093A4128091A812B3
:100840009091A91201969093A9128093A812DF911A
:10085000CF91FF90EF90DF90CF90089526E636E697
:100860004EEB51ECC701B6010E94A21B87FFEFCFF0
:1008700026E636E64EEB51E4C701B6010E94361B70
:10088000D7CF80919F129091A012A091A112B09108
:10089000A2120196A11DB11D80939F129093A012E8
:1008A000A093A112B093A212EFE9F3E180819181AC
:1008B000A281B381892B8A2B8B2B59F0848195815E
:1008C000A681B7810196A11DB11D84839583A6835E
:1008D000B783709686E1EF3BF80741F708950895D6
:1008E000AF92BF92CF92DF92EF92FF920F931F933E
:1008F000CF93DF936C017B018B01040F151FEB017C
:100900005E01AE18BF08C017D10759F06991D60132
:10091000ED91FC910190F081E02DC6011995892B94
:1009200079F7C501DF91CF911F910F91FF90EF9063
:10093000DF90CF90BF90AF900895FC01538D448D10
:10094000252F30E0842F90E0821B930B541710F07A
:10095000CF96089501970895FC01918D828D981787
:1009600061F0A28DAE0FBF2FB11D5D968C91928D5F
:100970009F5F9F73928F90E008958FEF9FEF089590
:10098000FC01918D828D981731F0828DE80FF11D59
:10099000858D90E008958FEF9FEF0895FC01918D74
:1009A000228D892F90E0805C9F4F821B91098F736D
:1009B0009927089588E197E10E94CE0421E0892BD0
:1009C00009F420E0822F0895FC01A48DA80FB92F0F
:1009D000B11DA35ABF4F2C91848D90E001968F7367
:1009E0009927848FA689B7892C93A089B1898C9186
:1009F000837080648C93938D848D981306C00288D5
:100A0000F389E02D80818F7D80830895EF92FF929E
:100A10000F931F93CF93DF93EC0181E0888F9B8D21
:100A20008C8D98131AC0E889F989808185FF15C0DB
:100A30009FB7F894EE89FF896083E889F9898081FE
:100A40008370806480839FBF81E090E0DF91CF91CD
:100A50001F910F91FF90EF900895F62E0B8D10E0EF
:100A60000F5F1F4F0F731127E02E8C8D8E110CC05E
:100A70000FB607FCFACFE889F989808185FFF5CFA9
:100A8000CE010E94E404F1CFEB8DEC0FFD2FF11DA0
:100A9000E35AFF4FF0829FB7F8940B8FEA89FB89E6
:100AA00080818062CFCFCF93DF93EC01888D882344
:100AB000B9F0AA89BB89E889F9898C9185FD03C0C1
:100AC000808186FD0DC00FB607FCF7CF8C9185FFA6
:100AD000F2CF808185FFEDCFCE010E94E404E9CF03
:100AE000DF91CF91089580E090E0892B29F00E945A
:100AF000DA0481110E94000080E090E0892B49F027
:100B000080E090E0892B29F00E94000081110E9472
:100B1000000080E090E0892B49F080E090E0892B94
:100B200029F00E94000081110E94000080E090E006
:100B3000892B49F080E090E0892B29F00E94000089
:100B400081110C94000008952F923F924F925F9272
:100B50006F927F928F929F92AF92BF92CF92DF92CD
:100B6000EF92FF920F931F93CF93DF931C016A01C3
:100B70007B0128013901FC01C68DD78D88809980C1
:100B8000AA80BB80A9019801C501B4010E94591D2A
:100B900018166CF5488259826A827B82F10186A020
:100BA00097A0A0A4B1A4C6A8D7A8E0ACF1ACA701B7
:100BB0009601C501B4010E94591DF101181624F5D2
:100BC000C6A2D7A2E0A6F1A6DF91CF911F910F9107
:100BD000FF90EF90DF90CF90BF90AF909F908F905D
:100BE0007F906F905F904F903F902F900895A70156
:100BF0009601C501B4010E94A21B87FFCFCFC88216
:100C0000D982EA82FB82CACFC2A8D3A8E4A8F5A8F9
:100C1000A7019601C501B4010E94A21B87FFD4CF92
:100C2000F101CECF8F929F92AF92BF92CF92DF927F
:100C3000EF92FF92CF93DF93EC01EE8DFF8DC0809A
:100C4000D180E280F380CEA2DFA2E8A6F9A6EC8DE7
:100C5000FD8D80819181A281B3818AA79BA7ACA7DA
:100C6000BDA78EA89FA8A8ACB9ACA5019401C701E7
:100C7000B6010E94591D18162CF48EA29FA2A8A698
:100C8000B9A60CC08AA89BA8ACA8BDA8A5019401D0
:100C9000C701B6010E94A21B87FDEFCFDF91CF9164
:100CA000FF90EF90DF90CF90BF90AF909F908F908C
:100CB00008950895089520915312260F3327331F66
:100CC00021323105ECF42091EA16FC0190E080E03D
:100CD000243069F082E00895A09153122191AC0173
:100CE0004D5C5D4EA40FB52FB11D2C930196861758
:100CF00098F380915312680F6093531280E0089527
:100D000081E008951092EA1681E08093E91610922E
:100D1000C41661E084E10E945C0261E085E10E940A
:100D20005C02E9EBF0E080818E7F808380818D7FA3
:100D3000808388E48093B80085E48093BC000895A4
:100D4000CF93DF9391E0909332128823B9F0C09152
:100D5000B800D091BA008091BC008A7B8093BC001F
:100D600060E084E10E945C0260E085E10E945C0238
:100D70000E948206D093BA00C093B800DF91CF9151
:100D800008958F929F92AF92BF92CF92DF92EF928F
:100D9000FF920F931F93CF93DF93D0911317D1320C
:100DA00008F0D7C0182FC09112170E94BB026B0128
:100DB0007C018091EA1681116BC082E08093EA1673
:100DC0001093E9168FEF8093E8161092E716D093F0
:100DD000E616A2EFB6E1E6ECF6E180E0D81391C0AA
:100DE0001092C5168091C516CC0FC82BC093C5169E
:100DF0008091C416813009F088C01092C4160E94F8
:100E0000BB026B017C018091C5168093BB00809171
:100E1000EC169091ED16A091EE16B091EF16892B7D
:100E20008A2B8B2BA1F00E94BB020091EC16109133
:100E3000ED162091EE163091EF166C197D098E0992
:100E40009F09061717072807390708F442C0809141
:100E5000BC0083FDD8CF85EC8093BC000E94BB0210
:100E60006B017C018091EA16823009F450C08091B8
:100E7000E8168F3F09F46FC08091E816803209F4BC
:100E80006CC08091E816803309F469C084E026C004
:100E90008091EC169091ED16A091EE16B091EF16A0
:100EA000892B8A2B8B2B09F484CF0E94BB02809064
:100EB000EC169090ED16A090EE16B090EF166C190F
:100EC0007D098E099F0986169706A806B90608F0BF
:100ED00070CF8091EB160E94A00685E01092F1166B
:100EE000109213171092F016DF91CF911F910F916E
:100EF000FF90EF90DF90CF90BF90AF909F908F903A
:100F000008959D9191938F5F69CF85EEA5CF8091D4
:100F1000EC169091ED16A091EE16B091EF16892B7C
:100F20008A2B8B2B09F49ECF0E94BB020091EC16FA
:100F30001091ED162091EE163091EF166C197D0987
:100F40008E099F09061717072807390708F08ACF67
:100F5000C0CF81E0C3CF80E0C1CF82E0BFCF83E0CC
:100F6000BDCF0895E0917B1280917A12E81730F49A
:100F7000F0E0E458FD4E808190E008958FEF9FEF00
:100F8000089590917B1280917A122FEF3FEF98177E
:100F900048F4E92FF0E0E458FD4E208130E09F5FF7
:100FA00090937B12C901089580917A1290917B12DF
:100FB000891B990B0895CF92DF92EF92FF920F93C6
:100FC0001F93CF93DF937C01CB018A012091F01610
:100FD000222389F0EB016B01C40ED51ECC15DD0573
:100FE00069F06991D701ED91FC910190F081E02DBC
:100FF000C7011995F3CF642F0E945B06C801DF91EA
:10100000CF911F910F91FF90EF90DF90CF900895B7
:10101000CF93DF931F92CDB7DEB769832091F0168F
:101020002223F9F020911317203258F021E030E00C
:10103000FC013383228390E080E00F90DF91CF9119
:1010400008958091F116E82FF0E0EE50F94E998165
:1010500090838F5F8093F1168093131781E090E067
:10106000ECCF61E0CE0101960E945B06F7CF682FBE
:1010700085EB97E10C940808CF93DF93D42FC52F0D
:10108000FC01808191E09093F016809312171092EA
:10109000F11610921317F4E06F9FB00111246A5FEC
:1010A0007F4F85EB97E10E94080890E080E00E9466
:1010B000370890E080E00E9437088D2F9C2F0E9417
:1010C00037088C2F90E00E94370881E0DF91CF91A4
:1010D0000C94C106CF93C42FFC01808191E09093C2
:1010E000F016809312171092F1161092131785EBD9
:1010F00097E10E9408086C2F85EB97E10E94080891
:1011000081E0CF910C94C106CF93DF93EC01109254
:101110007B1210927A121092F116109213170E94FD
:10112000820689E596E090937912809378128AE599
:1011300096E0909377128093761240E060E0CE01C3
:10114000DF91CF910C946A0890E080E008950895B3
:101150004F925F926F927F928F929F92AF92BF92C7
:10116000CF92DF92EF92FF920F931F93CF93DF9373
:10117000CDB7DEB74C0127013801DC015F965C93E7
:101180004E935E975D967C936E935C9791963C939D
:101190002E939097DA961C92FC0112AA13AA14AA15
:1011A00015AA80E090E0AFE7B3E486AB97ABA0AFC1
:1011B000B1AF84E690E0A0E0B0E086A797A7A0AB2F
:1011C000B1AB118E108E20E030E0A901C801B7014B
:1011D0000E94A21B87FD53C020E030E0A901C60198
:1011E000B5010E94A21B87FD4AC020E030E0A901A2
:1011F0006C897D898E899F890E94A21B87FD3FC0D3
:1012000081E090E0D4015B969C938E935A97DB9695
:101210008C93DB97F4014082518262827382149630
:10122000AD92BD92CD92DC9217978C899D89AE8943
:10123000BF8980879187A287B38744865586668653
:1012400077862DEC3CEC4CEC5DE3C601B5010E94C9
:101250005E1DF401608B718B828B938B2DEC3CECCB
:101260004CEC5DE36C897D898E899F890E94A71B68
:10127000D40154966D937D938D939C9357972FB77C
:10128000F8948091141790911517A0911617B091AA
:1012900017172FBFF40146A557A560A971A9841B94
:1012A000950BA60BB70B82A393A3A4A3B5A3DF91C1
:1012B000CF911F910F91FF90EF90DF90CF90BF9053
:1012C000AF909F908F907F906F905F904F90089518
:1012D000FC0101900020E9F73197AF01481B590B41
:1012E000BC0188E197E10C9470048F929F92AF92B9
:1012F000BF920F931F93CF93DF93CDB7DEB7A19724
:101300000FB6F894DEBF0FBECDBF19A2423008F46D
:101310004AE08E010F5D1F4F842E912CB12CA12C21
:10132000A50194010E94041BE62FB901CA01EA300D
:10133000F4F4E05DD801EE938D01232B242B252BB3
:1013400079F790E080E0109719F0CD010E946809CC
:10135000A1960FB6F894DEBF0FBECDBFDF91CF913F
:101360001F910F91BF90AF909F908F900895E95C6F
:10137000E1CFCF93DF93682F70E090E080E04AE008
:101380000E947509EC0189E89FE00E9468098C0FB2
:101390009D1FDF91CF910895CF93DF930E9468093D
:1013A000EC0189E89FE00E9468098C0F9D1FDF9186
:1013B000CF910895CF93DF93BC0190E080E04AE0A5
:1013C0000E947509EC0189E89FE00E9468098C0F72
:1013D0009D1FDF91CF9108958F929F92AF92BF9200
:1013E000CF92DF92EF92FF920F931F93CF93DF93F1
:1013F000EC019A01AB0160E27CEB8EEB95E40E947C
:10140000A71B20E030E040E85FE30E94351B20E0AE
:1014100030E040E05FE30E94361B0E948C1C0E947B
:10142000201C062F888191E09093F016809312176C
:101430001092F1161092131760E085EB97E10E946D
:10144000080881E00E94C10618810E94BB026B015E
:101450007C018091EA16811164C081E08093EA16D4
:101460008093E9169FEF9093E8161092E71610927A
:10147000E6168093C5168091C516110F182B109390
:10148000C5168091C416813009F0A3C01092C4160D
:101490000E94BB026B017C018091C5168093BB004A
:1014A0008091EC169091ED16A091EE16B091EF168A
:1014B000892B8A2B8B2BA1F00E94BB028090EC160B
:1014C0009090ED16A090EE16B090EF166C197D0975
:1014D0008E099F0986169706A806B90608F442C029
:1014E0008091BC0083FDD8CF85EC8093BC000E9426
:1014F000BB026B017C018091EA16813009F46BC05C
:101500008091E716811189C08091E716E6ECF6E13B
:10151000ACE7B2E190E0981751F121912D939F5FD4
:10152000FACF8091EC169091ED16A091EE16B09145
:10153000EF16892B8A2B8B2B09F48BCF0E94BB02D1
:101540008090EC169090ED16A090EE16B090EF16ED
:101550006C197D098E099F0986169706A806B9069B
:1015600008F077CF8091EB160E94A00680E01092E1
:101570007B1280937A1285EB97E10E94C107182FA6
:10158000482F4F76406160E0CE010E946A08402FEC
:101590006EEFCE010E946A08412F60E0CE010E94EA
:1015A0006A0865E070E080E090E00E94E002412F70
:1015B000416A60E0CE01DF91CF911F910F91FF90C2
:1015C000EF90DF90CF90BF90AF909F908F900C9452
:1015D0006A0885EE8ACF8091EC169091ED16A09165
:1015E000EE16B091EF16892B8A2B8B2B09F483CF43
:1015F0000E94BB028090EC169090ED16A090EE1623
:10160000B090EF166C197D098E099F098616970612
:10161000A806B90608F06FCFA5CF81E077CF85ED9A
:101620008093BC008091EC169091ED16A091EE167F
:10163000B091EF160796A11DB11D23E0B695A795B1
:10164000979587952A95D1F72091BC0024FD03C07A
:101650001092EA1608954091EC165091ED166091A3
:10166000EE167091EF16452B462B472B69F300972A
:10167000A105B10541F025E32A95F1F70000019796
:10168000A109B109E1CF8091EB160C94A0060F934C
:101690001F93CF93DF93CDB7DEB7DA950FB6F894EB
:1016A000DEBF0FBECDBF8091A312813079F08CE8F0
:1016B0009FE00E94CC09D3950FB6F894DEBF0FBE11
:1016C000CDBFDF91CF911F910F910895F894789439
:1016D0008E010F5F1F4F80E091E0F8019C01119295
:1016E00021503040E1F7AE01465F5E4FC85FDE4FEC
:1016F00068817981C850D140C8010E94DA1DC801B3
:10170000D8CFCF92DF92EF92FF926B017C01EFE98D
:10171000F3E180E090E0DC0162857385672BD1F016
:101720000196A11DB11D709682339105A105B105E9
:1017300099F78EE99FE09F938F930E94470B0F903C
:101740000F906DEF7FEF8FEF9FEFFF90EF90DF90A7
:10175000CF90089564E0880F991F6A95E1F7FC0126
:10176000E156FC4EC082D182E282F382148215825D
:1017700016821782518740873387228760919D1296
:1017800070919E126F5F7F4F70939E1260939D12B7
:1017900090E080E06487758786879787D6CF0F9320
:1017A0001F93AB01BC01EFE9F3E180E090E0DC01C5
:1017B00004851585268537850417150726073707FD
:1017C00099F424E0880F991F2A95E1F7FC01E1566E
:1017D000FC4E80E1DF011D928A95E9F760E070E040
:1017E000CB011F910F9108950196A11DB11D709617
:1017F00082339105A105B105D9F68AEB9FE09F934D
:101800008F930E94470B0F900F906EEF7FEF8FEF3B
:101810009FEFE7CF0F931F93CF93DF93EC016C8182
:101820007D818E819F810E94CF0B09851A8520972B
:1018300041F088819981AA81BB814297A105B105B8
:1018400078F08BED9FE09F938F930E94470B0F9052
:101850000F901A870987DF91CF911F910F910895FB
:101860001C821D821E821F821886F3CFCF92DF92C8
:10187000EF92FF920F931F93CF93DF93CDB7DEB715
:10188000C052D4400FB6F894DEBF0FBECDBF7C016E
:101890008B016A0180E294E0EAEAFAE0DE01119647
:1018A00001900D920197E1F784EF9FE00E94CC092F
:1018B000C8010E94DA0908311105E0F08CE090E1DE
:1018C0009F938F930E94470B82E0F60180830F90D5
:1018D0000F90C701C05EDB4F0FB6F894DEBF0FBE9E
:1018E000CDBFDF91CF911F910F91FF90EF90DF90CF
:1018F000CF9008958CE2809FF001819FF00D11241C
:1019000021E030E02C0F3D1FE20FF31FD7010190C3
:101910000D928A95E1F7DDCFCF92DF92EF92FF92A1
:101920000F931F93CF93DF93CDB7DEB7C052D44050
:101930000FB6F894DEBF0FBECDBF7C018B016A01EC
:1019400080E294E0EAEAFAE0DE01119601900D925D
:101950000197E1F782E390E10E94CC09C8010E945F
:10196000DA0908311105E0F08DE490E19F938F933F
:101970000E94470B82E0F60180830F900F90C70111
:10198000C05EDB4F0FB6F894DEBF0FBECDBFDF9158
:10199000CF911F910F91FF90EF90DF90CF9008951E
:1019A0008CE2809FF001819FF00D112421E030E056
:1019B0002C0F3D1FE20FF31FD70101900D928A9566
:1019C000E1F7DDCF0F931F93CF93DF93EC01688195
:1019D00079818A819B810E94CF0B50E040E063E0D7
:1019E0008CE098E10E943C080D811E81209779F4DB
:1019F0008BED9FE09F938F930E94470B0F900F906A
:101A00001E830D83DF91CF911F910F91089518824E
:101A100019821A821B821C82F3CF0F931F93CF93DC
:101A2000DF93EC01688179818A819B810E94CF0BD1
:101A300050E040E062E083EC97E10E943C080D81B9
:101A40001E81209779F48BED9FE09F938F930E94E6
:101A5000470B0F900F901E830D83DF91CF911F9145
:101A60000F910895188219821A821B821C82F3CF6B
:101A70000F931F93CF93DF93EC016C817D818E8157
:101A80009F810E94CF0B88819981AA81BB8150E000
:101A900040E060E0892B8A2B8B2B09F061E08DE020
:101AA00098E10E943C0809851A85209779F48BED0E
:101AB0009FE09F938F930E94470B0F900F901A8780
:101AC0000987DF91CF911F910F9108951C821D828C
:101AD0001E821F821886F3CF1F920F920FB60F92AD
:101AE00011242F933F938F939F93AF93BF93809134
:101AF000141790911517A0911617B09117173091E0
:101B0000BF1623E0230F2D3758F50196A11DB11DF7
:101B10002093BF168093141790931517A093161750
:101B2000B09317178091C0169091C116A091C2165C
:101B3000B091C3160196A11DB11D8093C01690935C
:101B4000C116A093C216B093C316BF91AF919F91D7
:101B50008F913F912F910F900FBE0F901F9018956E
:101B600026E8230F0296A11DB11DD2CF1F920F921E
:101B70000FB60F9211240BB60F922F933F934F93F2
:101B80005F936F937F938F939F93AF93BF93EF93E5
:101B9000FF93E091A80AF091A90A1995FF91EF919E
:101BA000BF91AF919F918F917F916F915F914F9175
:101BB0003F912F910F900BBE0F900FBE0F901F9073
:101BC00018951F920F920FB60F9211240BB60F9219
:101BD0002F933F934F935F936F937F938F939F9335
:101BE000AF93BF93EF93FF93E091A60AF091A70AFA
:101BF0001995FF91EF91BF91AF919F918F917F9137
:101C00006F915F914F913F912F910F900BBE0F906D
:101C10000FBE0F901F9018951F920F920FB60F9244
:101C200011240BB60F922F933F934F935F936F93B3
:101C30007F938F939F93AF93BF93EF93FF93E09125
:101C40009C0AF0919D0A1995FF91EF91BF91AF9178
:101C50009F918F917F916F915F914F913F912F91C4
:101C60000F900BBE0F900FBE0F901F9018951F92F4
:101C70000F920FB60F9211240BB60F922F933F9332
:101C80004F935F936F937F938F939F93AF93BF9384
:101C9000EF93FF93E0919A0AF0919B0A1995FF91B7
:101CA000EF91BF91AF919F918F917F916F915F91D4
:101CB0004F913F912F910F900BBE0F900FBE0F9041
:101CC0001F9018951F920F920FB60F9211240BB60A
:101CD0000F922F933F934F935F936F937F938F93C5
:101CE0009F93AF93BF93EF93FF93E091A40AF0917A
:101CF000A50A1995FF91EF91BF91AF919F918F9197
:101D00007F916F915F914F913F912F910F900BBEFB
:101D10000F900FBE0F901F9018951F920F920FB645
:101D20000F9211240BB60F922F933F934F935F9313
:101D30006F937F938F939F93AF93BF93EF93FF9393
:101D4000E091A20AF091A30A1995FF91EF91BF913A
:101D5000AF919F918F917F916F915F914F913F9143
:101D60002F910F900BBE0F900FBE0F901F901895E4
:101D70001F920F920FB60F9211240BB60F922F9352
:101D80003F934F935F936F937F938F939F93AF9303
:101D9000BF93EF93FF93E091A00AF091A10A1995E8
:101DA000FF91EF91BF91AF919F918F917F916F9133
:101DB0005F914F913F912F910F900BBE0F900FBEEF
:101DC0000F901F9018951F920F920FB60F9211242B
:101DD0000BB60F922F933F934F935F936F937F9325
:101DE0008F939F93AF93BF93EF93FF93E0919E0ADE
:101DF000F0919F0A1995FF91EF91BF91AF919F913B
:101E00008F917F916F915F914F913F912F910F90A3
:101E10000BBE0F900FBE0F901F9018951F920F9240
:101E20000FB60F9211240BB60F922F933F934F933F
:101E30005F936F937F938F939F93AF93BF93EF9332
:101E4000FF9388E197E10E94E404FF91EF91BF9135
:101E5000AF919F918F917F916F915F914F913F9142
:101E60002F910F900BBE0F900FBE0F901F901895E3
:101E70001F920F920FB60F9211240BB60F922F9351
:101E80008F939F93EF93FF93E0912817F091291779
:101E90008081E0912E17F0912F1782FD1DC0908157
:101EA000809131178F5F8F7320913217821741F025
:101EB000E0913117F0E0E85EF84E958F809331178E
:101EC000FF91EF919F918F912F910F900BBE0F90EB
:101ED0000FBE0F901F9018958081F2CF1F920F9226
:101EE0000FB60F9211240BB60F922F933F934F937F
:101EF0005F936F937F938F939F93AF93BF93EF9372
:101F0000FF938091B900887F803609F44DC008F0B6
:101F100040C0883209F4A9C028F5803109F49DC079
:101F2000C8F4882309F4FBC0883009F496C0FF91F7
:101F3000EF91BF91AF919F918F917F916F915F9141
:101F40004F913F912F910F900BBE0F900FBE0F90AE
:101F50001F901895883109F488C0803241F780932A
:101F6000E81614C0803409F49DC040F48033B9F3FE
:101F70008833E9F68093E81685ECB0C0803509F423
:101F800085C0883509F496C0883489F60E940F0B05
:101F9000CECF883909F48CC038F5883729F050F451
:101FA000883611F0803719F683E08093EA16109294
:101FB000751257C0883809F47BC0803919F0803811
:101FC00009F0B5CF80917512803208F071C0E091B0
:101FD000751281E08E0F809375128091BB00F0E046
:101FE000EB5AFD4E80833DC0803B39F0E0F4803AEF
:101FF00009F479C0883A09F09ACF84E08093EA1610
:102000001092541210925312E0917812F0917912BA
:1020100019958091531281110FC081E08093531262
:102020001092331209C0803C09F4A6CF883C09F411
:10203000A3CF883B09F07BCFE091541281E08E0F53
:1020400080935412F0E0ED5CFD4E80818093BB00E4
:10205000909154128091531229C08091C51680939B
:10206000BB0085EC8093BC0062CF9091E716809115
:10207000E616981758F5E091E71681E08E0F8093E9
:10208000E716F0E0EA53F94E8081E9CFE091E716D8
:1020900081E08E0F8093E7168091BB00F0E0EA5359
:1020A000F94E80839091E7168091E6169817C8F252
:1020B00085E8D8CFE091E71681E08E0F8093E71690
:1020C0008091BB00F0E0EA53F94E80838091E916DD
:1020D00081115CCF81E08093C41684EA8093BC00B8
:1020E0001092EA1624CF85EC8093BC001092EA1679
:1020F00080917512803230F4E0917512F0E0EB5A65
:10210000FD4E10826091751270E0E0917612F091B0
:10211000771285E592E119951092751208CF109209
:10212000E81634CF1F920F920FB60F9211240BB600
:102130000F922F933F934F935F936F937F938F9360
:102140009F93AF93BF93EF93FF93E091980AF09121
:10215000990A1995FF91EF91BF91AF919F918F913E
:102160007F916F915F914F913F912F910F900BBE97
:102170000F900FBE0F901F9018957F928F929F9295
:10218000AF92BF92CF92DF92EF92FF920F931F9385
:10219000CF93DF93E8E1F7E11382128288EE93E0B8
:1021A000A0E0B0E084839583A683B78329E63FE06F
:1021B0003183208325EC30E03587248724EC30E020
:1021C0003787268720EC30E0318B208B21EC30E004
:1021D000338B228B22EC30E0358B248B26EC30E0E5
:1021E000378B268B118E128E138E148EE5EBF7E152
:1021F0001382128284839583A683B7838BE79FE043
:102200009183808381E48093C21782E48093C11715
:102210008EE3782E7F929CE4892E8F922CEC922E66
:102220009F92DDECDF93A12CB12C6501E12CF12C08
:1022300000E810E424EC37E148EC57E16CEC77E17E
:1022400080ED97E10E94A808C3E4C093C317C09330
:102250000C187F928F929F92DF9326E538E14AE532
:1022600058E16EE578E182E698E10E94A8087F9245
:102270008F929F92DF932EE038E142E158E166E1D0
:1022800078E18AE198E10E94A808C0930D188DB703
:102290009EB70C960FB6F8949EBF0FBE8DBFDF9110
:1022A000CF911F910F91FF90EF90DF90CF90BF9053
:1022B000AF909F908F907F900895CF93DF93CDB78D
:1022C000DEB7C45DD1090FB6F894DEBF0FBECDBF37
:1022D000789484B5826084BD84B5816084BD85B501
:1022E000826085BD85B5816085BD80916E0081600D
:1022F00080936E00109281008091810082608093B3
:1023000081008091810081608093810080918000B4
:102310008160809380008091B10084608093B100DF
:102320008091B00081608093B000809191008260C4
:1023300080939100809191008160809391008091C1
:1023400090008160809390008091A10082608093D2
:10235000A1008091A10081608093A1008091A000E4
:1023600081608093A000809121018260809321018F
:102370008091210181608093210180912001816001
:102380008093200180917A00846080937A0080910C
:102390007A00826080937A0080917A0081608093D5
:1023A0007A0080917A00806880937A001092C10050
:1023B000E0912817F091291782E08083E09124179B
:1023C000F09125171082E0912617F091271790E1E0
:1023D000908310923017E0912C17F0912D1786E022
:1023E0008083E0912A17F0912B1780818061808390
:1023F000E0912A17F0912B17808188608083E0910B
:102400002A17F0912B17808180688083E0912A172A
:10241000F0912B1780818F7D808310929F121092F4
:10242000A0121092A1121092A21210929E1210925B
:102430009D12EFE9F3E120E233E0DF01A9011D92F3
:1024400041505040E1F7909381001092800081E06C
:1024500080939C1220E43FE1309387002093860014
:1024600091E19093810021E434E03093990A209324
:10247000980A80936F00109281001092850010924C
:10248000840090919C129061909381008093A3129C
:10249000A9EFBEE0E5EBF2E140E050E0BA01408395
:1024A0005183628373831482158216821782108689
:1024B0008D919D91928781874F5F5F4F6F4F7F4FC7
:1024C0003B96423151056105710549F782EC97E170
:1024D0000E94840881EC97E10E94840860E084E116
:1024E0000E948A0260E085E10E948A0218E410934B
:1024F000B80082EC97E10E94840881EC97E10E9489
:10250000840860E084E10E948A0260E085E10E9424
:102510008A021093B80040E050E068EC72E482EC6C
:1025200097E10E94EC0940E050E068EC72E481EC35
:1025300097E10E94EC0910927B1310927C13109289
:102540007D1310927E1310927F13109280131092BD
:10255000811310928213109283131092851310929C
:10256000841381E090E0A0E0B0E080938613909324
:102570008713A0938813B093891310928A13109233
:102580008B1310928C1310928D1310928E13109245
:10259000901310928F131092AB121092AA121092F5
:1025A000A9121092A8121092A7121092A6121092BD
:1025B000A5121092A41210925E1810925F18109239
:1025C0006018109261181092161810921718109235
:1025D0001818109219181092561810925718109235
:1025E00058181092591810920E1810920F18109235
:1025F00010181092111861E080E00E948A0261E0D8
:1026000086E00E948A0261E081E00E948A0261E025
:1026100087E00E948A0260E082E00E948A0260E015
:1026200086E10E948A0260E083E00E948A0260E004
:1026300087E10E948A0287E793E090939B0A809348
:102640009A0A80916A008C7F816080936A00EC9A7C
:102650008CED93E090939D0A80939C0A80916A0090
:10266000837F846080936A00ED9A80919C18811129
:1026700004C082E698E10E94120681E080939C18D3
:1026800082E698E10E948E0180E090E0AFE7B3EC33
:102690008093941890939518A0939618B0939718D8
:1026A00080E090E0AFE7B3E4809398189093991896
:1026B000A0939A18B0939B1880919C18882361F07E
:1026C00000E010E02FE733E440E050E06FE773EC08
:1026D00082E698E10E94A40580915418811104C0FB
:1026E0008AE198E10E94120681E0809354188AE101
:1026F00098E10E948E0180E090E0AFE7B3EC809318
:102700004C1890934D18A0934E18B0934F1880E03A
:1027100090E0AFE7B3E48093501890935118A093E2
:102720005218B093531880915418882361F000E038
:1027300010E02FE733E440E050E06FE773EC8AE10C
:1027400098E10E94A4058DE098E10E94840860E071
:1027500084E10E948A0260E085E10E948A0210E220
:102760001093B80040E050E06AE774E48DE098E12F
:102770000E94EC0950E040E060E08DE098E10E94AA
:102780003C0861E086E00E945C0261E087E00E9414
:102790005C02109298131092991310929A1310924F
:1027A0009B1310929C1310929E1310929D1361E044
:1027B00083E00E948A0261E089E00E948A028CE044
:1027C00098E10E94840860E084E10E948A0260E04F
:1027D00085E10E948A021093B80040E050E06AE769
:1027E00074E48CE098E10E94EC0950E040E060E085
:1027F0008CE098E10E943C0861E089E00E945C0264
:1028000010929113109292131092931310929413AA
:102810001092951310929713109296131092AF1274
:102820001092AE121092AD121092AC121092CC1700
:102830001092CD171092CE171092CF171092C41786
:102840001092C5171092C6171092C71761E082E068
:102850000E948A0261E088E00E948A0260E082E1D0
:102860000E948A0260E088E10E948A0282E193E08D
:102870009093A50A8093A40A809169008F73806465
:1028800080936900EB9A80910A18811104C080ED51
:1028900097E10E94120681E080930A1880ED97E18B
:1028A0000E948E0180E090EFAFE7B5EC80930218B4
:1028B00090930318A0930418B093051880E090EF4C
:1028C000AFE7B5E48093061890930718A093081813
:1028D000B093091880910A18882361F000E010EF86
:1028E0002FE735E440E050EF6FE775EC80ED97E1BE
:1028F0000E94A40583EC97E10E94840860E084E1D3
:102900000E948A0260E085E10E948A0280E2809350
:10291000B80040E050E06AE774E483EC97E10E947D
:10292000EC0950E040E060E083EC97E10E943C0855
:1029300061E088E00E945C021FB7F8948091B012B9
:10294000811127C0E7E1F2E08491EDE5F2E0949196
:10295000E82FF0E0EE0FFF1FEC56FE4FA591B4916B
:10296000EC919E2321F461E085E30E945C0261E02A
:1029700085E30E948A028CB580618CBD8CB5806431
:102980008CBD61E084E30E948A0261E083E30E94DF
:102990008A028091B0128F5F8093B0121FBF61E0F6
:1029A00085E30E945C0286E790E10E94CC0961E029
:1029B00070E080E090E00E94E0024090CA0E5090EB
:1029C000CB0E6090CC0E83E890E10E94CC09FE0112
:1029D000EB58FF4F84E2DF011D928A95E9F7C75655
:1029E000DF4F19821882C959D040C556DF4F19826E
:1029F0001882CB59D040E457F10982E1DF011D92E2
:102A00008A95E9F78BE793E1A5EBB2E118962C9153
:102A1000189721931B968A179B07C1F7898181110B
:102A2000D1C58A818111CEC58B818111CBC58C81A5
:102A30008111C8C58D818111C5C58E818111C2C525
:102A40008F818111BFC588858111BCC589858111A0
:102A5000B9C58A858111B6C58B858111B3C58C85B1
:102A60008111B0C58D858111ADC58E858111AAC535
:102A70008F858111A7C588898111A4C58989811194
:102A8000A1C57A8871109EC589E990E10E94CC09A0
:102A9000C056DF4F1882C05AD040C356DF4F48821D
:102AA00059826A82CD59D04083EB90E10E94CC09D3
:102AB0008091B3129091B4120E94DA098BEC90E1EC
:102AC0000E94CC098091B1129091B2120E94DA0951
:102AD0008091B3129091B4128330910508F453C0E1
:102AE00083E090E09093B4128093B31280EE90E173
:102AF0000E94CC0982E00E94B90912E086E591E1CA
:102B00000E94CC09812F0E94B9098BE691E1113016
:102B100029F0123009F074C18CE891E10E94CC09CF
:102B20008FEE91E10E94CC090FE913E1F801808159
:102B30009181A281B3810097A105B105D9F04481AB
:102B4000558166817781481759076A077B0790F09E
:102B50008EEF91E10E94CC09D8011A96ED91FC917B
:102B60001B9718968D919C911995F80114821582E6
:102B700016821782005F1F4FF6E10F3B1F07B1F669
:102B80000E94730520CFEDE9F0E0EC0FFD1F8E0FE2
:102B90009F1FDC018C91823009F4D2C0833009F48C
:102BA000DBC0813059F46091B1127091B212AE0164
:102BB00040565F4FCE0101960E948C0CC056DF4FED
:102BC0001881C05AD0401111F8C08091B112909173
:102BD000B21201969093B2128093B11280EE90E1FE
:102BE0000E94CC0980E00E94B909E981FA81C554AC
:102BF000DF4FF983E883CB5BD0402B813C81C1550B
:102C0000DF4F39832883CF5AD0404D815E81CF5426
:102C1000DF4F59834883C15BD0408F819885C7546B
:102C2000DF4F99838883C95BD040A985BA85CB548F
:102C3000DF4FB983A883C55BD040EB85FC85CD54BD
:102C4000DF4FF983E883C35BD0402D853E85C153B8
:102C5000DF4F39832883CF5CD0404F855889C354D8
:102C6000DF4F59834883CD5BD04089899A89CD5203
:102C7000DF4F99838883C35DD040AB89BC89CB5338
:102C8000DF4FB983A883C55CD040ED89FE89C95464
:102C9000DF4FF983E883C75BD0402F89388DCF534E
:102CA000DF4F39832883C15CD040498D5A8DC15490
:102CB000DF4F59834883CF5BD0408B8D9C8DC953A8
:102CC000DF4F99838883C75CD040AD8DBE8DC355DF
:102CD000DF4FB983A883CD5AD040EF8DF8A1CD53F3
:102CE000DF4FF983E883C35CD04029A13AA1CF52DA
:102CF000DF4F39832883C15DD0404BA15CA1C7530E
:102D0000DF4F59834883C95CD0408DA19EA1C55334
:102D1000DF4F99838883CB5CD040AFA1B8A5C35364
:102D2000DF4FB983A883CD5CD04029A43AA4EBA59A
:102D3000FCA5C955DF4FF983E883C75AD040DECEE2
:102D40006091B1127091B212AE0140565F4FCE0148
:102D500001960E94360C32CF0091B1121091B2123E
:102D60008CE2EDECFEE0DE01A75BBF4F01900D921F
:102D70008A95E1F780EF90E10E94CC09C8010E949A
:102D8000DA09012B79F088E091E19F938F930E94FB
:102D9000470B82E0C056DF4F8883C05AD0400F9067
:102DA0000F900CCF8CE2FE01E75BFF4FDE01119626
:102DB00001900D928A95E1F701CF113081F48EE2F6
:102DC00091E19F938F930E94470B80EE90E10E94C8
:102DD000CC0981E00E94B9090F900F908FCE12307C
:102DE00069F41092B2121092B1128091B3129091C4
:102DF000B41201969093B4128093B31210E07ECE79
:102E000087EA91E10E94CC09C554DF4F28813981BE
:102E1000CB5BD040E7963FAF2EAFE797C155DF4F72
:102E200048815981CF5AD040E9965FAF4EAFE997BC
:102E3000CF54DF4F88819981C15BD040EB969FAF23
:102E40008EAFEB97C754DF4FA881B981C95BD040E3
:102E5000ED96BFAFAEAFED97CB54DF4FE881F98170
:102E6000C55BD040EF96FFAFEEAFEF97CD54DF4F8D
:102E700028813981C35BD040C158DF4F3983288313
:102E8000CF57D040C153DF4F48815981CF5CD040EC
:102E9000CF57DF4F59834883C158D040C354DF4FC9
:102EA00088819981CD5BD040CD57DF4F998388834E
:102EB000C358D040CD52DF4FA881B981C35DD04007
:102EC000CB57DF4FB983A883C558D040CB53DF4FD2
:102ED000E881F981C55CD040C957DF4FF983E883A9
:102EE000C758D040C954DF4F28813981C75BD040D3
:102EF000C757DF4F39832883C958D040CF53DF4F9E
:102F000048815981C15CD040C557DF4F5983488300
:102F1000CB58D040C154DF4F88819981CF5BD040DE
:102F2000C357DF4F99838883CD58D040C953DF4FB3
:102F3000A881B981C75CD040C157DF4FB983A8834E
:102F4000CF58D040C355DF4FE881F981CD5AD040EA
:102F5000CF56DF4FF983E883C159D040CD53DF4FBF
:102F600028813981C35CD040CD56DF4F3983288317
:102F7000C359D040CF52DF4F48815981C15DD04005
:102F8000CB56DF4F59834883C559D040C753DF4FD5
:102F900088819981C95CD040C956DF4F9983888365
:102FA000C759D040C553DF4FA881B981CB5CD04011
:102FB000C756DF4FB983A883C959D040C353DF4FE9
:102FC000E881F981CD5CD040C556DF4FF983E883B5
:102FD000CB59D0409E012F5F3F4FCF55DF4F3983F4
:102FE0002883C15AD040AE014B585F4FCD55DF4FBB
:102FF00059834883C35AD0408DE19FE0C555DF4FC8
:1030000099838883CB5AD040A1E4BFE0C755DF4FF6
:10301000B983A883C95AD040CB55DF4F3983288361
:10302000C55AD04005EB12E1C12CD12C76013EEF00
:10303000832E99249A94A92CB92CF8018085833089
:1030400009F057C089EB91E10E94CC0923E030E000
:1030500040E050E0CB55DF4FA881B981C55AD04040
:103060002D933D934D935C9313974FEFC41AD40A5D
:10307000E40AF40A055F1F4FCB55DF4F8881998121
:10308000C55AD0400496CB55DF4F99838883C55AE3
:10309000D040CD55DF4FA881B981C35AD040129698
:1030A000CD55DF4FB983A883C35AD040C555DF4FF4
:1030B000E881F981CB5AD0403296C555DF4FF9836C
:1030C000E883CB5AD040C755DF4F28813981C95A90
:1030D000D0402E5F3F4FC755DF4F39832883C95AF1
:1030E000D04032E1C316D104E104F10409F0A5CFC8
:1030F00068C0CD55DF4FE881F981C35AD0402081A7
:103100003181C755DF4FA881B981C95AD0408D910F
:103110009C912817390778F0C555DF4FE881F98170
:10312000CB5AD040808191818217930780F42F3F42
:10313000FFEE3F0761F0CB55DF4FA881B981C55A3B
:10314000D0408D929D92AD92BC9213978ECFF80194
:1031500081859285821B930B97FF03C09195819582
:103160009109F6E0F89FB001F99F700D11246115E7
:10317000710511F461E070E0072E000C880B990BCB
:103180002AE03CE0A8010E94810B9B01AC012D5F6D
:103190003F4F4F4F5F4F223031054105510508F039
:1031A0004EC09F938F937F936F9386EC91E19F9393
:1031B0008F930E94470B0F900F900F900F900F90DE
:1031C0000F900BE713E14E0149E9840E911CC12CCD
:1031D000D12C760123E0A22ED80118968C91833051
:1031E00009F07CC023E030E040E050E0CF55DF4FF5
:1031F000A881B981C15AD0402D933D934D935C93E2
:103200001397055F1F4FCF55DF4F28813981C15A72
:10321000D0402C5F3F4FCF55DF4F39832883C15AB1
:10322000D04032E0830E911CCA94CD28CE28CF28FE
:1032300009F4ACC0C12CD12C7601C394CDCFE3E00E
:10324000D8011896EC93189714966D937D938D93EF
:103250009C931797CD55DF4FE881F981C35AD04031
:10326000A081B181F801B287A18720ED37E00E94EB
:10327000D31DF1E0CF16D104E104F10431F027E0D1
:10328000C216D104E104F10421F52EE031E040E062
:1032900050E00E94E51AD901AC50BE4F2FEF3FE03D
:1032A0000E94D31D20E137E240E050E00E94E51A81
:1032B000A9016C2D82EC97E139E0C316D104E10439
:1032C000F10424F067EF6C0D81EC97E10E943C085B
:1032D000CCCE24EB30E040E050E0DBCFF4012081A5
:1032E00031812F30F1E03F0798F02F3F4FEE340748
:1032F00079F08EEF9FEFAFEFBFEFCF55DF4FE88153
:10330000F981C15AD04080839183A283B38379CF5E
:10331000D80119968D919C91821B930BB12C97FF2C
:1033200005C0919581959109BB24B394BAE0B89FEB
:10333000B001B99F700D11246115710511F461E0A0
:1033400070E0072E000C880B990B28E33DE0A801E4
:103350000E94810B9B01AC012D5F3F4F4F4F5F4F90
:10336000223031054105510508F0B1C09F938F937C
:103370007F936F9386EC91E19F938F930E94470B0D
:103380000F900F900F900F900F900F9080919513CA
:10339000833041F483E090E0A0E0B0E089839A8339
:1033A000AB83BC8353E32516310468F08FEF2816F6
:1033B0008FEE380641F08EEF9FEFAFEFBFEF8983BE
:1033C0009A83AB83BC838091961390919713821953
:1033D000930910E097FF04C091958195910911E040
:1033E0002AE0289FB001299F700D112461157105F5
:1033F00011F461E070E0072E000C880B990B2DE0B2
:103400003DE041E953E10E94810B6B017C01A3E0A7
:10341000CA0ED11CE11CF11CB2E0CB16D104E104B0
:10342000F10408F082C09F938F937F936F9386EC93
:1034300091E19F938F930E94470B0F900F900F90F5
:103440000F900F900F9080919C13833009F468CBFC
:10345000C955DF4FE881F981C75AD040E230F10504
:1034600008F05ECB80919D1390919E13E817F907A9
:1034700039F0772473948E179F0714F082E0782E2A
:1034800022EE3CE048E953E168EE73E080E090E032
:103490000E94810B8B019C010D5F1F4F2F4F3F4FEF
:1034A000023011052105310508F05DC09F938F930F
:1034B0007F936F9386EC91E19F938F930E94470BCC
:1034C0000F900F900F900F900F900F9029CBF80155
:1034D000A086D8016483758386839783F4018081F5
:1034E00091811A969C938E931997F1E0CF16D1048F
:1034F000E104F10479F061E0B11001C060E086E020
:103500000E945C024FEF5FE060E08DE098E10E9476
:103510003C0877CE61E0B11001C060E087E00E9416
:103520005C024FEF5FE061E0F0CF23E02093951362
:1035300060939113709392138093931390939413C9
:10354000309297132092961361E0111101C060E050
:1035500088E00E945C024FEF5FE062E083EC97E15D
:103560000E943C0870CF23E020939C136093981333
:103570007093991380939A1390939B13C955DF4FBF
:1035800028813981C75AD04030939E1320939D13D0
:1035900086EE91E10E94CC09872D0E94B90950E086
:1035A00040E0772049F031E061E0731260E089E0AB
:1035B0000E945C024FEF5FE063E08CE098E10E94C4
:1035C0003C08AECA85E192E1A9CA052E97FB1EF41C
:1035D00000940E94FC1A57FD07D00E94041B07FCB0
:1035E00003D04EF40C94FC1A5095409530952195DB
:1035F0003F4F4F4F5F4F089590958095709561951F
:103600007F4F8F4F9F4F0895A1E21A2EAA1BBB1B1D
:10361000FD010DC0AA1FBB1FEE1FFF1FA217B3079E
:10362000E407F50720F0A21BB30BE40BF50B661FB4
:10363000771F881F991F1A9469F760957095809578
:1036400090959B01AC01BD01CF010895A29FB001EF
:10365000B39FC001A39F700D811D1124911DB29FC6
:10366000700D811D1124911D08955058BB27AA2764
:103670000E944D1B0C94071D0E94F91C38F00E94FB
:10368000001D20F039F49F3F19F426F40C94F61C29
:103690000EF4E095E7FB0C94C71CE92F0E94181D5F
:1036A00058F3BA17620773078407950720F079F477
:1036B000A6F50C94521D0EF4E0950B2EBA2FA02DFA
:1036C0000B01B90190010C01CA01A0011124FF27CF
:1036D000591B99F0593F50F4503E68F11A16F040CA
:1036E000A22F232F342F4427585FF3CF46953795C9
:1036F0002795A795F0405395C9F77EF41F16BA0B8E
:10370000620B730B840BBAF09150A1F0FF0FBB1F3B
:10371000661F771F881FC2F70EC0BA0F621F731F84
:10372000841F48F4879577956795B795F7959E3FE1
:1037300008F0B0CF9395880F08F09927EE0F979572
:10374000879508950E94A31C08F481E008950E94C3
:10375000BB1B0C94071D0E94001D58F00E94F91C11
:1037600040F029F45F3F29F00C94C71C51110C94D0
:10377000531D0C94F61C0E94181D68F39923B1F395
:10378000552391F3951B550BBB27AA276217730787
:10379000840738F09F5F5F4F220F331F441FAA1F1B
:1037A000A9F335D00E2E3AF0E0E832D091505040D7
:1037B000E695001CCAF72BD0FE2F29D0660F771F85
:1037C000881FBB1F261737074807AB07B0E809F06B
:1037D000BB0B802DBF01FF2793585F4F3AF09E3FF0
:1037E000510578F00C94C71C0C94531D5F3FE4F313
:1037F000983ED4F3869577956795B795F7959F5F33
:10380000C9F7880F911D9695879597F90895E1E07E
:10381000660F771F881FBB1F621773078407BA07DD
:1038200020F0621B730B840BBA0BEE1F88F7E09538
:1038300008950E94201C6894B1110C94531D0895A2
:103840000E94201D88F09F5798F0B92F9927B751F3
:10385000B0F0E1F0660F771F881F991F1AF0BA9534
:10386000C9F714C0B13091F00E94521DB1E0089523
:103870000C94521D672F782F8827B85F39F0B93F15
:10388000CCF3869577956795B395D9F73EF49095E7
:103890008095709561957F4F8F4F9F4F0895E89465
:1038A00009C097FB3EF490958095709561957F4F88
:1038B0008F4F9F4F9923A9F0F92F96E9BB27939536
:1038C000F695879577956795B795F111F8CFFAF446
:1038D000BB0F11F460FF1BC06F5F7F4F8F4F9F4F77
:1038E00016C0882311F096E911C0772321F09EE8D5
:1038F000872F762F05C0662371F096E8862F70E03B
:1039000060E02AF09A95660F771F881FDAF7880F14
:103910009695879597F908950E943A1D90F09F37E4
:1039200048F4911116F00C94531D60E070E080E8AB
:103930009FEB089526F41B16611D711D811D0C94CB
:10394000CD1C0C94E81C990F0008550FAA0BE0E859
:10395000FEEF16161706E807F907C0F01216130651
:10396000E407F50798F0621B730B840B950B39F491
:103970000A2661F0232B242B252B21F408950A26F7
:1039800009F4A140A6958FEF811D811D089597F937
:103990009F6780E870E060E00895882371F47723E2
:1039A00021F09850872B762F07C0662311F49927B2
:1039B0000DC09051862B70E060E02AF09A95660F5A
:1039C000771F881FDAF7880F9695879597F90895DE
:1039D0009F3F31F0915020F4879577956795B79583
:1039E000880F911D9695879597F908959FEF80EC24
:1039F000089500240A941616170618060906089555
:103A000000240A9412161306140605060895092EBA
:103A10000394000C11F4882352F0BB0F40F4BF2B29
:103A200011F460FF04C06F5F7F4F8F4F9F4F089569
:103A300057FD9058440F551F59F05F3F71F047955F
:103A4000880F97FB991F61F09F3F79F08795089544
:103A5000121613061406551FF2CF4695F1DF08C063
:103A6000161617061806991FF1CF86957105610580
:103A7000089408950E94201DA0F0BEE7B91788F4AD
:103A8000BB279F3860F41616B11D672F782F882743
:103A9000985FF7CF869577956795B11D9395963981
:103AA000C8F30895E894BB2766277727CB0197F9D9
:103AB00008950E94A31C08F48FEF08950E94711DC1
:103AC0000C94071D0E94F91C38F00E94001D20F084
:103AD000952311F00C94C71C0C94F61C11240C9423
:103AE000531D0E94181D70F3959FC1F3950F50E070
:103AF000551F629FF001729FBB27F00DB11D639FA0
:103B0000AA27F00DB11DAA1F649F6627B00DA11D45
:103B1000661F829F2227B00DA11D621F739FB00DEB
:103B2000A11D621F839FA00D611D221F749F33275B
:103B3000A00D611D231F849F600D211D822F762FF4
:103B40006A2F11249F5750409AF0F1F088234AF0D1
:103B5000EE0FFF1FBB1F661F771F881F915050403D
:103B6000A9F79E3F510580F00C94C71C0C94531D7F
:103B70005F3FE4F3983ED4F3869577956795B795C4
:103B8000F795E7959F5FC1F7FE2B880F911D9695DE
:103B9000879597F90895EE0FFF1F881F8BBF079039
:103BA000F691E02D19940E94261BB7FF0895821B01
:103BB000930B08950F931F93CF93DF93CDB7DEB789
:103BC0002E970FB6F894DEBF0FBECDBF8C0186E0F6
:103BD0008C831A8309838FEF9FE79E838D83CE01A9
:103BE00001960E94041E2F813885020F131FF801D1
:103BF00010822E960FB6F894DEBF0FBECDBFDF91B8
:103C0000CF911F910F9108952F923F924F925F9203
:103C10006F927F928F929F92AF92BF92CF92DF92DC
:103C2000EF92FF920F931F93CF93DF9300D000D0BA
:103C300000D01F921F92CDB7DEB77C013B018A01F5
:103C4000FC0117821682838181FFDDC1CE010196BE
:103C50005C01F7019381F30193FD859193FF8191BD
:103C60003F01882309F453C1853239F493FD8591CE
:103C700093FF81913F01853229F4B70190E00E94C2
:103C80001C20E7CF912C212C312CFFE1F31538F0CB
:103C90008B3211F190F4803209F1833229F137FC33
:103CA0003CC020ED280F2A3050F536FE20C08AE0B7
:103CB000989E200D1124922E06C08D3291F08033F3
:103CC00071F7689430F8F30193FD859193FF81912A
:103CD0003F018111DACF21C0689431F8689432F83D
:103CE000F2CF689433F8EFCF689434F8ECCFEAE081
:103CF0002E9E200D1124222E689435F8E4CF8E32AA
:103D000029F436FC04C1689436F8DDCF8C3619F4FA
:103D1000689437F8D8CF8836B1F2982F9F7D9554A4
:103D20009330E0F08336A1F18337C1F1833509F098
:103D300063C02801F2E04F0E511CF801C080D18011
:103D4000692D70E036FC02C06FEF7FEFC6010E9464
:103D500006204C01689437F882010AC00C5F1F4F9F
:103D6000FFE3F98388248394912C6501E89437F864
:103D700033FE2DC0522C8114910471F5552009F4A5
:103D800068CFB70180E290E00E941C205A94F6CFE1
:103D9000F801808189830E5F1F4FE4CF2801F2E094
:103DA0004F0E511CF801C080D180692D70E036FCA7
:103DB00002C06FEF7FEFC6010E9411204C0182010B
:103DC000D5CFB70180E290E00E941C202A942814ED
:103DD000190409F0B0F7CECFF60137FC859137FE14
:103DE00081916F01B70190E00E941C2051105A94FC
:103DF000F1E08F1A9108BFCF843619F0893609F0A7
:103E000077C0F80137FE6BC0608171818281938138
:103E10000C5F1F4FF32DFF763F2E97FF09C0909543
:103E20008095709561957F4F8F4F9F4F689437F8BD
:103E30002AE030E0A5010E944C20C82ECA188C2C24
:103E4000432C36FE0CC0E89440F8C91440F434FE0C
:103E500005C032FC03C0F32DFE7E4F2E892C44FE9C
:103E6000AAC0FE01EC0DF11D8081803309F09CC0D9
:103E7000242D297E422E842D8870582E43FCAAC002
:103E800040FEA4C09C2C821418F42C0C922C981880
:103E900044FEA6C0B70180E390E00E941C2042FED1
:103EA00009C088E790E041FE02C088E590E0B701D4
:103EB0000E941C20C91408F49FC0CA94D12C9FEF03
:103EC000C91AD90ACA0CDB1CF60182916F01B7012D
:103ED00090E00E941C20AC14BD04B1F74FCF60816C
:103EE0007181072E000C880B990B0E5F1F4F92CF2C
:103EF000D32CE894D4F82AE030E08537E1F1232D83
:103F0000297FD22E8F36A9F1F0F4883551F1F701CF
:103F1000868197812B960FB6F894DEBF0FBECDBF7A
:103F2000DF91CF911F910F91FF90EF90DF90CF9095
:103F3000BF90AF909F908F907F906F905F904F90C9
:103F40003F902F900895803749F0883701F7D4FECD
:103F500002C06894D2F820E130E00DC06894D4F833
:103F6000F6CF34FE03C0822F8660D82E20E132E0E7
:103F700002C028E030E0F801D7FE0FC060817181F7
:103F8000828193810C5F1F4FA5010E944C20C82E97
:103F9000CA183D2CE89437F852CF6081718190E0C7
:103FA00080E00E5F1F4FF0CF42FC02C0839463CFCE
:103FB0008394839460CF842D867809F45CCFF6CF08
:103FC000B70180E290E00E941C2083948214C0F329
:103FD000512C5ECF522C5818821408F459CFF8CFC8
:103FE000842D867809F466CF8BE241FE80E247FC9F
:103FF0008DE2B70190E05CCFB70180E390E00E94D2
:104000001C209A9457CF8FEF9FEF84CFFC0105902F
:10401000615070400110D8F7809590958E0F9F1FCA
:104020000895FC016150704001900110D8F780950F
:1040300090958E0F9F1F08950F931F93CF93DF933B
:10404000182F092FEB018B8181FD09C01FEF0FEFA6
:10405000812F902FDF91CF911F910F91089582FFB3
:1040600014C02E813F818C819D81281739073CF433
:10407000E881F981CF0101969983888310838E812D
:104080009F8101969F838E83E3CFE885F985812FF9
:104090001995892BA1F3DACFFA01AA27283051F11B
:1040A000203181F1E8946F936E7F6E5F7F4F8F4F69
:1040B0009F4FAF4FB1E03ED0B4E03CD0670F781FC8
:1040C000891F9A1FA11D680F791F8A1F911DA11DAD
:1040D0006A0F711D811D911DA11D20D009F46894E6
:1040E0003F912AE0269F11243019305D3193DEF68E
:1040F000CF010895462F4770405D4193B3E00FD044
:10410000C9F7F6CF462F4F70405D4A3318F0495D2E
:1041100031FD4052419302D0A9F7EACFB4E0A69511
:104120009795879577956795BA95C9F70097610533
:10413000710508959B01AC010A2E06945795479589
:1041400037952795BA95C9F7620F731F841F951F7E
:10415000A01D0895F894FFCF8C0046008C008C00C1
:1041600023005F00910046002C008C0023003200E9
:104170008C0023005A008C00230084000A000A00EF
:10418000320000008C0046008C008C0023005F0091
:10419000910046002C008C000A0032008C002300A5
:1041A0005A008C0023008400140014001400010045
:1041B0008C0046008C008C0023005F0091004600BC
:1041C0002C0078000A0032008C0023005A008C007A
:1041D000230084000A000A000A0000008C00460048
:1041E0008C008C0023005F00910046002C007800BA
:1041F000280032008C0023005A008C002300840029
:1042000000000000000000008C0046008C008C00C4
:1042100000005F00910046002C007800280032006A
:104220008C0023005A008C00230084000000000052
:10423000000000008C0046008C008C0000006E0026
:10424000910046002C007800280032008C002300EA
:104250005A008C00230084000000000000000000D1
:104260008C0046008C008C0023006E0091004600FC
:104270002C007800280032008C0023005A008C00AB
:104280002300840000000000000000008C004600B5
:104290008C008C0023006E00910046002C007800FA
:1042A000280032008C0023005A008C000A00840091
:1042B00000000000000000008C0046008C008C0014
:1042C00023006E00910046002C0078002800320088
:1042D0008C0023005A0091000A00840000000000B6
:1042E000000000008C0046008C008C0023006E0053
:1042F000910046002C007800280032008C0023003A
:104300005A0091002B008400000000000000000013
:104310008C0028008C008C0023006E009100460069
:104320002C007800280032008C0023005A009100F5
:104330002B00840000000000000000007300280033
:104340008C008C0023006E00910046002C00780049
:10435000280032008C0023005A0091002B008400BA
:10436000000000000000000073004D008C008C0075
:1043700023006E00910046002C00780028003200D7
:104380008C0023005A0091002B00840000000000E4
:104390000000000073004D008C008C0023006E00B4
:1043A000910046002C007800280032008C000500A7
:1043B0005A0091002B008400000000000000000063
:1043C00073004D008C008C0023006E0091004600AD
:1043D0002C007800280032008C0005004B00910072
:1043E0002B008400000000000000000073004D005E
:1043F0008C008C0023006E00910046002C00780099
:10440000280032008C0023004B0091002B00840018
:10441000000000000000000073004D008C008C00C4
:1044200023006E0091002D002C007800280032003F
:104430008C0023004B0091002B0084000000000042
:104440000000000073004D008C008C0023006E0003
:104450009B002D002C007800280032008C002300E7
:104460004B0091002B0084000000000000000000C1
:1044700073004D008C008C0023006E009B005200E6
:104480002C007800280032008C0023004B009100A3
:104490002B008400000000000000000078004B00AA
:1044A0008C008C0023006900960049002C007D00E0
:1044B000260032008C00230050008C002200840073
:1044C00000000000000000007D0049008C008C000E
:1044D00023006400910048002C0082002400320078
:1044E0008C0023005500870021008400000000009C
:1044F00000000000820048008C008C0023005F0058
:104500008C0048002C008700230032008C00230020
:104510005A0082002100840000000000000000001A
:10452000870048008C008C0023005A008700490057
:104530002C008C00230032008C0023005F007D00E3
:104540002200840000000000000000008C004900F0
:104550008C008C002300550082004B002C00910041
:10456000240032008C0023006400780024008400C2
:104570000000000000000000910052008C008C0040
:10458000230050007D004D002C0096002D003200CD
:104590008C002300690073002600840000000000E6
:1045A00000000000910052008C008C00230050009D
:1045B0007D004D002C0096000A0032008C00230084
:1045C0006900730026008400000000000000000065
:1045D000910052008C008C00230050007D004D00A3
:1045E0002C0078000A0032008C0023006900730060
:1045F000260084000000000000000000910052002E
:104600008C008C00230050007D004D002C007800B1
:10461000280032008C00230069007300260084000B
:104620000000000000000000910052008C008C008F
:10463000000050007D004D002C0078002800320062
:104640008C00230069007300260084000000000035
:1046500000000000910052008C008C0000006E00F1
:104660007D004D002C007800280032008C002300D3
:1046700069007300260084000000000000000000B4
:10468000910052008C008C0023006E007D004D00D4
:104690002C007800280032008C0023006900730091
:1046A000260084000000000000000000910052007D
:1046B0008C008C0023006E007D004D002C007800E3
:1046C000280032008C002300690073000A00840077
:1046D0000000000000000000910052008C008C00DF
:1046E00023006E007D004D002C0078002800320071
:1046F0008C002300690091000A0084000000000083
:1047000000000000910052008C008C0023006E001D
:104710007D004D002C007800280032008C00230022
:10472000690091002B0084000000000000000000E0
:10473000910028008C008C0023006E007D004D004D
:104740002C007800280032008C00230069009100C2
:104750002B0084000000000000000000730028000F
:104760008C008C0023006E007D004D002C00780032
:10477000280032008C002300690091002B00840087
:10478000000000000000000073004D008C008C0051
:1047900023006E007D004D002C00780028003200C0
:1047A0008C002300690091002B00840000000000B1
:1047B0000000000073004D008C008C0023006E0090
:1047C0007D004D002C007800280032008C00050090
:1047D000690091002B008400000000000000000030
:1047E00073004D008C008C0023006E007D004D0096
:1047F0002C007800280032008C0005004B0091004E
:104800002B008400000000000000000073004D0039
:104810008C008C0023006E007D004D002C00780081
:10482000280032008C0023004B0091002B008400F4
:10483000000000000000000073004D008C008C00A0
:1048400023006E007D0028002C0078002800320034
:104850008C0023004B0091002B008400000000001E
:104860000000000073004D008C008C0023006E00DF
:104870009B0028002C007800280032008C002300C8
:104880004B0091002B00840000000000000000009D
:1048900073004D008C008C0023006E009B005200C2
:1048A0002C007800280032008C0023004B0091007F
:1048B0002B008400000000000000000078004B0086
:1048C0008C008C0023006900960049002C007D00BC
:1048D000260032008C00230050008C00220084004F
:1048E00000000000000000007D0049008C008C00EA
:1048F00023006400910048002C0082002400320054
:104900008C00230055008700210084000000000077
:1049100000000000820048008C008C0023005F0033
:104920008C0048002C008700230032008C002300FC
:104930005A008200210084000000000000000000F6
:10494000870048008C008C0023005A008700490033
:104950002C008C00230032008C0023005F007D00BF
:104960002200840000000000000000008C004900CC
:104970008C008C002300550082004B002C0091001D
:10498000240032008C00230064007800240084009E
:104990000000000000000000910052008C008C001C
:1049A000230050007D004D002C0096002D003200A9
:1049B0008C002300690073002600840000000000C2
:1049C000000000008C0046008C008C0023005F007B
:1049D000910046002C008C00230032008C00230044
:1049E0005A008C00230084000A000A000A0001001B
:1049F000A7086F046F046F046F046F046F046F04E3
:104A00006F04910052008C008C00230050007D0048
:104A10004D002C0096000A0032008C002300690033
:104A200073002600840000000000000000009100D8
:104A300052008C008C00230050007D004D002C00A3
:104A400078000A0032008C00230069007300260001
:104A500084000000000000000000910052008C0063
:104A60008C00230050007D004D002C0078002800B1
:104A700032008C00230069007300260084000000CF
:104A8000000000000000910052008C008C0000002B
:104A900050007D004D002C007800280032008C0072
:104AA000230069007300260084000000000000005D
:104AB0000000910052008C008C0000006E007D0010
:104AC0004D002C007800280032008C002300690083
:104AD0007300260084000000000000000000910028
:104AE00052008C008C0023006E007D004D002C00D5
:104AF0007800280032008C00230069007300260033
:104B000084000000000000000000910052008C00B2
:104B10008C0023006E007D004D002C0078002800E2
:104B200032008C002300690073000A00840000003A
:104B3000000000000000910052008C008C00230057
:104B40006E007D004D002C007800280032008C00A3
:104B50002300690091000A008400000000000000AA
:104B60000000910052008C008C0023006E007D003C
:104B70004D002C007800280032008C0023006900D2
:104B800091002B0084000000000000000000910054
:104B900028008C008C0023006E007D004D002C004E
:104BA0007800280032008C002300690091002B005F
:104BB00084000000000000000000730028008C004A
:104BC0008C0023006E007D004D002C007800280032
:104BD00032008C002300690091002B00840000004B
:104BE00000000000000073004D008C008C002300CA
:104BF0006E007D004D002C007800280032008C00F3
:104C00002300690091002B008400000000000000D8
:104C1000000073004D008C008C0023006E007D00AE
:104C20004D002C007800280032008C00050069003F
:104C300091002B00840000000000000000007300C1
:104C40004D008C008C0023006E007D004D002C0078
:104C50007800280032008C0005004B0091002B00EA
:104C60008400000000000000000073004D008C0074
:104C70008C0023006E007D004D002C007800280081
:104C800032008C0023004B0091002B0084000000B8
:104C900000000000000073004D008C008C00230019
:104CA0006E007D0028002C007800280032008C0067
:104CB00023004B0091002B00840000000000000046
:104CC000000073004D008C008C0023006E009B00E0
:104CD00028002C007800280032008C0023004B00B4
:104CE00091002B0084000000000000000000730011
:104CF0004D008C008C0023006E009B0052002C00A5
:104D00007800280032008C0023004B0091002B001B
:104D10008400000000000000000078004B008C00C0
:104D20008C0023006900960049002C007D002600BD
:104D300032008C00230050008C0022008400000010
:104D40000000000000007D0049008C008C00230062
:104D50006400910048002C008200240032008C0086
:104D6000230055008700210084000000000000009F
:104D70000000820048008C008C0023005F008C0043
:104D800048002C008700230032008C0023005A00CA
:104D90008200210084000000000000000000870065
:104DA00048008C008C0023005A00870049002C002A
:104DB0008C00230032008C0023005F007D00220065
:104DC000840000000000000000008C0049008C00FE
:104DD0008C002300550082004B002C009100240021
:104DE00032008C002300640078002400840000005E
:104DF000000000000000910052008C008C00230095
:104E000050007D004D002C0096002D0032008C00DB
:104E100023006900730026008400000000000000E9
:104E200000000102038C0046008C008C0023005F10
:104E300000910046002C008C00230032008C0023DF
:104E4000005A008C00230084000A000A000A0001B6
:104E5000008C0046008C008C0023005F009100460F
:104E6000002C008C00230032008C0023005A008CA0
:104E70000023008400B40052008C00B40025006EB2
:104E800000B40052007800B40032007800B400236F
:104E9000006900B4002B0084007300280041007DED
:104EA00000000050007D0028002C0078000A00322D
:104EB000007D0005004B0073000A003C000000006C
:104EC00000060570049D045305CE04AC04C0040024
:104ED0000000000808DB07A408B107D407C107B227
:104EE000070D0A002053797374656D206E6F74206E
:104EF000696E69742000E382BFE382A4E3839EE3CA
:104F000083BCE4B88AE99990E382A8E383A9E383A8
:104F1000BC00E382BFE382A4E3839EE383BC4944F5
:104F2000E3818CE5AD98E59CA8E38197E381AAE352
:104F3000818400E38193E3828CE38282E38186E7CC
:104F400084A1E79086E38284E381A7002D2D2D20A4
:104F50006C5475726E5363656E65496E707574201E
:104F60002D2D2D002D2D2D206C5475726E536365E3
:104F70006E65496E70757420636F756E746572200E
:104F80006F766572202D2D2D0A002D2D2D20737426
:104F90007261696768745363656E65496E70757494
:104FA000202D2D2D002D2D2D2073747261696768C1
:104FB000745363656E65496E70757420636F756EAA
:104FC000746572206F766572202D2D2D0A0053793D
:104FD0007374656D205374617274000A2D2D2D2039
:104FE00054455354205354415254202D2D2D2D0AF5
:104FF000002D2D2D205363656E6520496E707574EC
:10500000205374617274202D2D2D002D2D2D2073B1
:1050100063656E6172696F636F756E746572202D62
:105020002D2D002D2D2D207363656E65636F756EBC
:10503000746572202D2D2D002D2D2D206368656344
:105040006B6572202D2D2D002D2D2D207254757223
:105050006E5363656E65496E707574202D2D2D003D
:105060002D2D2D20725475726E5363656E65496ED9
:1050700070757420636F756E746572206F766572DB
:10508000202D2D2D0A002D2D2D207363656E654971
:105090006E75707574207363656E65636865636BA8
:1050A0006572206572726F72202D2D2D0A002D2DD4
:1050B0002D207363656E65636865636B6572202D73
:1050C0002D2D002D2D2D202A4552524F5220536355
:1050D000656E65496E70757420504152414D202AAD
:1050E0002D2D2D002D2D2D207363656E6520636F92
:1050F000756E746572206F766572202D2D2D002DD2
:105100002D2D20616E676C6520736574202D2D2D0B
:10511000002D2D2D20283829202D2D2D0A00E38249
:10512000BFE382A4E3839EE383BCE996A2E980A364
:10513000E382A8E383A9E383BC3A2025640072726A
:10514000727272727272000A2D2D2D20454E44200B
:105150002D2D2D2D0A002D2D2D2063616C6C62618B
:10516000636B207374617274202D2D2D002D2D2DF5
:10517000207363656E6542757379202D2D2D0000B7
:020000040003F7
:10E000000D9489F10D94B2F10D94B2F10D94B2F129
:10E010000D94B2F10D94B2F10D94B2F10D94B2F1F0
:10E020000D94B2F10D94B2F10D94B2F10D94B2F1E0
:10E030000D94B2F10D94B2F10D94B2F10D94B2F1D0
:10E040000D94B2F10D94B2F10D94B2F10D94B2F1C0
:10E050000D94B2F10D94B2F10D94B2F10D94B2F1B0
:10E060000D94B2F10D94B2F10D94B2F10D94B2F1A0
:10E070000D94B2F10D94B2F10D94B2F10D94B2F190
:10E080000D94B2F10D94B2F10D94B2F10D94B2F180
:10E090000D94B2F10D94B2F10D94B2F10D94B2F170
:10E0A0000D94B2F10D94B2F10D94B2F10D94B2F160
:10E0B0000D94B2F10D94B2F10D94B2F10D94B2F150
:10E0C0000D94B2F10D94B2F10D94B2F10D94B2F140
:10E0D0000D94B2F10D94B2F10D94B2F10D94B2F130
:10E0E0000D94B2F141546D656761323536300041AF
:10E0F000726475696E6F206578706C6F72657220DE
:10E1000073746B3530305632206279204D4C530099
:10E11000426F6F746C6F616465723E004875683F52
:10E1200000436F6D70696C6564206F6E203D200048
:10E130004350552054797065202020203D20005FF9
:10E140005F4156525F415243485F5F3D2000415658
:10E1500052204C696243205665723D20004743437C
:10E160002056657273696F6E203D20004350552024
:10E1700049442020202020203D20004C6F7720663D
:10E18000757365202020203D20004869676820665F
:10E190007573652020203D200045787420667573D6
:10E1A00065202020203D20004C6F636B2066757336
:10E1B000652020203D20004D617220203720323024
:10E1C000313300312E362E3800342E332E350056A2
:10E1D00023202020414444522020206F7020636F70
:10E1E00064652020202020696E73747275637469E1
:10E1F0006F6E2061646472202020496E74657272B3
:10E20000757074006E6F20766563746F7200726A49
:10E210006D702020006A6D70200057686174207056
:10E220006F72743A00506F7274206E6F7420737541
:10E2300070706F72746564004D7573742062652030
:10E2400061206C6574746572002000577269747483
:10E25000696E672045450052656164696E672045B7
:10E26000450045452065727220636E743D00504F35
:10E27000525400303D5A65726F2061646472003FF1
:10E280003D43505520737461747300403D454550C3
:10E29000524F4D207465737400423D426C696E6B41
:10E2A000204C454400453D44756D70204545505215
:10E2B0004F4D00463D44756D7020464C415348001B
:10E2C000483D48656C70004C3D4C69737420492F83
:10E2D0004F20506F72747300513D51756974005234
:10E2E0003D44756D702052414D00563D73686F7707
:10E2F00020696E7465727275707420566563746FF0
:10E30000727300593D506F727420626C696E6B00BD
:10E310002A0011241FBECFEFD1E2DEBFCDBF01E046
:10E320000CBF12E0A0E0B2E0EEE1FDEF03E00BBFB6
:10E3300002C007900D92A030B107D9F712E0A0E01B
:10E34000B2E001C01D92AE30B107E1F70F9460F367
:10E350000D948DFE01E20EBF0FEF0DBF11241FBE05
:10E360000D9460F30D9400F020E030E040ED57E0B4
:10E3700005C0FA013197F1F72F5F3F4F2817390792
:10E38000C0F308959C01260F311DC901A0E0B0E043
:10E390002F5F3F4FABBFFC018791882361F08093D3
:10E3A000C6008091C00086FFFCCF8091C0008064D1
:10E3B0008093C000EACF08958DE08093C6008091DD
:10E3C000C00086FFFCCF8091C00080648093C000B5
:10E3D0008AE08093C6008091C00086FFFCCF8091C8
:10E3E000C00080648093C00008950F94C2F10F9420
:10E3F000DCF10895FC019081992359F09093C600B7
:10E400008091C00086FFFCCF8091C0008064809323
:10E41000C0003196992379F70895282F982F929567
:10E420009F70892F805D8A3308F0895F8093C600D2
:10E430008091C00086FFFCCF8091C00080648093F3
:10E44000C000822F8F70982F905D9A3308F0995FEB
:10E450009093C6008091C00086FFFCCF8091C000E1
:10E4600080648093C00008959C01FB01853691056E
:10E470001CF46330710594F0C90164E670E00F94F8
:10E480002EFE605D7F4F6093C6008091C00086FFC6
:10E49000FCCF8091C00080648093C0002B30310598
:10E4A00014F43297B4F0C90164E670E00F942EFEC4
:10E4B0006AE070E00F942EFE605D7F4F6093C600AF
:10E4C0008091C00086FFFCCF8091C0008064809363
:10E4D000C000C9016AE070E00F942EFEC0968093E0
:10E4E000C6008091C00086FFFCCF8091C000806490
:10E4F0008093C00008951F93182F8EE692EE60E07F
:10E500000F94C2F11093C6008091C00086FFFCCF2B
:10E510008091C00080648093C0000F94DCF11F9153
:10E5200008952F923F924F925F926F927F928F92B7
:10E530009F92AF92BF92CF92DF92EF92FF920F9392
:10E540001F93DF93CF93CDB7DEB762970FB6F894E2
:10E55000DEBF0FBECDBF382E622ECA01DB015C01CB
:10E560006D01772420E2222E2E010894411C511CBB
:10E570008BC081E0A81680E0B80681E0C80680E084
:10E58000D80628F0C601AA27BB270F940DF2BB2797
:10E59000AD2D9C2D8B2D0F940DF28A2D0F940DF225
:10E5A0002092C6008091C00086FFFCCF8091C00001
:10E5B00080648093C0009DE29093C6008091C0006B
:10E5C00086FFFCCF8091C00080648093C0002092C1
:10E5D000C6008091C00086FFFCCF8091C00080649F
:10E5E0008093C00019828601750188249924A1E0D6
:10E5F0003A1651F03A1620F0B2E03B1661F409C029
:10E600000BBFF701779007C0C7010F9477FE782EF4
:10E6100002C0F7017080872D0F940DF22092C60082
:10E620008091C00086FFFCCF8091C0008064809301
:10E63000C000872D8052F401EF70F0708F3520F408
:10E64000E40DF51D708204C0E40DF51D8EE280839B
:10E650000894E11CF11C011D111D0894811C911CE2
:10E6600090E18916910409F0C2CF80E190E0A0E02A
:10E67000B0E0A80EB91ECA1EDB1E198AC2010F9493
:10E68000FAF10F94DCF16A94662009F072CF629679
:10E690000FB6F894DEBF0FBECDBFCF91DF911F91B3
:10E6A0000F91FF90EF90DF90CF90BF90AF909F9031
:10E6B0008F907F906F905F904F903F902F90089534
:10E6C0002F923F924F925F926F927F928F929F9282
:10E6D000AF92BF92CF92DF92EF92FF920F931F9370
:10E6E000DF93CF93CDB7DEB7CD53D1400FB6F894BB
:10E6F000DEBF0FBECDBF01E20EBF0FEF0DBF94B75F
:10E70000F894A89514BE80916000886180936000A1
:10E7100010926000789493FF05C0E0910002F091A0
:10E7200001021995279A2F9A8091C00082608093E8
:10E73000C00080E18093C40088E18093C1000000A4
:10E74000EE24FF24870144E0A42EB12CCC24DD2448
:10E7500024C0C5010197F1F70894E11CF11C011DCB
:10E76000111D21E2E2162EE4F20620E0020720E06D
:10E77000120718F031E0C32ED12CC801B70127ECE5
:10E780003BE140E050E00F9441FE611571058105C9
:10E79000910519F485B1805885B98091C00087FD35
:10E7A00003C0C114D104A9F2A6014F5F5F4FC25E3E
:10E7B000DE4F59834883CE51D140C25EDE4F8881FF
:10E7C0009981CE51D140019711F00D9410FEC05D9A
:10E7D000DE4F19821882C053D14060E0C15DDE4F28
:10E7E0001882CF52D14088249924C35DDE4F19820C
:10E7F0001882CD52D140C05EDE4F188219821A8233
:10E800001B82C052D140CE5CDE4F188219821A8220
:10E810001B82C253D140EE24FF2487010BBFF701B6
:10E8200007911691C45CDE4F19830883CC53D14005
:10E830000D940BFEC25EDE4F28813981CE51D1404E
:10E840002130310509F52091C600C25EDE4F1982E4
:10E850001882CE51D14022C02F5F3F4F4F4F5F4FA4
:10E86000213082E138078AE7480780E0580780F0C6
:10E87000C45CDE4FE881F981CC53D140EF5FFF4F9C
:10E8800019F0EE27FF27099420E030E040E050E047
:10E890008091C00087FFE0CF2091C600C35DDE4FAE
:10E8A00048815981CD52D1404F5F5F4FC35DDE4FEC
:10E8B00059834883CD52D140213209F063C64A3092
:10E8C000510508F05FC60894811C911C53E0851621
:10E8D000910409F059C600E010E018C081E280936D
:10E8E000C6008091C00086FFFCCF8091C00080648C
:10E8F0008093C0002F5F3F4F2931310579F70F9486
:10E90000DCF10F5F1F4F0530110519F020E030E0FA
:10E91000E5CF10920A0210920B0210920C02109294
:10E920000D02109206021092070210920802109235
:10E930000902109202021092030210920402109235
:10E9400005028FEE90EE60E00F94F5F180E191EE1C
