:100000000C945B010C94330E0C94080E0C94DD0DD3
:100010000C94B20D0C94870D0C945C0D0C94310D66
:100020000C94060D0C948C010C948C010C948C0196
:100030000C948C010C948C010C948C010C948C010C
:100040000C948C010C948C010C948C010C948C01FC
:100050000C94E20F0C948C010C948C010C94BC0C4D
:100060000C948C010C94880E0C945E0E0C948C01F4
:100070000C948C010C948C010C948C010C948C01CC
:100080000C948C010C948C010C948C010C948C01BC
:100090000C948C010C948C010C948C010C94BE0E6D
:1000A0000C948C010C948C010C948C010C948C019C
:1000B0000C948C010C948C010C948C010C948C018C
:1000C0000C948C010C948C010C948C010C948C017C
:1000D0000C948C010C948C010C948C010C948C016C
:1000E0000C948C010C94DC030C941D020C940502FE
:1000F0000C940F020C94F4010C94AC040C94F801D1
:100100000C94FF010C94D4070C9417020C94F0018A
:100110000C94C1070C94C0040C9406050C94590669
:100120000C946F040C94A7080C94DB070C94B20792
:100130000C940D100C94B1070C94A4080C94FC01C1
:100140000C9425020C942A020C9412030C9453056F
:100150000C94880C0C94EA010C9413020C94090280
:100160000C942B020C942F020C945A060C94080841
:100170000C94060C0C9441040C94320C0C94210247
:100180000C949D040C94CE040C945D0C0C94770399
:100190000C94700400002100240027002A002D0088
:1001A0003000330001010000040107010A010000D2
:1001B0002200250028002B002E003100340002010F
:1001C0000000050108010B010000200023002600AB
:1001D00029002C002F00320000010000030106015D
:1001E00009010505050507050808080802020202BD
:1001F0000A0A0808040404040101010101010101C3
:100200000303030303030303040707070C0C0C0C8D
:100210000C0C0C0C02020202060606060606060676
:100220000B0B0B0B0B0B0B0B010210202008081003
:100230002040102040800201020108040201010256
:10024000040810204080804020100804020180042F
:10025000020180402010080402010804020101028A
:100260000408102040800102040810204080000093
:100270000A0B02090C0D0E08070304010000000020
:10028000000000000000000000000000000000006E
:10029000000000000000000000001211100000002B
:1002A000000000000000000000000000000000004E
:1002B000000000000D1011241FBECFEFD1E2DEBF01
:1002C000CDBF00E00CBF19E1A0E0B2E0E2E3FCE347
:1002D00000E00BBF02C007900D92A630B107D9F71E
:1002E0002FE1A6E0B9E101C01D92AA37B207E1F7FC
:1002F00011E0CBE5D1E000E006C021970109802F95
:10030000FE010E94381BCA35D10780E00807A9F713
:100310000E94AD100C94171E0C940000CF92DF9237
:10032000EF92FF92CF93DF93EC016EA57FA588A992
:1003300099A90E94BC199B01AC0160E070E088ECB7
:1003400091E40E9414196B017C01AC019B01688946
:1003500079898A899B890E94CB1A688B798B8A8BD1
:100360009B8BA70196016C897D898E899F890E944C
:1003700014196C8B7D8B8E8B9F8B89E190E0A0E0B4
:10038000B0E08EA79FA7A8ABB9ABDF91CF91FF904C
:10039000EF90DF90CF9008958150823108F05AC0DD
:1003A000E82FF0E08827E852FE4F8F4F0C94381B5F
:1003B000F801FC01EA01F001F4012A02FF01050243
:1003C00009020F02130217021D0221022A0225024E
:1003D0002B022F02809180008F77809380000895F8
:1003E000809180008F7DF9CF80918000877FF5CF4D
:1003F00084B58F7784BD089584B58F7DFBCF8091C0
:10040000B0008F778093B00008958091B0008F7D09
:10041000F9CF809190008F7780939000089580911C
:1004200090008F7DF9CF80919000877FF5CF8091EC
:10043000A0008F778093A00008958091A0008F7D09
:10044000F9CF8091A000877FF5CF809120018F7731
:10045000809320010895809120018F7DF9CF8091B4
:100460002001877FF5CFCF93DF93282F30E0F9016C
:10047000E259FD4F8491F901E85DFD4FD491F901F6
:10048000EE51FE4FC491CC23A1F081110E94CC010A
:10049000EC2FF0E0EE0FFF1FE853FE4FA591B49153
:1004A000EC91ED2381E090E009F480E0DF91CF91C1
:1004B000089580E090E0FACF1F93CF93DF93282F29
:1004C00030E0F901E259FD4F8491F901E85DFD4FFB
:1004D000D491F901EE51FE4FC491CC23A9F0162F0F
:1004E00081110E94CC01EC2FF0E0EE0FFF1FE255CE
:1004F000FE4FA591B4918FB7F894EC91111108C0FB
:10050000D095DE23DC938FBFDF91CF911F910895AB
:10051000DE2BF8CFCF93DF9390E0FC01E85DFD4F39
:1005200024918E519E4FFC0184918823D1F090E05C
:10053000880F991FFC01EC56FE4FA591B491FC0168
:10054000E255FE4FC591D49161110EC09FB7F8944A
:100550008C91E22FE0958E238C932881E223E8830F
:100560009FBFDF91CF9108958FB7F894EC91E22B64
:10057000EC938FBFF6CF3FB7F89480919C1D90917C
:100580009D1DA0919E1DB0919F1D26B5A89B05C0E5
:100590002F3F19F00196A11DB11D3FBFBA2FA92F02
:1005A000982F8827BC01CD01620F711D811D911DFF
:1005B00042E0660F771F881F991F4A95D1F708956B
:1005C0008F929F92AF92BF92CF92DF92EF92FF9263
:1005D0004B015C010E94BB026B017C010E94BB02CB
:1005E0006C197D098E099F09683E7340810591054C
:1005F000A8F321E0821A9108A108B10888EEC80E7C
:1006000083E0D81EE11CF11C81149104A104B10403
:1006100029F7FF90EF90DF90CF90BF90AF909F9021
:100620008F900895CF92DF92EF92FF92CF93DF9356
:1006300082E10E943302C0918A19D0918B190197EF
:1006400039F488E10E943302892B39F4219706C0DE
:1006500088E10E943302892BC9F72196D0938B1928
:10066000C0938A1960918A1970918B19072E000C1A
:10067000880B990B0E94BE196B017C012FE832ECAC
:100680004DE850E40E94C61A1816F4F42FE832EC34
:100690004DE850E4C701B6010E94A2180E948619D5
:1006A00070938B1960938A1980918C1990918D1990
:1006B000019690938D1980938C19DF91CF91FF90C3
:1006C000EF90DF90CF9008952FE832EC4DE850EC9A
:1006D000C701B6010E940F1987FFEFCF2FE832EC58
:1006E0004DE850E4C701B6010E94A318D7CFCF92BE
:1006F000DF92EF92FF92CF93DF9382E00E9433026A
:10070000C0918419D0918519019739F486E10E942E
:100710003302892B39F4219706C086E10E94330207
:10072000892BC9F72196D0938519C09384196091BC
:10073000841970918519072E000C880B990B0E9463
:10074000BE196B017C0126E636E64EEB51E40E94B1
:10075000C61A1816F4F426E636E64EEB51E4C70145
:10076000B6010E94A2180E948619709385196093A1
:10077000841980918819909189190196909389190B
:1007800080938819DF91CF91FF90EF90DF90CF9009
:10079000089526E636E64EEB51ECC701B6010E94FD
:1007A0000F1987FFEFCF26E636E64EEB51E4C7017F
:1007B000B6010E94A318D7CFCF92DF92EF92FF929B
:1007C000CF93DF9383E00E943302C0918219D091CE
:1007D0008319019739F487E10E943302892B39F498
:1007E000219706C087E10E943302892BC9F7219621
:1007F000D0938319C09382196091821970918319E3
:10080000072E000C880B990B0E94BE196B017C010E
:1008100026E636E64EEB51E40E94C61A1816F4F4AA
:1008200026E636E64EEB51E4C701B6010E94A21857
:100830000E9486197093831960938219809186199A
:100840009091871901969093871980938619DF916B
:10085000CF91FF90EF90DF90CF90089526E636E697
:100860004EEB51ECC701B6010E940F1987FFEFCF85
:1008700026E636E64EEB51E4C701B6010E94A31806
:10088000D7CF80917D1990917E19A0917F19B09159
:1008900080190196A11DB11D80937D1990937E1939
:1008A000A0937F19B0938019EBE7FAE180819181E1
:1008B000A281B381892B8A2B8B2B59F0848195815E
:1008C000A681B7810196A11DB11D84839583A6835E
:1008D000B78370968DE1EB39F80741F708950895D5
:1008E000AF92BF92CF92DF92EF92FF920F931F933E
:1008F000CF93DF936C017B018B01040F151FEB017C
:100900005E01AE18BF08C017D10759F06991D60132
:10091000ED91FC910190F081E02DC6011995892B94
:1009200079F7C501DF91CF911F910F91FF90EF9063
:10093000DF90CF90BF90AF900895FC01538D448D10
:10094000252F30E0842F90E0821B930B541710F07A
:10095000CF96089501970895FC01918D828D981787
:1009600061F0A28DAE0FBF2FB11D5D968C91928D5F
:100970009F5F9F73928F90E008958FEF9FEF089590
:10098000FC01918D828D981731F0828DE80FF11D59
:10099000858D90E008958FEF9FEF0895FC01918D74
:1009A000228D892F90E0805C9F4F821B91098F736D
:1009B0009927089584EF9DE10E94CE0421E0892BC0
:1009C00009F420E0822F0895FC01A48DA80FB92F0F
:1009D000B11DA35ABF4F2C91848D90E001968F7367
:1009E0009927848FA689B7892C93A089B1898C9186
:1009F000837080648C93938D848D981306C00288D5
:100A0000F389E02D80818F7D80830895EF92FF929E
:100A10000F931F93CF93DF93EC0181E0888F9B8D21
:100A20008C8D98131AC0E889F989808185FF15C0DB
:100A30009FB7F894EE89FF896083E889F9898081FE
:100A40008370806480839FBF81E090E0DF91CF91CD
:100A50001F910F91FF90EF900895F62E0B8D10E0EF
:100A60000F5F1F4F0F731127E02E8C8D8E110CC05E
:100A70000FB607FCFACFE889F989808185FFF5CFA9
:100A8000CE010E94E404F1CFEB8DEC0FFD2FF11DA0
:100A9000E35AFF4FF0829FB7F8940B8FEA89FB89E6
:100AA00080818062CFCFCF93DF93EC01888D882344
:100AB000B9F0AA89BB89E889F9898C9185FD03C0C1
:100AC000808186FD0DC00FB607FCF7CF8C9185FFA6
:100AD000F2CF808185FFEDCFCE010E94E404E9CF03
:100AE000DF91CF91089580E090E0892B29F00E945A
:100AF000DA0481110E94000080E090E0892B49F027
:100B000080E090E0892B29F00E94000081110E9472
:100B1000000080E090E0892B49F080E090E0892B94
:100B200029F00E94000081110E94000080E090E006
:100B3000892B49F080E090E0892B29F00E94000089
:100B400081110C94000008952F923F924F925F9272
:100B50006F927F928F929F92AF92BF92CF92DF92CD
:100B6000EF92FF920F931F93CF93DF931C016A01C3
:100B70007B0128013901FC01C68DD78D88809980C1
:100B8000AA80BB80A9019801C501B4010E94C61AC0
:100B900018166CF5488259826A827B82F10186A020
:100BA00097A0A0A4B1A4C6A8D7A8E0ACF1ACA701B7
:100BB0009601C501B4010E94C61AF101181624F568
:100BC000C6A2D7A2E0A6F1A6DF91CF911F910F9107
:100BD000FF90EF90DF90CF90BF90AF909F908F905D
:100BE0007F906F905F904F903F902F900895A70156
:100BF0009601C501B4010E940F1987FFCFCFC882AB
:100C0000D982EA82FB82CACFC2A8D3A8E4A8F5A8F9
:100C1000A7019601C501B4010E940F1987FFD4CF27
:100C2000F101CECF8F929F92AF92BF92CF92DF927F
:100C3000EF92FF92CF93DF93EC01EE8DFF8DC0809A
:100C4000D180E280F380CEA2DFA2E8A6F9A6EC8DE7
:100C5000FD8D80819181A281B3818AA79BA7ACA7DA
:100C6000BDA78EA89FA8A8ACB9ACA5019401C701E7
:100C7000B6010E94C61A18162CF48EA29FA2A8A62E
:100C8000B9A60CC08AA89BA8ACA8BDA8A5019401D0
:100C9000C701B6010E940F1987FDEFCFDF91CF91F9
:100CA000FF90EF90DF90CF90BF90AF909F908F908C
:100CB00008950895089520913119260F3327331F81
:100CC00021323105ECF42091C61DFC0190E080E05A
:100CD000243069F082E00895A09131192191AC018E
:100CE0004F5E564EA40FB52FB11D2C93019686175B
:100CF00098F380913119680F6093311980E008955D
:100D000081E008951092C61D81E08093C51D109268
:100D1000A01D61E084E10E945C0261E085E10E9427
:100D20005C02E9EBF0E080818E7F808380818D7FA3
:100D3000808388E48093B80085E48093BC000895A4
:100D4000CF93DF9391E0909310198823B9F0C0916D
:100D5000B800D091BA008091BC008A7B8093BC001F
:100D600060E084E10E945C0260E085E10E945C0238
:100D70000E948206D093BA00C093B800DF91CF9151
:100D800008958F929F92AF92BF92CF92DF92EF928F
:100D9000FF920F931F93CF93DF93D091EF1DD1322A
:100DA00008F0D7C0182FC091EE1D0E94BB026B0146
:100DB0007C018091C61D81116BC082E08093C61DAD
:100DC0001093C51D8FEF8093C41D1092C31DD09347
:100DD000C21DAEECBDE1E2EAFDE180E0D81391C0B6
:100DE0001092A11D8091A11DCC0FC82BC093A11DF5
:100DF0008091A01D813009F088C01092A01D0E9432
:100E0000BB026B017C018091A11D8093BB0080918E
:100E1000C81D9091C91DA091CA1DB091CB1D892BF1
:100E20008A2B8B2BA1F00E94BB020091C81D109150
:100E3000C91D2091CA1D3091CB1D6C197D098E09E9
:100E40009F09061717072807390708F442C0809141
:100E5000BC0083FDD8CF85EC8093BC000E94BB0210
:100E60006B017C018091C61D823009F450C08091D5
:100E7000C41D8F3F09F46FC08091C41D803209F4F6
:100E80006CC08091C41D803309F469C084E026C021
:100E90008091C81D9091C91DA091CA1DB091CB1D14
:100EA000892B8A2B8B2B09F484CF0E94BB02809064
:100EB000C81D9090C91DA090CA1DB090CB1D6C1983
:100EC0007D098E099F0986169706A806B90608F0BF
:100ED00070CF8091C71D0E94A00685E01092CD1DA5
:100EE0001092EF1D1092CC1DDF91CF911F910F91A9
:100EF000FF90EF90DF90CF90BF90AF909F908F903A
:100F000008959D9191938F5F69CF85EEA5CF8091D4
:100F1000C81D9091C91DA091CA1DB091CB1D892BF0
:100F20008A2B8B2B09F49ECF0E94BB020091C81D17
:100F30001091C91D2091CA1D3091CB1D6C197D09DE
:100F40008E099F09061717072807390708F08ACF67
:100F5000C0CF81E0C3CF80E0C1CF82E0BFCF83E0CC
:100F6000BDCF0895E091591980915819E81730F4D0
:100F7000F0E0E65AF64E808190E008958FEF9FEF03
:100F8000089590915919809158192FEF3FEF9817B4
:100F900048F4E92FF0E0E65AF64E208130E09F5FFA
:100FA00090935919C9010895809158199091591930
:100FB000891B990B0895CF92DF92EF92FF920F93C6
:100FC0001F93CF93DF937C01CB018A012091CC1D2D
:100FD000222389F0EB016B01C40ED51ECC15DD0573
:100FE00069F06991D701ED91FC910190F081E02DBC
:100FF000C7011995F3CF642F0E945B06C801DF91EA
:10100000CF911F910F91FF90EF90DF90CF900895B7
:10101000CF93DF931F92CDB7DEB769832091CC1DAC
:101020002223F9F02091EF1D203258F021E030E02A
:10103000FC013383228390E080E00F90DF91CF9119
:1010400008958091CD1DE82FF0E0E253F24E998192
:1010500090838F5F8093CD1D8093EF1D81E090E0A2
:10106000ECCF61E0CE0101960E945B06F7CF682FBE
:1010700081E99EE10C940808CF93DF93D42FC52F0C
:10108000FC01808191E09093CC1D8093EE1D109225
:10109000CD1D1092EF1DF4E06F9FB00111246A5F27
:1010A0007F4F81E99EE10E94080890E080E00E9465
:1010B000370890E080E00E9437088D2F9C2F0E9417
:1010C00037088C2F90E00E94370881E0DF91CF91A4
:1010D0000C94C106CF93C42FFC01808191E09093C2
:1010E000CC1D8093EE1D1092CD1D1092EF1D81E955
:1010F0009EE10E9408086C2F81E99EE10E94080889
:1011000081E0CF910C94C106CF93DF93EC01109254
:101110005919109258191092CD1D1092EF1D0E946E
:10112000820689E596E090935719809356198AE5CF
:1011300096E0909355198093541940E060E0CE01F9
:10114000DF91CF910C946A0890E080E008950895B3
:101150004F925F926F927F928F929F92AF92BF92C7
:10116000CF92DF92EF92FF920F931F93CF93DF9373
:10117000CDB7DEB74C0127013801DC015F965C93E7
:101180004E935E975D967C936E935C9791963C939D
:101190002E939097DA961C92FC0112AA13AA14AA15
:1011A00015AA80E090E0AFE7B3E486AB97ABA0AFC1
:1011B000B1AF84E690E0A0E0B0E086A797A7A0AB2F
:1011C000B1AB118E108E20E030E0A901C801B7014B
:1011D0000E940F1987FD53C020E030E0A901C6012D
:1011E000B5010E940F1987FD4AC020E030E0A90137
:1011F0006C897D898E899F890E940F1987FD3FC068
:1012000081E090E0D4015B969C938E935A97DB9695
:101210008C93DB97F4014082518262827382149630
:10122000AD92BD92CD92DC9217978C899D89AE8943
:10123000BF8980879187A287B38744865586668653
:1012400077862DEC3CEC4CEC5DE3C601B5010E94C9
:10125000CB1AF401608B718B828B938B2DEC3CEC61
:101260004CEC5DE36C897D898E899F890E941419FD
:10127000D40154966D937D938D939C9357972FB77C
:10128000F8948091F01D9091F11DA091F21DB09104
:10129000F31D2FBFF40146A557A560A971A9841BB2
:1012A000950BA60BB70B82A393A3A4A3B5A3DF91C1
:1012B000CF911F910F91FF90EF90DF90CF90BF9053
:1012C000AF909F908F907F906F905F904F90089518
:1012D000FC0101900020E9F73197AF01481B590B41
:1012E000BC0184EF9DE10C9470048F929F92AF92A9
:1012F000BF920F931F93CF93DF93CDB7DEB7A19724
:101300000FB6F894DEBF0FBECDBF19A2423008F46D
:101310004AE08E010F5D1F4F842E912CB12CA12C21
:10132000A50194010E947118E62FB901CA01EA30A3
:10133000F4F4E05DD801EE938D01232B242B252BB3
:1013400079F790E080E0109719F0CD010E946809CC
:10135000A1960FB6F894DEBF0FBECDBFDF91CF913F
:101360001F910F91BF90AF909F908F900895E95C6F
:10137000E1CFCF92DF92EF92FF92CF93DF936B0199
:101380007C016DE284EF9DE10E940605EC01662779
:101390007727CB016C197D098E099F094AE00E94CD
:1013A00075098C0F9D1FDF91CF91FF90EF90DF901B
:1013B000CF900895CF93DF930E946809EC018AE9EA
:1013C00097E10E9468098C0F9D1FDF91CF910895CE
:1013D0008F929F92AF92BF92CF92DF92EF92FF9245
:1013E0000F931F93CF93DF93EC019A01AB0160E25F
:1013F0007CEB8EEB95E40E94141920E030E040E88D
:101400005FE30E94A21820E030E040E05FE30E942A
:10141000A3180E94F9190E948D19062F888191E066
:101420009093CC1D8093EE1D1092CD1D1092EF1D58
:1014300060E081E99EE10E94080881E00E94C10607
:1014400018810E94BB026B017C018091C61D811135
:1014500064C081E08093C61D8093C51D9FEF90936B
:10146000C41D1092C31D1092C21D8093A11D8091B6
:10147000A11D110F182B1093A11D8091A01D81306B
:1014800009F0A3C01092A01D0E94BB026B017C0159
:101490008091A11D8093BB008091C81D9091C91DB2
:1014A000A091CA1DB091CB1D892B8A2B8B2BA1F04B
:1014B0000E94BB028090C81D9090C91DA090CA1DBB
:1014C000B090CB1D6C197D098E099F098616970671
:1014D000A806B90608F442C08091BC0083FDD8CFAD
:1014E00085EC8093BC000E94BB026B017C01809163
:1014F000C61D813009F46BC08091C31D811189C064
:101500008091C31DE2EAFDE1AAE5B9E190E09817F8
:1015100051F121912D939F5FFACF8091C81D909139
:10152000C91DA091CA1DB091CB1D892B8A2B8B2B75
:1015300009F48BCF0E94BB028090C81D9090C91DFA
:10154000A090CA1DB090CB1D6C197D098E099F0912
:1015500086169706A806B90608F077CF8091C71DB2
:101560000E94A00680E0109259198093581981E9D1
:101570009EE10E94C107182F482F4F76406160E01E
:10158000CE010E946A08402F6EEFCE010E946A08C9
:10159000412F60E0CE010E946A0865E070E080E0C3
:1015A00090E00E94E002412F416A60E0CE01DF91AD
:1015B000CF911F910F91FF90EF90DF90CF90BF9050
:1015C000AF909F908F900C946A0885EE8ACF80919F
:1015D000C81D9091C91DA091CA1DB091CB1D892B2A
:1015E0008A2B8B2B09F483CF0E94BB028090C81DED
:1015F0009090C91DA090CA1DB090CB1D6C197D099B
:101600008E099F0986169706A806B90608F06FCFBF
:10161000A5CF81E077CF85ED8093BC008091C81D78
:101620009091C91DA091CA1DB091CB1D0796A11D17
:10163000B11D23E0B695A795979587952A95D1F783
:101640002091BC0024FD03C01092C61D0895409156
:10165000C81D5091C91D6091CA1D7091CB1D452BAD
:10166000462B472B69F30097A105B10541F025E30F
:101670002A95F1F700000197A109B109E1CF809106
:10168000C71D0C94A0060F931F93CF93DF93CDB784
:10169000DEB7DA950FB6F894DEBF0FBECDBF8091EE
:1016A0008119813079F08DE997E10E94DA09D395AB
:1016B0000FB6F894DEBF0FBECDBFDF91CF911F9163
:1016C0000F910895F89478948E010F5F1F4F80E07A
:1016D00091E0F8019C01119221503040E1F7AE01F8
:1016E000465F5E4FC85FDE4F68817981C850D14048
:1016F000C8010E94471BC801D8CFCF92DF92EF925A
:10170000FF926B017C01EBE7FAE180E090E0DC0105
:1017100062857385672BD1F00196A11DB11D70966E
:1017200082339105A105B10599F78FEA97E19F935F
:101730008F930E94430B0F900F906DEF7FEF8FEF11
:101740009FEFFF90EF90DF90CF90089564E0880FB7
:10175000991F6A95E1F7FC01E558F54EC082D182E8
:10176000E282F382148215821682178251874087A3
:101770003387228760917B1970917C196F5F7F4F4F
:1017800070937C1960937B1990E080E06487758783
:1017900086879787D6CF0F931F93AB01BC01EBE7EA
:1017A000FAE180E090E0DC01048515852685378527
:1017B000041715072607370799F424E0880F991FA7
:1017C0002A95E1F7FC01E558F54E80E1DF011D9215
:1017D0008A95E9F760E070E0CB011F910F910895C1
:1017E0000196A11DB11D709682339105A105B10529
:1017F000D9F68BEC97E19F938F930E94430B0F9048
:101800000F906EEF7FEF8FEF9FEFE7CF0F931F9358
:10181000CF93DF93EC016C817D818E819F810E944B
:10182000CB0B09851A85209741F088819981AA817F
:10183000BB814297A105B10578F08CEE97E19F93AB
:101840008F930E94430B0F900F901A870987DF91A7
:10185000CF911F910F9108951C821D821E821F82BD
:101860001886F3CF0F931F93CF93DF93EC0168811A
:1018700079818A819B810E94CB0B50E040E063E03C
:1018800088EE9EE10E943C080D811E81209779F42C
:101890008CEE97E19F938F930E94430B0F900F90D4
:1018A0001E830D83DF91CF911F910F9108951882B0
:1018B00019821A821B821C82F3CF0F931F93CF933E
:1018C000DF93EC01688179818A819B810E94CB0B37
:1018D00050E040E062E08FE99EE10E943C080D810B
:1018E0001E81209779F48CEE97E19F938F930E944D
:1018F000430B0F900F901E830D83DF91CF911F91AB
:101900000F910895188219821A821B821C82F3CFCC
:101910000F931F93CF93DF93EC016C817D818E81B8
:101920009F810E94CB0B88819981AA81BB8150E065
:1019300040E060E0892B8A2B8B2B09F061E089EE77
:101940009EE10E943C0809851A85209779F48CEE67
:1019500097E19F938F930E94430B0F900F901A87EC
:101960000987DF91CF911F910F9108951C821D82ED
:101970001E821F821886F3CF1F920F920FB60F920E
:1019800011242F933F938F939F93AF93BF93809195
:10199000F01D9091F11DA091F21DB091F31D3091B9
:1019A0009B1D23E0230F2D3758F50196A11DB11D76
:1019B00020939B1D8093F01D9093F11DA093F21D29
:1019C000B093F31D80919C1D90919D1DA0919E1D33
:1019D000B0919F1D0196A11DB11D80939C1D9093F8
:1019E0009D1DA0939E1DB0939F1DBF91AF919F9190
:1019F0008F913F912F910F900FBE0F901F901895D0
:101A000026E8230F0296A11DB11DD2CF1F920F927F
:101A10000FB60F9211240BB60F922F933F934F9353
:101A20005F936F937F938F939F93AF93BF93EF9346
:101A3000FF93E0911002F09111021995FF91EF913F
:101A4000BF91AF919F918F917F916F915F914F91D6
:101A50003F912F910F900BBE0F900FBE0F901F90D4
:101A600018951F920F920FB60F9211240BB60F927A
:101A70002F933F934F935F936F937F938F939F9396
:101A8000AF93BF93EF93FF93E0910E02F0910F029B
:101A90001995FF91EF91BF91AF919F918F917F9198
:101AA0006F915F914F913F912F910F900BBE0F90CF
:101AB0000FBE0F901F9018951F920F920FB60F92A6
:101AC00011240BB60F922F933F934F935F936F9315
:101AD0007F938F939F93AF93BF93EF93FF93E09187
:101AE0000402F09105021995FF91EF91BF91AF911A
:101AF0009F918F917F916F915F914F913F912F9126
:101B00000F900BBE0F900FBE0F901F9018951F9255
:101B10000F920FB60F9211240BB60F922F933F9393
:101B20004F935F936F937F938F939F93AF93BF93E5
:101B3000EF93FF93E0910202F09103021995FF9158
:101B4000EF91BF91AF919F918F917F916F915F9135
:101B50004F913F912F910F900BBE0F900FBE0F90A2
:101B60001F9018951F920F920FB60F9211240BB66B
:101B70000F922F933F934F935F936F937F938F9326
:101B80009F93AF93BF93EF93FF93E0910C02F0917B
:101B90000D021995FF91EF91BF91AF919F918F9198
:101BA0007F916F915F914F913F912F910F900BBE5D
:101BB0000F900FBE0F901F9018951F920F920FB6A7
:101BC0000F9211240BB60F922F933F934F935F9375
:101BD0006F937F938F939F93AF93BF93EF93FF93F5
:101BE000E0910A02F0910B021995FF91EF91BF91DC
:101BF000AF919F918F917F916F915F914F913F91A5
:101C00002F910F900BBE0F900FBE0F901F90189545
:101C10001F920F920FB60F9211240BB60F922F93B3
:101C20003F934F935F936F937F938F939F93AF9364
:101C3000BF93EF93FF93E0910802F0910902199589
:101C4000FF91EF91BF91AF919F918F917F916F9194
:101C50005F914F913F912F910F900BBE0F900FBE50
:101C60000F901F9018951F920F920FB60F9211248C
:101C70000BB60F922F933F934F935F936F937F9386
:101C80008F939F93AF93BF93EF93FF93E0910602DF
:101C9000F09107021995FF91EF91BF91AF919F913C
:101CA0008F917F916F915F914F913F912F910F9005
:101CB0000BBE0F900FBE0F901F9018951F920F92A2
:101CC0000FB60F9211240BB60F922F933F934F93A1
:101CD0005F936F937F938F939F93AF93BF93EF9394
:101CE000FF9384EF9DE10E94E404FF91EF91BF9187
:101CF000AF919F918F917F916F915F914F913F91A4
:101D00002F910F900BBE0F900FBE0F901F90189544
:101D10001F920F920FB60F9211240BB60F922F93B2
:101D20008F939F93EF93FF93E091041EF091051E14
:101D30008081E0910A1EF0910B1E82FD1DC09081F2
:101D400080910D1E8F5F8F7320910E1E821741F0C0
:101D5000E0910D1EF0E0EC50F24E958F80930D1E39
:101D6000FF91EF919F918F912F910F900BBE0F904C
:101D70000FBE0F901F9018958081F2CF1F920F9287
:101D80000FB60F9211240BB60F922F933F934F93E0
:101D90005F936F937F938F939F93AF93BF93EF93D3
:101DA000FF938091B900887F803609F44DC008F018
:101DB00040C0883209F4A9C028F5803109F49DC0DB
:101DC000C8F4882309F4FBC0883009F496C0FF9159
:101DD000EF91BF91AF919F918F917F916F915F91A3
:101DE0004F913F912F910F900BBE0F900FBE0F9010
:101DF0001F901895883109F488C0803241F780938C
:101E0000C41D14C0803409F49DC040F48033B9F37C
:101E10008833E9F68093C41D85ECB0C0803509F4A1
:101E200085C0883509F496C0883489F60E940B0B6A
:101E3000CECF883909F48CC038F5883729F050F4B2
:101E4000883611F0803719F683E08093C61D109212
:101E5000531957C0883809F47BC0803919F080388D
:101E600009F0B5CF80915319803208F071C0E0912C
:101E7000531981E08E0F809353198091BB00F0E0DD
:101E8000ED5CF64E80833DC0803B39F0E0F4803A53
:101E900009F479C0883A09F09ACF84E08093C61D8E
:101EA0001092321910923119E0915619F091571988
:101EB00019958091311981110FC081E080933119FA
:101EC0001092111909C0803C09F4A6CF883C09F48E
:101ED000A3CF883B09F07BCFE091321981E08E0FD0
:101EE00080933219F0E0EF5EF64E80818093BB0064
:101EF000909132198091311929C08091A11D809350
:101F0000BB0085EC8093BC0062CF9091C31D809193
:101F1000C21D981758F5E091C31D81E08E0F809384
:101F2000C31DF0E0EE55F24E8081E9CFE091C31D74
:101F300081E08E0F8093C31D8091BB00F0E0EE55D1
:101F4000F24E80839091C31D8091C21D9817C8F2F4
:101F500085E8D8CFE091C31D81E08E0F8093C31D2B
:101F60008091BB00F0E0EE55F24E80838091C51D5C
:101F700081115CCF81E08093A01D84EA8093BC0036
:101F80001092C61D24CF85EC8093BC001092C61D14
:101F900080915319803230F4E0915319F0E0ED5CF8
:101FA000F64E10826091531970E0E0915419F0914F
:101FB000551983E399E119951092531908CF10929E
:101FC000C41D34CF1F920F920FB60F9211240BB67F
:101FD0000F922F933F934F935F936F937F938F93C2
:101FE0009F93AF93BF93EF93FF93E0910002F09123
:101FF00001021995FF91EF91BF91AF919F918F9140
:102000007F916F915F914F913F912F910F900BBEF8
:102010000F900FBE0F901F9018957F928F929F92F6
:10202000AF92BF92CF92DF92EF92FF920F931F93E6
:10203000CF93DF93E4EFFDE11382128288EE93E009
:10204000A0E0B0E084839583A683B7832AE737E1D5
:102050003183208325EC30E03587248724EC30E081
:102060003787268720EC30E0318B208B21EC30E065
:10207000338B228B22EC30E0358B248B26EC30E046
:10208000378B268B118E128E138E148EE1E9FEE1B2
:102090001382128284839583A683B7838CE897E1A9
:1020A0009183808381E480939E1E82E480939D1EB1
:1020B0008EE3782E7F929CE4892E8F922CEC922EC8
:1020C0009F92DDECDF93A12CB12C6501E12CF12C6A
:1020D00000E810E420EA3EE144EA5EE168EA7EE1DD
:1020E0008CEA9EE10E94A808C3E4C0939F1EC0939F
:1020F000E81E7F928F929F92DF9322E33FE146E3B7
:102100005FE16AE37FE18EE39FE10E94A8087F928E
:102110008F929F92DF932AEE3EE14EEE5EE162EFF8
:102120007EE186EF9EE10E94A808C093E91E8DB76C
:102130009EB70C960FB6F8949EBF0FBE8DBFDF9171
:10214000CF911F910F91FF90EF90DF90CF90BF90B4
:10215000AF909F908F907F900895CF93DF93CDB7EE
:10216000DEB7C957D1090FB6F894DEBF0FBECDBF99
:10217000789484B5826084BD84B5816084BD85B562
:10218000826085BD85B5816085BD80916E0081606E
:1021900080936E0010928100809181008260809314
:1021A0008100809181008160809381008091800016
:1021B0008160809380008091B10084608093B10041
:1021C0008091B00081608093B00080919100826026
:1021D0008093910080919100816080939100809123
:1021E00090008160809390008091A1008260809334
:1021F000A1008091A10081608093A1008091A00046
:1022000081608093A00080912101826080932101F0
:102210008091210181608093210180912001816062
:102220008093200180917A00846080937A0080916D
:102230007A00826080937A0080917A008160809336
:102240007A0080917A00806880937A001092C100B1
:10225000E091041EF091051E82E08083E091001E53
:10226000F091011E1082E091021EF091031E90E198
:10227000908310920C1EE091081EF091091E86E0DA
:102280008083E091061EF091071E8081806180832B
:10229000E091061EF091071E808188608083E091A6
:1022A000061EF091071E808180688083E091061EE3
:1022B000F091071E80818F7D808310927D1910928E
:1022C0007E1910927F191092801910927C19109229
:1022D0007B19EBE7FAE120E233E0DF01A9011D926F
:1022E00041505040E1F7909381001092800081E0CE
:1022F00080937A1920E43FE1309387002093860091
:1023000091E19093810021E434E030930102209325
:10231000000280936F00109281001092850010924D
:10232000840090917A199061909381008093811933
:102330002AE037E16FE879E180E090E0DC01FB0121
:1023400080839183A283B3831482158216821782BD
:102350001086F901419151919F01FB0152874187FC
:102360000196A11DB11D655F7F4F82319105A105C9
:10237000B10529F78EE99EE10E9484088DE99EE16E
:102380000E94840860E084E10E948A0260E085E1A6
:102390000E948A0218E41093B8008EE99EE10E9420
:1023A00084088DE99EE10E94840860E084E10E9437
:1023B0008A0260E085E10E948A021093B80040E042
:1023C00050E068EC72E48EE99EE10E94E80940E08A
:1023D00050E068EC72E48DE99EE10E94E8091092F9
:1023E000551A1092561A1092571A1092581A1092A3
:1023F000591A10925A1A10925B1A10925C1A109283
:102400005D1A10925F1A10925E1A81E090E0A0E0CF
:10241000B0E08093601A9093611AA093621AB0930F
:10242000631A1092641A1092651A1092661A10922A
:10243000671A1092681A10926A1A1092691A10920A
:102440008919109288191092871910928619109282
:102450008519109284191092831910928219109282
:102460003A1F10923B1F10923C1F10923D1F10927A
:10247000F21E1092F31E1092F41E1092F51E10928E
:10248000321F1092331F1092341F1092351F10927A
:10249000EA1E1092EB1E1092EC1E1092ED1E61E0EF
:1024A00080E00E948A0261E086E00E948A0261E088
:1024B00081E00E948A0261E087E00E948A0260E077
:1024C00082E00E948A0260E086E10E948A0260E067
:1024D00083E00E948A0260E087E10E948A0287E727
:1024E00093E0909303028093020280916A008C7FB4
:1024F000816080936A00EC9A8CED93E090930502E2
:102500008093040280916A00837F846080936A00D4
:10251000ED9A8091781F811104C08EE39FE10E94A3
:10252000120681E08093781F8EE39FE10E948E0166
:1025300080E090E0AFE7B3EC8093701F9093711F41
:10254000A093721FB093731F80E090E0AFE7B3E4F5
:102550008093741F9093751FA093761FB093771F7D
:102560008091781F882361F000E010E02FE733E4CA
:1025700040E050E06FE773EC8EE39FE10E94A4051A
:102580008091301F811104C086EF9EE10E941206E7
:1025900081E08093301F86EF9EE10E948E0180E0F3
:1025A00090E0AFE7B3EC8093281F9093291FA0938E
:1025B0002A1FB0932B1F80E090E0AFE7B3E4809335
:1025C0002C1F90932D1FA0932E1FB0932F1F80912F
:1025D000301F882361F000E010E02FE733E440E093
:1025E00050E06FE773EC86EF9EE10E94A40589EE50
:1025F0009EE10E94840860E084E10E948A0260E01B
:1026000085E10E948A0210E21093B80040E050E099
:102610006AE774E489EE9EE10E94E80950E040E038
:1026200060E089EE9EE10E943C0861E086E00E9445
:102630005C0261E087E00E945C021092721A1092C4
:10264000731A1092741A1092751A1092761A1092C8
:10265000781A1092771A61E083E00E948A0261E0A2
:1026600089E00E948A0288EE9EE10E94840860E070
:1026700084E10E948A0260E085E10E948A02109350
:10268000B80040E050E06AE774E488EE9EE10E9402
:10269000E80950E040E060E088EE9EE10E943C08DE
:1026A00061E089E00E945C0210926B1A10926C1A31
:1026B00010926D1A10926E1A10926F1A1092711A6F
:1026C0001092701A10928D1910928C1910928B1909
:1026D00010928A191092A81E1092A91E1092AA1E7A
:1026E0001092AB1E1092A01E1092A11E1092A21E5C
:1026F0001092A31E61E082E00E948A0261E088E0FD
:102700000E948A0260E082E10E948A0260E088E121
:102710000E948A0282E193E090930D0280930C0262
:10272000809169008F73806480936900EB9A809137
:10273000E61E811104C08CEA9EE10E94120681E02F
:102740008093E61E8CEA9EE10E948E0180E090EF6D
:10275000AFE7B5EC8093DE1E9093DF1EA093E01EE2
:10276000B093E11E80E090EFAFE7B5E48093E21E06
:102770009093E31EA093E41EB093E51E8091E61EA5
:10278000882361F000E010EF2FE735E440E050EFE0
:102790006FE775EC8CEA9EE10E94A4058FE99EE14B
:1027A0000E94840860E084E10E948A0260E085E182
:1027B0000E948A0280E28093B80040E050E06AE71D
:1027C00074E48FE99EE10E94E80950E040E060E097
:1027D0008FE99EE10E943C0861E088E00E945C0273
:1027E0001FB7F89480918E19811127C0E7E1F2E0BC
:1027F0008491EDE5F2E09491E82FF0E0EE0FFF1FF9
:10280000EC56FE4FA591B491EC91E92321F461E0DF
:1028100085E30E945C0261E085E30E948A028CB538
:1028200080618CBD8CB580648CBD61E084E30E94C6
:102830008A0261E083E30E948A0280918E198F5F91
:1028400080938E191FBF61E085E30E945C0285E0E2
:1028500098E10E94DA0961E070E080E090E00E9477
:10286000E0028E01075B1F4F84E2D8011D928A951A
:10287000E9F7AF961FAE1EAEAF97E1961FAE1EAE44
:10288000E197FE0131967F0182E1DF011D928A9579
:10289000E9F7DF0185E59AE1EFE8F9E120852D937D
:1028A0003B968E179F07D1F789818111F8C38A81E2
:1028B0008111F5C38B818111F2C38C818111EFC32A
:1028C0008D818111ECC38E818111E9C38F818111CA
:1028D000E6C388858111E3C389858111E0C38A85B8
:1028E0008111DDC38B858111DAC38C858111D7C33A
:1028F0008D858111D4C38E858111D1C38F858111BE
:10290000CEC388898111CBC389898111C8C3BA8993
:10291000E296BFAFE297B111C2C382E198E10E9493
:10292000DA0981E298E10E94DA098091791A90919E
:102930007A1A8A37910528F08BE398E10E94DA0928
:10294000D4C22CE2289FF001299FF00D1124EE5EE5
:10295000FD4F80819181D80111969C938E93828145
:10296000938113969C938E931297848195811596EB
:102970009C938E9314978681978117969C938E9340
:1029800016978085918519969C938E9318978285CA
:1029900093851B969C938E931A97848595851D9697
:1029A0009C938E931C97868597851F969C938E93F8
:1029B0001E978089918951969C938E935097828916
:1029C000938953969C938E935297848995895596B3
:1029D0009C938E9354978689978957969C938E9350
:1029E0005697808D918D59969C938E935897828D92
:1029F000938D5B969C938E935A97848D958D5D965F
:102A00009C938E935C97868D978D5F969C938E9307
:102A10005E9780A191A191969C938E93909782A1AD
:102A200093A193969C938E93929784A195A1AF9630
:102A30009FAF8EAFAF9786A197A1E1969FAF8EAF64
:102A4000E197C0A4D1A422A433A4E496FFAEEEAED5
:102A5000E4974801EEE2F7E1EA96FFAFEEAFEA97BE
:102A600042E557E1E8965FAF4EAFE89757014FE870
:102A7000E42E49E1F42E412C512C3201D701189655
:102A80008C918330A9F586E598E10E94DA0983E00C
:102A900090E0A0E0B0E0F50180839183A283B3834E
:102AA0009FEF491A590A690A790AABE0EA0EF11C4C
:102AB000B4E0AB0EB11CE2E08E0E911CEA964EAD76
:102AC0005FADEA974E5F5F4FEA965FAF4EAFEA9712
:102AD000E8968EAD9FADE8970296E8969FAF8EAFD1
:102AE000E89792E1491651046104710439F672C005
:102AF000D4012D913C91E896EEADFFADE897808131
:102B000091812817390768F0EA96AEADBFADEA9714
:102B10008D919C918217930710F52F3FBFEE3B07D5
:102B2000F1F083E698E10E94DA094AE0C301B201BC
:102B30000E9475098AE997E10E946809F4016081A1
:102B4000718190E080E04AE00E9475098AE997E18E
:102B50000E9468098EEF9FEFAFEFBFEF9CCFD701C8
:102B600019968D919C91821B930B97FF03C09195B1
:102B700081959109B7E0B89FB001B99F700D1124FC
:102B80006115710511F461E070E0072E000C880BEF
:102B9000990B26E03CE0A7010E947D0B9B01AC0154
:102BA0002D5F3F4F4F4F5F4F22303105410551059B
:102BB00008F049C09F938F937F936F9380E798E1CC
:102BC0009F938F930E94430B0F900F900F900F9045
:102BD0000F900F9025E5E22E2AE1F22EDE01A35997
:102BE000BF4F5D01412C512C32013AE0832EF70199
:102BF0008085833009F079C083E090E0A0E0B0E008
:102C0000E496EEADFFADE49780839183A283B38316
:102C10002BE0E20EF11CE4964EAD5FADE4974C5F05
:102C20005F4FE4965FAF4EAFE49752E0A50EB11C44
:102C30004A9445284628472809F4A4C0412C512C21
:102C400032014394D4CF23E0F70120876483758356
:102C500086839783F401A081B181F701B287A187B0
:102C600020ED37E00E94401BF1E04F165104610453
:102C7000710431F027E0421651046104710459F5E2
:102C80002EE031E040E050E00E945218E6963FAF5F
:102C90002EAFE69780E998E10E94DA09E696AEAD9C
:102CA000BFADE697AC50BE4F2FEF3FE00E94401BF8
:102CB00020E137E240E050E00E945218A90189E08B
:102CC00048165104610471045CF4642D8EE99EE1A0
:102CD0000E943C08E5CE24EB30E040E050E0D4CF49
:102CE00067EF640D8DE99EE1F3CFD5012D913C9105
:102CF0002F30B1E03B0748F02F3FEFEE3E0729F0C1
:102D00008EEF9FEFAFEFBFEF7BCFD70119968D917D
:102D10009C91821B930B912C97FF05C091958195F7
:102D2000910999249394889EB001899E700D112475
:102D30006115710511F461E070E0072E000C880B3D
:102D4000990B28E83CE0A7010E947D0B9B01AC0198
:102D50002D5F3F4F4F4F5F4F2230310541055105E9
:102D600008F0FEC09F938F937F936F9380E798E165
:102D70009F938F930E94430B0F900F900F900F9093
:102D80000F900F9080916F1A833041F483E090E0B0
:102D9000A0E0B0E089839A83AB83BC8393E3C91638
:102DA000D10468F0AFEFCA16AFEEDA0641F08EEF4D
:102DB0009FEFAFEFBFEF89839A83AB83BC83809192
:102DC000701A9091711A8C199D09F12C97FF05C00A
:102DD000919581959109FF24F3942AE0289FB001F1
:102DE000299F700D11246115710511F461E070E0E7
:102DF000072E000C880B990B2DE53CE04BE65AE1C1
:102E00000E947D0B4B015C01A3E08A0E911CA11C6A
:102E1000B11CB2E08B169104A104B10408F0DEC02D
:102E20009F938F937F936F9380E798E19F938F9306
:102E30000E94430B0F900F900F900F900F900F90E8
:102E40008091761A8330D9F1E2E02E163104B8F57C
:102E50008091771A9091781A2816390641F08215D8
:102E600093050CF0DDC0F1E0E296FFAFE29722E3BC
:102E70003CE042E75AE168EE73E080E090E00E94B7
:102E80007D0B4B015C0143E0840E911CA11CB11C25
:102E900052E085169104A104B10408F0C6C09F93C6
:102EA0008F937F936F9380E798E19F938F930E9416
:102EB000430B0F900F900F900F900F900F90609119
:102EC000791A70917A1A90E080E04AE00E947509C0
:102ED0008AE997E10E9468098091791A90917A1A9B
:102EE000019690937A1A8093791A87EB98E10E9461
:102EF000DA098DEC98E10E94DA098BE7E82E8AE185
:102F0000F82EF70180819181A281B3810097A105FC
:102F1000B105D9F0448155816681778148175907F9
:102F20006A077B0790F08CED98E10E94DA09D701DF
:102F30001A96ED91FC911B9718968D919C9119957D
:102F4000F7011482158216821782F0E1EF0EF11C50
:102F50002BE9E2162DE1F206A1F60E94730584CC5E
:102F600023E0F7012087D7016483758386839783E5
:102F7000F501808191811A969C938E9319978EE921
:102F800098E10E94DA09F1E04F16510461047104DE
:102F9000D1F04AE06FEF70E080E090E00E947509A8
:102FA0008AE997E10E94680961E0911001C060E040
:102FB00086E00E945C024FEF5FE060E089EE9EE1F8
:102FC0000E943C0825CE61E0911001C060E087E0DE
:102FD0000E945C024FEF5FE061E0F0CF23E02093BE
:102FE0006F1A60936B1A70936C1A80936D1A90939A
:102FF0006E1AD092711AC092701A83EA98E10E94F8
:10300000DA0961E0F11001C060E088E00E945C0232
:103010004FEF5FE062E08FE99EE10E943C0810CF35
:1030200022E0E2962FAFE29722CF23E02093761A98
:103030006093721A7093731A8093741A9093751A2E
:103040003092781A2092771A8EEA98E10E94DA0973
:10305000E296AFADE2976A2F70E090E080E04AE040
:103060000E9475098AE997E10E946809E296BFAD5E
:10307000E29750E040E0BB2361F0E296EFADE297CB
:1030800061E0E13009F060E089E00E945C024FEF0E
:103090005FE063E088EE9EE10E943C0810CF83EF82
:1030A00098E14CCC052E97FB1EF400940E94691801
:1030B00057FD07D00E94711807FC03D04EF40C9402
:1030C000691850954095309521953F4F4F4F5F4F70
:1030D000089590958095709561957F4F8F4F9F4F84
:1030E0000895A1E21A2EAA1BBB1BFD010DC0AA1F49
:1030F000BB1FEE1FFF1FA217B307E407F50720F061
:10310000A21BB30BE40BF50B661F771F881F991FDB
:103110001A9469F760957095809590959B01AC0124
:10312000BD01CF010895A29FB001B39FC001A39F2D
:10313000700D811D1124911DB29F700D811D1124F0
:10314000911D08955058BB27AA270E94BA180C94C5
:10315000741A0E94661A38F00E946D1A20F039F431
:103160009F3F19F426F40C94631A0EF4E095E7FBE4
:103170000C94341AE92F0E94851A58F3BA17620783
:1031800073078407950720F079F4A6F50C94BF1A0D
:103190000EF4E0950B2EBA2FA02D0B01B901900172
:1031A0000C01CA01A0011124FF27591B99F0593FB6
:1031B00050F4503E68F11A16F040A22F232F342FFE
:1031C0004427585FF3CF469537952795A795F0404C
:1031D0005395C9F77EF41F16BA0B620B730B840B61
:1031E000BAF09150A1F0FF0FBB1F661F771F881F19
:1031F000C2F70EC0BA0F621F731F841F48F4879571
:1032000077956795B795F7959E3F08F0B0CF939562
:10321000880F08F09927EE0F9795879508950E94DB
:10322000101A08F481E008950E9428190C94741A69
:103230000E946D1A58F00E94661A40F029F45F3F10
:1032400029F00C94341A51110C94C01A0C94631A7E
:103250000E94851A68F39923B1F3552391F3951BC6
:10326000550BBB27AA2762177307840738F09F5FA7
:103270005F4F220F331F441FAA1FA9F335D00E2E14
:103280003AF0E0E832D091505040E695001CCAF781
:103290002BD0FE2F29D0660F771F881FBB1F261744
:1032A00037074807AB07B0E809F0BB0B802DBF011B
:1032B000FF2793585F4F3AF09E3F510578F00C94EA
:1032C000341A0C94C01A5F3FE4F3983ED4F3869509
:1032D00077956795B795F7959F5FC9F7880F911D0B
:1032E0009695879597F90895E1E0660F771F881FF7
:1032F000BB1F621773078407BA0720F0621B730BAA
:10330000840BBA0BEE1F88F7E09508950E948D1983
:103310006894B1110C94C01A08950E948D1A88F017
:103320009F5798F0B92F9927B751B0F0E1F0660F89
:10333000771F881F991F1AF0BA95C9F714C0B130CA
:1033400091F00E94BF1AB1E008950C94BF1A672F44
:10335000782F8827B85F39F0B93FCCF386957795F9
:103360006795B395D9F73EF49095809570956195E2
:103370007F4F8F4F9F4F0895E89409C097FB3EF40D
:1033800090958095709561957F4F8F4F9F4F9923B2
:10339000A9F0F92F96E9BB279395F6958795779530
:1033A0006795B795F111F8CFFAF4BB0F11F460FFF0
:1033B0001BC06F5F7F4F8F4F9F4F16C0882311F048
:1033C00096E911C0772321F09EE8872F762F05C05C
:1033D000662371F096E8862F70E060E02AF09A95F7
:1033E000660F771F881FDAF7880F9695879597F9EC
:1033F00008950E94A71A90F09F3748F4911116F093
:103400000C94C01A60E070E080E89FEB089526F409
:103410001B16611D711D811D0C943A1A0C94551ACE
:10342000990F0008550FAA0BE0E8FEEF16161706D5
:10343000E807F907C0F012161306E407F50798F03D
:10344000621B730B840B950B39F40A2661F0232B56
:10345000242B252B21F408950A2609F4A140A695D2
:103460008FEF811D811D089597F99F6780E870E0B7
:1034700060E00895882371F4772321F09850872B1A
:10348000762F07C0662311F499270DC09051862B23
:1034900070E060E02AF09A95660F771F881FDAF7D0
:1034A000880F9695879597F908959F3F31F0915031
:1034B00020F4879577956795B795880F911D969518
:1034C000879597F908959FEF80EC089500240A945A
:1034D0001616170618060906089500240A941216EF
:1034E0001306140605060895092E0394000C11F422
:1034F000882352F0BB0F40F4BF2B11F460FF04C0CF
:103500006F5F7F4F8F4F9F4F089557FD9058440F27
:10351000551F59F05F3F71F04795880F97FB991F32
:1035200061F09F3F79F087950895121613061406EF
:10353000551FF2CF4695F1DF08C01616170618067C
:10354000991FF1CF869571056105089408950E9431
:103550008D1AA0F0BEE7B91788F4BB279F3860F436
:103560001616B11D672F782F8827985FF7CF86959D
:1035700077956795B11D93959639C8F30895E894AA
:10358000BB2766277727CB0197F908950E94101A69
:1035900008F48FEF08950E94DE1A0C94741A0E94AA
:1035A000661A38F00E946D1A20F0952311F00C94E1
:1035B000341A0C94631A11240C94C01A0E94851AB0
:1035C00070F3959FC1F3950F50E0551F629FF00176
:1035D000729FBB27F00DB11D639FAA27F00DB11D8F
:1035E000AA1F649F6627B00DA11D661F829F222718
:1035F000B00DA11D621F739FB00DA11D621F839F9F
:10360000A00D611D221F749F3327A00D611D231F74
:10361000849F600D211D822F762F6A2F11249F57C2
:1036200050409AF0F1F088234AF0EE0FFF1FBB1FC5
:10363000661F771F881F91505040A9F79E3F510584
:1036400080F00C94341A0C94C01A5F3FE4F3983E57
:10365000D4F3869577956795B795F795E7959F5F2E
:10366000C1F7FE2B880F911D9695879597F90895C0
:10367000EE0FFF1F881F8BBF0790F691E02D199466
:103680000E949318B7FF0895821B930B08950F9320
:103690001F93CF93DF93CDB7DEB72E970FB6F89475
:1036A000DEBF0FBECDBF8C0186E08C831A830983F9
:1036B0008FEF9FE79E838D83CE0101960E94711B41
:1036C0002F813885020F131FF80110822E960FB636
:1036D000F894DEBF0FBECDBFDF91CF911F910F9148
:1036E00008952F923F924F925F926F927F928F92A6
:1036F0009F92AF92BF92CF92DF92EF92FF920F9381
:103700001F93CF93DF9300D000D000D01F921F9261
:10371000CDB7DEB77C013B018A01FC01178216821E
:10372000838181FFDDC1CE0101965C01F7019381A8
:10373000F30193FD859193FF81913F01882309F463
:1037400053C1853239F493FD859193FF81913F01F7
:10375000853229F4B70190E00E94891DE7CF912CB2
:10376000212C312CFFE1F31538F08B3211F190F45C
:10377000803209F1833229F137FC3CC020ED280F5B
:103780002A3050F536FE20C08AE0989E200D112484
:10379000922E06C08D3291F0803371F7689430F824
:1037A000F30193FD859193FF81913F018111DACF60
:1037B00021C0689431F8689432F8F2CF689433F8F5
:1037C000EFCF689434F8ECCFEAE02E9E200D112460
:1037D000222E689435F8E4CF8E3229F436FC04C1E9
:1037E000689436F8DDCF8C3619F4689437F8D8CF62
:1037F0008836B1F2982F9F7D95549330E0F0833650
:10380000A1F18337C1F1833509F063C02801F2E0EB
:103810004F0E511CF801C080D180692D70E036FC3C
:1038200002C06FEF7FEFC6010E94731D4C016894C8
:1038300037F882010AC00C5F1F4FFFE3F983882429
:103840008394912C6501E89437F833FE2DC0522CF7
:103850008114910471F5552009F468CFB70180E215
:1038600090E00E94891D5A94F6CFF80180818983E7
:103870000E5F1F4FE4CF2801F2E04F0E511CF801FC
:10388000C080D180692D70E036FC02C06FEF7FEF01
:10389000C6010E947E1D4C018201D5CFB70180E296
:1038A00090E00E94891D2A942814190409F0B0F7A9
:1038B000CECFF60137FC859137FE81916F01B701BC
:1038C00090E00E94891D51105A94F1E08F1A9108DE
:1038D000BFCF843619F0893609F077C0F80137FE7A
:1038E0006BC060817181828193810C5F1F4FF32DCA
:1038F000FF763F2E97FF09C0909580957095619552
:103900007F4F8F4F9F4F689437F82AE030E0A50132
:103910000E94B91DC82ECA188C2C432C36FE0CC030
:10392000E89440F8C91440F434FE05C032FC03C0EA
:10393000F32DFE7E4F2E892C44FEAAC0FE01EC0D15
:10394000F11D8081803309F09CC0242D297E422EF8
:10395000842D8870582E43FCAAC040FEA4C09C2C25
:10396000821418F42C0C922C981844FEA6C0B701AF
:1039700080E390E00E94891D42FE09C088E790E044
:1039800041FE02C088E590E0B7010E94891DC9147C
:1039900008F49FC0CA94D12C9FEFC91AD90ACA0C47
:1039A000DB1CF60182916F01B70190E00E94891D36
:1039B000AC14BD04B1F74FCF60817181072E000CAC
:1039C000880B990B0E5F1F4F92CFD32CE894D4F83D
:1039D0002AE030E08537E1F1232D297FD22E8F3682
:1039E000A9F1F0F4883551F1F701868197812B9682
:1039F0000FB6F894DEBF0FBECDBFDF91CF911F9100
:103A00000F91FF90EF90DF90CF90BF90AF909F907D
:103A10008F907F906F905F904F903F902F90089580
:103A2000803749F0883701F7D4FE02C06894D2F895
:103A300020E130E00DC06894D4F8F6CF34FE03C026
:103A4000822F8660D82E20E132E002C028E030E0EC
:103A5000F801D7FE0FC060817181828193810C5F74
:103A60001F4FA5010E94B91DC82ECA183D2CE8940D
:103A700037F852CF6081718190E080E00E5F1F4F78
:103A8000F0CF42FC02C0839463CF8394839460CFD1
:103A9000842D867809F45CCFF6CFB70180E290E000
:103AA0000E94891D83948214C0F3512C5ECF522C46
:103AB0005818821408F459CFF8CF842D867809F469
:103AC00066CF8BE241FE80E247FC8DE2B70190E0D9
:103AD0005CCFB70180E390E00E94891D9A9457CF94
:103AE0008FEF9FEF84CFFC01059061507040011073
:103AF000D8F7809590958E0F9F1F0895FC01615017
:103B0000704001900110D8F7809590958E0F9F1FFF
:103B100008950F931F93CF93DF93182F092FEB0175
:103B20008B8181FD09C01FEF0FEF812F902FDF9157
:103B3000CF911F910F91089582FF14C02E813F8174
:103B40008C819D81281739073CF4E881F981CF01E8
:103B500001969983888310838E819F8101969F832C
:103B60008E83E3CFE885F985812F1995892BA1F301
:103B7000DACFFA01AA27283051F1203181F1E894F7
:103B80006F936E7F6E5F7F4F8F4F9F4FAF4FB1E050
:103B90003ED0B4E03CD0670F781F891F9A1FA11D4B
:103BA000680F791F8A1F911DA11D6A0F711D811D4C
:103BB000911DA11D20D009F468943F912AE0269F11
:103BC00011243019305D3193DEF6CF010895462F70
:103BD0004770405D4193B3E00FD0C9F7F6CF462F51
:103BE0004F70405D4A3318F0495D31FD40524193BA
:103BF00002D0A9F7EACFB4E0A69597958795779577
:103C00006795BA95C9F700976105710508959B01FD
:103C1000AC010A2E06945795479537952795BA9586
:103C2000C9F7620F731F841F951FA01D0895F89494
:023C3000FFCFC4
:103C3200A7086F046F046F046F046F046F046F04AE
:103C42006F048C0046008C008C0023005F00910002
:103C520046002C008C00230032008C0023005A0006
:103C62008C00230084000A000A000A0001008C0074
:103C720046008C008C0023005F00910046002C005F
:103C82008C000A0032008C0023005A008C002300B2
:103C9200840014001400140000008C0046008C0004
:103CA2008C0023005F00910046002C0078000A007F
:103CB20032008C0023005A008C0023008400000094
:103CC2000000000000008C0046008C008C002300E5
:103CD2005F00910046002C007800280032008C0022
:103CE20023005A008C002300840000000000000022
:103CF20000008C0046008C008C0000005F009100E8
:103D020046002C007800280032008C0023005A0064
:103D12008C002300840000000000000000008C00E2
:103D220046008C008C0000006E00910046002C00C2
:103D32007800280032008C0023005A008C002300F7
:103D4200840000000000000000008C0046008C008F
:103D52008C0023006E00910046002C0078002800A1
:103D620032008C0023005A008C00230084000000E3
:103D72000000000000008C0046008C008C00230034
:103D82006E00910046002C007800280032008C0062
:103D920023005A008C000A0084000000000000008A
:103DA20000008C0046008C008C0023006E00910005
:103DB20046002C007800280032008C0023005A00B4
:103DC20091000A00840000000000000000008C0046
:103DD20046008C008C0023006E00910046002C00EF
:103DE2007800280032008C0023005A0091002B003A
:103DF200840000000000000000008C0028008C00FD
:103E02008C0023006E00910046002C0078002800F0
:103E120032008C0023005A0091002B008400000025
:103E2200000000000000730028008C008C002300BA
:103E32006E00910046002C007800280032008C00B1
:103E420023005A0091002B008400000000000000B3
:103E5200000073004D008C008C0023006E00910066
:103E620046002C007800280032008C0023005A0003
:103E720091002B008400000000000000000073008D
:103E82004D008C008C0023006E00910046002C0037
:103E92007800280032008C0005005A0091002B00A7
:103EA2008400000000000000000073004D008C0040
:103EB2008C0023006E00910046002C007800280040
:103EC20032008C0005004B0091002B0084000000A2
:103ED20000000000000073004D008C008C002300E5
:103EE2006E00910046002C007800280032008C0001
:103EF20023004B0091002B00840000000000000012
:103F0200000073004D008C008C0023006E009100B5
:103F12002D002C007800280032008C0023004B007A
:103F220091002B00840000000000000000007300DC
:103F32004D008C008C0023006E009B002D002C0095
:103F42007800280032008C0023004B0091002B00E7
:103F52008400000000000000000073004D008C008F
:103F62008C0023006E009B0052002C007800280079
:103F720032008C0023004B0091002B0084000000D3
:103F820000000000000078004B008C008C00230031
:103F92006900960049002C007D00260032008C004A
:103FA200230050008C00220084000000000000006A
:103FB20000007D0049008C008C0023006400910009
:103FC20048002C008200240032008C00230055009F
:103FD2008700210084000000000000000000820031
:103FE20048008C008C0023005F008C0048002C00ED
:103FF2008700230032008C0023005A008200210037
:1040020084000000000000000000870048008C00CF
:104012008C0023005A00870049002C008C002300EA
:1040220032008C0023005F007D002200840000002B
:104032000000000000008C0049008C008C0023006E
:10404200550082004B002C009100240032008C00AD
:1040520023006400780024008400000000000000B7
:104062000000910052008C008C00230050007D0063
:104072004D002C0096002D0032008C0023006900B8
:104082007300260084000000000000000000910080
:1040920052008C008C00230050007D004D002C004B
:1040A20096000A0032008C0023006900730026008B
:1040B20084000000000000000000910052008C000B
:1040C2008C00230050007D004D002C0078000A0077
:1040D20032008C0023006900730026008400000077
:1040E200000000000000910052008C008C002300B0
:1040F20050007D004D002C007800280032008C001A
:104102002300690073002600840000000000000004
:104112000000910052008C008C00000050007D00D5
:104122004D002C007800280032008C00230069002A
:1041320073002600840000000000000000009100CF
:1041420052008C008C0000006E007D004D002C009F
:104152007800280032008C002300690073002600DA
:1041620084000000000000000000910052008C005A
:104172008C0023006E007D004D002C00780028008A
:1041820032008C00230069007300260084000000C6
:10419200000000000000910052008C008C002300FF
:1041A2006E007D004D002C007800280032008C004B
:1041B2002300690073000A00840000000000000070
:1041C2000000910052008C008C0023006E007D00E4
:1041D2004D002C007800280032008C00230069007A
:1041E20091000A008400000000000000000091001D
:1041F20052008C008C0023006E007D004D002C00CC
:104202007800280032008C002300690091002B0006
:1042120084000000000000000000910028008C00D3
:104222008C0023006E007D004D002C0078002800D9
:1042320032008C002300690091002B0084000000F2
:10424200000000000000730028008C008C00230096
:104252006E007D004D002C007800280032008C009A
:104262002300690091002B00840000000000000080
:10427200000073004D008C008C0023006E007D0056
:104282004D002C007800280032008C0023006900C9
:1042920091002B0084000000000000000000730069
:1042A2004D008C008C0023006E007D004D002C0020
:1042B2007800280032008C000500690091002B0074
:1042C2008400000000000000000073004D008C001C
:1042D2008C0023006E007D004D002C007800280029
:1042E20032008C0005004B0091002B00840000007E
:1042F20000000000000073004D008C008C002300C1
:104302006E007D004D002C007800280032008C00E9
:1043120023004B0091002B008400000000000000ED
:10432200000073004D008C008C0023006E007D00A5
:1043320028002C007800280032008C0023004B005B
:1043420091002B00840000000000000000007300B8
:104352004D008C008C0023006E009B0028002C0076
:104362007800280032008C0023004B0091002B00C3
:104372008400000000000000000073004D008C006B
:104382008C0023006E009B0052002C007800280055
:1043920032008C0023004B0091002B0084000000AF
:1043A20000000000000078004B008C008C0023000D
:1043B2006900960049002C007D00260032008C0026
:1043C200230050008C002200840000000000000046
:1043D20000007D0049008C008C00230064009100E5
:1043E20048002C008200240032008C00230055007B
:1043F200870021008400000000000000000082000D
:1044020048008C008C0023005F008C0048002C00C8
:104412008700230032008C0023005A008200210012
:1044220084000000000000000000870048008C00AB
:104432008C0023005A00870049002C008C002300C6
:1044420032008C0023005F007D0022008400000007
:104452000000000000008C0049008C008C0023004A
:10446200550082004B002C009100240032008C0089
:104472002300640078002400840000000000000093
:104482000000910052008C008C00230050007D003F
:104492004D002C0096002D0032008C002300690094
:1044A200730026008400000000000000000091005C
:1044B20052008C008C00230050007D004D002C0027
:1044C20096000A0032008C00230069007300260067
:1044D20084000000000000000000910052008C00E7
:1044E2008C00230050007D004D002C0078000A0053
:1044F20032008C0023006900730026008400000053
:10450200000000000000910052008C008C0023008B
:1045120050007D004D002C007800280032008C00F5
:1045220023006900730026008400000000000000E0
:104532000000910052008C008C00000050007D00B1
:104542004D002C007800280032008C002300690006
:1045520073002600840000000000000000009100AB
:1045620052008C008C0000006E007D004D002C007B
:104572007800280032008C002300690073002600B6
:1045820084000000000000000000910052008C0036
:104592008C0023006E007D004D002C007800280066
:1045A20032008C00230069007300260084000000A2
:1045B200000000000000910052008C008C002300DB
:1045C2006E007D004D002C007800280032008C0027
:1045D2002300690073000A0084000000000000004C
:1045E2000000910052008C008C0023006E007D00C0
:1045F2004D002C007800280032008C002300690056
:1046020091000A00840000000000000000009100F8
:1046120052008C008C0023006E007D004D002C00A7
:104622007800280032008C002300690091002B00E2
:1046320084000000000000000000910028008C00AF
:104642008C0023006E007D004D002C0078002800B5
:1046520032008C002300690091002B0084000000CE
:10466200000000000000730028008C008C00230072
:104672006E007D004D002C007800280032008C0076
:104682002300690091002B0084000000000000005C
:10469200000073004D008C008C0023006E007D0032
:1046A2004D002C007800280032008C0023006900A5
:1046B20091002B0084000000000000000000730045
:1046C2004D008C008C0023006E007D004D002C00FC
:1046D2007800280032008C000500690091002B0050
:1046E2008400000000000000000073004D008C00F8
:1046F2008C0023006E007D004D002C007800280005
:1047020032008C0005004B0091002B008400000059
:1047120000000000000073004D008C008C0023009C
:104722006E007D004D002C007800280032008C00C5
:1047320023004B0091002B008400000000000000C9
:10474200000073004D008C008C0023006E007D0081
:1047520028002C007800280032008C0023004B0037
:1047620091002B0084000000000000000000730094
:104772004D008C008C0023006E009B0028002C0052
:104782007800280032008C0023004B0091002B009F
:104792008400000000000000000073004D008C0047
:1047A2008C0023006E009B0052002C007800280031
:1047B20032008C0023004B0091002B00840000008B
:1047C20000000000000078004B008C008C002300E9
:1047D2006900960049002C007D00260032008C0002
:1047E200230050008C002200840000000000000022
:1047F20000007D0049008C008C00230064009100C1
:1048020048002C008200240032008C002300550056
:1048120087002100840000000000000000008200E8
:1048220048008C008C0023005F008C0048002C00A4
:104832008700230032008C0023005A0082002100EE
:1048420084000000000000000000870048008C0087
:104852008C0023005A00870049002C008C002300A2
:1048620032008C0023005F007D00220084000000E3
:104872000000000000008C0049008C008C00230026
:10488200550082004B002C009100240032008C0065
:10489200230064007800240084000000000000006F
:1048A2000000910052008C008C00230050007D001B
:1048B2004D002C0096002D0032008C002300690070
:1048C2007300260084000000000000000000910038
:1048D20052008C008C00230050007D004D002C0003
:1048E20096000A0032008C00230069007300260043
:1048F20084000000000000000000910052008C00C3
:104902008C00230050007D004D002C0078000A002E
:1049120032008C002300690073002600840000002E
:10492200000000000000910052008C008C00230067
:1049320050007D004D002C007800280032008C00D1
:1049420023006900730026008400000000000000BC
:104952000000910052008C008C00000050007D008D
:104962004D002C007800280032008C0023006900E2
:104972007300260084000000000000000000910087
:1049820052008C008C0000006E007D004D002C0057
:104992007800280032008C00230069007300260092
:1049A20084000000000000000000910052008C0012
:1049B2008C0023006E007D004D002C007800280042
:1049C20032008C002300690073002600840000007E
:1049D200000000000000910052008C008C002300B7
:1049E2006E007D004D002C007800280032008C0003
:1049F2002300690073000A00840000000000000028
:104A02000000910052008C008C0023006E007D009B
:104A12004D002C007800280032008C002300690031
:104A220091000A00840000000000000000009100D4
:104A320052008C008C0023006E007D004D002C0083
:104A42007800280032008C002300690091002B00BE
:104A520084000000000000000000910028008C008B
:104A62008C0023006E007D004D002C007800280091
:104A720032008C002300690091002B0084000000AA
:104A8200000000000000730028008C008C0023004E
:104A92006E007D004D002C007800280032008C0052
:104AA2002300690091002B00840000000000000038
:104AB200000073004D008C008C0023006E007D000E
:104AC2004D002C007800280032008C002300690081
:104AD20091002B0084000000000000000000730021
:104AE2004D008C008C0023006E007D004D002C00D8
:104AF2007800280032008C000500690091002B002C
:104B02008400000000000000000073004D008C00D3
:104B12008C0023006E007D004D002C0078002800E0
:104B220032008C0005004B0091002B008400000035
:104B320000000000000073004D008C008C00230078
:104B42006E007D004D002C007800280032008C00A1
:104B520023004B0091002B008400000000000000A5
:104B6200000073004D008C008C0023006E007D005D
:104B720028002C007800280032008C0023004B0013
:104B820091002B0084000000000000000000730070
:104B92004D008C008C0023006E009B0028002C002E
:104BA2007800280032008C0023004B0091002B007B
:104BB2008400000000000000000073004D008C0023
:104BC2008C0023006E009B0052002C00780028000D
:104BD20032008C0023004B0091002B008400000067
:104BE20000000000000078004B008C008C002300C5
:104BF2006900960049002C007D00260032008C00DE
:104C0200230050008C0022008400000000000000FD
:104C120000007D0049008C008C002300640091009C
:104C220048002C008200240032008C002300550032
:104C320087002100840000000000000000008200C4
:104C420048008C008C0023005F008C0048002C0080
:104C52008700230032008C0023005A0082002100CA
:104C620084000000000000000000870048008C0063
:104C72008C0023005A00870049002C008C0023007E
:104C820032008C0023005F007D00220084000000BF
:104C92000000000000008C0049008C008C00230002
:104CA200550082004B002C009100240032008C0041
:104CB200230064007800240084000000000000004B
:104CC2000000910052008C008C00230050007D00F7
:104CD2004D002C0096002D0032008C00230069004C
:104CE2007300260084000000000000000000910014
:104CF20052008C008C00230050007D004D002C00DF
:104D020096000A0032008C0023006900730026001E
:104D120084000000000000000000910052008C009E
:104D22008C00230050007D004D002C0078000A000A
:104D320032008C002300690073002600840000000A
:104D4200000000000000910052008C008C00230043
:104D520050007D004D002C007800280032008C00AD
:104D62002300690073002600840000000000000098
:104D72000000910052008C008C00000050007D0069
:104D82004D002C007800280032008C0023006900BE
:104D92007300260084000000000000000000910063
:104DA20052008C008C0000006E007D004D002C0033
:104DB2007800280032008C0023006900730026006E
:104DC20084000000000000000000910052008C00EE
:104DD2008C0023006E007D004D002C00780028001E
:104DE20032008C002300690073002600840000005A
:104DF200000000000000910052008C008C00230093
:104E02006E007D004D002C007800280032008C00DE
:104E12002300690073000A00840000000000000003
:104E22000000910052008C008C0023006E007D0077
:104E32004D002C007800280032008C00230069000D
:104E420091000A00840000000000000000009100B0
:104E520052008C008C0023006E007D004D002C005F
:104E62007800280032008C002300690091002B009A
:104E720084000000000000000000910028008C0067
:104E82008C0023006E007D004D002C00780028006D
:104E920032008C002300690091002B008400000086
:104EA200000000000000730028008C008C0023002A
:104EB2006E007D004D002C007800280032008C002E
:104EC2002300690091002B00840000000000000014
:104ED200000073004D008C008C0023006E007D00EA
:104EE2004D002C007800280032008C00230069005D
:104EF20091002B00840000000000000000007300FD
:104F02004D008C008C0023006E007D004D002C00B3
:104F12007800280032008C000500690091002B0007
:104F22008400000000000000000073004D008C00AF
:104F32008C0023006E007D004D002C0078002800BC
:104F420032008C0005004B0091002B008400000011
:104F520000000000000073004D008C008C00230054
:104F62006E007D004D002C007800280032008C007D
:104F720023004B0091002B00840000000000000081
:104F8200000073004D008C008C0023006E007D0039
:104F920028002C007800280032008C0023004B00EF
:104FA20091002B008400000000000000000073004C
:104FB2004D008C008C0023006E009B0028002C000A
:104FC2007800280032008C0023004B0091002B0057
:104FD2008400000000000000000073004D008C00FF
:104FE2008C0023006E009B0052002C0078002800E9
:104FF20032008C0023004B0091002B008400000043
:1050020000000000000078004B008C008C002300A0
:105012006900960049002C007D00260032008C00B9
:10502200230050008C0022008400000000000000D9
:1050320000007D0049008C008C0023006400910078
:1050420048002C008200240032008C00230055000E
:1050520087002100840000000000000000008200A0
:1050620048008C008C0023005F008C0048002C005C
:105072008700230032008C0023005A0082002100A6
:1050820084000000000000000000870048008C003F
:105092008C0023005A00870049002C008C0023005A
:1050A20032008C0023005F007D002200840000009B
:1050B2000000000000008C0049008C008C002300DE
:1050C200550082004B002C009100240032008C001D
:1050D2002300640078002400840000000000000027
:1050E2000000910052008C008C00230050007D00D3
:1050F2004D002C0096002D0032008C002300690028
:1051020073002600840000000000000000008C00F4
:1051120046008C008C0023005F00910046002C00AA
:105122008C00230032008C0023005A008C002300E4
:1051320084000A000A000A0001008C0046008C006C
:105142008C0023005F00910046002C008C0023009D
:1051520032008C0023005A008C0023008400B4002B
:1051620052008C00B40025006E00B400520078009A
:10517200B40032007800B40023006900B4002B00B0
:1051820084007300280041007D00000050007D0073
:1051920028002C0078000A0032007D0005004B0038
:1051A20073000A003C0000000000060570049D0424
:1051B2005305CE04AC04C004000000000808DB075D
:1051C200A408B107D407C107B2070D0A002053791A
:1051D2007374656D206E6F7420696E69742000E3CC
:1051E20082BFE382A4E3839EE383BCE4B88AE999A5
:1051F20090E382A8E383A9E383BC00E382BFE38256
:10520200A4E3839EE383BC4944E3818CE5AD98E546
:105212009CA8E38197E381AAE3818400E38193E37D
:10522200828CE38282E38186E784A1E79086E3822F
:1052320084E381A70053797374656D20537461729E
:1052420074002D2D2D207363656E65202D2D2D0A82
:10525200002D2D2D205363656E6520496E70757487
:10526200205374617274202D2D2D002D2D2D20734D
:1052720063656E6520636F756E746572206F766507
:1052820072202D2D2D002D2D2D20283829202D2D59
:105292002D0A002D2D2D20283929202D2D2D0A00F3
:1052A200E382BFE382A4E3839EE383BCE996A2E99F
:1052B20080A3E382A8E383A9E383BC3A20256400A8
:1052C2006B6F6B6F206B6974657275796F002D2D32
:1052D2002D2D002D2D2D6B6F6B6F2D2D2D007272CC
:1052E200727272727272000A2D2D2D20544553541F
:1052F200205354415254202D2D2D2D0A000A2D2DBC
:105302002D20454E44202D2D2D2D0A002D2D2D20F2
:1053120063616C6C6261636B207374617274202DC3
:105322002D2D002D2D2D207363656E6542757379C9
:06533200202D2D2D0000CE
:00000001FF
