:100000000C942B010C94E3050C94B8050C948D050D
:100010000C9462050C9437050C940C050C94E104C7
:100020000C94B6040C945C010C945C010C945C017F
:100030000C945C010C945C010C945C010C945C01CC
:100040000C945C010C945C010C945C010C945C01BC
:100050000C946E060C945C010C945C010C946C0482
:100060000C945C010C9438060C940E060C945C0104
:100070000C945C010C945C010C945C010C945C018C
:100080000C945C010C945C010C945C010C945C017C
:100090000C945C010C945C010C945C010C9478064B
:1000A0000C945C010C945C010C945C010C945C015C
:1000B0000C945C010C945C010C945C010C945C014C
:1000C0000C945C010C945C010C945C010C945C013C
:1000D0000C945C010C945C010C945C010C945C012C
:1000E0000C945C010C94AD030C94EE010C94E401AF
:1000F0000C94FC010C94C2020C94E0010C94960345
:100100000C94F8010C9435020C9409040C94D3015E
:100110000C94B4010C94F2010C940F030C94DA01CA
:100120000C94CB010C9498070C9494020C945E01EF
:100130000C9406020C94CF010C9463020C94A60359
:100140000C9472020C94DA030C9436020C94B901EC
:100150000C940A020C9400020C9486020C94EA019E
:100160000C94D7010C94970300002200250028006E
:100170002B002E00310034000201000005010801AF
:100180000B0105050505070508080808020202021B
:100190000A0A080804040404010101010101010123
:1001A0000303030303030303040707070C0C0C0CEE
:1001B0000C0C0C0C020202020606060606060606D7
:1001C0000B0B0B0B0B0B0B0B010210202008081064
:1001D00020401020408002010201080402010102B7
:1001E0000408102040808040201008040201800490
:1001F00002018040201008040201080402010102EB
:1002000004081020408001020408102040800000F3
:100210000A0B02090C0D0E08070304010000000080
:1002200000000000000000000000000000000000CE
:10023000000000000000000000001211100000008B
:1002400000000000000000000000000000000000AE
:1002500000000000980711241FBECFEFD1E2DEBFDF
:10026000CDBF00E00CBF12E0A0E0B2E0ECE8F3E1AB
:1002700000E00BBF02C007900D92AA34B107D9F776
:1002800023E0AAE4B2E001C01D92AB3BB207E1F764
:1002900011E0CBE2D1E000E006C021970109802FF8
:1002A000FE010E94BC09CA32D10780E00807A9F705
:1002B0000E94DE070C94C4090C94000090910C037A
:1002C00080910B032FEF3FEF981748F4E92FF0E0F0
:1002D000E551FD4F208130E09F5F90930C03C901F1
:1002E000089590910C0380910B032FEF3FEF981727
:1002F00048F4E92FF0E0E551FD4F208130E09F5FA9
:1003000090930C03C9010895282F30E0F901E25FB2
:10031000FD4F9491F901E853FE4F44912E573E4F03
:10032000F9012491222309F435C0992311F1915048
:100330009231F8F4E92FF0E08827EE55FE4F8F4F09
:100340000C94BC09D301D701B401CB01CF01B90191
:10035000DA01E001E401EA01EE01F201F801FC0139
:10036000B901000206020A02809180008F77809313
:100370008000E22FF0E0EE0FFF1FE859FE4FA5913D
:10038000B4918FB7F894EC91611148C040954E2319
:100390004C938FBF0895809180008F7DE8CF80912E
:1003A0008000877FE4CF84B58F7784BDE2CF84B5AA
:1003B0008F7DFBCF8091B0008F778093B000D9CF35
:1003C0008091B0008F7DF9CF809190008F778093DE
:1003D0009000CFCF809190008F7DF9CF80919000D9
:1003E000877FF5CF8091A0008F778093A000C1CF49
:1003F0008091A0008F7DF9CF8091A000877FF5CFFD
:10040000809120018F7780932001B3CF80912001CC
:100410008F7DF9CF80912001877FF5CF4E2BB8CF0C
:100420003FB7F8948091E7029091E802A091E90229
:10043000B091EA0226B5A89B05C02F3F19F001969E
:10044000A11DB11D3FBFBA2FA92F982F8827BC012E
:10045000CD01620F711D811D911D42E0660F771F56
:10046000881F991F4A95D1F708950895AF92BF92BA
:10047000CF92DF92EF92FF920F931F93CF93DF9370
:100480006C017B018B01040F151FEB015E01AE189F
:10049000BF08C017D10759F06991D601ED91FC91C1
:1004A0000190F081E02DC6011995892B79F7C501DE
:1004B000DF91CF911F910F91FF90EF90DF90CF9040
:1004C000BF90AF900895FC01538D448D252F30E0EF
:1004D000842F90E0821B930B541710F0CF96089551
:1004E00001970895FC01918D828D981761F0A28D7E
:1004F000AE0FBF2FB11D5D968C91928D9F5F9F7344
:10050000928F90E008958FEF9FEF0895FC01918DF9
:10051000828D981731F0828DE80FF11D858D90E066
:1005200008958FEF9FEF0895FC01918D228D892F03
:1005300090E0805C9F4F821B91098F7399270895EB
:10054000FC01A48DA80FB92FB11DA35ABF4F2C9148
:10055000848D90E001968F739927848FA689B7893F
:100560002C93A089B1898C91837080648C93938D36
:10057000848D981306C00288F389E02D80818F7DD9
:1005800080830895EF92FF920F931F93CF93DF9391
:10059000EC0181E0888F9B8D8C8D98131AC0E889BF
:1005A000F989808185FF15C09FB7F894EE89FF898E
:1005B0006083E889F98980818370806480839FBF2C
:1005C00081E090E0DF91CF911F910F91FF90EF902C
:1005D0000895F62E0B8D10E00F5F1F4F0F7311273C
:1005E000E02E8C8D8E110CC00FB607FCFACFE88977
:1005F000F989808185FFF5CFCE010E94A002F1CF5D
:10060000EB8DEC0FFD2FF11DE35AFF4FF0829FB7EA
:10061000F8940B8FEA89FB8980818062CFCFCF93DA
:10062000DF93EC01888D8823B9F0AA89BB89E8891A
:10063000F9898C9185FD03C0808186FD0DC00FB6C0
:1006400007FCF7CF8C9185FFF2CF808185FFEDCF3E
:10065000CE010E94A002E9CFDF91CF9108950895C5
:100660001F93CF93DF93C1E0C0937702882399F162
:10067000D091B8001091BA008091BC008A7B809321
:10068000BC0060E084E10E94840160E085E10E949A
:1006900084011092BC02C093BE021092BD0261E0C0
:1006A00084E10E94840161E085E10E9484018091DF
:1006B000B9008E7F8093B9008091B9008D7F8093BF
:1006C000B90088E48093B80085E48093BC0010935F
:1006D000BA00D093B800DF91CF911F910895209177
:1006E0009802260F3327331F21323105ECF4209175
:1006F000BC02FC0190E080E0243069F082E00895C3
:10070000A09198022191AC0148585D4FA40FB52FDC
:10071000B11D2C930196861798F380919802680F6B
:100720006093980280E0089581E008950895E09133
:100730000C0380910B03E81730F4F0E0E551FD4F16
:10074000808190E008958FEF9FEF089580910B03D3
:1007500090910C03891B990B0895CF92DF92EF9231
:10076000FF920F931F93CF93DF937C01CB018A01FC
:1007700020917102222389F0EB016B01C40ED51E7A
:10078000CC15DD0569F06991D701ED91FC910190DF
:10079000F081E02DC7011995F3CF642F0E946F03FC
:1007A000C801DF91CF911F910F91FF90EF90DF90E3
:1007B000CF900895CF93DF931F92CDB7DEB76983B3
:1007C000209171022223F9F020917002203258F01A
:1007D00021E030E0FC013383228390E080E00F9041
:1007E000DF91CF91089580916F02E82FF0E0E15BF7
:1007F000FD4F998190838F5F80936F028093700289
:1008000081E090E0ECCF61E0CE0101960E946F03A1
:10081000F7CF90E080E00895CF93DF93FC01019043
:100820000020E9F73197AF01481B590BBC018DE05F
:1008300093E00E943602EC0142E050E064E372E093
:100840008DE093E00E9436028C0F9D1FDF91CF91C7
:100850000895CF93DF93CDB7DEB787E392E00E9490
:100860000C04DF91CF91089585ED8093BC008091B9
:10087000730290917402A0917502B091760207966E
:10088000A11DB11D23E0B695A795979587952A954B
:10089000D1F72091BC0024FD03C01092BC02089542
:1008A00040917302509174026091750270917602CA
:1008B000452B462B472B69F30097A105B10541F065
:1008C00025E32A95F1F700000197A109B109E1CFCD
:1008D000809172020C9430031F920F920FB60F9208
:1008E00011242F933F938F939F93AF93BF93809146
:1008F000E3029091E402A091E502B091E60230910A
:10090000E20223E0230F2D3758F50196A11DB11DFA
:100910002093E2028093E3029093E402A093E50225
:10092000B093E6028091E7029091E802A091E9027B
:10093000B091EA020196A11DB11D8093E702909348
:10094000E802A093E902B093EA02BF91AF919F91B0
:100950008F913F912F910F900FBE0F901F90189580
:1009600026E8230F0296A11DB11DD2CF1F920F9230
:100970000FB60F9211240BB60F922F933F934F9304
:100980005F936F937F938F939F93AF93BF93EF93F7
:10099000FF93E0910E02F0910F021995FF91EF91F4
:1009A000BF91AF919F918F917F916F915F914F9187
:1009B0003F912F910F900BBE0F900FBE0F901F9085
:1009C00018951F920F920FB60F9211240BB60F922B
:1009D0002F933F934F935F936F937F938F939F9347
:1009E000AF93BF93EF93FF93E0910C02F0910D0250
:1009F0001995FF91EF91BF91AF919F918F917F9149
:100A00006F915F914F913F912F910F900BBE0F907F
:100A10000FBE0F901F9018951F920F920FB60F9256
:100A200011240BB60F922F933F934F935F936F93C5
:100A30007F938F939F93AF93BF93EF93FF93E09137
:100A40000202F09103021995FF91EF91BF91AF91CE
:100A50009F918F917F916F915F914F913F912F91D6
:100A60000F900BBE0F900FBE0F901F9018951F9206
:100A70000F920FB60F9211240BB60F922F933F9344
:100A80004F935F936F937F938F939F93AF93BF9396
:100A9000EF93FF93E0910002F09101021995FF910D
:100AA000EF91BF91AF919F918F917F916F915F91E6
:100AB0004F913F912F910F900BBE0F900FBE0F9053
:100AC0001F9018951F920F920FB60F9211240BB61C
:100AD0000F922F933F934F935F936F937F938F93D7
:100AE0009F93AF93BF93EF93FF93E0910A02F0912E
:100AF0000B021995FF91EF91BF91AF919F918F914B
:100B00007F916F915F914F913F912F910F900BBE0D
:100B10000F900FBE0F901F9018951F920F920FB657
:100B20000F9211240BB60F922F933F934F935F9325
:100B30006F937F938F939F93AF93BF93EF93FF93A5
:100B4000E0910802F09109021995FF91EF91BF9190
:100B5000AF919F918F917F916F915F914F913F9155
:100B60002F910F900BBE0F900FBE0F901F901895F6
:100B70001F920F920FB60F9211240BB60F922F9364
:100B80003F934F935F936F937F938F939F93AF9315
:100B9000BF93EF93FF93E0910602F091070219953E
:100BA000FF91EF91BF91AF919F918F917F916F9145
:100BB0005F914F913F912F910F900BBE0F900FBE01
:100BC0000F901F9018951F920F920FB60F9211243D
:100BD0000BB60F922F933F934F935F936F937F9337
:100BE0008F939F93AF93BF93EF93FF93E091040292
:100BF000F09105021995FF91EF91BF91AF919F91EF
:100C00008F917F916F915F914F913F912F910F90B5
:100C10000BBE0F900FBE0F901F9018951F920F9252
:100C20000FB60F9211240BB60F922F933F934F9351
:100C30005F936F937F938F939F93AF93BF93EF9344
:100C4000FF938DE093E00E94A002FF91EF91BF918E
:100C5000AF919F918F917F916F915F914F913F9154
:100C60002F910F900BBE0F900FBE0F901F901895F5
:100C70001F920F920FB60F9211240BB60F922F9363
:100C80008F939F93EF93FF93E0911D03F0911E03C9
:100C90008081E0912303F091240382FD1DC09081A7
:100CA000809126038F5F8F7320912703821741F075
:100CB000E0912603F0E0E35FFC4F958F80932603DD
:100CC000FF91EF919F918F912F910F900BBE0F90FD
:100CD0000FBE0F901F9018958081F2CF1F920F9238
:100CE0000FB60F9211240F900FBE0F901F90189502
:100CF0001F920F920FB60F9211240BB60F922F93E3
:100D00003F934F935F936F937F938F939F93AF9393
:100D1000BF93EF93FF938091B900887F803609F4E9
:100D20004DC008F040C0883209F4A7C028F58031D2
:100D300009F49BC0C8F4882309F4F7C0883009F48B
:100D400094C0FF91EF91BF91AF919F918F917F914F
:100D50006F915F914F913F912F910F900BBE0F902C
:100D60000FBE0F901F901895883109F486C080320D
:100D700041F78093BB0214C0803409F49BC040F457
:100D80008033B9F38833E9F68093BB0285ECAEC0BB
:100D9000803509F483C0883509F494C0883489F615
:100DA0000E943404CECF883909F48AC038F58837D8
:100DB00029F050F4883611F0803719F683E08093DB
:100DC000BC021092BA0255C0883809F479C0803943
:100DD00019F0803809F0B5CF8091BA02803208F05E
:100DE0006FC0E091BA0281E08E0F8093BA028091C9
:100DF000BB00F0E0E656FD4F80833BC0803B39F0FE
:100E0000D0F4803A09F477C0883A09F09ACF84E0A8
:100E10008093BC021092990210929802F0E0E0E0F8
:100E200019958091980281110FC081E080939802FA
:100E30001092780209C0803C09F4A8CF883C09F4DC
:100E4000A5CF883B09F07DCFE091990281E08E0F1C
:100E500080939902F0E0E858FD4F80818093BB00B9
:100E6000909199028091980229C08091E10280932B
:100E7000BB0085EC8093BC0064CF9091E002809130
:100E8000DF02981758F5E091E00281E08E0F809321
:100E9000E002F0E0E154FD4F8081E9CFE091E00213
:100EA00081E08E0F8093E0028091BB00F0E0E1547E
:100EB000FD4F80839091E0028091DF029817C8F285
:100EC00085E8D8CFE091E00281E08E0F8093E002C8
:100ED0008091BB00F0E0E154FD4F80838091BE0221
:100EE00081115ECF81E08093BD0284EA8093BC00D3
:100EF0001092BC0226CF85EC8093BC001092BC02FD
:100F00008091BA02803230F4E091BA02F0E0E65605
:100F1000FD4F10826091BA0270E08AE992E0F0E041
:100F2000E0E019951092BA020CCF1092BB0238CFB4
:100F3000EDE0F3E01382128288EE93E0A0E0B0E0EF
:100F400084839583A683B78324E132E031832083B1
:100F500025EC30E03587248724EC30E0378726877E
:100F600020EC30E0318B208B21EC30E0338B228B76
:100F700022EC30E0358B248B26EC30E0378B268B4F
:100F8000118E128E138E148EEAEAF3E0138212820F
:100F900084839583A683B78386E292E091838083DE
:100FA00081E48093B70382E48093B60383E4809363
:100FB000B8038093B9038093BA0308958F929F92E8
:100FC000AF92BF92CF92DF92EF92FF920F931F9357
:100FD000CF93DF93CDB7DEB762970FB6F894DEBF3D
:100FE0000FBECDBFFE01319682E1DF011D928A95D1
:100FF000E9F7CE0143961192E817F907E1F781E08E
:101000008093710288E680934E0210926F021092D4
:1010100070026BE38AEA93E00E94DA031091700297
:10102000113208F090C00E9410026B017C01809187
:10103000BC02811163C082E08093BC021092BE02A8
:101040008FEF8093BB021092E0021093DF02EFE477
:10105000F2E0AFEBB2E080E01813E9C01092E102D9
:101060008091E102806D8093E1028091BD02813028
:1010700009F0E1C01092BD020E9410026B017C01D8
:101080008091E1028093BB00809173029091740281
:10109000A0917502B0917602892B8A2B8B2B99F047
:1010A0000E94100200917302109174022091750247
:1010B000309176026C197D098E099F090617170772
:1010C00028073907E0F18091BC0083FDD9CF85EC7A
:1010D0008093BC000E9410026B017C018091BC02D5
:1010E000823009F4AAC08091BB028F3F61F18091E8
:1010F000BB02803241F18091BB0225C08091730216
:1011000090917402A0917502B0917602892B8A2B7E
:101110008B2B09F48CCF0E94100280907302909068
:101120007402A0907502B09076026C197D098E0948
:101130009F0986169706A806B90608F078CF809111
:1011400072020E94300310926F021092700210928D
:1011500071020E9410026B017C018091BC0281111E
:101160008EC081E08093BC028093BE029FEF90937B
:10117000BB021092E0029DE09093DF028093E102B7
:101180008091E102806D8093E1028091BD02813007
:1011900009F0CCC01092BD020E9410026B017C01CC
:1011A0008091E1028093BB00809173029091740260
:1011B000A0917502B0917602892B8A2B8B2BA1F01E
:1011C0000E94100200917302109174022091750226
:1011D000309176026C197D098E099F090617170751
:1011E0002807390708F46CC08091BC0083FDD8CF74
:1011F00085EC8093BC000E9410026B017C01809101
:10120000BC02813009F494C08091E0028E3008F075
:10121000B1C08091E002EFEBF2E0ABEEB2E090E023
:10122000981709F452C021912D939F5FF9CF9191A6
:101230009D938F5F11CF85EE4BCF8091730290917C
:101240007402A0917502B0917602892B8A2B8B2BA8
:1012500009F444CF0E9410020091730210917402AD
:1012600020917502309176026C197D098E099F09D3
:10127000061717072807390708F030CF60CF80918D
:10128000730290917402A0917502B0917602892B3D
:101290008A2B8B2B09F461CF0E94100200917302FC
:1012A0001091740220917502309176026C197D09BB
:1012B0008E099F09061717072807390708F04DCF31
:1012C000809172020E94300380E010920C038093A0
:1012D0000B030E9471010E9471010E9471010E9422
:1012E00071010E9471010E9471010E9471010E94AE
:1012F00071010E9471010E9471010E9471010E949E
:10130000710190E080E062960FB6F894DEBF0FBEE8
:10131000CDBFDF91CF911F910F91FF90EF90DF90A4
:10132000CF90BF90AF909F908F90089585EE61CF42
:101330008091730290917402A0917502B09176022F
:10134000892B8A2B8B2B09F45ACF0E941002009113
:1013500073021091740220917502309176026C191B
:101360007D098E099F09061717072807390708F016
:1013700046CFA6CF8EE04FCFEE0FFF1F881F8BBF4B
:0C1380000790F691E02D1994F894FFCF2F
:10138C003502350235023502350235023502350299
:10139C0000000000C202360263020F0394027202C4
:1013AC00860200000000DA03AD0309049603A603CD
:1013BC005E0197030D0A002053797374656D206EDE
:0A13CC006F7420696E697420000040
:00000001FF
