:100000000C9483000C94B4000C94B4000C94B400D1
:100010000C94B4000C94B4000C94B4000C94B40090
:100020000C94B4000C94B4000C94B4000C94B40080
:100030000C94B4000C94B4000C94B4000C946402BE
:100040000C94B4000C94B4000C94B4000C94B40060
:100050000C945A020C94B4000C94B4000C94B001AB
:100060000C94B4000C9424020C94FA010C94B40087
:100070000C94B4000C94B4000C94B4000C94B40030
:100080000C94B4000C94B4000C94B4000C94B40020
:100090000C94B4000C94B4000C94B4000C94B40010
:1000A0000C94B4000C94B4000C94B4000C94B40000
:1000B0000C94B4000C94B4000C94B4000C94B400F0
:1000C0000C94B4000C94B4000C94B4000C94B400E0
:1000D0000C94B4000C94B4000C94B4000C94B400D0
:1000E0000C94B4000C94F2000C9406010C941401CE
:1000F0000C94E3000C9442010C948F010C94C70201
:100100000C94B600C70211241FBECFEFD1E2DEBFB0
:10011000CDBF00E00CBF12E0A0E0B2E0E2E0F6E00C
:1001200000E00BBF02C007900D92A231B107D9F7D2
:1001300022E0A2E1B2E001C01D92A33CB207E1F7C8
:1001400010E0C3E8D0E000E006C021970109802F4D
:10015000FE010E94F702C238D10780E00807A9F724
:100160000E94F4020C94FF020C940000AF92BF9224
:10017000CF92DF92EF92FF920F931F93CF93DF9373
:100180006C017B018B01040F151FEB015E01AE18A2
:10019000BF08C017D10759F06991D601ED91FC91C4
:1001A0000190F081E02DC6011995892B79F7C501E1
:1001B000DF91CF911F910F91FF90EF90DF90CF9043
:1001C000BF90AF900895FC01538D448D252F30E0F2
:1001D000842F90E0821B930B541710F0CF96089554
:1001E00001970895FC01918D828D981761F0A28D81
:1001F000AE0FBF2FB11D5D968C91928D9F5F9F7347
:10020000928F90E008958FEF9FEF0895FC01918DFC
:10021000828D981731F0828DE80FF11D858D90E069
:1002200008958FEF9FEF0895FC01918D228D892F06
:1002300090E0805C9F4F821B91098F7399270895EE
:10024000FC01A48DA80FB92FB11DA35ABF4F2C914B
:10025000848D90E001968F739927848FA689B78942
:100260002C93A089B1898C91837080648C93938D39
:10027000848D981306C00288F389E02D80818F7DDC
:1002800080830895EF92FF920F931F93CF93DF9394
:10029000EC0181E0888F9B8D8C8D98131AC0E889C2
:1002A000F989808185FF15C09FB7F894EE89FF8991
:1002B0006083E889F98980818370806480839FBF2F
:1002C00081E090E0DF91CF911F910F91FF90EF902F
:1002D0000895F62E0B8D10E00F5F1F4F0F7311273F
:1002E000E02E8C8D8E110CC00FB607FCFACFE8897A
:1002F000F989808185FFF5CFCE010E942001F1CFE1
:10030000EB8DEC0FFD2FF11DE35AFF4FF0829FB7ED
:10031000F8940B8FEA89FB8980818062CFCFCF93DD
:10032000DF93EC01888D8823B9F0AA89BB89E8891D
:10033000F9898C9185FD03C0808186FD0DC00FB6C3
:1003400007FCF7CF8C9185FFF2CF808185FFEDCF41
:10035000CE010E942001E9CFDF91CF910895089549
:100360001F920F920FB60F9211242F933F938F93EA
:100370009F93AF93BF938091BF029091C002A091D1
:10038000C102B091C2023091BE0223E0230F2D378B
:1003900058F50196A11DB11D2093BE028093BF02A6
:1003A0009093C002A093C102B093C2028091BA029E
:1003B0009091BB02A091BC02B091BD020196A11D1B
:1003C000B11D8093BA029093BB02A093BC02B0937C
:1003D000BD02BF91AF919F918F913F912F910F904F
:1003E0000FBE0F901F90189526E8230F0296A11DAF
:1003F000B11DD2CF1F920F920FB60F9211240BB6E0
:100400000F922F933F934F935F936F937F938F93AD
:100410009F93AF93BF93EF93FF938DE192E00E9480
:100420002001FF91EF91BF91AF919F918F917F91AB
:100430006F915F914F913F912F910F900BBE0F9055
:100440000FBE0F901F9018951F920F920FB60F922C
:1004500011240BB60F922F938F939F93EF93FF93DB
:10046000E0912D02F0912E028081E0913302F09113
:10047000340282FD1DC09081809136028F5F8F73A0
:1004800020913702821741F0E0913602F0E0E35EFE
:10049000FD4F958F80933602FF91EF919F918F9141
:1004A0002F910F900BBE0F900FBE0F901F901895BD
:1004B0008081F2CF1F920F920FB60F9211240F90EE
:1004C0000FBE0F901F9018951F920F920FB60F92AC
:1004D00011240BB60F922F933F934F935F936F931B
:1004E0007F938F939F93AF93BF93EF93FF938091ED
:1004F0001B0290911C028093B20080911702909190
:100500001802A0911902B0911A020196A11DB11D05
:100510008093170290931802A0931902B0931A02C5
:100520008091170290911802A0911902B0911A02BD
:1005300080911602811118C081E08093160280918B
:10054000170290911802A0911902B0911A0280939B
:10055000170290931802A0931902B0931A02F0E0C8
:10056000E0E0199510921602FF91EF91BF91AF91C3
:100570009F918F917F916F915F914F913F912F91BB
:100580000F900BBE0F900FBE0F901F901895EDE1CE
:10059000F2E01382128288EE93E0A0E0B0E0848360
:1005A0009583A683B78384E092E09183808385EC72
:1005B00090E09587848784EC90E09787868780EC2D
:1005C00090E0918B808B81EC90E0938B828B82EC1E
:1005D00090E0958B848B86EC90E0978B868B118EC8
:1005E000128E138E148E089590E080E00895EE0F21
:1005F000FF1F881F8BBF0790F691E02D1994F89488
:02060000FFCF2A
:10060200000000004201B600E3008F011401F20075
:020612000601DF
:00000001FF
