:100000000C9448010C94640C0C94390C0C940E0C58
:100010000C94E30B0C94B80B0C948D0B0C94620BAA
:100020000C94370B0C9479010C9479010C947901A0
:100030000C9479010C9479010C9479010C94790158
:100040000C9479010C9479010C9479010C94790148
:100050000C94130E0C9479010C9479010C94ED0A14
:100060000C9479010C94B90C0C948F0C0C947901BC
:100070000C9479010C9479010C9479010C94790118
:100080000C9479010C9479010C9479010C94790108
:100090000C9479010C9479010C9479010C94EF0C77
:1000A0000C9479010C9479010C9479010C947901E8
:1000B0000C9479010C9479010C9479010C947901D8
:1000C0000C9479010C9479010C9479010C947901C8
:1000D0000C9479010C9479010C9479010C947901B8
:1000E0000C9479010C948E0A0C9401020C94E10199
:1000F0000C94CA010C94E5010C94AB010C94D80645
:100100000C94EB020C94BB070C94BE020C94630A93
:100110000C9471050C94D1010C94C9060C94F30154
:100120000C94FD010C94FE0E0C94B0010C94B90AD1
:100130000C94C8060C948F020C94F7010C94DB010C
:100140000C94BD020C94BE070C94C2010C94700573
:100150000C9454030C941F070C94C6010C94E901F1
:100160000C94FA020C94D7010C94CE010C940E035B
:100170000C94EF010C94A1030C94370A0C94F20632
:100180000C941C030C94EB060000210024002700B3
:100190002A002D0030003300010100000401070196
:1001A0000A0100002200250028002B002E0031004B
:1001B000340002010000050108010B0105050505D9
:1001C000070508080808020202020A0A08080404CF
:1001D00004040101010101010101030303030303FD
:1001E0000303040707070C0C0C0C0C0C0C0C02028C
:1001F000020206060606060606060B0B0B0B0B0B89
:100200000B0B010210202008081020401020408015
:1002100002010201080402010102040810204080CA
:100220008040201008040201800402018040201058
:1002300008040201080402010102040810204080A1
:10024000010204081020408000000A0B02090C0D76
:100250000E08070304010000000000000000000079
:10026000000000000000000000000000000000008E
:10027000000000001211100000000000000000004B
:100280000000000000000000000000000000FE0E62
:1002900011241FBECFEFD1E2DEBFCDBF00E00CBF07
:1002A00010E1A0E0B2E0E6EDF6E300E00BBF02C033
:1002B00007900D92AA3FB107D9F727E1AAEFB0E165
:1002C00001C01D92A236B207E1F711E0C8E4D1E007
:1002D00000E006C021970109802FFE010E948A18C4
:1002E000C734D10780E00807A9F70E949E0F0C943D
:1002F000691B0C940000282F30E0F901E85BFD4FEA
:100300009491F901EE5FFD4F449124543E4FF90161
:100310002491222309F435C0992311F1915092318F
:10032000F8F4E92FF0E08827E756FE4F8F4F0C9442
:100330008A18CA01CE01AB01C201C601B001D101C8
:10034000D701DB01E101E501E901EF01F301B001B2
:10035000F701FD010102809180008F77809380007A
:10036000E22FF0E0EE0FFF1FEE55FE4FA591B49186
:100370008FB7F894EC91611148C040954E234C938F
:100380008FBF0895809180008F7DE8CF809180009D
:10039000877FE4CF84B58F7784BDE2CF84B58F7D2E
:1003A000FBCF8091B0008F778093B000D9CF809140
:1003B000B0008F7DF9CF809190008F77809390006F
:1003C000CFCF809190008F7DF9CF80919000877F73
:1003D000F5CF8091A0008F778093A000C1CF80914E
:1003E000A0008F7DF9CF8091A000877FF5CF80910D
:1003F00020018F7780932001B3CF809120018F7DE2
:10040000F9CF80912001877FF5CF4E2BB8CFCF93C6
:10041000DF9390E0FC01EE5FFD4F249184549E4FEA
:10042000FC0184918823D1F090E0880F991FFC0192
:10043000E857FE4FA591B491FC01EE55FE4FC591D2
:10044000D49161110EC09FB7F8948C91E22FE09582
:100450008E238C932881E223E8839FBFDF91CF9185
:1004600008958FB7F894EC91E22BEC938FBFF6CF01
:100470003FB7F8948091621590916315A09164152F
:10048000B091651526B5A89B05C02F3F19F00196C0
:10049000A11DB11D3FBFBA2FA92F982F8827BC01DE
:1004A000CD01620F711D811D911D42E0660F771F06
:1004B000881F991F4A95D1F708958F929F92AF9206
:1004C000BF92CF92DF92EF92FF924B015C010E94AC
:1004D00038026B017C010E9438026C197D098E097B
:1004E0009F09683E734081059105A8F321E0821AB7
:1004F0009108A108B10888EEC80E83E0D81EE11C5F
:10050000F11C81149104A104B10429F7FF90EF902C
:10051000DF90CF90BF90AF909F908F900895809183
:100520004F1190915011A0915111B091521101961B
:10053000A11DB11D80934F1190935011A0935111A3
:10054000B0935211E1E4F2E180819181A281B38103
:10055000892B8A2B8B2B59F084819581A681B781B9
:100560000196A11DB11D84839583A683B7837096E0
:1005700085E1E136F80741F708950895AF92BF92FB
:10058000CF92DF92EF92FF920F931F93CF93DF935F
:100590006C017B018B01040F151FEB015E01AE188E
:1005A000BF08C017D10759F06991D601ED91FC91B0
:1005B0000190F081E02DC6011995892B79F7C501CD
:1005C000DF91CF911F910F91FF90EF90DF90CF902F
:1005D000BF90AF900895FC01538D448D252F30E0DE
:1005E000842F90E0821B930B541710F0CF96089540
:1005F00001970895FC01918D828D981761F0A28D6D
:10060000AE0FBF2FB11D5D968C91928D9F5F9F7332
:10061000928F90E008958FEF9FEF0895FC01918DE8
:10062000828D981731F0828DE80FF11D858D90E055
:1006300008958FEF9FEF0895FC01918D228D892FF2
:1006400090E0805C9F4F821B91098F7399270895DA
:100650008CED95E10E941C0321E0892B09F420E038
:10066000822F0895FC01A48DA80FB92FB11DA35AA4
:10067000BF4F2C91848D90E001968F739927848FC2
:10068000A689B7892C93A089B1898C9183708064E5
:100690008C93938D848D981306C00288F389E02D86
:1006A00080818F7D80830895EF92FF920F931F9337
:1006B000CF93DF93EC0181E0888F9B8D8C8D981315
:1006C0001AC0E889F989808185FF15C09FB7F89421
:1006D000EE89FF896083E889F9898081837080646D
:1006E00080839FBF81E090E0DF91CF911F910F91B8
:1006F000FF90EF900895F62E0B8D10E00F5F1F4FC7
:100700000F731127E02E8C8D8E110CC00FB607FCD5
:10071000FACFE889F989808185FFF5CFCE010E9463
:100720003203F1CFEB8DEC0FFD2FF11DE35AFF4F9C
:10073000F0829FB7F8940B8FEA89FB8980818062F1
:10074000CFCFCF93DF93EC01888D8823B9F0AA89AE
:10075000BB89E889F9898C9185FD03C0808186FD7C
:100760000DC00FB607FCF7CF8C9185FFF2CF8081CB
:1007700085FFEDCFCE010E943203E9CFDF91CF910B
:10078000089580E090E0892B29F00E9428038111D0
:100790000E94000080E090E0892B49F080E090E02A
:1007A000892B29F00E94000081110E94000080E046
:1007B00090E0892B49F080E090E0892B29F00E949D
:1007C000000081110E94000080E090E0892B49F038
:1007D00080E090E0892B29F00E94000081110C94A8
:1007E000000008952F923F924F925F926F927F92F6
:1007F0008F929F92AF92BF92CF92DF92EF92FF9231
:100800000F931F93CF93DF93CDB7DEB760970FB6EB
:10081000F894DEBF0FBECDBF9A838983DC01DA96E0
:10082000BC91BD83B1111BC01D828D8160960FB636
:10083000F894DEBF0FBECDBFDF91CF911F910F9116
:10084000FF90EF90DF90CF90BF90AF909F908F90F0
:100850007F906F905F904F903F902F9008958FB74B
:10086000F8942091D8153091D9154091DA1550910E
:10087000DB152B873C874D875E878FBFE981FA8127
:1008800082A193A1A4A1B5A14B855C856D857E85D0
:10089000481B590B6A0B7B0B86A597A5A0A9B1A98C
:1008A000481759076A077B0708F4BECFF88BEF8714
:1008B000048CF58DE02D2081318142815381298383
:1008C0003A834B835C83AF85B8899096ED91FC9118
:1008D00060817181828193810E944C164B015C0181
:1008E000EF85F88922A533A544A555A569817A81AC
:1008F0008B819C810E944C166B017C01AF85B8896D
:1009000050962D913D914D915C915397C501B40145
:100910000E941D18EF85F88926A137A140A551A591
:100920000E944D162B013C01AF85B88996964D92D9
:100930005D926D927C929997DB96BC91BE83B111CA
:1009400018C0EF85F8892485358546855785C70108
:10095000B6010E941D189B01AC01C301B2010E94A7
:100960004C16AF85B88996966D937D938D939C9325
:100970009997EF85F88946A057A060A471A416A99D
:1009800007A930AC21AC212F302F432D522DC301AC
:10099000B2010E94181818160CF07FC0812F902FFA
:1009A000A32DB22DEF85F88986A397A3A0A7B1A7A1
:1009B000BE81BB2309F490C0EF85F8892485358575
:1009C00046855785C501B4010E941D184B015C0185
:1009D000AF85B88954962D913D914D915C91579773
:1009E000C701B6010E941D189B01AC01EF85F88973
:1009F00066A177A180A591A50E944C16A50194013E
:100A00000E944D166B017C019B01AC01612F702F80
:100A1000832D922D0E94B91687FD1BC0AF85B88922
:100A2000D2961C91D297D3960C91D397D4963C90A2
:100A3000D497D5962C90212F302F432D522DB601CF
:100A4000C7010E94B91687FD04C01C2D0D2D3E2C38
:100A50002F2CAF85B8895E96ED91FC91812F902F58
:100A6000A32DB22D80839183A283B38329813A8100
:100A70004B815C81AF85B8899A962D933D934D93B8
:100A80005C939D972B853C854D855E8592962D9335
:100A90003D934D935C939597C8CEAF85B889D29618
:100AA0002D913D914D915C91D5972F833887498742
:100AB0005A87C301B2010E94B91687FF79CF2F81EF
:100AC000388549855A85AF85B88996962D933D938B
:100AD0004D935C9399976CCF812C912C540178CFD6
:100AE0000895089520912511260F3327331F2132B1
:100AF0003105ECF42091AE15FC0190E080E024304B
:100B000069F082E00895A09125112191AC014B5F1D
:100B10005E4EA40FB52FB11D2C930196861798F346
:100B200080912511680F6093251180E0089581E080
:100B300008951092AE1581E08093AD15109288153E
:100B400061E084E10E947B0161E085E10E947B011C
:100B5000E9EBF0E080818E7F808380818D7F8083D0
:100B600088E48093B80085E48093BC000895CF9317
:100B7000DF9391E0909304118823B9F0C091B800FD
:100B8000D091BA008091BC008A7B8093BC0060E069
:100B900084E10E947B0160E085E10E947B010E946C
:100BA0009905D093BA00C093B800DF91CF91089512
:100BB0008F929F92AF92BF92CF92DF92EF92FF926D
:100BC0000F931F93CF93DF93D091D715D13208F0B5
:100BD000D7C0182FC091D6150E9438026B017C0136
:100BE0008091AE1581116BC082E08093AE15109399
:100BF000AD158FEF8093AC151092AB15D093AA155D
:100C0000A6EBB5E1EAE8F5E180E0D81391C01092D7
:100C1000891580918915CC0FC82BC09389158091B7
:100C20008815813009F088C0109288150E9438021A
:100C30006B017C01809189158093BB008091B01578
:100C40009091B115A091B215B091B315892B8A2B53
:100C50008B2BA1F00E9438020091B0151091B115B4
:100C60002091B2153091B3156C197D098E099F0939
:100C7000061717072807390708F442C08091BC00FF
:100C800083FDD8CF85EC8093BC000E9438026B01B5
:100C90007C018091AE15823009F450C08091AC1572
:100CA0008F3F09F46FC08091AC15803209F46CC09D
:100CB0008091AC15803309F469C084E026C080912E
:100CC000B0159091B115A091B215B091B315892BC3
:100CD0008A2B8B2B09F484CF0E9438028090B015A8
:100CE0009090B115A090B215B090B3156C197D0914
:100CF0008E099F0986169706A806B90608F070CFD8
:100D00008091AF150E94B70585E01092B51510923D
:100D1000D7151092B415DF91CF911F910F91FF90CD
:100D2000EF90DF90CF90BF90AF909F908F900895FD
:100D30009D9191938F5F69CF85EEA5CF8091B0157E
:100D40009091B115A091B215B091B315892B8A2B52
:100D50008B2B09F49ECF0E9438020091B0151091A0
:100D6000B1152091B2153091B3156C197D098E091A
:100D70009F09061717072807390708F08ACFC0CF41
:100D800081E0C3CF80E0C1CF82E0BFCF83E0BDCFA1
:100D90000895E091671580916615E81730F4F0E04A
:100DA000E859FA4E808190E008958FEF9FEF089503
:100DB00090916715809166152FEF3FEF981748F4D3
:100DC000E92FF0E0E859FA4E208130E09F5F9093E0
:100DD0006715C90108958091661590916715891B63
:100DE000990B0895CF92DF92EF92FF920F931F938A
:100DF000CF93DF937C01CB018A012091B41522238C
:100E000089F0EB016B01C40ED51ECC15DD0569F030
:100E10006991D701ED91FC910190F081E02DC7011E
:100E20001995F3CF642F0E947205C801DF91CF910D
:100E30001F910F91FF90EF90DF90CF900895CF9387
:100E4000DF931F92CDB7DEB769832091B4152223BB
:100E5000F9F02091D715203258F021E030E0FC0164
:100E60003383228390E080E00F90DF91CF9108954B
:100E70008091B515E82FF0E0EA54FA4E99819083FD
:100E80008F5F8093B5158093D71581E090E0ECCF0C
:100E900061E0CE0101960E947205F7CF682F89E7C5
:100EA00096E10C941F07CF93DF93D42FC52FFC013D
:100EB000808191E09093B4158093D6151092B5156A
:100EC0001092D715F4E06F9FB00111246A5F7F4F35
:100ED00089E796E10E941F0790E080E00E944E079C
:100EE00090E080E00E944E078D2F9C2F0E944E07BD
:100EF0008C2F90E00E944E0781E0DF91CF910C94FF
:100F0000D805CF93C42FFC01808191E09093B41554
:100F10008093D6151092B5151092D71589E796E1F2
:100F20000E941F076C2F89E796E10E941F0781E04E
:100F3000CF910C94D805CF93DF93EC0110926715F5
:100F4000109266151092B5151092D7150E9499054A
:100F500080E795E090934B1180934A1181E795E0EB
:100F6000909349118093481140E060E0CE01DF91F9
:100F7000CF910C94810790E080E008950895FC01E2
:100F800001900020E9F73197AF01481B590BBC01D4
:100F90008CED95E10C94BE028F929F92AF92BF921E
:100FA0000F931F93CF93DF93CDB7DEB7A1970FB603
:100FB000F894DEBF0FBECDBF19A2423008F44AE05C
:100FC0008E010F5D1F4F842E912CB12CA12CA501F9
:100FD00094010E941B16E62FB901CA01EA30F4F40D
:100FE000E05DD801EE938D01232B242B252B79F77F
:100FF00090E080E0109719F0CD010E94BF07A19604
:101000000FB6F894DEBF0FBECDBFDF91CF911F9119
:101010000F91BF90AF909F908F900895E95CE1CFC2
:10102000CF93DF930E94BF07EC018AE59FE00E9407
:10103000BF078C0F9D1FDF91CF910895CF93DF9352
:10104000BC0190E080E04AE00E94CC07EC018AE518
:101050009FE00E94BF078C0F9D1FDF91CF910895E5
:101060008F929F92AF92BF92CF92DF92EF92FF92B8
:101070000F931F93CF93DF93EC01888191E09093BE
:10108000B4158093D6151092B5151092D71560E05F
:1010900089E796E10E941F0781E00E94D805188128
:1010A0000E9438026B017C018091AE15811164C0F1
:1010B00081E08093AE158093AD159FEF9093AC15B2
:1010C0001092AB151092AA158093891580918915FD
:1010D000110F182B1093891580918815813009F014
:1010E000A3C0109288150E9438026B017C01809188
:1010F00089158093BB008091B0159091B115A09196
:10110000B215B091B315892B8A2B8B2BA1F00E94BD
:1011100038020091B0151091B1152091B21530919F
:10112000B3156C197D098E099F0906171707280743
:10113000390708F442C08091BC0083FDD8CF85EC0C
:101140008093BC000E9438026B017C018091AE1537
:10115000813009F46BC08091AB15811189C08091F9
:10116000AB15AAE8B5E1E8E6F5E190E0981751F192
:101170002D9121939F5FFACF8091B0159091B11579
:10118000A091B215B091B315892B8A2B8B2B09F442
:101190008BCF0E9438028090B0159090B115A0902E
:1011A000B215B090B3156C197D098E099F0986168A
:1011B0009706A806B90608F077CF8091AF150E9470
:1011C000B70580E0109267158093661589E796E170
:1011D0000E94D806182F482F4F76406160E0CE015C
:1011E0000E9481074CE36EEFCE010E948107412FE0
:1011F00060E0CE010E94810765E070E080E090E051
:101200000E945D02412F416A60E0CE01DF91CF91E3
:101210001F910F91FF90EF90DF90CF90BF90AF9014
:101220009F908F900C94810785EE8ACF8091B015A6
:101230009091B115A091B215B091B315892B8A2B5D
:101240008B2B09F483CF0E9438020091B0151091C6
:10125000B1152091B2153091B3156C197D098E0925
:101260009F09061717072807390708F06FCFA5CF82
:1012700081E077CF85ED8093BC008091B01590918F
:10128000B115A091B215B091B3150796A11DB11D6E
:1012900023E0B695A795979587952A95D1F7209144
:1012A000BC0024FD03C01092AE1508954091B01506
:1012B0005091B1156091B2157091B315452B462B25
:1012C000472B69F30097A105B10541F025E32A9565
:1012D000F1F700000197A109B109E1CF8091AF15A5
:1012E0000C94B7050F931F93CF93DF93CDB7DEB761
:1012F000DA950FB6F894DEBF0FBECDBF80915311C3
:10130000813079F08DE59FE00E941008D3950FB6EB
:10131000F894DEBF0FBECDBFDF91CF911F910F912B
:101320000895F89478948E010F5F1F4F80E091E04C
:10133000F8019C01119221503040E1F7AE01465F67
:101340005E4FC85FDE4F68817981C850D140C801C7
:101350000E949918C801D8CFCF92DF92EF92FF92E6
:101360006B017C01E1E4F2E180E090E0DC01628568
:101370007385672BD1F00196A11DB11D7096823344
:101380009105A105B10599F78FE69FE09F938F9393
:101390000E9472090F900F906DEF7FEF8FEF9FEF1C
:1013A000FF90EF90DF90CF90089564E0880F991F31
:1013B0006A95E1F7FC01EF5BFD4EC082D182E282CB
:1013C000F3821482158216821782518740873387F1
:1013D000228760914D1170914E116F5F7F4F709316
:1013E0004E1160934D1190E080E064877587868789
:1013F0009787D6CF0F931F93AB01BC01E1E4F2E1D5
:1014000080E090E0DC01048515852685378504178A
:10141000150726073707A9F424E0880F991F2A9596
:10142000E1F7FC01EF5BFD4E80E1DF011D928A9543
:10143000E9F71386128660E070E0CB011F910F91EF
:1014400008950196A11DB11D709682339105A105E5
:10145000B105C9F68BE89FE09F938F930E947209B4
:101460000F900F906EEF7FEF8FEF9FEFE7CF0F930F
:101470001F93CF93DF93EC016C817D818E819F81DF
:101480000E94FA0909851A85209741F0888199817F
:10149000AA81BB814297A105B10578F08CEA9FE053
:1014A0009F938F930E9472090F900F901A8709875C
:1014B000DF91CF911F910F9108951C821D821E8292
:1014C0001F821886F3CF0F931F93CF93DF93EC0106
:1014D000688179818A819B810E94FA0950E040E00D
:1014E00062E087E896E10E9453070D811E812097F4
:1014F00079F48CEA9FE09F938F930E9472090F907A
:101500000F901E830D83DF91CF911F910F9108954E
:10151000188219821A821B821C82F3CF0F931F93A9
:10152000CF93DF93EC01688179818A819B810E944E
:10153000FA0950E040E063E080ED96E10E94530735
:101540000D811E81209779F48CEA9FE09F938F9301
:101550000E9472090F900F901E830D83DF91CF912F
:101560001F910F910895188219821A821B821C8282
:10157000F3CF0F931F93CF93DF93EC016C817D81A9
:101580008E819F810E94FA0988819981AA81BB81FD
:1015900050E040E060E0892B8A2B8B2B09F061E062
:1015A00081ED96E10E94530709851A85209779F409
:1015B0008CEA9FE09F938F930E9472090F900F9087
:1015C0001A870987DF91CF911F910F9108951C828F
:1015D0001D821E821F821886F3CF1F920F920FB6B4
:1015E0000F9211242F933F938F939F93AF93BF93A9
:1015F0008091D8159091D915A091DA15B091DB158D
:101600003091611523E0230F2D3758F50196A11D68
:10161000B11D209361158093D8159093D915A0938F
:10162000DA15B093DB158091621590916315A09146
:101630006415B09165150196A11DB11D80936215C9
:1016400090936315A0936415B0936515BF91AF9106
:101650009F918F913F912F910F900FBE0F901F90F0
:10166000189526E8230F0296A11DB11DD2CF1F9217
:101670000F920FB60F9211240BB60F922F933F9338
:101680004F935F936F937F938F939F93AF93BF938A
:10169000EF93FF93E0910E02F0910F021995FF91E5
:1016A000EF91BF91AF919F918F917F916F915F91DA
:1016B0004F913F912F910F900BBE0F900FBE0F9047
:1016C0001F9018951F920F920FB60F9211240BB610
:1016D0000F922F933F934F935F936F937F938F93CB
:1016E0009F93AF93BF93EF93FF93E0910C02F09120
:1016F0000D021995FF91EF91BF91AF919F918F913D
:101700007F916F915F914F913F912F910F900BBE01
:101710000F900FBE0F901F9018951F920F920FB64B
:101720000F9211240BB60F922F933F934F935F9319
:101730006F937F938F939F93AF93BF93EF93FF9399
:10174000E0910202F09103021995FF91EF91BF9190
:10175000AF919F918F917F916F915F914F913F9149
:101760002F910F900BBE0F900FBE0F901F901895EA
:101770001F920F920FB60F9211240BB60F922F9358
:101780003F934F935F936F937F938F939F93AF9309
:10179000BF93EF93FF93E0910002F091010219953E
:1017A000FF91EF91BF91AF919F918F917F916F9139
:1017B0005F914F913F912F910F900BBE0F900FBEF5
:1017C0000F901F9018951F920F920FB60F92112431
:1017D0000BB60F922F933F934F935F936F937F932B
:1017E0008F939F93AF93BF93EF93FF93E0910A0280
:1017F000F0910B021995FF91EF91BF91AF919F91DD
:101800008F917F916F915F914F913F912F910F90A9
:101810000BBE0F900FBE0F901F9018951F920F9246
:101820000FB60F9211240BB60F922F933F934F9345
:101830005F936F937F938F939F93AF93BF93EF9338
:10184000FF93E0910802F09109021995FF91EF9141
:10185000BF91AF919F918F917F916F915F914F91C8
:101860003F912F910F900BBE0F900FBE0F901F90C6
:1018700018951F920F920FB60F9211240BB60F926C
:101880002F933F934F935F936F937F938F939F9388
:10189000AF93BF93EF93FF93E0910602F09107029D
:1018A0001995FF91EF91BF91AF919F918F917F918A
:1018B0006F915F914F913F912F910F900BBE0F90C1
:1018C0000FBE0F901F9018951F920F920FB60F9298
:1018D00011240BB60F922F933F934F935F936F9307
:1018E0007F938F939F93AF93BF93EF93FF93E09179
:1018F0000402F09105021995FF91EF91BF91AF910C
:101900009F918F917F916F915F914F913F912F9117
:101910000F900BBE0F900FBE0F901F9018951F9247
:101920000F920FB60F9211240BB60F922F933F9385
:101930004F935F936F937F938F939F93AF93BF93D7
:10194000EF93FF938CED95E10E943203FF91EF91AD
:10195000BF91AF919F918F917F916F915F914F91C7
:101960003F912F910F900BBE0F900FBE0F901F90C5
:1019700018951F920F920FB60F9211240BB60F926B
:101980002F938F939F93EF93FF93E091EC15F0913A
:10199000ED158081E091F215F091F31582FD1DC0E7
:1019A00090818091F5158F5F8F732091F6158217C6
:1019B00041F0E091F515F0E0E452FA4E958F8093F6
:1019C000F515FF91EF919F918F912F910F900BBE85
:1019D0000F900FBE0F901F9018958081F2CF1F922D
:1019E0000F920FB60F9211240BB60F922F933F93C5
:1019F0004F935F936F937F938F939F93AF93BF9317
:101A0000EF93FF938091B900887F803609F44DC031
:101A100008F040C0883209F4A9C028F5803109F4E3
:101A20009DC0C8F4882309F4FBC0883009F496C02F
:101A3000FF91EF91BF91AF919F918F917F916F91A6
:101A40005F914F913F912F910F900BBE0F900FBE62
:101A50000F901F901895883109F488C0803241F7A3
:101A60008093AC1514C0803409F49DC040F48033D9
:101A7000B9F38833E9F68093AC1585ECB0C08035B6
:101A800009F485C0883509F496C0883489F60E9427
:101A90003A09CECF883909F48CC038F5883729F057
:101AA00050F4883611F0803719F683E08093AE1534
:101AB0001092471157C0883809F47BC0803919F05B
:101AC000803809F0B5CF80914711803208F071C09D
:101AD000E091471181E08E0F809347118091BB0008
:101AE000F0E0E95DFE4E80833DC0803B39F0E0F4DC
:101AF000803A09F479C0883A09F09ACF84E080935B
:101B0000AE151092261110922511E0914A11F09114
:101B10004B1119958091251181110FC081E080939F
:101B200025111092051109C0803C09F4A6CF883C0C
:101B300009F4A3CF883B09F07BCFE091261181E027
:101B40008E0F80932611F0E0EB5FFE4E8081809334
:101B5000BB00909126118091251129C08091891593
:101B60008093BB0085EC8093BC0062CF9091AB1555
:101B70008091AA15981758F5E091AB1581E08E0F6A
:101B80008093AB15F0E0E657FA4E8081E9CFE09103
:101B9000AB1581E08E0F8093AB158091BB00F0E018
:101BA000E657FA4E80839091AB158091AA1598174D
:101BB000C8F285E8D8CFE091AB1581E08E0F809315
:101BC000AB158091BB00F0E0E657FA4E8083809120
:101BD000AD1581115CCF81E08093881584EA8093F4
:101BE000BC001092AE1524CF85EC8093BC001092FF
:101BF000AE1580914711803230F4E0914711F0E04A
:101C0000E95DFE4E10826091471170E0E09148114D
:101C1000F091491187E291E119951092471108CF8F
:101C20001092AC1534CF1F920F920FB60F92112461
:101C30000BB60F922F933F934F935F936F937F93C6
:101C40008F939F93AF93BF93EF93FF93E091100215
:101C5000F09111021995FF91EF91BF91AF919F9172
:101C60008F917F916F915F914F913F912F910F9045
:101C70000BBE0F900FBE0F901F9018954F925F9262
:101C80006F927F928F929F92AF92BF92CF92DF928C
:101C9000EF92FF920F931F93CF93DF93CDB7DEB7F1
:101CA0004C0127013801DC015F965C934E935E97EF
:101CB0005D967C936E935C9791963C932E93909750
:101CC000DA961C92FC0112AA13AA14AA15AA80E0A3
:101CD00090E0AFE7B3E486AB97ABA0AFB1AF84E6DB
:101CE00090E0A0E0B0E086A797A7A0ABB1AB118EC3
:101CF000108E20E030E0A901C801B7010E94B9169A
:101D000087FD53C020E030E0A901C601B5010E9463
:101D1000B91687FD4AC020E030E0A9016C897D89B1
:101D20008E899F890E94B91687FD3FC081E090E0AF
:101D3000D4015B969C938E935A97DB968C93DB979A
:101D4000F40140825182628273821496AD92BD92F8
:101D5000CD92DC9217978C899D89AE89BF89808747
:101D60009187A287B38744865586668677862DEC51
:101D70003CEC4CEC5DE3C601B5010E941D18F4017A
:101D8000608B718B828B938B2DEC3CEC4CEC5DE388
:101D90006C897D898E899F890E94BE16D4015496D4
:101DA0006D937D938D939C9357972FB7F894809163
:101DB000D8159091D915A091DA15B091DB152FBFE8
:101DC000F40146A557A560A971A9841B950BA60B24
:101DD000B70B82A393A3A4A3B5A3DF91CF911F91C7
:101DE0000F91FF90EF90DF90CF90BF90AF909F90BA
:101DF0008F907F906F905F904F9008957F928F9219
:101E00009F92AF92BF92CF92DF92EF92FF920F9389
:101E10001F93CF93DF93ECEDF5E11382128288EEEE
:101E200093E0A0E0B0E084839583A683B7832AE3A0
:101E30003FE03183208325EC30E03587248724EC94
:101E400030E03787268720EC30E0318B208B21EC87
:101E500030E0338B228B22EC30E0358B248B26EC68
:101E600030E0378B268B118E128E138E148EE9E79D
:101E7000F6E11382128284839583A683B7838CE470
:101E80009FE09183808381E48093861682E480932F
:101E900085168EE3782E7F929CE4892E8F922CEC0F
:101EA000922E9F92DDECDF93A12CB12C6501E12CE9
:101EB000F12C00E810E428E836E14CE856E160E94E
:101EC00076E184E996E10E943E0EC3E4C093871652
:101ED000C093D0167F928F929F92DF932AE137E1D1
:101EE0004EE157E162E277E186E297E10E943E0E21
:101EF0007F928F929F92DF9322ED36E146ED56E17D
:101F00006AED76E18EED96E10E943E0EC093D11609
:101F10008DB79EB70C960FB6F8949EBF0FBE8DBFBF
:101F2000DF91CF911F910F91FF90EF90DF90CF90B5
:101F3000BF90AF909F908F907F900895CF93DF9345
:101F4000CDB7DEB7C957D1090FB6F894DEBF0FBEC3
:101F5000CDBF789484B5826084BD84B5816084BD32
:101F600085B5826085BD85B5816085BD80916E0037
:101F7000816080936E001092810080918100826068
:101F800080938100809181008160809381008091A5
:101F900080008160809380008091B1008460809394
:101FA000B1008091B00081608093B0008091910079
:101FB0008260809391008091910081608093910074
:101FC000809190008160809390008091A100826058
:101FD0008093A1008091A10081608093A1008091F5
:101FE000A00081608093A000809121018260809395
:101FF0002101809121018160809321018091200144
:1020000081608093200180917A00846080937A00BF
:1020100080917A00826080937A0080917A0081605A
:1020200080937A0080917A00806880937A00109281
:10203000C100E091EC15F091ED1582E08083E09114
:10204000E815F091E9151082E091EA15F091EB1591
:1020500090E190831092F415E091F015F091F11554
:1020600086E08083E091EE15F091EF15808180612C
:102070008083E091EE15F091EF1580818860808378
:10208000E091EE15F091EF15808180688083E091FA
:10209000EE15F091EF1580818F7D808310924F11A6
:1020A00010925011109251111092521110924E1123
:1020B00010924D11E1E4F2E120E233E0DF01A901E9
:1020C0001D9241505040E1F79093810010928000A2
:1020D00081E080934C1120E43FE13093870020930E
:1020E000860091E1909381002FE832E03093110255
:1020F0002093100280936F0010928100109285004F
:102100001092840090914C11906190938100809383
:1021100053112AEC3EE065E571E180E090E0DC01DE
:10212000FB0180839183A283B3831482158216827C
:1021300017821086F901419151919F01FB0152874D
:1021400041870196A11DB11D655F7F4F82319105C9
:10215000A105B10529F786E896E10E949B0785E86D
:1021600096E10E949B0760E084E10E94070260E024
:1021700085E10E94070218E41093B80086E896E112
:102180000E949B0785E896E10E949B0760E084E13E
:102190000E94070260E085E10E9407021093B800E8
:1021A00086E896E10E94300885E896E10E943008B2
:1021B0001FB7F89480915411811127C0E1EFF1E02D
:1021C0008491E7E3F2E09491E82FF0E0EE0FFF1F37
:1021D000E857FE4FA591B491EC91E92321F461E019
:1021E00085E30E947B0161E085E30E9407028CB5D4
:1021F00080618CBD8CB580648CBD61E084E30E94FD
:10220000070261E083E30E940702809154118F5F0F
:10221000809354111FBF61E085E30E947B0185EC30
:102220009FE00E94100861E070E080E090E00E9472
:102230005D028E01075B1F4F84E2D8011D928A95D3
:10224000E9F7AF961FAE1EAEAF97E1961FAE1EAE7A
:10225000E197FE0131966F0182E1DF011D928A95BF
:10226000E9F7DF01E5E5F1E180858D933B9622E119
:10227000EB31F207C9F789818111BBC48A818111D1
:10228000B8C48B818111B5C48C818111B2C48D8198
:102290008111AFC48E818111ACC48F818111A9C419
:1022A00088858111A6C489858111A3C48A8581117D
:1022B000A0C48B8581119DC48C8581119AC48D85A4
:1022C000811197C48E85811194C48F85811191C429
:1022D000888981118EC4898981118BC44A89E696C7
:1022E0004FAFE697411185C482ED9FE00E94100830
:1022F00081EE9FE00E94100880913F129091401261
:102300008A34910528F08BEF9FE00E94100808C3E3
:102310003CE2E32EE89EF001E99EF00D1124EE5E12
:10232000FD4F80819181D80111969C938E9382817B
:10233000938113969C938E93129784819581159621
:102340009C938E9314978681978117969C938E9376
:1023500016978085918519969C938E931897828500
:1023600093851B969C938E931A97848595851D96CD
:102370009C938E931C97868597851F969C938E932E
:102380001E978089918951969C938E93509782894C
:10239000938953969C938E935297848995895596E9
:1023A0009C938E9354978689978957969C938E9386
:1023B0005697808D918D59969C938E935897828DC8
:1023C000938D5B969C938E935A97848D958D5D9695
:1023D0009C938E935C97868D978D5F969C938E933E
:1023E0005E9780A191A191969C938E93909782A1E4
:1023F00093A193969C938E93929786E190E10E948D
:10240000100880913F12909140120E941E08F8011E
:1024100080A191A10E941E08D80192968D919C9155
:102420000E941E0880913F1290914012E89EF00198
:10243000E99EF00D1124EE5EFD4F84A195A1AF96AB
:102440009FAF8EAFAF9786A197A1E1969FAF8EAF5A
:10245000E19720A431A4E2A4F3A489E390E10E94CF
:102460001008F801808191810E941E08E896DFAE75
:10247000CEAEE89748014EEE5EE0E5965FAF4EAF18
:10248000E59782E19FE0E3969FAF8EAFE397560119
:1024900045E5C42E41E1D42E412C512C3201D60108
:1024A00018968C918330A9F58DE490E10E94100874
:1024B00083E090E0A0E0B0E0F50180839183A28307
:1024C000B3839FEF491A590A690A790AABE0CA0E29
:1024D000D11CB4E0AB0EB11CE2E08E0E911CE5966F
:1024E0004EAD5FADE5974E5F5F4FE5965FAF4EAF88
:1024F000E597E3968EAD9FADE3970296E3969FAF87
:102500008EAFE39792E1491651046104710439F6E4
:102510006BC0D4012D913C91E396EEADFFADE397F6
:10252000808191812817390768F0E596AEADBFAD7F
:10253000E5978D919C9182179307D8F42F3FBFEEBA
:102540003B07B9F08AE590E10E9410084AE0C30118
:10255000B2010E94CC078AE59FE00E94BF07F40108
:10256000808191810E941E088EEF9FEFAFEFBFEF39
:10257000A3CFD60119968D919C91821B930B97FF47
:1025800003C0919581959109B9E0B89FB001B99FB9
:10259000700D11246115710511F461E070E0072ED2
:1025A000000C880B990B27E33AE0A6010E94AC09C6
:1025B0009B01AC012D5F3F4F4F4F5F4F22303105E4
:1025C0004105510508F04FC09F938F937F936F9300
:1025D00087E690E19F938F930E9472090F900F906E
:1025E0000F900F900F900F902BE1C22E22E1D22E70
:1025F000DE01A359BF4FE396BFAFAEAFE397812C87
:10260000912C5401F6018085833009F07EC083E06F
:1026100090E0A0E0B0E0E896EEADFFADE8978083F3
:102620009183A283B3835BE0C50ED11CE8968EAD87
:102630009FADE8970496E8969FAF8EAFE897E39634
:10264000AEADBFADE3971296E396BFAFAEAFE397E3
:102650008A9489288A288B2809F4B1C0812C912C6E
:1026600054018394CFCF23E0F601208764837583E0
:1026700086839783F401A081B181F601B287A18797
:1026800020ED37E00E949218F1E04F1651046104EA
:10269000710431F027E0421651046104710459F5C8
:1026A0002EE031E040E050E00E94FC15EA963FAF9A
:1026B0002EAFEA9787E890E10E941008EA96AEAD47
:1026C000BFADEA97AC50BE4F2FEF3FE00E9492188B
:1026D00020E137E240E050E00E94FC15A90189E0CA
:1026E00048165104610471045CF4642D86E896E197
:1026F0000E945307E6CE24EB30E040E050E0D4CF18
:1027000067EF640D85E896E1F3CFE396AEADBFAD1C
:10271000E3972D913C912F30B1E03B0748F02F3FDC
:10272000EFEE3E0729F08EEF9FEFAFEFBFEF73CFD5
:10273000D60119968D919C91821B930B97FF2BC10B
:10274000919581959109B1E0E496BFAFE497EAE0F5
:10275000E89F9001E99F300D1124B901032E000C70
:10276000880B990B232B09F01AC145E950E15F93BF
:102770004F930E9472090F900F906EEF7FEF8FEFD3
:102780009FEF2B013C01A3E04A0E511C611C711C00
:10279000B2E04B1651046104710408F006C19F9326
:1027A0008F937F936F9387E690E19F938F930E941F
:1027B00072090F900F900F900F900F900F908091D3
:1027C0003512833041F483E090E0A0E0B0E08983EB
:1027D0009A83AB83BC83E3E32E16310468F0FFEFEA
:1027E0002F16FFEE3F0641F08EEF9FEFAFEFBFEFEA
:1027F00089839A83AB83BC83809136129091371280
:1028000082199309D12C97FF05C091958195910963
:10281000DD24D3944AE0489F9001499F300D112454
:10282000B901032E000C880B990B232B09F05AC118
:1028300085E990E19F938F930E9472090F900F900A
:102840006EEF7FEF8FEF9FEF4B015C0123E0820E75
:10285000911CA11CB11C42E084169104A104B10496
:1028600008F047C19F938F937F936F9387E690E122
:102870009F938F930E9472090F900F900F900F906B
:102880000F900F9080913C128330D9F152E0E51601
:10289000F104B8F580913D1290913E12E816F906C8
:1028A00041F08E159F050CF077C181E0E6968FAF61
:1028B000E6972EE83AE048E352E168EE73E080E004
:1028C00090E00E94AC094B015C01A3E08A0E911CD0
:1028D000A11CB11CB2E08B169104A104B10408F054
:1028E00060C19F938F937F936F9387E690E19F934F
:1028F0008F930E9472090F900F900F900F900F907E
:102900000F9080913F12909140120E941E0880917A
:102910003F129091401201969093401280933F1283
:1029200088EA90E10E9410088EEB90E10E94100866
:1029300081E4E82E82E1F82EF70180819181A28165
:10294000B3810097A105B105D9F044815581668115
:102950007781481759076A077B0790F08DEC90E163
:102960000E941008D7011A96ED91FC911B971896BA
:102970008D919C911995F701148215821682178208
:10298000F0E1EF0EF11C21E6E21625E1F206A1F6D8
:102990000E94C10351CCE4961FAEE497D8CE29EB38
:1029A0003AE0A6010E94AC09ECCE23E0F6012087B4
:1029B000D6016483758386839783E396EEADFFAD7E
:1029C000E397608171811A967C936E931997072E15
:1029D000000C880B990B0E946817F1E08F16910488
:1029E000A104B10409F441C01092221710922317D8
:1029F000109224171092251760931A1770931B17C3
:102A000080931C1790931D1786E297E10E94F203B2
:102A100060911E1770911F178091201790912117B8
:102A20000E943017DB0177FF04C0AA27BB27A61B33
:102A3000B70B2FEF3FE00E9492182FEF30E040E0FD
:102A400050E00E94FC152901E4962FADE49761E067
:102A5000211101C060E086E00E947B01A20160E0DC
:102A600081ED96E10E945307DECD1092DA161092A6
:102A7000DB161092DC161092DD166093D21670935E
:102A8000D3168093D4169093D5168EED96E10E94BE
:102A9000F2036091D6167091D7168091D816909156
:102AA000D9160E943017DB0177FF04C0AA27BB2785
:102AB000A61BB70B2FEF3FE00E9492182FEF30E0DC
:102AC00040E050E00E94FC152901E4964FADE497E8
:102AD00061E0411101C060E087E00E947B01A2013A
:102AE00061E0BECF23E63AE041E352E10E94AC0947
:102AF000ABCE23E0209335126093311270933212E3
:102B000080933312909334123092371220923612FF
:102B1000109290161092911610929216109293168F
:102B2000B101330C880B990B0E94681760938816CB
:102B30007093891680938A1690938B1684E996E198
:102B40000E94F20360918C1670918D1680918E1602
:102B500090918F160E943017DB0177FF04C0AA27DF
:102B6000BB27A61BB70B2FEF3FE00E9492182FEF59
:102B700030E040E050E00E94FC15490161E0D110D6
:102B800001C060E088E00E947B01A40162E087E868
:102B900096E10E94530776CE92E0E6969FAFE697C5
:102BA00088CE23E020933C12609338127093391240
:102BB00080933A1290933B12F0923E12E0923D12B3
:102BC000E696EFADE69750E040E0EE2361F0E69642
:102BD000FFADE69761E0F13009F060E089E00E9426
:102BE0007B014FEF50E063E080ED96E10E945307D8
:102BF00088CE84EE90E189CB052E97FB1EF40094DD
:102C00000E94131657FD07D00E941B1607FC03D025
:102C10004EF40C94131650954095309521953F4FE6
:102C20004F4F5F4F089590958095709561957F4FB8
:102C30008F4F9F4F0895A1E21A2EAA1BBB1BFD01C7
:102C40000DC0AA1FBB1FEE1FFF1FA217B307E4078B
:102C5000F50720F0A21BB30BE40BF50B661F771FE3
:102C6000881F991F1A9469F76095709580959095C3
:102C70009B01AC01BD01CF010895A29FB001B39F9C
:102C8000C001A39F700D811D1124911DB29F700D75
:102C9000811D1124911D08955058BB27AA270E9419
:102CA00064160C94DE170E94D01738F00E94D717D4
:102CB00020F039F49F3F19F426F40C94CD170EF44C
:102CC000E095E7FB0C94C717E92F0E94EF1758F324
:102CD000BA17620773078407950720F079F4A6F501
:102CE0000C9411180EF4E0950B2EBA2FA02D0B01A9
:102CF000B90190010C01CA01A0011124FF27591B41
:102D000099F0593F50F4503E68F11A16F040A22F46
:102D1000232F342F4427585FF3CF469537952795B7
:102D2000A795F0405395C9F77EF41F16BA0B620BB6
:102D3000730B840BBAF09150A1F0FF0FBB1F661FFD
:102D4000771F881FC2F70EC0BA0F621F731F841F40
:102D500048F4879577956795B795F7959E3F08F066
:102D6000B0CF9395880F08F09927EE0F9795879528
:102D700008950E94A31708F481E008950E94D216D6
:102D80000C94DE170E94D71758F00E94D01740F01D
:102D900029F45F3F29F00C94C71751110C941218B5
:102DA0000C94CD170E94EF1768F39923B1F35523C4
:102DB00091F3951B550BBB27AA276217730784074E
:102DC00038F09F5F5F4F220F331F441FAA1FA9F3E4
:102DD00035D00E2E3AF0E0E832D091505040E695D2
:102DE000001CCAF72BD0FE2F29D0660F771F881F33
:102DF000BB1F261737074807AB07B0E809F0BB0B26
:102E0000802DBF01FF2793585F4F3AF09E3F510539
:102E100078F00C94C7170C9412185F3FE4F3983EB7
:102E2000D4F3869577956795B795F7959F5FC9F722
:102E3000880F911D9695879597F90895E1E0660FA3
:102E4000771F881FBB1F621773078407BA0720F01C
:102E5000621B730B840BBA0BEE1F88F7E095089585
:102E60000E9437176894B1110C94121808950E94AB
:102E7000F71788F09F5798F0B92F9927B751B0F0FE
:102E8000E1F0660F771F881F991F1AF0BA95C9F7EE
:102E900014C0B13091F00E941118B1E008950C9463
:102EA0001118672F782F8827B85F39F0B93FCCF316
:102EB000869577956795B395D9F73EF4909580956B
:102EC000709561957F4F8F4F9F4F0895E89409C08B
:102ED00097FB3EF490958095709561957F4F8F4F4D
:102EE0009F4F9923A9F0F92F96E9BB279395F69563
:102EF000879577956795B795F111F8CFFAF4BB0FE1
:102F000011F460FF1BC06F5F7F4F8F4F9F4F16C044
:102F1000882311F096E911C0772321F09EE8872FCE
:102F2000762F05C0662371F096E8862F70E060E08A
:102F30002AF09A95660F771F881FDAF7880F969503
:102F4000879597F90895990F0008550FAA0BE0E8A7
:102F5000FEEF16161706E807F907C0F0121613065B
:102F6000E407F50798F0621B730B840B950B39F49B
:102F70000A2661F0232B242B252B21F408950A2601
:102F800009F4A140A6958FEF811D811D089597F941
:102F90009F6780E870E060E008959FEF80EC0895FF
:102FA00000240A9416161706180609060895002428
:102FB0000A9412161306140605060895092E0394A2
:102FC000000C11F4882352F0BB0F40F4BF2B11F416
:102FD00060FF04C06F5F7F4F8F4F9F4F089557FD75
:102FE0009058440F551F59F05F3F71F04795880F77
:102FF00097FB991F61F09F3F79F08795089512160E
:1030000013061406551FF2CF4695F1DF08C01616B9
:1030100017061806991FF1CF86957105610508946A
:103020000895E894BB2766277727CB0197F9089581
:103030000E94A31708F48FEF08950E9430180C9493
:10304000DE170E94D01738F00E94D71720F0952382
:1030500011F00C94C7170C94CD1711240C9412186E
:103060000E94EF1770F3959FC1F3950F50E0551F25
:10307000629FF001729FBB27F00DB11D639FAA27CD
:10308000F00DB11DAA1F649F6627B00DA11D661F1C
:10309000829F2227B00DA11D621F739FB00DA11D3D
:1030A000621F839FA00D611D221F749F3327A00DF7
:1030B000611D231F849F600D211D822F762F6A2F93
:1030C00011249F5750409AF0F1F088234AF0EE0FF8
:1030D000FF1FBB1F661F771F881F91505040A9F725
:1030E0009E3F510580F00C94C7170C9412185F3F57
:1030F000E4F3983ED4F3869577956795B795F79561
:10310000E7959F5FC1F7FE2B880F911D96958795D8
:1031100097F90895EE0FFF1F881F8BBF0790F69158
:10312000E02D19940E943D16B7FF0895821B930B62
:1031300008950F931F93CF93DF93CDB7DEB72E97EC
:103140000FB6F894DEBF0FBECDBF8C0186E08C8336
:103150001A8309838FEF9FE79E838D83CE010196AB
:103160000E94C3182F813885020F131FF8011082A7
:103170002E960FB6F894DEBF0FBECDBFDF91CF9174
:103180001F910F9108952F923F924F925F926F92ED
:103190007F928F929F92AF92BF92CF92DF92EF92E7
:1031A000FF920F931F93CF93DF9300D000D000D0F6
:1031B0001F921F92CDB7DEB77C013B018A01FC0153
:1031C00017821682838181FFDDC1CE0101965C01E9
:1031D000F7019381F30193FD859193FF81913F0165
:1031E000882309F453C1853239F493FD859193FF07
:1031F00081913F01853229F4B70190E00E94DB1AEA
:10320000E7CF912C212C312CFFE1F31538F08B32D4
:1032100011F190F4803209F1833229F137FC3CC07E
:1032200020ED280F2A3050F536FE20C08AE0989E07
:10323000200D1124922E06C08D3291F0803371F74B
:10324000689430F8F30193FD859193FF81913F01DC
:103250008111DACF21C0689431F8689432F8F2CF46
:10326000689433F8EFCF689434F8ECCFEAE02E9E00
:10327000200D1124222E689435F8E4CF8E3229F4E3
:1032800036FC04C1689436F8DDCF8C3619F46894A6
:1032900037F8D8CF8836B1F2982F9F7D9554933068
:1032A000E0F08336A1F18337C1F1833509F063C0C3
:1032B0002801F2E04F0E511CF801C080D180692D29
:1032C00070E036FC02C06FEF7FEFC6010E94C51AA6
:1032D0004C01689437F882010AC00C5F1F4FFFE36E
:1032E000F98388248394912C6501E89437F833FEA0
:1032F0002DC0522C8114910471F5552009F468CF2A
:10330000B70180E290E00E94DB1A5A94F6CFF801F0
:10331000808189830E5F1F4FE4CF2801F2E04F0EBA
:10332000511CF801C080D180692D70E036FC02C0CC
:103330006FEF7FEFC6010E94D01A4C018201D5CFFA
:10334000B70180E290E00E94DB1A2A942814190445
:1033500009F0B0F7CECFF60137FC859137FE8191A9
:103360006F01B70190E00E94DB1A51105A94F1E00E
:103370008F1A9108BFCF843619F0893609F077C0CB
:10338000F80137FE6BC060817181828193810C5F8F
:103390001F4FF32DFF763F2E97FF09C09095809524
:1033A000709561957F4F8F4F9F4F689437F82AE053
:1033B00030E0A5010E940B1BC82ECA188C2C432C90
:1033C00036FE0CC0E89440F8C91440F434FE05C041
:1033D00032FC03C0F32DFE7E4F2E892C44FEAAC082
:1033E000FE01EC0DF11D8081803309F09CC0242D7D
:1033F000297E422E842D8870582E43FCAAC040FEA0
:10340000A4C09C2C821418F42C0C922C981844FE06
:10341000A6C0B70180E390E00E94DB1A42FE09C01B
:1034200088E790E041FE02C088E590E0B7010E9485
:10343000DB1AC91408F49FC0CA94D12C9FEFC91A93
:10344000D90ACA0CDB1CF60182916F01B70190E02A
:103450000E94DB1AAC14BD04B1F74FCF60817181BB
:10346000072E000C880B990B0E5F1F4F92CFD32CA9
:10347000E894D4F82AE030E08537E1F1232D297F64
:10348000D22E8F36A9F1F0F4883551F1F7018681FB
:1034900097812B960FB6F894DEBF0FBECDBFDF919C
:1034A000CF911F910F91FF90EF90DF90CF90BF9041
:1034B000AF909F908F907F906F905F904F903F90D4
:1034C0002F900895803749F0883701F7D4FE02C065
:1034D0006894D2F820E130E00DC06894D4F8F6CFBB
:1034E00034FE03C0822F8660D82E20E132E002C075
:1034F00028E030E0F801D7FE0FC060817181828141
:1035000093810C5F1F4FA5010E940B1BC82ECA1888
:103510003D2CE89437F852CF6081718190E080E0D3
:103520000E5F1F4FF0CF42FC02C0839463CF8394A1
:10353000839460CF842D867809F45CCFF6CFB701F1
:1035400080E290E00E94DB1A83948214C0F3512C35
:103550005ECF522C5818821408F459CFF8CF842D1E
:10356000867809F466CF8BE241FE80E247FC8DE26B
:10357000B70190E05CCFB70180E390E00E94DB1AD6
:103580009A9457CF8FEF9FEF84CFFC010590615045
:1035900070400110D8F7809590958E0F9F1F089569
:1035A000FC016150704001900110D8F78095909512
:1035B0008E0F9F1F08950F931F93CF93DF93182FA4
:1035C000092FEB018B8181FD09C01FEF0FEF812FC8
:1035D000902FDF91CF911F910F91089582FF14C01A
:1035E0002E813F818C819D81281739073CF4E88129
:1035F000F981CF0101969983888310838E819F8101
:1036000001969F838E83E3CFE885F985812F1995F5
:10361000892BA1F3DACFFA01AA27283051F1203102
:1036200081F1E8946F936E7F6E5F7F4F8F4F9F4F56
:10363000AF4FB1E03ED0B4E03CD0670F781F891F98
:103640009A1FA11D680F791F8A1F911DA11D6A0F66
:10365000711D811D911DA11D20D009F468943F9119
:103660002AE0269F11243019305D3193DEF6CF0118
:103670000895462F4770405D4193B3E00FD0C9F7DE
:10368000F6CF462F4F70405D4A3318F0495D31FD4B
:103690004052419302D0A9F7EACFB4E0A69597959E
:1036A000879577956795BA95C9F700976105710574
:1036B00008959B01AC010A2E0694579547953795BE
:1036C0002795BA95C9F7620F731F841F951FA01D18
:0636D0000895F894FFCFFD
:1036D600BD02BD02BD02BD02BD02BD02BD02BD02EC
:1036E600BE078C0046008C008C0023005F00910012
:1036F60046002C008C00230032008C0023005A0068
:103706008C002300840000000000000000008C00F4
:1037160046008C008C0023005F00910046002C00C0
:103726008C000A0032008C0023005A008C00230013
:10373600840000000000000000008C0046008C00A1
:103746008C0023005F00910046002C0078000A00E0
:1037560032008C0023005A008C00230084000000F5
:103766000000000000008C0046008C008C00230046
:103776005F00910046002C007800280032008C0083
:1037860023005A008C002300840000000000000083
:1037960000008C0046008C008C0000005F00910049
:1037A60046002C007800280032008C0023005A00C6
:1037B6008C002300840000000000000000008C0044
:1037C60046008C008C0000006E00910046002C0024
:1037D6007800280032008C0023005A008C00230059
:1037E600840000000000000000008C0046008C00F1
:1037F6008C0023006E00910046002C007800280003
:1038060032008C0023005A008C0023008400000044
:103816000000000000008C0046008C008C00230095
:103826006E00910046002C007800280032008C00C3
:1038360023005A008C000A008400000000000000EB
:1038460000008C0046008C008C0023006E00910066
:1038560046002C007800280032008C0023005A0015
:1038660091000A00840000000000000000008C00A7
:1038760046008C008C0023006E00910046002C0050
:103886007800280032008C0023005A0091002B009B
:10389600840000000000000000008C0028008C005E
:1038A6008C0023006E00910046002C007800280052
:1038B60032008C0023005A0091002B008400000087
:1038C600000000000000730028008C008C0023001C
:1038D6006E00910046002C007800280032008C0013
:1038E60023005A0091002B00840000000000000015
:1038F600000073004D008C008C0023006E009100C8
:1039060046002C007800280032008C0023005A0064
:1039160091002B00840000000000000000007300EE
:103926004D008C008C0023006E00910046002C0098
:103936007800280032008C0005005A0091002B0008
:103946008400000000000000000073004D008C00A1
:103956008C0023006E00910046002C0078002800A1
:1039660032008C0005004B0091002B008400000003
:1039760000000000000073004D008C008C00230046
:103986006E00910046002C007800280032008C0062
:1039960023004B0091002B00840000000000000073
:1039A600000073004D008C008C0023006E00910017
:1039B6002D002C007800280032008C0023004B00DC
:1039C60091002B008400000000000000000073003E
:1039D6004D008C008C0023006E009B002D002C00F7
:1039E6007800280032008C0023004B0091002B0049
:1039F6008400000000000000000073004D008C00F1
:103A06008C0023006E009B0052002C0078002800DA
:103A160032008C0023004B0091002B008400000034
:103A260000000000000078004B008C008C00230092
:103A36006900960049002C007D00260032008C00AB
:103A4600230050008C0022008400000000000000CB
:103A560000007D0049008C008C002300640091006A
:103A660048002C008200240032008C002300550000
:103A76008700210084000000000000000000820092
:103A860048008C008C0023005F008C0048002C004E
:103A96008700230032008C0023005A008200210098
:103AA60084000000000000000000870048008C0031
:103AB6008C0023005A00870049002C008C0023004C
:103AC60032008C0023005F007D002200840000008D
:103AD6000000000000008C0049008C008C002300D0
:103AE600550082004B002C009100240032008C000F
:103AF6002300640078002400840000000000000019
:103B06000000910052008C008C00230050007D00C4
:103B16004D002C0096002D0032008C002300690019
:103B260073002600840000000000000000009100E1
:103B360052008C008C00230050007D004D002C00AC
:103B460096000A0032008C002300690073002600EC
:103B560084000000000000000000910052008C006C
:103B66008C00230050007D004D002C0078000A00D8
:103B760032008C00230069007300260084000000D8
:103B8600000000000000910052008C008C00230011
:103B960050007D004D002C007800280032008C007B
:103BA6002300690073002600840000000000000066
:103BB6000000910052008C008C00000050007D0037
:103BC6004D002C007800280032008C00230069008C
:103BD6007300260084000000000000000000910031
:103BE60052008C008C0000006E007D004D002C0001
:103BF6007800280032008C0023006900730026003C
:103C060084000000000000000000910052008C00BB
:103C16008C0023006E007D004D002C0078002800EB
:103C260032008C0023006900730026008400000027
:103C3600000000000000910052008C008C00230060
:103C46006E007D004D002C007800280032008C00AC
:103C56002300690073000A008400000000000000D1
:103C66000000910052008C008C0023006E007D0045
:103C76004D002C007800280032008C0023006900DB
:103C860091000A008400000000000000000091007E
:103C960052008C008C0023006E007D004D002C002D
:103CA6007800280032008C002300690091002B0068
:103CB60084000000000000000000910028008C0035
:103CC6008C0023006E007D004D002C00780028003B
:103CD60032008C002300690091002B008400000054
:103CE600000000000000730028008C008C002300F8
:103CF6006E007D004D002C007800280032008C00FC
:103D06002300690091002B008400000000000000E1
:103D1600000073004D008C008C0023006E007D00B7
:103D26004D002C007800280032008C00230069002A
:103D360091002B00840000000000000000007300CA
:103D46004D008C008C0023006E007D004D002C0081
:103D56007800280032008C000500690091002B00D5
:103D66008400000000000000000073004D008C007D
:103D76008C0023006E007D004D002C00780028008A
:103D860032008C0005004B0091002B0084000000DF
:103D960000000000000073004D008C008C00230022
:103DA6006E007D004D002C007800280032008C004B
:103DB60023004B0091002B0084000000000000004F
:103DC600000073004D008C008C0023006E007D0007
:103DD60028002C007800280032008C0023004B00BD
:103DE60091002B008400000000000000000073001A
:103DF6004D008C008C0023006E009B0028002C00D8
:103E06007800280032008C0023004B0091002B0024
:103E16008400000000000000000073004D008C00CC
:103E26008C0023006E009B0052002C0078002800B6
:103E360032008C0023004B0091002B008400000010
:103E460000000000000078004B008C008C0023006E
:103E56006900960049002C007D00260032008C0087
:103E6600230050008C0022008400000000000000A7
:103E760000007D0049008C008C0023006400910046
:103E860048002C008200240032008C0023005500DC
:103E9600870021008400000000000000000082006E
:103EA60048008C008C0023005F008C0048002C002A
:103EB6008700230032008C0023005A008200210074
:103EC60084000000000000000000870048008C000D
:103ED6008C0023005A00870049002C008C00230028
:103EE60032008C0023005F007D0022008400000069
:103EF6000000000000008C0049008C008C002300AC
:103F0600550082004B002C009100240032008C00EA
:103F160023006400780024008400000000000000F4
:103F26000000910052008C008C00230050007D00A0
:103F36004D002C0096002D0032008C0023006900F5
:103F460073002600840000000000000000009100BD
:103F560052008C008C00230050007D004D002C0088
:103F660096000A0032008C002300690073002600C8
:103F760084000000000000000000910052008C0048
:103F86008C00230050007D004D002C0078000A00B4
:103F960032008C00230069007300260084000000B4
:103FA600000000000000910052008C008C002300ED
:103FB60050007D004D002C007800280032008C0057
:103FC6002300690073002600840000000000000042
:103FD6000000910052008C008C00000050007D0013
:103FE6004D002C007800280032008C002300690068
:103FF600730026008400000000000000000091000D
:1040060052008C008C0000006E007D004D002C00DC
:104016007800280032008C00230069007300260017
:1040260084000000000000000000910052008C0097
:104036008C0023006E007D004D002C0078002800C7
:1040460032008C0023006900730026008400000003
:10405600000000000000910052008C008C0023003C
:104066006E007D004D002C007800280032008C0088
:104076002300690073000A008400000000000000AD
:104086000000910052008C008C0023006E007D0021
:104096004D002C007800280032008C0023006900B7
:1040A60091000A008400000000000000000091005A
:1040B60052008C008C0023006E007D004D002C0009
:1040C6007800280032008C002300690091002B0044
:1040D60084000000000000000000910028008C0011
:1040E6008C0023006E007D004D002C007800280017
:1040F60032008C002300690091002B008400000030
:10410600000000000000730028008C008C002300D3
:104116006E007D004D002C007800280032008C00D7
:104126002300690091002B008400000000000000BD
:10413600000073004D008C008C0023006E007D0093
:104146004D002C007800280032008C002300690006
:1041560091002B00840000000000000000007300A6
:104166004D008C008C0023006E007D004D002C005D
:104176007800280032008C000500690091002B00B1
:104186008400000000000000000073004D008C0059
:104196008C0023006E007D004D002C007800280066
:1041A60032008C0005004B0091002B0084000000BB
:1041B60000000000000073004D008C008C002300FE
:1041C6006E007D004D002C007800280032008C0027
:1041D60023004B0091002B0084000000000000002B
:1041E600000073004D008C008C0023006E007D00E3
:1041F60028002C007800280032008C0023004B0099
:1042060091002B00840000000000000000007300F5
:104216004D008C008C0023006E009B0028002C00B3
:104226007800280032008C0023004B0091002B0000
:104236008400000000000000000073004D008C00A8
:104246008C0023006E009B0052002C007800280092
:1042560032008C0023004B0091002B0084000000EC
:1042660000000000000078004B008C008C0023004A
:104276006900960049002C007D00260032008C0063
:10428600230050008C002200840000000000000083
:1042960000007D0049008C008C0023006400910022
:1042A60048002C008200240032008C0023005500B8
:1042B600870021008400000000000000000082004A
:1042C60048008C008C0023005F008C0048002C0006
:1042D6008700230032008C0023005A008200210050
:1042E60084000000000000000000870048008C00E9
:1042F6008C0023005A00870049002C008C00230004
:1043060032008C0023005F007D0022008400000044
:104316000000000000008C0049008C008C00230087
:10432600550082004B002C009100240032008C00C6
:1043360023006400780024008400000000000000D0
:104346000000910052008C008C00230050007D007C
:104356004D002C0096002D0032008C0023006900D1
:1043660073002600840000000000000000008C009E
:1043760046008C008C0023005F00910046002C0054
:104386008C00230032008C0023005A008C0023008E
:10439600840000000000000000008C0046008C0035
:1043A6008C0023005F00910046002C008C00230047
:1043B60032008C0023005A008C0023008400B400D5
:1043C60052008C00B40025006E00B4005200780044
:1043D600B40032007800B40023006900B4002B005A
:1043E60084007300280041007D00000050007D001D
:1043F60028002C0078000A0032007D0005004B00E2
:1044060073000A003C00000000005403BE02EB02E9
:10441600A1031C03FA020E03000000001F07F206A8
:10442600BB07C806EB06D806C9060D0A0020537955
:104436007374656D206E6F7420696E69742000E375
:1044460082BFE382A4E3839EE383BCE4B88AE9994E
:1044560090E382A8E383A9E383BC00E382BFE382FF
:10446600A4E3839EE383BC4944E3818CE5AD98E5F0
:104476009CA8E38197E381AAE3818400E38193E327
:10448600828CE38282E38186E784A1E79086E382D9
:1044960084E381A70053797374656D205374617248
:1044A60074002D2D2D207363656E65202D2D2D0A2C
:1044B600002D2D2D205363656E6520496E70757431
:1044C600205374617274202D2D2D002D2D2D2073F7
:1044D60063656E6520636F756E746572206F7665B1
:1044E60072202D2D2D002D2D2D2D2D2D2D2D2D2DEB
:1044F6002D616E67206B6F6B6F202D2D2D2D2D2D51
:104506002D2D2D2D2D2D2D2D002D2D2D20616E6760
:104516006C6520636865636B202D2D2D002D2D2D78
:1045260020283829202D2D2D0A002D2D2D20283923
:1045360029202D2D2D0A00E382BFE382A4E3839E6A
:10454600E383BCE996A2E980A3E382A8E383A9E317
:1045560083BC3A202564006B6F6B6F206B697465B2
:104566007275796F00E5BC95E695B0E382A8E383A2
:10457600A9E383BCEFBC98000A2D2D2D205445538A
:1045860054205354415254202D2D2D2D0A000A2D0E
:104596002D2D20454E44202D2D2D2D0A002D2D2D5F
:1045A6002063616C6C6261636B207374617274204A
:1045B6002D2D2D002D2D2D207363656E654275738F
:0A45C600792829202D2D2D0A000070
:00000001FF
