:100000000C9448010C946D0C0C94420C0C94170C3D
:100010000C94EC0B0C94C10B0C94960B0C946B0B86
:100020000C94400B0C9479010C9479010C94790197
:100030000C9479010C9479010C9479010C94790158
:100040000C9479010C9479010C9479010C94790148
:100050000C941C0E0C9479010C9479010C94F60A02
:100060000C9479010C94C20C0C94980C0C947901AA
:100070000C9479010C9479010C9479010C94790118
:100080000C9479010C9479010C9479010C94790108
:100090000C9479010C9479010C9479010C94F80C6E
:1000A0000C9479010C9479010C9479010C947901E8
:1000B0000C9479010C9479010C9479010C947901D8
:1000C0000C9479010C9479010C9479010C947901C8
:1000D0000C9479010C9479010C9479010C947901B8
:1000E0000C9479010C94FA020C94EB020C940E031C
:1000F0000C94D8060C94CE010C94E1010C9471057B
:100100000C948F020C9454030C94EB060C94C906C7
:100110000C94BE020C94C6010C94A1030C94D7015C
:100120000C94DB010C9470050C94B0010C94AB01A1
:100130000C94BE070C94F7010C94BB070C94EF01D0
:100140000C94E5010C94E9010C94CB0A0C94480A38
:100150000C94C8060C94070F0C94FD010C941F0717
:100160000C9401020C94D1010C94C2010C947C0AF1
:100170000C94F3010C94F2060C941C030C94CA0129
:100180000C94A00A0C94BD0200002100240027005A
:100190002A002D0030003300010100000401070196
:1001A0000A0100002200250028002B002E0031004B
:1001B000340002010000050108010B0105050505D9
:1001C000070508080808020202020A0A08080404CF
:1001D00004040101010101010101030303030303FD
:1001E0000303040707070C0C0C0C0C0C0C0C02028C
:1001F000020206060606060606060B0B0B0B0B0B89
:100200000B0B010210202008081020401020408015
:1002100002010201080402010102040810204080CA
:100220008040201008040201800402018040201058
:1002300008040201080402010102040810204080A1
:10024000010204081020408000000A0B02090C0D76
:100250000E08070304010000000000000000000079
:10026000000000000000000000000000000000008E
:10027000000000001211100000000000000000004B
:100280000000000000000000000000000000070F58
:1002900011241FBECFEFD1E2DEBFCDBF00E00CBF07
:1002A00014E0A0E0B2E0EEE6F7E300E00BBF02C02E
:1002B00007900D92A03FB107D9F72BE0A0EFB4E073
:1002C00001C01D92A835B207E1F711E0C8E4D1E002
:1002D00000E006C021970109802FFE010E94D61878
:1002E000C734D10780E00807A9F70E94A70F0C9434
:1002F000B51B0C940000282F30E0F901E85BFD4F9E
:100300009491F901EE5FFD4F449124543E4FF90161
:100310002491222309F435C0992311F1915092318F
:10032000F8F4E92FF0E08827E756FE4F8F4F0C9442
:10033000D618CA01CE01AB01C201C601B001D1017C
:10034000D701DB01E101E501E901EF01F301B001B2
:10035000F701FD010102809180008F77809380007A
:10036000E22FF0E0EE0FFF1FEE55FE4FA591B49186
:100370008FB7F894EC91611148C040954E234C938F
:100380008FBF0895809180008F7DE8CF809180009D
:10039000877FE4CF84B58F7784BDE2CF84B58F7D2E
:1003A000FBCF8091B0008F778093B000D9CF809140
:1003B000B0008F7DF9CF809190008F77809390006F
:1003C000CFCF809190008F7DF9CF80919000877F73
:1003D000F5CF8091A0008F778093A000C1CF80914E
:1003E000A0008F7DF9CF8091A000877FF5CF80910D
:1003F00020018F7780932001B3CF809120018F7DE2
:10040000F9CF80912001877FF5CF4E2BB8CFCF93C6
:10041000DF9390E0FC01EE5FFD4F249184549E4FEA
:10042000FC0184918823D1F090E0880F991FFC0192
:10043000E857FE4FA591B491FC01EE55FE4FC591D2
:10044000D49161110EC09FB7F8948C91E22FE09582
:100450008E238C932881E223E8839FBFDF91CF9185
:1004600008958FB7F894EC91E22BEC938FBFF6CF01
:100470003FB7F8948091580990915909A0915A0971
:10048000B0915B0926B5A89B05C02F3F19F00196D6
:10049000A11DB11D3FBFBA2FA92F982F8827BC01DE
:1004A000CD01620F711D811D911D42E0660F771F06
:1004B000881F991F4A95D1F708958F929F92AF9206
:1004C000BF92CF92DF92EF92FF924B015C010E94AC
:1004D00038026B017C010E9438026C197D098E097B
:1004E0009F09683E734081059105A8F321E0821AB7
:1004F0009108A108B10888EEC80E83E0D81EE11C5F
:10050000F11C81149104A104B10429F7FF90EF902C
:10051000DF90CF90BF90AF909F908F900895809183
:10052000450590914605A0914705B0914805019673
:10053000A11DB11D8093450590934605A0934705E5
:10054000B0934805EBE4F5E080819181A281B3810D
:10055000892B8A2B8B2B59F084819581A681B781B9
:100560000196A11DB11D84839583A683B7837096E0
:1005700088E0EB36F80741F708950895AF92BF92EF
:10058000CF92DF92EF92FF920F931F93CF93DF935F
:100590006C017B018B01040F151FEB015E01AE188E
:1005A000BF08C017D10759F06991D601ED91FC91B0
:1005B0000190F081E02DC6011995892B79F7C501CD
:1005C000DF91CF911F910F91FF90EF90DF90CF902F
:1005D000BF90AF900895FC01538D448D252F30E0DE
:1005E000842F90E0821B930B541710F0CF96089540
:1005F00001970895FC01918D828D981761F0A28D6D
:10060000AE0FBF2FB11D5D968C91928D9F5F9F7332
:10061000928F90E008958FEF9FEF0895FC01918DE8
:10062000828D981731F0828DE80FF11D858D90E055
:1006300008958FEF9FEF0895FC01918D228D892FF2
:1006400090E0805C9F4F821B91098F7399270895DA
:1006500082ED99E00E941C0321E0892B09F420E03F
:10066000822F0895FC01A48DA80FB92FB11DA35AA4
:10067000BF4F2C91848D90E001968F739927848FC2
:10068000A689B7892C93A089B1898C9183708064E5
:100690008C93938D848D981306C00288F389E02D86
:1006A00080818F7D80830895EF92FF920F931F9337
:1006B000CF93DF93EC0181E0888F9B8D8C8D981315
:1006C0001AC0E889F989808185FF15C09FB7F89421
:1006D000EE89FF896083E889F9898081837080646D
:1006E00080839FBF81E090E0DF91CF911F910F91B8
:1006F000FF90EF900895F62E0B8D10E00F5F1F4FC7
:100700000F731127E02E8C8D8E110CC00FB607FCD5
:10071000FACFE889F989808185FFF5CFCE010E9463
:100720003203F1CFEB8DEC0FFD2FF11DE35AFF4F9C
:10073000F0829FB7F8940B8FEA89FB8980818062F1
:10074000CFCFCF93DF93EC01888D8823B9F0AA89AE
:10075000BB89E889F9898C9185FD03C0808186FD7C
:100760000DC00FB607FCF7CF8C9185FFF2CF8081CB
:1007700085FFEDCFCE010E943203E9CFDF91CF910B
:10078000089580E090E0892B29F00E9428038111D0
:100790000E94000080E090E0892B49F080E090E02A
:1007A000892B29F00E94000081110E94000080E046
:1007B00090E0892B49F080E090E0892B29F00E949D
:1007C000000081110E94000080E090E0892B49F038
:1007D00080E090E0892B29F00E94000081110C94A8
:1007E000000008952F923F924F925F926F927F92F6
:1007F0008F929F92AF92BF92CF92DF92EF92FF9231
:100800000F931F93CF93DF93CDB7DEB760970FB6EB
:10081000F894DEBF0FBECDBF9A838983DC01DA96E0
:10082000BC91BD83B1111BC01D828D8160960FB636
:10083000F894DEBF0FBECDBFDF91CF911F910F9116
:10084000FF90EF90DF90CF90BF90AF909F908F90F0
:100850007F906F905F904F903F902F9008958FB74B
:10086000F8942091CE093091CF094091D009509150
:10087000D1092B873C874D875E878FBFE981FA813D
:1008800082A193A1A4A1B5A14B855C856D857E85D0
:10089000481B590B6A0B7B0B86A597A5A0A9B1A98C
:1008A000481759076A077B0708F4BECFF88BEF8714
:1008B000048CF58DE02D2081318142815381298383
:1008C0003A834B835C83AF85B8899096ED91FC9118
:1008D00060817181828193810E9498164B015C0135
:1008E000EF85F88922A533A544A555A569817A81AC
:1008F0008B819C810E9498166B017C01AF85B88921
:1009000050962D913D914D915C915397C501B40145
:100910000E946918EF85F88926A137A140A551A545
:100920000E9499162B013C01AF85B88996964D928D
:100930005D926D927C929997DB96BC91BE83B111CA
:1009400018C0EF85F8892485358546855785C70108
:10095000B6010E9469189B01AC01C301B2010E945B
:100960009816AF85B88996966D937D938D939C93D9
:100970009997EF85F88946A057A060A471A416A99D
:1009800007A930AC21AC212F302F432D522DC301AC
:10099000B2010E94641818160CF07FC0812F902FAE
:1009A000A32DB22DEF85F88986A397A3A0A7B1A7A1
:1009B000BE81BB2309F490C0EF85F8892485358575
:1009C00046855785C501B4010E9469184B015C0139
:1009D000AF85B88954962D913D914D915C91579773
:1009E000C701B6010E9469189B01AC01EF85F88927
:1009F00066A177A180A591A50E949816A5019401F2
:100A00000E9499166B017C019B01AC01612F702F34
:100A1000832D922D0E94051787FD1BC0AF85B889D5
:100A2000D2961C91D297D3960C91D397D4963C90A2
:100A3000D497D5962C90212F302F432D522DB601CF
:100A4000C7010E94051787FD04C01C2D0D2D3E2CEB
:100A50002F2CAF85B8895E96ED91FC91812F902F58
:100A6000A32DB22D80839183A283B38329813A8100
:100A70004B815C81AF85B8899A962D933D934D93B8
:100A80005C939D972B853C854D855E8592962D9335
:100A90003D934D935C939597C8CEAF85B889D29618
:100AA0002D913D914D915C91D5972F833887498742
:100AB0005A87C301B2010E94051787FF79CF2F81A2
:100AC000388549855A85AF85B88996962D933D938B
:100AD0004D935C9399976CCF812C912C540178CFD6
:100AE0000895089520911B05260F3327331F2132C7
:100AF0003105ECF42091A409FC0190E080E0243061
:100B000069F082E00895A0911B052191AC01455048
:100B10005B4FA40FB52FB11D2C930196861798F348
:100B200080911B05680F60931B0580E0089581E0AC
:100B300008951092A40981E08093A30910927E0980
:100B400061E084E10E947B0161E085E10E947B011C
:100B5000E9EBF0E080818E7F808380818D7F8083D0
:100B600088E48093B80085E48093BC000895CF9317
:100B7000DF9391E09093FA048823B9F0C091B80014
:100B8000D091BA008091BC008A7B8093BC0060E069
:100B900084E10E947B0160E085E10E947B010E946C
:100BA0009905D093BA00C093B800DF91CF91089512
:100BB0008F929F92AF92BF92CF92DF92EF92FF926D
:100BC0000F931F93CF93DF93D091CD09D13208F0CB
:100BD000D7C0182FC091CC090E9438026B017C014C
:100BE0008091A40981116BC082E08093A4091093C5
:100BF000A3098FEF8093A2091092A109D093A009B5
:100C0000ACEAB9E0E0E8F9E080E0D81391C01092D6
:100C10007F0980917F09CC0FC82BC0937F098091F9
:100C20007E09813009F088C010927E090E94380246
:100C30006B017C0180917F098093BB008091A609A4
:100C40009091A709A091A809B091A909892B8A2B95
:100C50008B2BA1F00E9438020091A6091091A709E0
:100C60002091A8093091A9096C197D098E099F0965
:100C7000061717072807390708F442C08091BC00FF
:100C800083FDD8CF85EC8093BC000E9438026B01B5
:100C90007C018091A409823009F450C08091A2099E
:100CA0008F3F09F46FC08091A209803209F46CC0B3
:100CB0008091A209803309F469C084E026C0809144
:100CC000A6099091A709A091A809B091A909892B1B
:100CD0008A2B8B2B09F484CF0E9438028090A609BE
:100CE0009090A709A090A809B090A9096C197D0956
:100CF0008E099F0986169706A806B90608F070CFD8
:100D00008091A5090E94B70585E01092AB09109269
:100D1000CD091092AA09DF91CF911F910F91FF90F9
:100D2000EF90DF90CF90BF90AF909F908F900895FD
:100D30009D9191938F5F69CF85EEA5CF8091A60994
:100D40009091A709A091A809B091A909892B8A2B94
:100D50008B2B09F49ECF0E9438020091A6091091B6
:100D6000A7092091A8093091A9096C197D098E095C
:100D70009F09061717072807390708F08ACFC0CF41
:100D800081E0C3CF80E0C1CF82E0BFCF83E0BDCFA1
:100D90000895E0915D0980915C09E81730F4F0E076
:100DA000E25AF64F808190E008958FEF9FEF08950B
:100DB00090915D0980915C092FEF3FEF981748F4FF
:100DC000E92FF0E0E25AF64F208130E09F5F9093E8
:100DD0005D09C901089580915C0990915D09891BA5
:100DE000990B0895CF92DF92EF92FF920F931F938A
:100DF000CF93DF937C01CB018A012091AA092223A2
:100E000089F0EB016B01C40ED51ECC15DD0569F030
:100E10006991D701ED91FC910190F081E02DC7011E
:100E20001995F3CF642F0E947205C801DF91CF910D
:100E30001F910F91FF90EF90DF90CF900895CF9387
:100E4000DF931F92CDB7DEB769832091AA092223D1
:100E5000F9F02091CD09203258F021E030E0FC017A
:100E60003383228390E080E00F90DF91CF9108954B
:100E70008091AB09E82FF0E0E455F64F998190831B
:100E80008F5F8093AB098093CD0981E090E0ECCF38
:100E900061E0CE0101960E947205F7CF682F8FE6C0
:100EA0009AE00C941F07CF93DF93D42FC52FFC013A
:100EB000808191E09093AA098093CC091092AB09AC
:100EC0001092CD09F4E06F9FB00111246A5F7F4F4B
:100ED0008FE69AE00E941F0790E080E00E944E0794
:100EE00090E080E00E944E078D2F9C2F0E944E07BD
:100EF0008C2F90E00E944E0781E0DF91CF910C94FF
:100F0000D805CF93C42FFC01808191E09093AA096A
:100F10008093CC091092AB091092CD098FE69AE02C
:100F20000E941F076C2F8FE69AE00E941F0781E046
:100F3000CF910C94D805CF93DF93EC0110925D090B
:100F400010925C091092AB091092CD090E9499058C
:100F500080E795E0909341058093400581E795E017
:100F600090933F0580933E0540E060E0CE01DF9125
:100F7000CF910C94810790E080E008950895FC01E2
:100F800001900020E9F73197AF01481B590BBC01D4
:100F900082ED99E00C94BE028F929F92AF92BF9225
:100FA0000F931F93CF93DF93CDB7DEB7A1970FB603
:100FB000F894DEBF0FBECDBF19A2423008F44AE05C
:100FC0008E010F5D1F4F842E912CB12CA12CA501F9
:100FD00094010E946716E62FB901CA01EA30F4F4C1
:100FE000E05DD801EE938D01232B242B252B79F77F
:100FF00090E080E0109719F0CD010E94BF07A19604
:101000000FB6F894DEBF0FBECDBFDF91CF911F9119
:101010000F91BF90AF909F908F900895E95CE1CFC2
:10102000CF92DF92EF92FF92CF93DF936B017C011F
:101030006DE282ED99E00E945403EC016627772768
:10104000CB016C197D098E099F094AE00E94CC07EB
:101050008C0F9D1FDF91CF91FF90EF90DF90CF908D
:101060000895CF93DF930E94BF07EC0186EE92E0D4
:101070000E94BF078C0F9D1FDF91CF910895CF93E2
:10108000DF93BC0190E080E04AE00E94CC07EC01D5
:1010900086EE92E00E94BF078C0F9D1FDF91CF91DB
:1010A00008958F929F92AF92BF92CF92DF92EF926C
:1010B000FF920F931F93CF93DF93EC01888191E010
:1010C0009093AA098093CC091092AB091092CD0994
:1010D00060E08FE69AE00E941F0781E00E94D80539
:1010E00018810E9438026B017C018091A409811152
:1010F00064C081E08093A4098093A3099FEF90933B
:10110000A2091092A1091092A00980937F098091F1
:101110007F09110F182B10937F0980917E09813070
:1011200009F0A3C010927E090E9438026B017C0175
:1011300080917F098093BB008091A6099091A709B7
:10114000A091A809B091A909892B8A2B8B2BA1F01A
:101150000E9438020091A6091091A7092091A809C0
:101160003091A9096C197D098E099F090617170787
:101170002807390708F442C08091BC0083FDD8CF0E
:1011800085EC8093BC000E9438026B017C01809149
:10119000A409813009F46BC08091A109811189C033
:1011A0008091A109A0E8B9E0EEE5F9E090E0981798
:1011B00051F12D9121939F5FFACF8091A6099091D3
:1011C000A709A091A809B091A909892B8A2B8B2B7B
:1011D00009F48BCF0E9438028090A6099090A7094D
:1011E000A090A809B090A9096C197D098E099F09E2
:1011F00086169706A806B90608F077CF8091A5094C
:101200000E94B70580E010925D0980935C098FE62B
:101210009AE00E94D806182F482F4F76406160E070
:10122000CE010E9481074CE36EEFCE010E94810740
:10123000412F60E0CE010E94810765E070E080E010
:1012400090E00E945D02412F416A60E0CE01DF9193
:10125000CF911F910F91FF90EF90DF90CF90BF90B3
:10126000AF909F908F900C94810785EE8ACF8091EC
:10127000A6099091A709A091A809B091A909892B65
:101280008A2B8B2B09F483CF0E9438020091A60988
:101290001091A7092091A8093091A9096C197D091D
:1012A0008E099F09061717072807390708F06FCF1F
:1012B000A5CF81E077CF85ED8093BC008091A60912
:1012C0009091A709A091A809B091A9090796A11D1D
:1012D000B11D23E0B695A795979587952A95D1F7E7
:1012E0002091BC0024FD03C01092A40908954091F0
:1012F000A6095091A7096091A8097091A909452BE9
:10130000462B472B69F30097A105B10541F025E372
:101310002A95F1F700000197A109B109E1CF809169
:10132000A5090C94B7050F931F93CF93DF93CDB707
:10133000DEB7DA950FB6F894DEBF0FBECDBF809151
:101340004905813079F089EE92E00E943108D39509
:101350000FB6F894DEBF0FBECDBFDF91CF911F91C6
:101360000F910895F89478948E010F5F1F4F80E0DD
:1013700091E0F8019C01119221503040E1F7AE015B
:10138000465F5E4FC85FDE4F68817981C850D140AB
:10139000C8010E94E518C801D8CFCF92DF92EF9222
:1013A000FF926B017C01EBE4F5E080E090E0DC0172
:1013B00062857385672BD1F00196A11DB11D7096D2
:1013C00082339105A105B10599F78BEF92E09F93C8
:1013D0008F930E9493090F900F906DEF7FEF8FEF27
:1013E0009FEFFF90EF90DF90CF90089564E0880F1B
:1013F000991F6A95E1F7FC01E55BFA4FC082D18243
:10140000E282F38214821582168217825187408706
:101410003387228760914305709144056F5F7F4F4A
:10142000709344056093430590E080E0648775877E
:1014300086879787D6CFCF92DF92EF92FF92EBE429
:10144000F5E020E1C484D584E684F784C616D70687
:10145000E806F90639F4DF01322F1D923A95E9F7D3
:10146000138612867096A8E0EB36FA0759F787E1E3
:1014700093E09F938F930E9493090F900F906EEFCC
:101480007FEF8FEF9FEFFF90EF90DF90CF90089569
:101490000F931F93CF93DF93EC016C817D818E813D
:1014A0009F810E941B0A88819981AA81BB8150E09B
:1014B00040E060E0892B8A2B8B2B09F061E087EC00
:1014C0009AE00E94530709851A85209779F488E3EA
:1014D00093E09F938F930E9493090F900F901A8728
:1014E0000987DF91CF911F910F9108951C821D8272
:1014F0001E821F821886F3CF0F931F93CF93DF9323
:10150000EC016C817D818E819F810E941B0A09857F
:101510001A85209779F488E393E09F938F930E9434
:1015200093090F900F901A870987DF91CF911F9130
:101530000F9108951C821D821E821F821886F3CF90
:101540000F931F93CF93DF93EC01688179818A8198
:101550009B810E941B0A50E040E062E08DE79AE028
:101560000E9453070D811E81209779F488E393E050
:101570009F938F930E9493090F900F901E830D836A
:10158000DF91CF911F910F910895188219821A82CD
:101590001B821C82F3CF0F931F93CF93DF93EC0139
:1015A000688179818A819B810E941B0A50E040E01A
:1015B00063E086EC9AE00E9453070D811E8120971C
:1015C00079F488E393E09F938F930E9493090F909F
:1015D0000F901E830D83DF91CF911F910F9108957E
:1015E000188219821A821B821C82F3CF1F920F92DB
:1015F0000FB60F9211242F933F938F939F93AF9326
:10160000BF938091CE099091CF09A091D009B0915C
:10161000D1093091570923E0230F2D3758F5019652
:10162000A11DB11D209357098093CE099093CF0936
:10163000A093D009B093D10980915809909159098C
:10164000A0915A09B0915B090196A11DB11D80932B
:10165000580990935909A0935A09B0935B09BF9117
:10166000AF919F918F913F912F910F900FBE0F904F
:101670001F90189526E8230F0296A11DB11DD2CF09
:101680001F920F920FB60F9211240BB60F922F9349
:101690003F934F935F936F937F938F939F93AF93FA
:1016A000BF93EF93FF93E0910E02F0910F02199513
:1016B000FF91EF91BF91AF919F918F917F916F912A
:1016C0005F914F913F912F910F900BBE0F900FBEE6
:1016D0000F901F9018951F920F920FB60F92112422
:1016E0000BB60F922F933F934F935F936F937F931C
:1016F0008F939F93AF93BF93EF93FF93E0910C026F
:10170000F0910D021995FF91EF91BF91AF919F91CB
:101710008F917F916F915F914F913F912F910F909A
:101720000BBE0F900FBE0F901F9018951F920F9237
:101730000FB60F9211240BB60F922F933F934F9336
:101740005F936F937F938F939F93AF93BF93EF9329
:10175000FF93E0910202F09103021995FF91EF913E
:10176000BF91AF919F918F917F916F915F914F91B9
:101770003F912F910F900BBE0F900FBE0F901F90B7
:1017800018951F920F920FB60F9211240BB60F925D
:101790002F933F934F935F936F937F938F939F9379
:1017A000AF93BF93EF93FF93E0910002F09101029A
:1017B0001995FF91EF91BF91AF919F918F917F917B
:1017C0006F915F914F913F912F910F900BBE0F90B2
:1017D0000FBE0F901F9018951F920F920FB60F9289
:1017E00011240BB60F922F933F934F935F936F93F8
:1017F0007F938F939F93AF93BF93EF93FF93E0916A
:101800000A02F0910B021995FF91EF91BF91AF91F0
:101810009F918F917F916F915F914F913F912F9108
:101820000F900BBE0F900FBE0F901F9018951F9238
:101830000F920FB60F9211240BB60F922F933F9376
:101840004F935F936F937F938F939F93AF93BF93C8
:10185000EF93FF93E0910802F09109021995FF912F
:10186000EF91BF91AF919F918F917F916F915F9118
:101870004F913F912F910F900BBE0F900FBE0F9085
:101880001F9018951F920F920FB60F9211240BB64E
:101890000F922F933F934F935F936F937F938F9309
:1018A0009F93AF93BF93EF93FF93E0910602F09164
:1018B00007021995FF91EF91BF91AF919F918F9181
:1018C0007F916F915F914F913F912F910F900BBE40
:1018D0000F900FBE0F901F9018951F920F920FB68A
:1018E0000F9211240BB60F922F933F934F935F9358
:1018F0006F937F938F939F93AF93BF93EF93FF93D8
:10190000E0910402F09105021995FF91EF91BF91CA
:10191000AF919F918F917F916F915F914F913F9187
:101920002F910F900BBE0F900FBE0F901F90189528
:101930001F920F920FB60F9211240BB60F922F9396
:101940003F934F935F936F937F938F939F93AF9347
:10195000BF93EF93FF9382ED99E00E943203FF91D2
:10196000EF91BF91AF919F918F917F916F915F9117
:101970004F913F912F910F900BBE0F900FBE0F9084
:101980001F9018951F920F920FB60F9211240BB64D
:101990000F922F938F939F93EF93FF93E091E20920
:1019A000F091E3098081E091E809F091E90982FD75
:1019B0001DC090818091EB098F5F8F732091EC099E
:1019C000821741F0E091EB09F0E0EE52F64F958F6F
:1019D0008093EB09FF91EF919F918F912F910F9041
:1019E0000BBE0F900FBE0F901F9018958081F2CF05
:1019F0001F920F920FB60F9211240BB60F922F93D6
:101A00003F934F935F936F937F938F939F93AF9386
:101A1000BF93EF93FF938091B900887F803609F4DC
:101A20004DC008F040C0883209F4A9C028F58031C3
:101A300009F49DC0C8F4882309F4FBC0883009F478
:101A400096C0FF91EF91BF91AF919F918F917F9140
:101A50006F915F914F913F912F910F900BBE0F901F
:101A60000FBE0F901F901895883109F488C08032FE
:101A700041F78093A20914C0803409F49DC040F45A
:101A80008033B9F38833E9F68093A20985ECB0C0BE
:101A9000803509F485C0883509F496C0883489F604
:101AA0000E945B09CECF883909F48CC038F588379D
:101AB00029F050F4883611F0803719F683E08093CE
:101AC000A40910923D0557C0883809F47BC08039BD
:101AD00019F0803809F0B5CF80913D05803208F0CB
:101AE00071C0E0913D0581E08E0F80933D058091AE
:101AF000BB00F0E0E35EFA4F80833DC0803B39F0ED
:101B0000E0F4803A09F479C0883A09F09ACF84E089
:101B10008093A40910921C0510921B05E0914005CA
:101B2000F0914105199580911B0581110FC081E04D
:101B300080931B051092FB0409C0803C09F4A6CFDA
:101B4000883C09F4A3CF883B09F07BCFE0911C05CA
:101B500081E08E0F80931C05F0E0E550FB4F808103
:101B60008093BB0090911C0580911B0529C080913A
:101B70007F098093BB0085EC8093BC0062CF90917D
:101B8000A1098091A009981758F5E091A10981E079
:101B90008E0F8093A109F0E0E058F64F8081E9CFE5
:101BA000E091A10981E08E0F8093A1098091BB0093
:101BB000F0E0E058F64F80839091A1098091A00950
:101BC0009817C8F285E8D8CFE091A10981E08E0F7F
:101BD0008093A1098091BB00F0E0E058F64F80832C
:101BE0008091A30981115CCF81E080937E0984EA12
:101BF0008093BC001092A40924CF85EC8093BC0094
:101C00001092A40980913D05803230F4E0913D05A9
:101C1000F0E0E35EFA4F108260913D0570E0E091E4
:101C20003E05F0913F058DE195E0199510923D0537
:101C300008CF1092A20934CF1F920F920FB60F92C5
:101C400011240BB60F922F933F934F935F936F9393
:101C50007F938F939F93AF93BF93EF93FF93E09105
:101C60001002F09111021995FF91EF91BF91AF9180
:101C70009F918F917F916F915F914F913F912F91A4
:101C80000F900BBE0F900FBE0F901F9018954F92A4
:101C90005F926F927F928F929F92AF92BF92CF92FC
:101CA000DF92EF92FF920F931F93CF93DF93CDB705
:101CB000DEB74C0127013801DC015F965C934E933F
:101CC0005E975D967C936E935C9791963C932E9372
:101CD0009097DA961C92FC0112AA13AA14AA15AACC
:101CE00080E090E0AFE7B3E486AB97ABA0AFB1AFD5
:101CF00084E690E0A0E0B0E086A797A7A0ABB1ABE8
:101D0000118E108E20E030E0A901C801B7010E94B9
:101D1000051787FD53C020E030E0A901C601B501D9
:101D20000E94051787FD4AC020E030E0A9016C89B8
:101D30007D898E899F890E94051787FD3FC081E0BC
:101D400090E0D4015B969C938E935A97DB968C938C
:101D5000DB97F40140825182628273821496AD92C5
:101D6000BD92CD92DC9217978C899D89AE89BF89EF
:101D700080879187A287B387448655866686778653
:101D80002DEC3CEC4CEC5DE3C601B5010E946918FA
:101D9000F401608B718B828B938B2DEC3CEC4CECC3
:101DA0005DE36C897D898E899F890E940A17D40121
:101DB00054966D937D938D939C9357972FB7F8947A
:101DC0008091CE099091CF09A091D009B091D1090D
:101DD0002FBFF40146A557A560A971A9841B950BD7
:101DE000A60BB70B82A393A3A4A3B5A3DF91CF91B6
:101DF0001F910F91FF90EF90DF90CF90BF90AF9029
:101E00009F908F907F906F905F904F9008957F92FA
:101E10008F929F92AF92BF92CF92DF92EF92FF92FA
:101E20000F931F93CF93DF93E2EDF9E013821282B9
:101E300088EE93E0A0E0B0E084839583A683B78327
:101E400026EC32E03183208325EC30E0358724878F
:101E500024EC30E03787268720EC30E0318B208B74
:101E600021EC30E0338B228B22EC30E0358B248B5D
:101E700026EC30E0378B268B118E128E138E148E4B
:101E8000EFE6FAE01382128284839583A683B783F8
:101E900088ED92E09183808381E480937C0A82E4E0
:101EA00080937B0A8EE3782E7F929CE4892E8F921A
:101EB0002CEC922E9F92DDECDF93A12CB12C6501CE
:101EC000E12CF12C00E810E42EE73AE042E85AE079
:101ED00066E87AE08AE89AE00E94470EC3E4C0937D
:101EE0007D0AC093C60A7F928F929F92DF9320E172
:101EF0003BE044E15BE068E17BE08CE19BE00E9439
:101F0000470E7F928F929F92DF9328EC3AE04CEC41
:101F10005AE060ED7AE084ED9AE00E94470EC093AB
:101F2000C70A8DB79EB70C960FB6F8949EBF0FBE2A
:101F30008DBFDF91CF911F910F91FF90EF90DF90B8
:101F4000CF90BF90AF909F908F907F900895CF9348
:101F5000DF93CDB7DEB7C857D1090FB6F894DEBF0F
:101F60000FBECDBF789484B5826084BD84B5816096
:101F700084BD85B5826085BD85B5816085BD809154
:101F80006E00816080936E001092810080918100CC
:101F900082608093810080918100816080938100C4
:101FA000809180008160809380008091B100846086
:101FB0008093B1008091B00081608093B0008091E7
:101FC0009100826080939100809191008160809364
:101FD0009100809190008160809390008091A10099
:101FE00082608093A1008091A10081608093A10014
:101FF0008091A00081608093A00080912101826087
:102000008093210180912101816080932101809141
:10201000200181608093200180917A008460809308
:102020007A0080917A00826080937A0080917A00B1
:10203000816080937A0080917A00806880937A0032
:102040001092C100E091E209F091E30982E08083FF
:10205000E091DE09F091DF091082E091E009F09152
:10206000E10990E190831092EA09E091E609F0918C
:10207000E70986E08083E091E409F091E509808139
:1020800080618083E091E409F091E50980818860B6
:102090008083E091E409F091E50980818068808384
:1020A000E091E409F091E50980818F7D80831092B1
:1020B000450510924605109247051092480510926A
:1020C000440510924305EBE4F5E020E233E0DF0144
:1020D000A9011D9241505040E1F790938100109268
:1020E000800081E08093420520E43FE13093870047
:1020F0002093860091E1909381002FE832E03093A5
:1021000011022093100280936F00109281001092B0
:102110008500109284009091420590619093810017
:1021200080934905EBE6F8E080E090E0DC018083F5
:102130009183A283B383148215821682178210863C
:10214000128611860196A11DB11D3B968231910523
:10215000A105B10561F78CE79AE00E949B078BE728
:102160009AE00E949B0760E084E10E94070260E021
:1021700085E10E94070280E28093B8008CE79AE034
:102180000E9451088BE79AE00E9451081FB7F8940B
:1021900080914A05811127C0E1EFF1E08491E7E3E6
:1021A000F2E09491E82FF0E0EE0FFF1FE857FE4FAA
:1021B000A591B491EC91E92321F461E085E30E94BB
:1021C0007B0161E085E30E9407028CB580618CBDD4
:1021D0008CB580648CBD61E084E30E94070261E0FD
:1021E00083E30E94070280914A058F5F80934A052E
:1021F0001FBF61E085E30E947B0181E593E00E94BF
:10220000310861E070E080E090E00E945D028E01A4
:10221000075B1F4F84E2D8011D928A95E9F7AF96BC
:102220001FAE1EAEAF97E1961FAE1EAEE197FE0148
:1022300031965F0182E1DF011D928A95E9F76F0116
:102240004F01ABE6EA2EA8E0FA2E8EE593E00E945D
:102250003108F701608570E090E080E04AE00E947C
:10226000CC0786EE92E00E94BF07D70118968C91AA
:10227000F40181934F01FBE0EF0EF11C21E3E21624
:1022800029E0F20611F7750132E1E30EF11C88E650
:1022900093E00E943108D6016D916D0170E090E0ED
:1022A00080E04AE00E94CC0786EE92E00E94BF07E1
:1022B000CE14DF0461F78981811183C08A81811185
:1022C00080C08B8181117DC08C8181117AC08D810C
:1022D000811177C08E81811174C08F81811171C08D
:1022E000888581116EC0898581116BC08A858111B5
:1022F00068C08B85811165C08C85811162C08D8518
:1023000081115FC08E8581115CC08F85811159C09C
:102310008889811156C08989811153C081E090E07C
:102320002A89211102C090E080E0EE24FF24E81AFF
:10233000F90AEBE4CE2EE5E0DE2EF60180819181F4
:10234000A281B3810097A105B105D9F044815581DF
:1023500066817781481759076A077B0790F08DE6F9
:1023600093E00E943108D6011A96ED91FC911B97DB
:1023700018968D919C911995F601148215821682FA
:102380001782F0E1CF0ED11C2BE6C21628E0D20650
:10239000A1F685EB94E0EF2889F484E893E00E94AD
:1023A000310883E993E00E943108809155099091AA
:1023B00056098430910548F08DEA93E00E94310877
:1023C00041C3EE24EA94FE2CB4CF6CE2F62EF89EC4
:1023D000F001F99EF00D1124EE5EFD4F8081918198
:1023E000D80111969C938E938281938113969C932E
:1023F0008E9312978481958115969C938E93149752
:102400008681978117969C938E93169780859185E8
:1024100019969C938E931897828593851B969C930F
:102420008E931A97848595851D969C938E931C9701
:10243000868597851F969C938E931E978089918998
:1024400051969C938E9350978289938953969C932F
:102450008E9352978489958955969C938E93549721
:102460008689978957969C938E935697808D918DE8
:1024700059969C938E935897828D938D5B969C93DF
:102480008E935A97848D958D5D969C938E935C97D1
:10249000868D978D5F969C938E935E9780A191A178
:1024A00091969C938E93909782A193A193969C93DF
:1024B0008E93929788EC93E00E94310880915509A1
:1024C000909156090E943F08F80180A191A10E94B5
:1024D0003F08D80192968D919C910E943F0880916F
:1024E000550990915609F89EF001F99EF00D1124BE
:1024F000EE5EFD4F84A195A1AF969FAF8EAFAF97D3
:1025000086A197A1E1969FAF8EAFE19720A531A557
:10251000E5963FAF2EAFE59742A553A5E9965FAF8D
:102520004EAFE9978BEE93E00E943108D8018D9170
:102530009C910E943F088FEF93E00E9431088CE04D
:1025400094E00E943108E796BFAEAEAEE797E396FF
:102550001FAF0EAFE39715017BE6E72E78E0F72E6D
:10256000412C512C3201F7018085833049F589E1F6
:1025700094E00E94310823E030E040E050E0D101D7
:102580002D933D934D935C9313972FEF421A520A6C
:10259000620A720A3BE0E30EF11C44E0240E311C97
:1025A000E3968EAD9FADE3970296E3969FAF8EAF15
:1025B000E39792E14916510461047104A1F680C0C9
:1025C000E396EEADFFADE397808191818F30F1E02E
:1025D0009F07E8F08F3F9F4ED1F086E294E00E9483
:1025E00031084AE0C301B2010E94CC0786EE92E0B6
:1025F0000E94BF07E396AEADBFADE3978D919C916E
:102600000E943F082EEF3FEF4FEF5FEFB8CF83E31D
:1026100094E00E943108F701C184D284E396AEAD04
:10262000BFADE3978D919C91C81AD90AD7FE03C01C
:10263000D194C194D108C601880F991FC80ED91E24
:1026400080E494E00E943108C114D10419F4CC2430
:10265000C394D12C4601DD0CAA08BB084AE0C50191
:10266000B4010E94CC0786EE92E00E94BF0764E6A8
:1026700070E080E090E00E945D022CE73AE0A70164
:10268000C501B4010E94CD099B01AC012D5F3F4FF4
:102690004F4F5F4F223031054105510508F04AC0C8
:1026A0009F938F937F936F938DE494E09F938F9389
:1026B0000E9493090F900F900F900F900F900F9022
:1026C00021E3E22E29E0F22EDE01A359BF4F1D01C6
:1026D000412C512C320133E0C32EF7018085833029
:1026E00009F08EC023E030E040E050E0E796AEAD68
:1026F000BFADE7972D933D934D935C931397EBE01C
:10270000EE0EF11CE7962EAD3FADE7972C5F3F4FE5
:10271000E7963FAF2EAFE79732E0230E311C4A9485
:1027200045284628472809F4C9C0412C512C3201BC
:102730004394D3CF23E0F7012087D70164837583C7
:1027400086839783E396EEADFFADE3978081918119
:102750001A969C938E9319978DE694E00E94310807
:10276000D70119964D915C91B1E04B16510461046B
:10277000710459F020ED37E0DA010E94DE18E7E03D
:102780004E16510461047104B1F520ED37E0DA0111
:102790000E94DE182EE031E040E050E00E94481632
:1027A00069018AE794E00E94310887E894E00E947A
:1027B0003108D601AC50BE4F2FEF3FE00E94DE182B
:1027C00020E137E240E050E00E944816A901642D64
:1027D0008CE79AE0F9E04F1651046104710424F08B
:1027E00067EF640D8BE79AE00E94530785E994E058
:1027F0000E943108CACE24EB30E040E050E0CECF5A
:10280000F101208131812F30F1E03F0788F02F3F27
:102810004FEE340769F08EEF9FEFAFEFBFEFE79613
:10282000EEADFFADE79780839183A283B38367CF3B
:10283000D70119968D919C91821B930BD12C97FFF8
:1028400005C0919581959109DD24D394BAE0B89F94
:102850009001B99F300D1124B901032E000C880B93
:10286000990B232B09F0F9C0E2EAF4E0FF93EF9310
:102870000E9493090F900F906EEF7FEF8FEF9FEF05
:102880004B015C0133E0830E911CA11CB11C42E0A2
:1028900084169104A104B10408F0E5C09F938F93BE
:1028A0007F936F938DE494E09F938F930E9493099D
:1028B0000F900F900F900F900F900F9080914B09F9
:1028C000833041F483E090E0A0E0B0E089839A8314
:1028D000AB83BC83E5968EAD9FADE5978F30A1E0CD
:1028E0009A0758F08F3F9F4E41F08EEF9FEFAFEF6A
:1028F000BFEF89839A83AB83BC8380914C0990910D
:102900004D09E596EEADFFADE5978E1B9F0BB12C03
:1029100097FF05C0919581959109BB24B3944AE036
:10292000489F9001499F300D1124B901032E000CDE
:10293000880B990B232B09F027C182EA94E09F931F
:102940008F930E9493090F900F906EEF7FEF8FEFA0
:102950009FEF6B017C01F3E0CF0ED11CE11CF11C59
:1029600022E0C216D104E104F10408F014C19F93DF
:102970008F937F936F938DE494E09F938F930E9446
:1029800093090F900F900F900F900F900F908091E0
:102990005209833009F441C0E9968EAD9FADE997A5
:1029A0000297D8F58091530990915409E996AEADFC
:1029B000BFADE997F12CA817B90739F0FF24F394BC
:1029C0008A179B0714F082E0F82E2BEC3AE04EE4D5
:1029D00059E068EE73E080E090E00E94CD094B0181
:1029E0005C01B3E08B0E911CA11CB11CE2E08E16C1
:1029F0009104A104B10408F025C19F938F937F93A4
:102A00006F938DE494E09F938F930E9493090F90AE
:102A10000F900F900F900F900F908091550990910B
:102A200056090E943F0861E070E080E090E00E945B
:102A30005D0280915509909156090196909356092F
:102A4000809355098AEC94E00E94310880EE94E06E
:102A50000E9431080E94C103DDCB28E43AE0A701BF
:102A60000E94CD090DCFD7011896CC92F70164834F
:102A7000758386839783D1016D917C91728761877D
:102A8000072E000C880B990B0E94B417B1E04B166F
:102A9000510461047104F1F11092180B1092190B9A
:102AA00010921A0B10921B0B6093100B7093110B6A
:102AB0008093120B9093130B8CE19BE00E94F20326
:102AC0006091140B7091150B8091160B9091170B60
:102AD0000E947C17DB0177FF04C0AA27BB27A61B37
:102AE000B70B2FEF3FE00E94DE182FEF30E040E001
:102AF00050E00E944816490161E0D11001C060E039
:102B000086E00E947B01A40160E087EC9AE00E94CD
:102B10005307F5CD1092D00A1092D10A1092D20A22
:102B20001092D30A6093C80A7093C90A8093CA0AA4
:102B30009093CB0A84ED9AE00E94F2036091CC0A54
:102B40007091CD0A8091CE0A9091CF0A0E947C1795
:102B5000DB0177FF04C0AA27BB27A61BB70B2FEF0B
:102B60003FE00E94DE182FEF30E040E050E00E948E
:102B70004816490161E0D11001C060E087E00E9481
:102B80007B01A40161E0C1CF20EA3AE047E459E0CB
:102B90000E94CD09DECE23E020934B0960934709C4
:102BA000709348098093490990934A09E5964EAD80
:102BB0005FADE59750934D0940934C091092860AFA
:102BC0001092870A1092880A1092890ABA01550F4A
:102BD000880B990B0E94B41760937E0A70937F0A4A
:102BE0008093800A9093810A8AE89AE00E94F20317
:102BF0006091820A7091830A8091840A9091850A7B
:102C00000E947C17DB0177FF04C0AA27BB27A61B05
:102C1000B70B2FEF3FE00E94DE182FEF30E040E0CF
:102C200050E00E944816690161E0B11001C060E007
:102C300088E00E947B01A60162E08DE79AE00E9495
:102C40005307A5CE23E02093520960934E09709359
:102C50004F098093500990935109E9962EAD3FADED
:102C6000E997309354092093530950E040E0FF2046
:102C700049F031E061E0F31260E089E00E947B01FD
:102C80004FEF50E063E086EC9AE00E945307C5CE18
:102C9000052E97FB1EF400940E945F1657FD07D087
:102CA0000E94671607FC03D04EF40C945F165095F3
:102CB0004095309521953F4F4F4F5F4F0895909528
:102CC0008095709561957F4F8F4F9F4F0895A1E23A
:102CD0001A2EAA1BBB1BFD010DC0AA1FBB1FEE1F96
:102CE000FF1FA217B307E407F50720F0A21BB30BE1
:102CF000E40BF50B661F771F881F991F1A9469F75D
:102D000060957095809590959B01AC01BD01CF01B8
:102D10000895A29FB001B39FC001A39F700D811DB4
:102D20001124911DB29F700D811D1124911D0895D4
:102D30005058BB27AA270E94B0160C942A180E944C
:102D40001C1838F00E94231820F039F49F3F19F422
:102D500026F40C9419180EF4E095E7FB0C94131864
:102D6000E92F0E943B1858F3BA17620773078407CC
:102D7000950720F079F4A6F50C945D180EF4E09513
:102D80000B2EBA2FA02D0B01B90190010C01CA0125
:102D9000A0011124FF27591B99F0593F50F4503ED0
:102DA00068F11A16F040A22F232F342F4427585FC2
:102DB000F3CF469537952795A795F0405395C9F7DA
:102DC0007EF41F16BA0B620B730B840BBAF0915092
:102DD000A1F0FF0FBB1F661F771F881FC2F70EC031
:102DE000BA0F621F731F841F48F487957795679504
:102DF000B795F7959E3F08F0B0CF9395880F08F0F0
:102E00009927EE0F9795879508950E94EF1708F47C
:102E100081E008950E941E170C942A180E9423181E
:102E200058F00E941C1840F029F45F3F29F00C94E0
:102E3000131851110C945E180C9419180E943B1829
:102E400068F39923B1F3552391F3951B550BBB27D9
:102E5000AA2762177307840738F09F5F5F4F220F1E
:102E6000331F441FAA1FA9F335D00E2E3AF0E0E815
:102E700032D091505040E695001CCAF72BD0FE2F5F
:102E800029D0660F771F881FBB1F261737074807F3
:102E9000AB07B0E809F0BB0B802DBF01FF279358AB
:102EA0005F4F3AF09E3F510578F00C9413180C9444
:102EB0005E185F3FE4F3983ED4F386957795679567
:102EC000B795F7959F5FC9F7880F911D96958795E0
:102ED00097F90895E1E0660F771F881FBB1F6217FF
:102EE00073078407BA0720F0621B730B840BBA0BBD
:102EF000EE1F88F7E09508950E9483176894B1113A
:102F00000C945E1808950E94431888F09F5798F01B
:102F1000B92F9927B751B0F0E1F0660F771F881FDE
:102F2000991F1AF0BA95C9F714C0B13091F00E94F8
:102F30005D18B1E008950C945D18672F782F8827ED
:102F4000B85F39F0B93FCCF3869577956795B3951F
:102F5000D9F73EF490958095709561957F4F8F4F8E
:102F60009F4F0895E89409C097FB3EF49095809593
:102F7000709561957F4F8F4F9F4F9923A9F0F92F3F
:102F800096E9BB279395F695879577956795B795BD
:102F9000F111F8CFFAF4BB0F11F460FF1BC06F5FA3
:102FA0007F4F8F4F9F4F16C0882311F096E911C0B5
:102FB000772321F09EE8872F762F05C0662371F0D6
:102FC00096E8862F70E060E02AF09A95660F771FEA
:102FD000881FDAF7880F9695879597F90895990FC6
:102FE0000008550FAA0BE0E8FEEF16161706E807D3
:102FF000F907C0F012161306E407F50798F0621BF4
:10300000730B840B950B39F40A2661F0232B242BC8
:10301000252B21F408950A2609F4A140A6958FEFE7
:10302000811D811D089597F99F6780E870E060E039
:1030300008959FEF80EC089500240A941616170651
:1030400018060906089500240A9412161306140699
:1030500005060895092E0394000C11F4882352F0FC
:10306000BB0F40F4BF2B11F460FF04C06F5F7F4FB4
:103070008F4F9F4F089557FD9058440F551F59F09B
:103080005F3F71F04795880F97FB991F61F09F3F55
:1030900079F087950895121613061406551FF2CF7E
:1030A0004695F1DF08C0161617061806991FF1CFCE
:1030B00086957105610508940895E894BB276627F5
:1030C0007727CB0197F908950E94EF1708F48FEF47
:1030D00008950E947C180C942A180E941C1838F03D
:1030E0000E94231820F0952311F00C9413180C94CF
:1030F000191811240C945E180E943B1870F3959FC8
:10310000C1F3950F50E0551F629FF001729FBB27DE
:10311000F00DB11D639FAA27F00DB11DAA1F649F7A
:103120006627B00DA11D661F829F2227B00DA11D2D
:10313000621F739FB00DA11D621F839FA00D611DB3
:10314000221F749F3327A00D611D231F849F600DD4
:10315000211D822F762F6A2F11249F5750409AF0FD
:10316000F1F088234AF0EE0FFF1FBB1F661F771F89
:10317000881F91505040A9F79E3F510580F00C9454
:1031800013180C945E185F3FE4F3983ED4F38695D1
:1031900077956795B795F795E7959F5FC1F7FE2BF4
:1031A000880F911D9695879597F90895EE0FFF1F4B
:1031B000881F8BBF0790F691E02D19940E94891605
:1031C000B7FF0895821B930B08950F931F93CF931E
:1031D000DF93CDB7DEB72E970FB6F894DEBF0FBEE4
:1031E000CDBF8C0186E08C831A8309838FEF9FE724
:1031F0009E838D83CE0101960E940F192F81388501
:10320000020F131FF80110822E960FB6F894DEBF3E
:103210000FBECDBFDF91CF911F910F9108952F92D7
:103220003F924F925F926F927F928F929F92AF9256
:10323000BF92CF92DF92EF92FF920F931F93CF93A3
:10324000DF9300D000D000D01F921F92CDB7DEB721
:103250007C013B018A01FC0117821682838181FF78
:10326000DDC1CE0101965C01F7019381F30193FD6D
:10327000859193FF81913F01882309F453C18532E1
:1032800039F493FD859193FF81913F01853229F4B3
:10329000B70190E00E94271BE7CF912C212C312C05
:1032A000FFE1F31538F08B3211F190F4803209F11F
:1032B000833229F137FC3CC020ED280F2A3050F52D
:1032C00036FE20C08AE0989E200D1124922E06C062
:1032D0008D3291F0803371F7689430F8F30193FDEB
:1032E000859193FF81913F018111DACF21C06894CC
:1032F00031F8689432F8F2CF689433F8EFCF6894DD
:1033000034F8ECCFEAE02E9E200D1124222E689492
:1033100035F8E4CF8E3229F436FC04C1689436F8CF
:10332000DDCF8C3619F4689437F8D8CF8836B1F2EF
:10333000982F9F7D95549330E0F08336A1F1833729
:10334000C1F1833509F063C02801F2E04F0E511C32
:10335000F801C080D180692D70E036FC02C06FEFAB
:103360007FEFC6010E94111B4C01689437F882015F
:103370000AC00C5F1F4FFFE3F98388248394912CCC
:103380006501E89437F833FE2DC0522C8114910466
:1033900071F5552009F468CFB70180E290E00E94F2
:1033A000271B5A94F6CFF801808189830E5F1F4F47
:1033B000E4CF2801F2E04F0E511CF801C080D1800B
:1033C000692D70E036FC02C06FEF7FEFC6010E94EE
:1033D0001C1B4C018201D5CFB70180E290E00E9416
:1033E000271B2A942814190409F0B0F7CECFF60150
:1033F00037FC859137FE81916F01B70190E00E9403
:10340000271B51105A94F1E08F1A9108BFCF8436D0
:1034100019F0893609F077C0F80137FE6BC060817A
:103420007181828193810C5F1F4FF32DFF763F2EB8
:1034300097FF09C090958095709561957F4F8F4F4C
:103440009F4F689437F82AE030E0A5010E94571B8F
:10345000C82ECA188C2C432C36FE0CC0E89440F8B9
:10346000C91440F434FE05C032FC03C0F32DFE7EC7
:103470004F2E892C44FEAAC0FE01EC0DF11D808167
:10348000803309F09CC0242D297E422E842D887023
:10349000582E43FCAAC040FEA4C09C2C821418F4F1
:1034A0002C0C922C981844FEA6C0B70180E390E043
:1034B0000E94271B42FE09C088E790E041FE02C03F
:1034C00088E590E0B7010E94271BC91408F49FC04B
:1034D000CA94D12C9FEFC91AD90ACA0CDB1CF60179
:1034E00082916F01B70190E00E94271BAC14BD04CC
:1034F000B1F74FCF60817181072E000C880B990BBB
:103500000E5F1F4F92CFD32CE894D4F82AE030E01E
:103510008537E1F1232D297FD22E8F36A9F1F0F4E2
:10352000883551F1F701868197812B960FB6F89473
:10353000DEBF0FBECDBFDF91CF911F910F91FF90E6
:10354000EF90DF90CF90BF90AF909F908F907F9043
:103550006F905F904F903F902F900895803749F083
:10356000883701F7D4FE02C06894D2F820E130E039
:103570000DC06894D4F8F6CF34FE03C0822F866065
:10358000D82E20E132E002C028E030E0F801D7FE7A
:103590000FC060817181828193810C5F1F4FA501F3
:1035A0000E94571BC82ECA183D2CE89437F852CFFA
:1035B0006081718190E080E00E5F1F4FF0CF42FC90
:1035C00002C0839463CF8394839460CF842D8678E4
:1035D00009F45CCFF6CFB70180E290E00E94271B90
:1035E00083948214C0F3512C5ECF522C581882144D
:1035F00008F459CFF8CF842D867809F466CF8BE292
:1036000041FE80E247FC8DE2B70190E05CCFB7015C
:1036100080E390E00E94271B9A9457CF8FEF9FEF93
:1036200084CFFC010590615070400110D8F780955F
:1036300090958E0F9F1F0895FC016150704001907E
:103640000110D8F7809590958E0F9F1F08950F93C6
:103650001F93CF93DF93182F092FEB018B8181FDEF
:1036600009C01FEF0FEF812F902FDF91CF911F9196
:103670000F91089582FF14C02E813F818C819D811E
:10368000281739073CF4E881F981CF010196998325
:10369000888310838E819F8101969F838E83E3CFE1
:1036A000E885F985812F1995892BA1F3DACFFA01E5
:1036B000AA27283051F1203181F1E8946F936E7F71
:1036C0006E5F7F4F8F4F9F4FAF4FB1E03ED0B4E062
:1036D0003CD0670F781F891F9A1FA11D680F791FA3
:1036E0008A1F911DA11D6A0F711D811D911DA11DB4
:1036F00020D009F468943F912AE0269F11243019C4
:10370000305D3193DEF6CF010895462F4770405D5E
:103710004193B3E00FD0C9F7F6CF462F4F70405D0D
:103720004A3318F0495D31FD4052419302D0A9F768
:10373000EACFB4E0A6959795879577956795BA9562
:10374000C9F700976105710508959B01AC010A2E28
:1037500006945795479537952795BA95C9F7620FFF
:0E376000731F841F951FA01D0895F894FFCFBE
:10376E00BD02BD02BD02BD02BD02BD02BD02BD0253
:10377E00BE078C00020003000400050006000700CF
:10378E00080009008C00230032000D000E000F000F
:10379E00A000110012001300140015001600730093
:1037AE0002000300040005000600070008000900DF
:1037BE008C0023005A000D000E000F00A000110017
:1037CE00120013001400150016008C0002000300F6
:1037DE000400050006000700080009008C00230005
:1037EE0032000D000E000F00A00011001200130099
:1037FE0014001500160073000200030004000500FB
:10380E0006000700080009008C0023005A000D0076
:10381E000E000F00A000110012001300140015007E
:10382E001600000000005403BE02EB02A1031C03AD
:10383E00FA020E03000000001F07F206BB07C806BF
:10384E00EB06D806C9060D0A002053797374656D10
:10385E00206E6F7420696E69742000E382BFE3826C
:10386E00A4E3839EE383BCE4B88AE99990E382A83B
:10387E00E383A9E383BC00E382BFE382A4E3839ED8
:10388E00E383BC4944E3818CE5AD98E59CA8E381D4
:10389E0097E381AAE3818400E38193E3828CE38240
:1038AE0082E38186E784A1E79086E38284E381A7A1
:1038BE000053797374656D20537461727400627570
:1038CE00737920626173650062757379002D2D2DF9
:1038DE002063616C6C6261636B207374617274201F
:1038EE002D2D2D002D2D2D207363656E65202D2D14
:1038FE002D0A002D2D2D205363656E6520496E70A7
:10390E007574205374617274202D2D2D002D2D2D64
:10391E00207363656E6520636F756E746572206FBC
:10392E00766572202D2D2D002D2D2D2D2D2D2D2D2D
:10393E002D2D2D616E67206B6F6B6F202D2D2D2D14
:10394E002D2D2D2D2D2D2D2D2D2D002D2D2D20619F
:10395E006E676C6520636865636B202D2D2D002DC1
:10396E002D2D20283129202D2D2D0A002D2D2D20F5
:10397E00283229202D2D2D0A002D2D2D20283829D5
:10398E00202D2D2D0A002D2D2D20283929202D2DCD
:10399E002D0A002D2D2D20283329202D2D2D0A0006
:1039AE002D2D2D20283429202D2D2D0A00E382BF08
:1039BE00E382A4E3839EE383BCE996A2E980A3E3BA
:1039CE0082A8E383A9E383BC3A202564002D2D2D24
:1039DE0020283529202D2D2D0A002D2D2D2028367D
:1039EE0029202D2D2D0A006B6F6B6F206B6974656E
:1039FE007275796F002D2D2D20283729202D2D2D14
:103A0E000A00E5BC95E695B0E382A8E383A9E383BB
:103A1E00BCEFBC98002D2D2D207363656E6542752D
:103A2E0073792829202D2D2D0A000A2D2D2D205495
:103A3E00455354205354415254202D2D2D2D0A0000
:103A4E000A2D2D2D20454E44202D2D2D2D0A000002
:00000001FF
