:100000000C9448010C94640C0C94390C0C940E0C58
:100010000C94E30B0C94B80B0C948D0B0C94620BAA
:100020000C94370B0C9479010C9479010C947901A0
:100030000C9479010C9479010C9479010C94790158
:100040000C9479010C9479010C9479010C94790148
:100050000C94130E0C9479010C9479010C94ED0A14
:100060000C9479010C94B90C0C948F0C0C947901BC
:100070000C9479010C9479010C9479010C94790118
:100080000C9479010C9479010C9479010C94790108
:100090000C9479010C9479010C9479010C94EF0C77
:1000A0000C9479010C9479010C9479010C947901E8
:1000B0000C9479010C9479010C9479010C947901D8
:1000C0000C9479010C9479010C9479010C947901C8
:1000D0000C9479010C9479010C9479010C947901B8
:1000E0000C9479010C94EB060C94FA020C94E10147
:1000F0000C941F070C94FE0E0C94DB010C941C0353
:100100000C94F2060C94EB020C94C9060C94C201F8
:100110000C94BD020C94FD010C9470050C94C8065F
:100120000C94F7010C94CA010C94EF010C94F301A8
:100130000C94BE020C94D7010C94370A0C94AB01BA
:100140000C948F020C94C6010C9454030C94BB07BE
:100150000C94D8060C9401020C94D1010C948E0AD4
:100160000C94CE010C94630A0C94B90A0C94B0015F
:100170000C94E5010C94BE070C9471050C94E901F4
:100180000C940E030C94A10300002100240027000E
:100190002A002D0030003300010100000401070196
:1001A0000A0100002200250028002B002E0031004B
:1001B000340002010000050108010B0105050505D9
:1001C000070508080808020202020A0A08080404CF
:1001D00004040101010101010101030303030303FD
:1001E0000303040707070C0C0C0C0C0C0C0C02028C
:1001F000020206060606060606060B0B0B0B0B0B89
:100200000B0B010210202008081020401020408015
:1002100002010201080402010102040810204080CA
:100220008040201008040201800402018040201058
:1002300008040201080402010102040810204080A1
:10024000010204081020408000000A0B02090C0D76
:100250000E08070304010000000000000000000079
:10026000000000000000000000000000000000008E
:10027000000000001211100000000000000000004B
:100280000000000000000000000000000000FE0E62
:1002900011241FBECFEFD1E2DEBFCDBF00E00CBF07
:1002A00014E0A0E0B2E0E4EDF6E300E00BBF02C032
:1002B00007900D92AE3CB107D9F72BE0AEECB4E05D
:1002C00001C01D92A633B207E1F711E0C8E4D1E006
:1002D00000E006C021970109802FFE010E948918C5
:1002E000C734D10780E00807A9F70E949E0F0C943D
:1002F000681B0C940000282F30E0F901E85BFD4FEB
:100300009491F901EE5FFD4F449124543E4FF90161
:100310002491222309F435C0992311F1915092318F
:10032000F8F4E92FF0E08827E756FE4F8F4F0C9442
:100330008918CA01CE01AB01C201C601B001D101C9
:10034000D701DB01E101E501E901EF01F301B001B2
:10035000F701FD010102809180008F77809380007A
:10036000E22FF0E0EE0FFF1FEE55FE4FA591B49186
:100370008FB7F894EC91611148C040954E234C938F
:100380008FBF0895809180008F7DE8CF809180009D
:10039000877FE4CF84B58F7784BDE2CF84B58F7D2E
:1003A000FBCF8091B0008F778093B000D9CF809140
:1003B000B0008F7DF9CF809190008F77809390006F
:1003C000CFCF809190008F7DF9CF80919000877F73
:1003D000F5CF8091A0008F778093A000C1CF80914E
:1003E000A0008F7DF9CF8091A000877FF5CF80910D
:1003F00020018F7780932001B3CF809120018F7DE2
:10040000F9CF80912001877FF5CF4E2BB8CFCF93C6
:10041000DF9390E0FC01EE5FFD4F249184549E4FEA
:10042000FC0184918823D1F090E0880F991FFC0192
:10043000E857FE4FA591B491FC01EE55FE4FC591D2
:10044000D49161110EC09FB7F8948C91E22FE09582
:100450008E238C932881E223E8839FBFDF91CF9185
:1004600008958FB7F894EC91E22BEC938FBFF6CF01
:100470003FB7F8948091360990913709A0913809D7
:10048000B091390926B5A89B05C02F3F19F00196F8
:10049000A11DB11D3FBFBA2FA92F982F8827BC01DE
:1004A000CD01620F711D811D911D42E0660F771F06
:1004B000881F991F4A95D1F708958F929F92AF9206
:1004C000BF92CF92DF92EF92FF924B015C010E94AC
:1004D00038026B017C010E9438026C197D098E097B
:1004E0009F09683E734081059105A8F321E0821AB7
:1004F0009108A108B10888EEC80E83E0D81EE11C5F
:10050000F11C81149104A104B10429F7FF90EF902C
:10051000DF90CF90BF90AF909F908F900895809183
:10052000230590912405A0912505B09126050196FB
:10053000A11DB11D8093230590932405A09325054B
:10054000B0932605E5E1F6E080819181A281B38137
:10055000892B8A2B8B2B59F084819581A681B781B9
:100560000196A11DB11D84839583A683B7837096E0
:1005700089E0E533F80741F708950895AF92BF92F7
:10058000CF92DF92EF92FF920F931F93CF93DF935F
:100590006C017B018B01040F151FEB015E01AE188E
:1005A000BF08C017D10759F06991D601ED91FC91B0
:1005B0000190F081E02DC6011995892B79F7C501CD
:1005C000DF91CF911F910F91FF90EF90DF90CF902F
:1005D000BF90AF900895FC01538D448D252F30E0DE
:1005E000842F90E0821B930B541710F0CF96089540
:1005F00001970895FC01918D828D981761F0A28D6D
:10060000AE0FBF2FB11D5D968C91928D9F5F9F7332
:10061000928F90E008958FEF9FEF0895FC01918DE8
:10062000828D981731F0828DE80FF11D858D90E055
:1006300008958FEF9FEF0895FC01918D228D892FF2
:1006400090E0805C9F4F821B91098F7399270895DA
:1006500080EB99E00E941C0321E0892B09F420E043
:10066000822F0895FC01A48DA80FB92FB11DA35AA4
:10067000BF4F2C91848D90E001968F739927848FC2
:10068000A689B7892C93A089B1898C9183708064E5
:100690008C93938D848D981306C00288F389E02D86
:1006A00080818F7D80830895EF92FF920F931F9337
:1006B000CF93DF93EC0181E0888F9B8D8C8D981315
:1006C0001AC0E889F989808185FF15C09FB7F89421
:1006D000EE89FF896083E889F9898081837080646D
:1006E00080839FBF81E090E0DF91CF911F910F91B8
:1006F000FF90EF900895F62E0B8D10E00F5F1F4FC7
:100700000F731127E02E8C8D8E110CC00FB607FCD5
:10071000FACFE889F989808185FFF5CFCE010E9463
:100720003203F1CFEB8DEC0FFD2FF11DE35AFF4F9C
:10073000F0829FB7F8940B8FEA89FB8980818062F1
:10074000CFCFCF93DF93EC01888D8823B9F0AA89AE
:10075000BB89E889F9898C9185FD03C0808186FD7C
:100760000DC00FB607FCF7CF8C9185FFF2CF8081CB
:1007700085FFEDCFCE010E943203E9CFDF91CF910B
:10078000089580E090E0892B29F00E9428038111D0
:100790000E94000080E090E0892B49F080E090E02A
:1007A000892B29F00E94000081110E94000080E046
:1007B00090E0892B49F080E090E0892B29F00E949D
:1007C000000081110E94000080E090E0892B49F038
:1007D00080E090E0892B29F00E94000081110C94A8
:1007E000000008952F923F924F925F926F927F92F6
:1007F0008F929F92AF92BF92CF92DF92EF92FF9231
:100800000F931F93CF93DF93CDB7DEB760970FB6EB
:10081000F894DEBF0FBECDBF9A838983DC01DA96E0
:10082000BC91BD83B1111BC01D828D8160960FB636
:10083000F894DEBF0FBECDBFDF91CF911F910F9116
:10084000FF90EF90DF90CF90BF90AF909F908F90F0
:100850007F906F905F904F903F902F9008958FB74B
:10086000F8942091AC093091AD094091AE095091B6
:10087000AF092B873C874D875E878FBFE981FA815F
:1008800082A193A1A4A1B5A14B855C856D857E85D0
:10089000481B590B6A0B7B0B86A597A5A0A9B1A98C
:1008A000481759076A077B0708F4BECFF88BEF8714
:1008B000048CF58DE02D2081318142815381298383
:1008C0003A834B835C83AF85B8899096ED91FC9118
:1008D00060817181828193810E944B164B015C0182
:1008E000EF85F88922A533A544A555A569817A81AC
:1008F0008B819C810E944B166B017C01AF85B8896E
:1009000050962D913D914D915C915397C501B40145
:100910000E941C18EF85F88926A137A140A551A592
:100920000E944C162B013C01AF85B88996964D92DA
:100930005D926D927C929997DB96BC91BE83B111CA
:1009400018C0EF85F8892485358546855785C70108
:10095000B6010E941C189B01AC01C301B2010E94A8
:100960004B16AF85B88996966D937D938D939C9326
:100970009997EF85F88946A057A060A471A416A99D
:1009800007A930AC21AC212F302F432D522DC301AC
:10099000B2010E94171818160CF07FC0812F902FFB
:1009A000A32DB22DEF85F88986A397A3A0A7B1A7A1
:1009B000BE81BB2309F490C0EF85F8892485358575
:1009C00046855785C501B4010E941C184B015C0186
:1009D000AF85B88954962D913D914D915C91579773
:1009E000C701B6010E941C189B01AC01EF85F88974
:1009F00066A177A180A591A50E944B16A50194013F
:100A00000E944C166B017C019B01AC01612F702F81
:100A1000832D922D0E94B81687FD1BC0AF85B88923
:100A2000D2961C91D297D3960C91D397D4963C90A2
:100A3000D497D5962C90212F302F432D522DB601CF
:100A4000C7010E94B81687FD04C01C2D0D2D3E2C39
:100A50002F2CAF85B8895E96ED91FC91812F902F58
:100A6000A32DB22D80839183A283B38329813A8100
:100A70004B815C81AF85B8899A962D933D934D93B8
:100A80005C939D972B853C854D855E8592962D9335
:100A90003D934D935C939597C8CEAF85B889D29618
:100AA0002D913D914D915C91D5972F833887498742
:100AB0005A87C301B2010E94B81687FF79CF2F81F0
:100AC000388549855A85AF85B88996962D933D938B
:100AD0004D935C9399976CCF812C912C540178CFD6
:100AE000089508952091F904260F3327331F2132EA
:100AF0003105ECF420918209FC0190E080E0243083
:100B000069F082E00895A091F9042191AC01475267
:100B10005B4FA40FB52FB11D2C930196861798F348
:100B20008091F904680F6093F90480E0089581E0F2
:100B300008951092820981E08093810910925C09E6
:100B400061E084E10E947B0161E085E10E947B011C
:100B5000E9EBF0E080818E7F808380818D7F8083D0
:100B600088E48093B80085E48093BC000895CF9317
:100B7000DF9391E09093D8048823B9F0C091B80036
:100B8000D091BA008091BC008A7B8093BC0060E069
:100B900084E10E947B0160E085E10E947B010E946C
:100BA0009905D093BA00C093B800DF91CF91089512
:100BB0008F929F92AF92BF92CF92DF92EF92FF926D
:100BC0000F931F93CF93DF93D091AB09D13208F0ED
:100BD000D7C0182FC091AA090E9438026B017C016E
:100BE0008091820981116BC082E080938209109309
:100BF00081098FEF8093800910927F09D0937E093D
:100C0000AAE8B9E0EEE5F9E080E0D81391C01092CF
:100C10005D0980915D09CC0FC82BC0935D0980915F
:100C20005C09813009F088C010925C090E9438028A
:100C30006B017C0180915D098093BB0080918409E8
:100C400090918509A0918609B0918709892B8A2BFB
:100C50008B2BA1F00E943802009184091091850924
:100C600020918609309187096C197D098E099F09A9
:100C7000061717072807390708F442C08091BC00FF
:100C800083FDD8CF85EC8093BC000E9438026B01B5
:100C90007C0180918209823009F450C080918009E2
:100CA0008F3F09F46FC080918009803209F46CC0D5
:100CB00080918009803309F469C084E026C0809166
:100CC000840990918509A0918609B0918709892BA3
:100CD0008A2B8B2B09F484CF0E94380280908409E0
:100CE00090908509A0908609B09087096C197D09BC
:100CF0008E099F0986169706A806B90608F070CFD8
:100D0000809183090E94B70585E0109289091092AD
:100D1000AB0910928809DF91CF911F910F91FF903D
:100D2000EF90DF90CF90BF90AF909F908F900895FD
:100D30009D9191938F5F69CF85EEA5CF80918409B6
:100D400090918509A0918609B0918709892B8A2BFA
:100D50008B2B09F49ECF0E943802009184091091D8
:100D6000850920918609309187096C197D098E09C2
:100D70009F09061717072807390708F08ACFC0CF41
:100D800081E0C3CF80E0C1CF82E0BFCF83E0BDCFA1
:100D90000895E0913B0980913A09E81730F4F0E0BA
:100DA000E45CF64F808190E008958FEF9FEF089507
:100DB00090913B0980913A092FEF3FEF981748F443
:100DC000E92FF0E0E45CF64F208130E09F5F9093E4
:100DD0003B09C901089580913A0990913B09891B0B
:100DE000990B0895CF92DF92EF92FF920F931F938A
:100DF000CF93DF937C01CB018A01209188092223C4
:100E000089F0EB016B01C40ED51ECC15DD0569F030
:100E10006991D701ED91FC910190F081E02DC7011E
:100E20001995F3CF642F0E947205C801DF91CF910D
:100E30001F910F91FF90EF90DF90CF900895CF9387
:100E4000DF931F92CDB7DEB76983209188092223F3
:100E5000F9F02091AB09203258F021E030E0FC019C
:100E60003383228390E080E00F90DF91CF9108954B
:100E700080918909E82FF0E0E657F64F9981908339
:100E80008F5F809389098093AB0981E090E0ECCF7C
:100E900061E0CE0101960E947205F7CF682F8DE4C4
:100EA0009AE00C941F07CF93DF93D42FC52FFC013A
:100EB000808191E0909388098093AA091092890912
:100EC0001092AB09F4E06F9FB00111246A5F7F4F6D
:100ED0008DE49AE00E941F0790E080E00E944E0798
:100EE00090E080E00E944E078D2F9C2F0E944E07BD
:100EF0008C2F90E00E944E0781E0DF91CF910C94FF
:100F0000D805CF93C42FFC01808191E0909388098C
:100F10008093AA09109289091092AB098DE49AE096
:100F20000E941F076C2F8DE49AE00E941F0781E04A
:100F3000CF910C94D805CF93DF93EC0110923B092D
:100F400010923A09109289091092AB090E949905F2
:100F500080E795E090931F0580931E0581E795E05B
:100F600090931D0580931C0540E060E0CE01DF9169
:100F7000CF910C94810790E080E008950895FC01E2
:100F800001900020E9F73197AF01481B590BBC01D4
:100F900080EB99E00C94BE028F929F92AF92BF9229
:100FA0000F931F93CF93DF93CDB7DEB7A1970FB603
:100FB000F894DEBF0FBECDBF19A2423008F44AE05C
:100FC0008E010F5D1F4F842E912CB12CA12CA501F9
:100FD00094010E941A16E62FB901CA01EA30F4F40E
:100FE000E05DD801EE938D01232B242B252B79F77F
:100FF00090E080E0109719F0CD010E94BF07A19604
:101000000FB6F894DEBF0FBECDBFDF91CF911F9119
:101010000F91BF90AF909F908F900895E95CE1CFC2
:10102000CF93DF930E94BF07EC018EE293E00E9412
:10103000BF078C0F9D1FDF91CF910895CF93DF9352
:10104000BC0190E080E04AE00E94CC07EC018EE217
:1010500093E00E94BF078C0F9D1FDF91CF910895F1
:101060008F929F92AF92BF92CF92DF92EF92FF92B8
:101070000F931F93CF93DF93EC01888191E09093BE
:1010800088098093AA09109289091092AB0960E03F
:101090008DE49AE00E941F0781E00E94D805188124
:1010A0000E9438026B017C0180918209811164C029
:1010B00081E080938209809381099FEF909380095A
:1010C00010927F0910927E0980935D0980915D09DD
:1010D000110F182B10935D0980915C09813009F084
:1010E000A3C010925C090E9438026B017C018091C0
:1010F0005D098093BB008091840990918509A0913E
:101100008609B0918709892B8A2B8B2BA1F00E942D
:101110003802009184091091850920918609309147
:1011200087096C197D098E099F090617170728077B
:10113000390708F442C08091BC0083FDD8CF85EC0C
:101140008093BC000E9438026B017C01809182096F
:10115000813009F46BC080917F09811189C0809131
:101160007F09AEE5B9E0ECE3F9E090E0981751F1C2
:101170002D9121939F5FFACF8091840990918509E9
:10118000A0918609B0918709892B8A2B8B2B09F4B2
:101190008BCF0E9438028090840990908509A0909E
:1011A0008609B09087096C197D098E099F098616FA
:1011B0009706A806B90608F077CF809183090E94A8
:1011C000B70580E010923B0980933A098DE49AE0DC
:1011D0000E94D806182F482F4F76406160E0CE015C
:1011E0000E9481074CE36EEFCE010E948107412FE0
:1011F00060E0CE010E94810765E070E080E090E051
:101200000E945D02412F416A60E0CE01DF91CF91E3
:101210001F910F91FF90EF90DF90CF90BF90AF9014
:101220009F908F900C94810785EE8ACF80918409DE
:1012300090918509A0918609B0918709892B8A2B05
:101240008B2B09F483CF0E943802009184091091FE
:10125000850920918609309187096C197D098E09CD
:101260009F09061717072807390708F06FCFA5CF82
:1012700081E077CF85ED8093BC00809184099091C7
:101280008509A0918609B09187090796A11DB11D16
:1012900023E0B695A795979587952A95D1F7209144
:1012A000BC0024FD03C01092820908954091840976
:1012B000509185096091860970918709452B462BCD
:1012C000472B69F30097A105B10541F025E32A9565
:1012D000F1F700000197A109B109E1CF80918309DD
:1012E0000C94B7050F931F93CF93DF93CDB7DEB761
:1012F000DA950FB6F894DEBF0FBECDBF80912705FB
:10130000813079F081E393E00E941008D3950FB605
:10131000F894DEBF0FBECDBFDF91CF911F910F912B
:101320000895F89478948E010F5F1F4F80E091E04C
:10133000F8019C01119221503040E1F7AE01465F67
:101340005E4FC85FDE4F68817981C850D140C801C7
:101350000E949818C801D8CFCF92DF92EF92FF92E7
:101360006B017C01E5E1F6E080E090E0DC01628564
:101370007385672BD1F00196A11DB11D7096823344
:101380009105A105B10599F783E493E09F938F93AD
:101390000E9472090F900F906DEF7FEF8FEF9FEF1C
:1013A000FF90EF90DF90CF90089564E0880F991F31
:1013B0006A95E1F7FC01EB5EF94FC082D182E282CF
:1013C000F3821482158216821782518740873387F1
:1013D000228760912105709122056F5F7F4F709386
:1013E00022056093210590E080E0648775878687F9
:1013F0009787D6CF0F931F93AB01BC01E5E1F6E0D1
:1014000080E090E0DC01048515852685378504178A
:10141000150726073707A9F424E0880F991F2A9596
:10142000E1F7FC01EB5EF94F80E1DF011D928A9547
:10143000E9F71386128660E070E0CB011F910F91EF
:1014400008950196A11DB11D709682339105A105E5
:10145000B105C9F68FE593E09F938F930E947209BF
:101460000F900F906EEF7FEF8FEF9FEFE7CF0F930F
:101470001F93CF93DF93EC016C817D818E819F81DF
:101480000E94FA0909851A85209741F0888199817F
:10149000AA81BB814297A105B10578F080E893E06D
:1014A0009F938F930E9472090F900F901A8709875C
:1014B000DF91CF911F910F9108951C821D821E8292
:1014C0001F821886F3CF0F931F93CF93DF93EC0106
:1014D000688179818A819B810E94FA0950E040E00D
:1014E00062E08BE59AE00E9453070D811E812097F0
:1014F00079F480E893E09F938F930E9472090F9094
:101500000F901E830D83DF91CF911F910F9108954E
:10151000188219821A821B821C82F3CF0F931F93A9
:10152000CF93DF93EC01688179818A819B810E944E
:10153000FA0950E040E063E084EA9AE00E94530731
:101540000D811E81209779F480E893E09F938F931B
:101550000E9472090F900F901E830D83DF91CF912F
:101560001F910F910895188219821A821B821C8282
:10157000F3CF0F931F93CF93DF93EC016C817D81A9
:101580008E819F810E94FA0988819981AA81BB81FD
:1015900050E040E060E0892B8A2B8B2B09F061E062
:1015A00085EA9AE00E94530709851A85209779F405
:1015B00080E893E09F938F930E9472090F900F90A1
:1015C0001A870987DF91CF911F910F9108951C828F
:1015D0001D821E821F821886F3CF1F920F920FB6B4
:1015E0000F9211242F933F938F939F93AF93BF93A9
:1015F0008091AC099091AD09A091AE09B091AF096D
:101600003091350923E0230F2D3758F50196A11DA0
:10161000B11D209335098093AC099093AD09A09337
:10162000AE09B093AF098091360990913709A09126
:101630003809B09139090196A11DB11D8093360971
:1016400090933709A0933809B0933909BF91AF91AE
:101650009F918F913F912F910F900FBE0F901F90F0
:10166000189526E8230F0296A11DB11DD2CF1F9217
:101670000F920FB60F9211240BB60F922F933F9338
:101680004F935F936F937F938F939F93AF93BF938A
:10169000EF93FF93E0910E02F0910F021995FF91E5
:1016A000EF91BF91AF919F918F917F916F915F91DA
:1016B0004F913F912F910F900BBE0F900FBE0F9047
:1016C0001F9018951F920F920FB60F9211240BB610
:1016D0000F922F933F934F935F936F937F938F93CB
:1016E0009F93AF93BF93EF93FF93E0910C02F09120
:1016F0000D021995FF91EF91BF91AF919F918F913D
:101700007F916F915F914F913F912F910F900BBE01
:101710000F900FBE0F901F9018951F920F920FB64B
:101720000F9211240BB60F922F933F934F935F9319
:101730006F937F938F939F93AF93BF93EF93FF9399
:10174000E0910202F09103021995FF91EF91BF9190
:10175000AF919F918F917F916F915F914F913F9149
:101760002F910F900BBE0F900FBE0F901F901895EA
:101770001F920F920FB60F9211240BB60F922F9358
:101780003F934F935F936F937F938F939F93AF9309
:10179000BF93EF93FF93E0910002F091010219953E
:1017A000FF91EF91BF91AF919F918F917F916F9139
:1017B0005F914F913F912F910F900BBE0F900FBEF5
:1017C0000F901F9018951F920F920FB60F92112431
:1017D0000BB60F922F933F934F935F936F937F932B
:1017E0008F939F93AF93BF93EF93FF93E0910A0280
:1017F000F0910B021995FF91EF91BF91AF919F91DD
:101800008F917F916F915F914F913F912F910F90A9
:101810000BBE0F900FBE0F901F9018951F920F9246
:101820000FB60F9211240BB60F922F933F934F9345
:101830005F936F937F938F939F93AF93BF93EF9338
:10184000FF93E0910802F09109021995FF91EF9141
:10185000BF91AF919F918F917F916F915F914F91C8
:101860003F912F910F900BBE0F900FBE0F901F90C6
:1018700018951F920F920FB60F9211240BB60F926C
:101880002F933F934F935F936F937F938F939F9388
:10189000AF93BF93EF93FF93E0910602F09107029D
:1018A0001995FF91EF91BF91AF919F918F917F918A
:1018B0006F915F914F913F912F910F900BBE0F90C1
:1018C0000FBE0F901F9018951F920F920FB60F9298
:1018D00011240BB60F922F933F934F935F936F9307
:1018E0007F938F939F93AF93BF93EF93FF93E09179
:1018F0000402F09105021995FF91EF91BF91AF910C
:101900009F918F917F916F915F914F913F912F9117
:101910000F900BBE0F900FBE0F901F9018951F9247
:101920000F920FB60F9211240BB60F922F933F9385
:101930004F935F936F937F938F939F93AF93BF93D7
:10194000EF93FF9380EB99E00E943203FF91EF91B8
:10195000BF91AF919F918F917F916F915F914F91C7
:101960003F912F910F900BBE0F900FBE0F901F90C5
:1019700018951F920F920FB60F9211240BB60F926B
:101980002F938F939F93EF93FF93E091C009F09172
:10199000C1098081E091C609F091C70982FD1DC08F
:1019A00090818091C9098F5F8F732091CA09821736
:1019B00041F0E091C909F0E0E055F64F958F809332
:1019C000C909FF91EF919F918F912F910F900BBEBD
:1019D0000F900FBE0F901F9018958081F2CF1F922D
:1019E0000F920FB60F9211240BB60F922F933F93C5
:1019F0004F935F936F937F938F939F93AF93BF9317
:101A0000EF93FF938091B900887F803609F44DC031
:101A100008F040C0883209F4A9C028F5803109F4E3
:101A20009DC0C8F4882309F4FBC0883009F496C02F
:101A3000FF91EF91BF91AF919F918F917F916F91A6
:101A40005F914F913F912F910F900BBE0F900FBE62
:101A50000F901F901895883109F488C0803241F7A3
:101A60008093800914C0803409F49DC040F4803311
:101A7000B9F38833E9F68093800985ECB0C08035EE
:101A800009F485C0883509F496C0883489F60E9427
:101A90003A09CECF883909F48CC038F5883729F057
:101AA00050F4883611F0803719F683E0809382096C
:101AB00010921B0557C0883809F47BC0803919F093
:101AC000803809F0B5CF80911B05803208F071C0D5
:101AD000E0911B0581E08E0F80931B058091BB0078
:101AE000F0E0E550FB4F80833DC0803B39F0E0F4EF
:101AF000803A09F479C0883A09F09ACF84E080935B
:101B000082091092FA041092F904E0911E05F091F6
:101B10001F0519958091F90481110FC081E0809310
:101B2000F9041092D90409C0803C09F4A6CF883C7E
:101B300009F4A3CF883B09F07BCFE091FA0481E060
:101B40008E0F8093FA04F0E0E752FB4F8081809380
:101B5000BB009091FA048091F90429C080915D093D
:101B60008093BB0085EC8093BC0062CF90917F098D
:101B700080917E09981758F5E0917F0981E08E0FDA
:101B800080937F09F0E0E25AF64F8081E9CFE0913F
:101B90007F0981E08E0F80937F098091BB00F0E088
:101BA000E25AF64F808390917F0980917E099817C1
:101BB000C8F285E8D8CFE0917F0981E08E0F80934D
:101BC0007F098091BB00F0E0E25AF64F808380915C
:101BD000810981115CCF81E080935C0984EA809364
:101BE000BC001092820924CF85EC8093BC00109237
:101BF000820980911B05803230F4E0911B05F0E0F2
:101C0000E550FB4F108260911B0570E0E0911C05D0
:101C1000F0911D058BEF94E0199510921B0508CFEC
:101C20001092800934CF1F920F920FB60F92112499
:101C30000BB60F922F933F934F935F936F937F93C6
:101C40008F939F93AF93BF93EF93FF93E091100215
:101C5000F09111021995FF91EF91BF91AF919F9172
:101C60008F917F916F915F914F913F912F910F9045
:101C70000BBE0F900FBE0F901F9018954F925F9262
:101C80006F927F928F929F92AF92BF92CF92DF928C
:101C9000EF92FF920F931F93CF93DF93CDB7DEB7F1
:101CA0004C0127013801DC015F965C934E935E97EF
:101CB0005D967C936E935C9791963C932E93909750
:101CC000DA961C92FC0112AA13AA14AA15AA80E0A3
:101CD00090E0AFE7B3E486AB97ABA0AFB1AF84E6DB
:101CE00090E0A0E0B0E086A797A7A0ABB1AB118EC3
:101CF000108E20E030E0A901C801B7010E94B8169B
:101D000087FD53C020E030E0A901C601B5010E9463
:101D1000B81687FD4AC020E030E0A9016C897D89B2
:101D20008E899F890E94B81687FD3FC081E090E0B0
:101D3000D4015B969C938E935A97DB968C93DB979A
:101D4000F40140825182628273821496AD92BD92F8
:101D5000CD92DC9217978C899D89AE89BF89808747
:101D60009187A287B38744865586668677862DEC51
:101D70003CEC4CEC5DE3C601B5010E941C18F4017B
:101D8000608B718B828B938B2DEC3CEC4CEC5DE388
:101D90006C897D898E899F890E94BD16D4015496D5
:101DA0006D937D938D939C9357972FB7F894809163
:101DB000AC099091AD09A091AE09B091AF092FBFC8
:101DC000F40146A557A560A971A9841B950BA60B24
:101DD000B70B82A393A3A4A3B5A3DF91CF911F91C7
:101DE0000F91FF90EF90DF90CF90BF90AF909F90BA
:101DF0008F907F906F905F904F9008957F928F9219
:101E00009F92AF92BF92CF92DF92EF92FF920F9389
:101E10001F93CF93DF93E0EBF9E01382128288EEF9
:101E200093E0A0E0B0E084839583A683B7832EE09F
:101E300033E03183208325EC30E03587248724ECA0
:101E400030E03787268720EC30E0318B208B21EC87
:101E500030E0338B228B22EC30E0358B248B26EC68
:101E600030E0378B268B118E128E138E148EEDE49C
:101E7000FAE01382128284839583A683B78380E27B
:101E800093E09183808381E480935A0A82E4809373
:101E9000590A8EE3782E7F929CE4892E8F922CEC47
:101EA000922E9F92DDECDF93A12CB12C6501E12CE9
:101EB000F12C00E810E42CE53AE040E65AE064E654
:101EC0007AE088E69AE00E943E0EC3E4C0935B0A83
:101ED000C093A40A7F928F929F92DF932EEE3AE0F6
:101EE00042EF5AE066EF7AE08AEF9AE00E943E0EF7
:101EF0007F928F929F92DF9326EA3AE04AEA5AE075
:101F00006EEA7AE082EB9AE00E943E0EC093A50A48
:101F10008DB79EB70C960FB6F8949EBF0FBE8DBFBF
:101F2000DF91CF911F910F91FF90EF90DF90CF90B5
:101F3000BF90AF909F908F907F900895CF93DF9345
:101F4000CDB7DEB7C957D1090FB6F894DEBF0FBEC3
:101F5000CDBF789484B5826084BD84B5816084BD32
:101F600085B5826085BD85B5816085BD80916E0037
:101F7000816080936E001092810080918100826068
:101F800080938100809181008160809381008091A5
:101F900080008160809380008091B1008460809394
:101FA000B1008091B00081608093B0008091910079
:101FB0008260809391008091910081608093910074
:101FC000809190008160809390008091A100826058
:101FD0008093A1008091A10081608093A1008091F5
:101FE000A00081608093A000809121018260809395
:101FF0002101809121018160809321018091200144
:1020000081608093200180917A00846080937A00BF
:1020100080917A00826080937A0080917A0081605A
:1020200080937A0080917A00806880937A00109281
:10203000C100E091C009F091C10982E08083E09184
:10204000BC09F091BD091082E091BE09F091BF0971
:1020500090E190831092C809E091C409F091C509FC
:1020600086E08083E091C209F091C309808180619C
:102070008083E091C209F091C309808188608083E8
:10208000E091C209F091C309808180688083E0916A
:10209000C209F091C30980818F7D8083109223054E
:1020A0001092240510922505109226051092220503
:1020B00010922105E5E1F6E020E233E0DF01A9011D
:1020C0001D9241505040E1F79093810010928000A2
:1020D00081E08093200520E43FE130938700209346
:1020E000860091E1909381002FE832E03093110255
:1020F0002093100280936F0010928100109285004F
:1021000010928400909120059061909381008093BB
:102110002705E9E2F5E080E090E0DC01808391832F
:10212000A283B383148215821682178210861286C8
:1021300011860196A11DB11D3B9682319105A10525
:10214000B10561F78AE59AE00E949B0789E59AE06C
:102150000E949B0760E084E10E94070260E085E145
:102160000E94070210E21093B8008AE59AE00E94EC
:102170009B0789E59AE00E949B0760E084E10E944A
:10218000070260E085E10E9407021093B8008AE52B
:102190009AE00E94300889E59AE00E9430081FB753
:1021A000F89480912805811127C0E1EFF1E0849136
:1021B000E7E3F2E09491E82FF0E0EE0FFF1FE8571D
:1021C000FE4FA591B491EC91E92321F461E085E300
:1021D0000E947B0161E085E30E9407028CB580616B
:1021E0008CBD8CB580648CBD61E084E30E940702E5
:1021F00061E083E30E940702809128058F5F80934E
:1022000028051FBF61E085E30E947B0189E993E017
:102210000E94100861E070E080E090E00E945D02A2
:102220008E01075B1F4F84E2D8011D928A95E9F762
:10223000AF961FAE1EAEAF97E1961FAE1EAEE197F2
:10224000FE0131966F0182E1DF011D928A95E9F767
:10225000DF01E9E2F5E080858D933B9625E0EF3ED6
:10226000F207C9F789818111C3C48A818111C0C471
:102270008B818111BDC48C818111BAC48D81811182
:10228000B7C48E818111B4C48F818111B1C4888596
:102290008111AEC489858111ABC48A858111A8C41E
:1022A0008B858111A5C48C858111A2C48D85811176
:1022B0009FC48E8581119CC48F85811199C48889A2
:1022C000811196C48989811193C43A89E4963FAFFC
:1022D000E49731118DC486EA93E00E94100885EBE3
:1022E00093E00E94100880911306909114068430A8
:1022F000910528F08FEC93E00E9410080FC33CE298
:10230000E32EE89EF001E99EF00D1124EE5EFD4FF4
:1023100080819181D80111969C938E9382819381C3
:1023200013969C938E9312978481958115969C9316
:102330008E9314978681978117969C938E93169708
:102340008085918519969C938E93189782859385A5
:102350001B969C938E931A97848595851D969C93C6
:102360008E931C97868597851F969C938E931E97B8
:102370008089918951969C938E93509782899389F5
:1023800053969C938E9352978489958955969C93E6
:102390008E9354978689978957969C938E935697D8
:1023A000808D918D59969C938E935897828D938DA5
:1023B0005B969C938E935A97848D958D5D969C9396
:1023C0008E935C97868D978D5F969C938E935E9788
:1023D00080A191A191969C938E93909782A193A1B5
:1023E00093969C938E9392978AEE93E00E941008A6
:1023F00080911306909114060E941E08F80180A196
:1024000091A10E941E08D80192968D919C910E94E4
:102410001E088091130690911406E89EF001E99E33
:10242000F00D1124EE5EFD4F84A195A1AF969FAFF4
:102430008EAFAF9786A197A1E1969FAF8EAFE19740
:10244000E0A4F1A422A533A5E8963FAF2EAFE8970C
:102450008DE094E00E941008D8018D919C910E941B
:102460001E08E696DFAECEAEE6974801E2ECF2E05B
:10247000EA96FFAFEEAFEA9726EE32E0E3963FAF83
:102480002EAFE397160149E2C42E45E0D42E412C2D
:10249000512C3201D60118968C918330A9F581E236
:1024A00094E00E94100823E030E040E050E0D101C9
:1024B0002D933D934D935C9313974FEF441A540A19
:1024C000640A740A5BE0C50ED11C84E0280E311C3E
:1024D00092E0890E911CEA96AEADBFADEA971296D6
:1024E000EA96BFAFAEAFEA97E396EEADFFADE397E6
:1024F0003296E396FFAFEEAFE397F2E14F16510449
:102500006104710439F66AC0F40120813181E396D7
:10251000AEADBFADE3978D919C912817390768F058
:10252000EA96EEADFFADEA9780819181821793071D
:10253000D8F42F3FFFEE3F07B9F08EE294E00E94FF
:1025400010084AE0C301B2010E94CC078EE293E07A
:102550000E94BF07D4018D919C910E941E082EEF0E
:102560003FEF4FEF5FEFA3CFF60181859285821B8E
:10257000930B97FF03C09195819591092AE0289FBD
:10258000B001299F700D11246115710511F461E0EE
:1025900070E0072E000C880B990B27E33AE0A601A8
:1025A0000E94AC099B01AC012D5F3F4F4F4F5F4F25
:1025B000223031054105510508F048C09F938F93A3
:1025C0007F936F938BE394E09F938F930E947209A4
:1025D0000F900F900F900F900F900F902FEEC22E34
:1025E00025E0D22E9E0123593F4F1901812C912CB9
:1025F0005401D60118968C91833009F076C023E0FF
:1026000030E040E050E0E696AEADBFADE6972D93EA
:102610003D934D935C9313974BE0C40ED11CE6960B
:102620008EAD9FADE6970496E6969FAF8EAFE69788
:1026300092E0290E311C8A9489288A288B2809F473
:10264000B3C0812C912C54018394D3CFE3E0D60105
:102650001896EC93189714966D937D938D939C9395
:102660001797F401A081B181F601B287A18720ED0F
:1026700037E00E949118F1E04F1651046104710493
:1026800031F027E0421651046104710449F52EE04F
:1026900031E040E050E00E94FB1559018BE594E0E9
:1026A0000E941008D501AC50BE4F2FEF3FE00E94B2
:1026B000911820E137E240E050E00E94FB15A901AB
:1026C000642D8AE59AE039E04316510461047104EF
:1026D00024F067EF640D89E59AE00E945307EDCE80
:1026E00024EB30E040E050E0D6CFF1012081318191
:1026F0002F30F1E03F0788F02F3F4FEE340769F0AD
:102700008EEF9FEFAFEFBFEFE696EEADFFADE69732
:1027100080839183A283B3837FCFD60119968D9155
:102720009C91821B930B97FF34C1919581959109E0
:10273000B1E0E296BFAFE297EAE0E89F9001E99F3F
:10274000300D1124B901032E000C880B990B232B9B
:1027500009F023C129E634E03F932F930E947209C8
:102760000F900F906EEF7FEF8FEF9FEF2B013C01EB
:1027700053E0450E511C611C711CA2E04A16510425
:102780006104710408F00FC19F938F937F936F933F
:102790008BE394E09F938F930E9472090F900F90A8
:1027A0000F900F900F900F9080910906833041F4A5
:1027B00083E090E0A0E0B0E089839A83AB83BC83A0
:1027C000B3E3EB16F10468F0EFEFEE16EFEEFE0662
:1027D00041F08EEF9FEFAFEFBFEF89839A83AB831A
:1027E000BC8380910A0690910B068E199F09D12C0B
:1027F00097FF05C0919581959109DD24D3944AE016
:10280000489F9001499F300D1124B901032E000CFF
:10281000880B990B232B09F060C189E694E09F9304
:102820008F930E9472090F900F906EEF7FEF8FEFE2
:102830009FEF4B015C01F3E08F0E911CA11CB11CBA
:1028400022E082169104A104B10408F04DC19F93C7
:102850008F937F936F938BE394E09F938F930E946A
:1028600072090F900F900F900F900F900F90809122
:1028700010068330F1F1E8964EAD5FADE897423037
:102880005105B8F580911106909112064817590725
:1028900041F0841795070CF07AC151E0E4965FAFE0
:1028A000E4972EE83AE04CE056E068EE73E080E012
:1028B00090E00E94AC094B015C01A3E08A0E911CE0
:1028C000A11CB11CB2E08B169104A104B10408F064
:1028D00063C19F938F937F936F938BE394E09F9358
:1028E0008F930E9472090F900F900F900F900F908E
:1028F0000F9080911306909114060E941E0861E0CB
:1029000070E080E090E00E945D028091130690915B
:102910001406019690931406809313068CE794E0B6
:102920000E94100882E994E00E94100885E1E82ED8
:1029300086E0F82EF70180819181A281B381009712
:10294000A105B105D9F04481558166817781481789
:1029500059076A077B0790F081EA94E00E9410080B
:10296000D7011A96ED91FC911B9718968D919C9129
:102970001995F7011482158216821782F0E1EF0E85
:10298000F11C25E3E21629E0F206A1F60E94C1033C
:102990004ACCE2961FAEE297CFCE29EB3AE0A601F1
:1029A0000E94AC09E3CE23E0F6012087D6016483C0
:1029B000758386839783F101608171811A967C9378
:1029C0006E931997072E000C880B990B0E946717BE
:1029D000F1E08F169104A104B10409F441C01092F2
:1029E000F60A1092F70A1092F80A1092F90A609308
:1029F000EE0A7093EF0A8093F00A9093F10A8AEF3F
:102A00009AE00E94F2036091F20A7091F30A8091B9
:102A1000F40A9091F50A0E942F17DB0177FF04C09A
:102A2000AA27BB27A61BB70B2FEF3FE00E949118E8
:102A30002FEF30E040E050E00E94FB152901E296C4
:102A40002FADE29761E0211101C060E086E00E94B5
:102A50007B01A20160E085EA9AE00E945307DCCD89
:102A60001092AE0A1092AF0A1092B00A1092B10AF8
:102A70006093A60A7093A70A8093A80A9093A90A64
:102A800082EB9AE00E94F2036091AA0A7091AB0A6D
:102A90008091AC0A9091AD0A0E942F17DB0177FF5D
:102AA00004C0AA27BB27A61BB70B2FEF3FE00E944D
:102AB00091182FEF30E040E050E00E94FB15290113
:102AC000E2963FADE29761E0311101C060E087E03E
:102AD0000E947B01A20161E0BECF23E63AE045E01F
:102AE00056E00E94AC09A5CE23E02093090660932E
:102AF0000506709306068093070690930806F092E9
:102B00000B06E0920A061092640A1092650A10926F
:102B1000660A1092670AB701FF0C880B990B0E9496
:102B2000671760935C0A70935D0A80935E0A9093C6
:102B30005F0A88E69AE00E94F2036091600A709151
:102B4000610A8091620A9091630A0E942F17DB014B
:102B500077FF04C0AA27BB27A61BB70B2FEF3FE0C8
:102B60000E9491182FEF30E040E050E00E94FB15EA
:102B7000490161E0D11001C060E088E00E947B0162
:102B8000A40162E08BE59AE00E94530770CE82E0D8
:102B9000E4968FAFE49785CE23E0209310066093F0
:102BA0000C0670930D0680930E0690930F06E89620
:102BB000EEADFFADE897F0931206E0931106E496B0
:102BC000FFADE49750E040E0FF2361F0E4962FADC5
:102BD000E49761E0213009F060E089E00E947B0128
:102BE0004FEF50E063E084EA9AE00E94530781CE01
:102BF00088EB94E081CB052E97FB1EF400940E9495
:102C0000121657FD07D00E941A1607FC03D04EF487
:102C10000C94121650954095309521953F4F4F4F8B
:102C20005F4F089590958095709561957F4F8F4F78
:102C30009F4F0895A1E21A2EAA1BBB1BFD010DC0D8
:102C4000AA1FBB1FEE1FFF1FA217B307E407F5075C
:102C500020F0A21BB30BE40BF50B661F771F881F38
:102C6000991F1A9469F760957095809590959B01CE
:102C7000AC01BD01CF010895A29FB001B39FC00177
:102C8000A39F700D811D1124911DB29F700D811D98
:102C90001124911D08955058BB27AA270E9463163E
:102CA0000C94DD170E94CF1738F00E94D61720F041
:102CB00039F49F3F19F426F40C94CC170EF4E095E8
:102CC000E7FB0C94C617E92F0E94EE1758F3BA17CA
:102CD000620773078407950720F079F4A6F50C9432
:102CE00010180EF4E0950B2EBA2FA02D0B01B90190
:102CF00090010C01CA01A0011124FF27591B99F072
:102D0000593F50F4503E68F11A16F040A22F232F7D
:102D1000342F4427585FF3CF469537952795A795CD
:102D2000F0405395C9F77EF41F16BA0B620B730B74
:102D3000840BBAF09150A1F0FF0FBB1F661F771FE5
:102D4000881FC2F70EC0BA0F621F731F841F48F49A
:102D5000879577956795B795F7959E3F08F0B0CF23
:102D60009395880F08F09927EE0F9795879508950A
:102D70000E94A21708F481E008950E94D1160C94D5
:102D8000DD170E94D61758F00E94CF1740F029F4A3
:102D90005F3F29F00C94C61751110C9411180C9434
:102DA000CC170E94EE1768F39923B1F3552391F3E2
:102DB000951B550BBB27AA2762177307840738F0AA
:102DC0009F5F5F4F220F331F441FAA1FA9F335D007
:102DD0000E2E3AF0E0E832D091505040E695001CBB
:102DE000CAF72BD0FE2F29D0660F771F881FBB1F75
:102DF000261737074807AB07B0E809F0BB0B802D53
:102E0000BF01FF2793585F4F3AF09E3F510578F07E
:102E10000C94C6170C9411185F3FE4F3983ED4F35A
:102E2000869577956795B795F7959F5FC9F7880F52
:102E3000911D9695879597F90895E1E0660F771FA4
:102E4000881FBB1F621773078407BA0720F0621B35
:102E5000730B840BBA0BEE1F88F7E09508950E9460
:102E600036176894B1110C94111808950E94F61742
:102E700088F09F5798F0B92F9927B751B0F0E1F03B
:102E8000660F771F881F991F1AF0BA95C9F714C0EB
:102E9000B13091F00E941018B1E008950C94101810
:102EA000672F782F8827B85F39F0B93FCCF3869524
:102EB00077956795B395D9F73EF490958095709581
:102EC00061957F4F8F4F9F4F0895E89409C097FBFE
:102ED0003EF490958095709561957F4F8F4F9F4FF1
:102EE0009923A9F0F92F96E9BB279395F695879535
:102EF00077956795B795F111F8CFFAF4BB0F11F4F8
:102F000060FF1BC06F5F7F4F8F4F9F4F16C088239E
:102F100011F096E911C0772321F09EE8872F762FD4
:102F200005C0662371F096E8862F70E060E02AF015
:102F30009A95660F771F881FDAF7880F9695879501
:102F400097F90895990F0008550FAA0BE0E8FEEFD6
:102F500016161706E807F907C0F012161306E4075D
:102F6000F50798F0621B730B840B950B39F40A2656
:102F700061F0232B242B252B21F408950A2609F434
:102F8000A140A6958FEF811D811D089597F99F6738
:102F900080E870E060E008959FEF80EC08950024E1
:102FA0000A941616170618060906089500240A94AE
:102FB00012161306140605060895092E0394000C34
:102FC00011F4882352F0BB0F40F4BF2B11F460FFC3
:102FD00004C06F5F7F4F8F4F9F4F089557FD9058EC
:102FE000440F551F59F05F3F71F04795880F97FBCD
:102FF000991F61F09F3F79F0879508951216130687
:103000001406551FF2CF4695F1DF08C016161706B5
:103010001806991FF1CF86957105610508940895EA
:10302000E894BB2766277727CB0197F908950E947C
:10303000A21708F48FEF08950E942F180C94DD1743
:103040000E94CF1738F00E94D61720F0952311F078
:103050000C94C6170C94CC1711240C9411180E94D0
:10306000EE1770F3959FC1F3950F50E0551F629FC7
:10307000F001729FBB27F00DB11D639FAA27F00DD1
:10308000B11DAA1F649F6627B00DA11D661F829FF8
:103090002227B00DA11D621F739FB00DA11D621FDD
:1030A000839FA00D611D221F749F3327A00D611DFA
:1030B000231F849F600D211D822F762F6A2F1124DC
:1030C0009F5750409AF0F1F088234AF0EE0FFF1F0F
:1030D000BB1F661F771F881F91505040A9F79E3F66
:1030E000510580F00C94C6170C9411185F3FE4F35F
:1030F000983ED4F3869577956795B795F795E795BC
:103100009F5FC1F7FE2B880F911D9695879597F9C4
:103110000895EE0FFF1F881F8BBF0790F691E02DDB
:1031200019940E943C16B7FF0895821B930B0895D3
:103130000F931F93CF93DF93CDB7DEB72E970FB6C4
:10314000F894DEBF0FBECDBF8C0186E08C831A835E
:1031500009838FEF9FE79E838D83CE0101960E94A6
:10316000C2182F813885020F131FF80110822E9686
:103170000FB6F894DEBF0FBECDBFDF91CF911F9188
:103180000F9108952F923F924F925F926F927F928C
:103190008F929F92AF92BF92CF92DF92EF92FF9267
:1031A0000F931F93CF93DF9300D000D000D01F92D6
:1031B0001F92CDB7DEB77C013B018A01FC0117826B
:1031C0001682838181FFDDC1CE0101965C01F7018A
:1031D0009381F30193FD859193FF81913F018823B2
:1031E00009F453C1853239F493FD859193FF8191A0
:1031F0003F01853229F4B70190E00E94DA1AE7CF47
:10320000912C212C312CFFE1F31538F08B3211F188
:1032100090F4803209F1833229F137FC3CC020ED73
:10322000280F2A3050F536FE20C08AE0989E200DE7
:103230001124922E06C08D3291F0803371F768947C
:1032400030F8F30193FD859193FF81913F01811146
:10325000DACF21C0689431F8689432F8F2CF6894DC
:1032600033F8EFCF689434F8ECCFEAE02E9E200DCF
:103270001124222E689435F8E4CF8E3229F436FCDE
:1032800004C1689436F8DDCF8C3619F4689437F8A9
:10329000D8CF8836B1F2982F9F7D95549330E0F0C7
:1032A0008336A1F18337C1F1833509F063C028016A
:1032B000F2E04F0E511CF801C080D180692D70E002
:1032C00036FC02C06FEF7FEFC6010E94C41A4C01AA
:1032D000689437F882010AC00C5F1F4FFFE3F9833F
:1032E00088248394912C6501E89437F833FE2DC02F
:1032F000522C8114910471F5552009F468CFB7015F
:1033000080E290E00E94DA1A5A94F6CFF8018081A8
:1033100089830E5F1F4FE4CF2801F2E04F0E511C4E
:10332000F801C080D180692D70E036FC02C06FEFDB
:103330007FEFC6010E94CF1A4C018201D5CFB701A1
:1033400080E290E00E94DA1A2A942814190409F005
:10335000B0F7CECFF60137FC859137FE81916F0132
:10336000B70190E00E94DA1A51105A94F1E08F1AD6
:103370009108BFCF843619F0893609F077C0F8017B
:1033800037FE6BC060817181828193810C5F1F4F1A
:10339000F32DFF763F2E97FF09C09095809570958D
:1033A00061957F4F8F4F9F4F689437F82AE030E048
:1033B000A5010E940A1BC82ECA188C2C432C36FE6D
:1033C0000CC0E89440F8C91440F434FE05C032FC47
:1033D00003C0F32DFE7E4F2E892C44FEAAC0FE01B1
:1033E000EC0DF11D8081803309F09CC0242D297ED5
:1033F000422E842D8870582E43FCAAC040FEA4C0E3
:103400009C2C821418F42C0C922C981844FEA6C004
:10341000B70180E390E00E94DA1A42FE09C088E713
:1034200090E041FE02C088E590E0B7010E94DA1A00
:10343000C91408F49FC0CA94D12C9FEFC91AD90AA5
:10344000CA0CDB1CF60182916F01B70190E00E946B
:10345000DA1AAC14BD04B1F74FCF60817181072E29
:10346000000C880B990B0E5F1F4F92CFD32CE89462
:10347000D4F82AE030E08537E1F1232D297FD22EE0
:103480008F36A9F1F0F4883551F1F70186819781E3
:103490002B960FB6F894DEBF0FBECDBFDF91CF9154
:1034A0001F910F91FF90EF90DF90CF90BF90AF9062
:1034B0009F908F907F906F905F904F903F902F9054
:1034C0000895803749F0883701F7D4FE02C0689428
:1034D000D2F820E130E00DC06894D4F8F6CF34FE85
:1034E00003C0822F8660D82E20E132E002C028E09F
:1034F00030E0F801D7FE0FC0608171818281938135
:103500000C5F1F4FA5010E940A1BC82ECA183D2C34
:10351000E89437F852CF6081718190E080E00E5FCF
:103520001F4FF0CF42FC02C0839463CF83948394F7
:1035300060CF842D867809F45CCFF6CFB70180E2A6
:1035400090E00E94DA1A83948214C0F3512C5ECF6B
:10355000522C5818821408F459CFF8CF842D86784D
:1035600009F466CF8BE241FE80E247FC8DE2B701B1
:1035700090E05CCFB70180E390E00E94DA1A9A9461
:1035800057CF8FEF9FEF84CFFC01059061507040C3
:103590000110D8F7809590958E0F9F1F0895FC011C
:1035A0006150704001900110D8F7809590958E0F72
:1035B0009F1F08950F931F93CF93DF93182F092F09
:1035C000EB018B8181FD09C01FEF0FEF812F902F41
:1035D000DF91CF911F910F91089582FF14C02E812A
:1035E0003F818C819D81281739073CF4E881F9815E
:1035F000CF0101969983888310838E819F810196E4
:103600009F838E83E3CFE885F985812F1995892BD8
:10361000A1F3DACFFA01AA27283051F1203181F144
:10362000E8946F936E7F6E5F7F4F8F4F9F4FAF4FCA
:10363000B1E03ED0B4E03CD0670F781F891F9A1FDD
:10364000A11D680F791F8A1F911DA11D6A0F711D91
:10365000811D911DA11D20D009F468943F912AE09D
:10366000269F11243019305D3193DEF6CF01089585
:10367000462F4770405D4193B3E00FD0C9F7F6CFB6
:10368000462F4F70405D4A3318F0495D31FD40527E
:10369000419302D0A9F7EACFB4E0A6959795879514
:1036A00077956795BA95C9F70097610571050895F3
:1036B0009B01AC010A2E069457954795379527959F
:1036C000BA95C9F7620F731F841F951FA01D089537
:0436D000F894FFCF9C
:1036D400BD02BD02BD02BD02BD02BD02BD02BD02EE
:1036E400BE078C000200030004000500060007006A
:1036F400080009008C00230032000D000E000F00AA
:1037040010001100120013001400150016005A00D6
:103714000200030004000500060007000800090079
:103724008C0023005A000D000E000F001000110041
:10373400120013001400150016008C000200030090
:103744000400050006000700080009008C0023009F
:1037540032000D000E000F001000110012001300C3
:103764001400150016005A000200030004000500AE
:1037740006000700080009008C0023005A000D0011
:103784000E000F00100011001200130014001500A9
:103794001600B40046008700B40025006E00B40093
:1037A40046007800B40032007800B4001E006900BE
:1037B400870028005A007D002D0041007D000A008A
:1037C40056007D002D0032007D000A0032007D008D
:1037D4000A004B007D000A003C0000000000540376
:1037E400BE02EB02A1031C03FA020E030000000058
:1037F4001F07F206BB07C806EB06D806C9060D0A62
:10380400002053797374656D206E6F7420696E693E
:10381400742000E382BFE382A4E3839EE383BCE4D9
:10382400B88AE99990E382A8E383A9E383BC00E31F
:1038340082BFE382A4E3839EE383BC4944E3818C97
:10384400E5AD98E59CA8E38197E381AAE381840030
:10385400E38193E3828CE38282E38186E784A1E7B8
:103864009086E38284E381A70053797374656D20A5
:103874005374617274002D2D2D207363656E652061
:103884002D2D2D0A002D2D2D205363656E652049A5
:103894006E707574205374617274202D2D2D002D5B
:1038A4002D2D207363656E6520636F756E7465726C
:1038B400206F766572202D2D2D002D2D2D2D2D2D73
:1038C4002D2D2D2D2D616E67206B6F6B6F202D2D8F
:1038D4002D2D2D2D2D2D2D2D2D2D2D2D002D2D2D41
:1038E40020616E676C6520636865636B202D2D2DE8
:1038F400002D2D2D20283829202D2D2D0A002D2D89
:103904002D20283929202D2D2D0A00E382BFE382A2
:10391400A4E3839EE383BCE996A2E980A3E382A89F
:10392400E383A9E383BC3A202564006B6F6B6F20AB
:103934006B6974657275796F00E5BC95E695B0E3C3
:1039440082A8E383A9E383BCEFBC98000A2D2D2D44
:103954002054455354205354415254202D2D2D2D81
:103964000A000A2D2D2D20454E44202D2D2D2D0AE3
:10397400002D2D2D2063616C6C6261636B20737468
:10398400617274202D2D2D002D2D2D207363656EF5
:0E39940065427573792829202D2D2D0A00001B
:00000001FF
