:020000040000FA
:100000000C945B010C94690E0C943E0E0C94130E30
:100010000C94E80D0C94BD0D0C94920D0C94670D8E
:100020000C943C0D0C948C010C948C010C948C0160
:100030000C948C010C948C010C948C010C948C010C
:100040000C948C010C948C010C948C010C948C01FC
:100050000C9418100C948C010C948C010C94F20CE0
:100060000C948C010C94BE0E0C94940E0C948C0188
:100070000C948C010C948C010C948C010C948C01CC
:100080000C948C010C948C010C948C010C948C01BC
:100090000C948C010C948C010C948C010C94F40E37
:1000A0000C948C010C948C010C948C010C948C019C
:1000B0000C948C010C948C010C948C010C948C018C
:1000C0000C948C010C948C010C948C010C948C017C
:1000D0000C948C010C948C010C948C010C948C016C
:1000E0000C948C010C946F040C94A4080C94F001F3
:1000F0000C9477030C940F020C942F020C9453056C
:100100000C942B020C9425020C94B2070C94060557
:100110000C942A020C949D040C94FF010C94BE0CC8
:100120000C9470040C94F8010C9405020C94FC01DE
:100130000C94DB070C941D020C94A7080C94AC04DF
:100140000C9443100C94B1070C945A060C94EA01D9
:100150000C94F4010C9413020C94680C0C9412038C
:100160000C9409020C94DC030C9459060C94930C27
:100170000C9417020C9441040C94D4070C94CE04F4
:100180000C9408080C94C1070C9421020C94C00430
:100190000C943C0C00002100240027002A002D00B4
:1001A0003000330001010000040107010A010000D2
:1001B0002200250028002B002E003100340002010F
:1001C0000000050108010B010000200023002600AB
:1001D00029002C002F00320000010000030106015D
:1001E00009010505050507050808080802020202BD
:1001F0000A0A0808040404040101010101010101C3
:100200000303030303030303040707070C0C0C0C8D
:100210000C0C0C0C02020202060606060606060676
:100220000B0B0B0B0B0B0B0B010210202008081003
:100230002040102040800201020108040201010256
:10024000040810204080804020100804020180042F
:10025000020180402010080402010804020101028A
:100260000408102040800102040810204080000093
:100270000A0B02090C0D0E08070304010000000020
:10028000000000000000000000000000000000006E
:10029000000000000000000000001211100000002B
:1002A000000000000000000000000000000000004E
:1002B00000000000431011241FBECFEFD1E2DEBFCB
:1002C000CDBF00E00CBF1DE0A0E0B2E0EEE1F2E443
:1002D00000E00BBF02C007900D92AE34B107D9F712
:1002E00023E1AEE4BDE001C01D92A43CB207E1F7FA
:1002F00011E0CBE5D1E000E006C021970109802F95
:10030000FE010E942E1ECA35D10780E00807A9F71A
:100310000E94E3100C940D210C940000CF92DF9208
:10032000EF92FF92CF93DF93EC016EA57FA588A992
:1003300099A90E94B21C9B01AC0160E070E088ECBE
:1003400091E40E940A1C6B017C01AC019B0168894D
:1003500079898A899B890E94C11D688B798B8A8BD8
:100360009B8BA70196016C897D898E899F890E944C
:100370000A1C6C8B7D8B8E8B9F8B89E190E0A0E0BB
:10038000B0E08EA79FA7A8ABB9ABDF91CF91FF904C
:10039000EF90DF90CF9008958150823108F05AC0DD
:1003A000E82FF0E08827E852FE4F8F4F0C942E1E66
:1003B000F801FC01EA01F001F4012A02FF01050243
:1003C00009020F02130217021D0221022A0225024E
:1003D0002B022F02809180008F77809380000895F8
:1003E000809180008F7DF9CF80918000877FF5CF4D
:1003F00084B58F7784BD089584B58F7DFBCF8091C0
:10040000B0008F778093B00008958091B0008F7D09
:10041000F9CF809190008F7780939000089580911C
:1004200090008F7DF9CF80919000877FF5CF8091EC
:10043000A0008F778093A00008958091A0008F7D09
:10044000F9CF8091A000877FF5CF809120018F7731
:10045000809320010895809120018F7DF9CF8091B4
:100460002001877FF5CFCF93DF93282F30E0F9016C
:10047000E259FD4F8491F901E85DFD4FD491F901F6
:10048000EE51FE4FC491CC23A1F081110E94CC010A
:10049000EC2FF0E0EE0FFF1FE853FE4FA591B49153
:1004A000EC91ED2381E090E009F480E0DF91CF91C1
:1004B000089580E090E0FACF1F93CF93DF93282F29
:1004C00030E0F901E259FD4F8491F901E85DFD4FFB
:1004D000D491F901EE51FE4FC491CC23A9F0162F0F
:1004E00081110E94CC01EC2FF0E0EE0FFF1FE255CE
:1004F000FE4FA591B4918FB7F894EC91111108C0FB
:10050000D095DE23DC938FBFDF91CF911F910895AB
:10051000DE2BF8CFCF93DF9390E0FC01E85DFD4F39
:1005200024918E519E4FFC0184918823D1F090E05C
:10053000880F991FFC01EC56FE4FA591B491FC0168
:10054000E255FE4FC591D49161110EC09FB7F8944A
:100550008C91E22FE0958E238C932881E223E8830F
:100560009FBFDF91CF9108958FB7F894EC91E22B64
:10057000EC938FBFF6CF3FB7F8948091E61190913E
:10058000E711A091E811B091E91126B5A89B05C02B
:100590002F3F19F00196A11DB11D3FBFBA2FA92F02
:1005A000982F8827BC01CD01620F711D811D911DFF
:1005B00042E0660F771F881F991F4A95D1F708956B
:1005C0008F929F92AF92BF92CF92DF92EF92FF9263
:1005D0004B015C010E94BB026B017C010E94BB02CB
:1005E0006C197D098E099F09683E7340810591054C
:1005F000A8F321E0821A9108A108B10888EEC80E7C
:1006000083E0D81EE11CF11C81149104A104B10403
:1006100029F7FF90EF90DF90CF90BF90AF909F9021
:100620008F900895CF92DF92EF92FF92CF93DF9356
:1006300082E10E943302C091D20DD091D30D019777
:1006400039F488E10E943302892B39F4219706C0DE
:1006500088E10E943302892BC9F72196D093D30DEC
:10066000C093D20D6091D20D7091D30D072E000C66
:10067000880B990B0E94B41C6B017C012FE832ECB3
:100680004DE850E40E94BC1D1816F4F42FE832EC3B
:100690004DE850E4C701B6010E94981B0E947C1CE3
:1006A0007093D30D6093D20D8091D40D9091D50DA0
:1006B00001969093D50D8093D40DDF91CF91FF904B
:1006C000EF90DF90CF9008952FE832EC4DE850EC9A
:1006D000C701B6010E94051C87FFEFCF2FE832EC5F
:1006E0004DE850E4C701B6010E94991BD7CFCF92C5
:1006F000DF92EF92FF92CF93DF9382E00E9433026A
:10070000C091CC0DD091CD0D019739F486E10E94B6
:100710003302892B39F4219706C086E10E94330207
:10072000892BC9F72196D093CD0DC093CC0D609144
:10073000CC0D7091CD0D072E000C880B990B0E94EB
:10074000B41C6B017C0126E636E64EEB51E40E94B8
:10075000BC1D1816F4F426E636E64EEB51E4C7014C
:10076000B6010E94981B0E947C1C7093CD0D609373
:10077000CC0D8091D00D9091D10D01969093D10D1B
:100780008093D00DDF91CF91FF90EF90DF90CF90CD
:10079000089526E636E64EEB51ECC701B6010E94FD
:1007A000051C87FFEFCF26E636E64EEB51E4C70186
:1007B000B6010E94991BD7CFCF92DF92EF92FF92A2
:1007C000CF93DF9383E00E943302C091CA0DD09192
:1007D000CB0D019739F487E10E943302892B39F45C
:1007E000219706C087E10E943302892BC9F7219621
:1007F000D093CB0DC093CA0D6091CA0D7091CB0DF3
:10080000072E000C880B990B0E94B41C6B017C0115
:1008100026E636E64EEB51E40E94BC1D1816F4F4B1
:1008200026E636E64EEB51E4C701B6010E94981B5E
:100830000E947C1C7093CB0D6093CA0D8091CE0DED
:100840009091CF0D01969093CF0D8093CE0DDF91B7
:10085000CF91FF90EF90DF90CF90089526E636E697
:100860004EEB51ECC701B6010E94051C87FFEFCF8C
:1008700026E636E64EEB51E4C701B6010E94991B0D
:10088000D7CF8091C50D9091C60DA091C70DB091A5
:10089000C80D0196A11DB11D8093C50D9093C60D85
:1008A000A093C70DB093C80DE5ECFEE08081918167
:1008B000A281B381892B8A2B8B2B59F0848195815E
:1008C000A681B7810196A11DB11D84839583A6835E
:1008D000B783709681E1E53EF80741F708950895E2
:1008E000AF92BF92CF92DF92EF92FF920F931F933E
:1008F000CF93DF936C017B018B01040F151FEB017C
:100900005E01AE18BF08C017D10759F06991D60132
:10091000ED91FC910190F081E02DC6011995892B94
:1009200079F7C501DF91CF911F910F91FF90EF9063
:10093000DF90CF90BF90AF900895FC01538D448D10
:10094000252F30E0842F90E0821B930B541710F07A
:10095000CF96089501970895FC01918D828D981787
:1009600061F0A28DAE0FBF2FB11D5D968C91928D5F
:100970009F5F9F73928F90E008958FEF9FEF089590
:10098000FC01918D828D981731F0828DE80FF11D59
:10099000858D90E008958FEF9FEF0895FC01918D74
:1009A000228D892F90E0805C9F4F821B91098F736D
:1009B000992708958EE392E10E94CE0421E0892BCD
:1009C00009F420E0822F0895FC01A48DA80FB92F0F
:1009D000B11DA35ABF4F2C91848D90E001968F7367
:1009E0009927848FA689B7892C93A089B1898C9186
:1009F000837080648C93938D848D981306C00288D5
:100A0000F389E02D80818F7D80830895EF92FF929E
:100A10000F931F93CF93DF93EC0181E0888F9B8D21
:100A20008C8D98131AC0E889F989808185FF15C0DB
:100A30009FB7F894EE89FF896083E889F9898081FE
:100A40008370806480839FBF81E090E0DF91CF91CD
:100A50001F910F91FF90EF900895F62E0B8D10E0EF
:100A60000F5F1F4F0F731127E02E8C8D8E110CC05E
:100A70000FB607FCFACFE889F989808185FFF5CFA9
:100A8000CE010E94E404F1CFEB8DEC0FFD2FF11DA0
:100A9000E35AFF4FF0829FB7F8940B8FEA89FB89E6
:100AA00080818062CFCFCF93DF93EC01888D882344
:100AB000B9F0AA89BB89E889F9898C9185FD03C0C1
:100AC000808186FD0DC00FB607FCF7CF8C9185FFA6
:100AD000F2CF808185FFEDCFCE010E94E404E9CF03
:100AE000DF91CF91089580E090E0892B29F00E945A
:100AF000DA0481110E94000080E090E0892B49F027
:100B000080E090E0892B29F00E94000081110E9472
:100B1000000080E090E0892B49F080E090E0892B94
:100B200029F00E94000081110E94000080E090E006
:100B3000892B49F080E090E0892B29F00E94000089
:100B400081110C94000008952F923F924F925F9272
:100B50006F927F928F929F92AF92BF92CF92DF92CD
:100B6000EF92FF920F931F93CF93DF931C016A01C3
:100B70007B0128013901FC01C68DD78D88809980C1
:100B8000AA80BB80A9019801C501B4010E94BC1DC7
:100B900018166CF5488259826A827B82F10186A020
:100BA00097A0A0A4B1A4C6A8D7A8E0ACF1ACA701B7
:100BB0009601C501B4010E94BC1DF101181624F56F
:100BC000C6A2D7A2E0A6F1A6DF91CF911F910F9107
:100BD000FF90EF90DF90CF90BF90AF909F908F905D
:100BE0007F906F905F904F903F902F900895A70156
:100BF0009601C501B4010E94051C87FFCFCFC882B2
:100C0000D982EA82FB82CACFC2A8D3A8E4A8F5A8F9
:100C1000A7019601C501B4010E94051C87FFD4CF2E
:100C2000F101CECF8F929F92AF92BF92CF92DF927F
:100C3000EF92FF92CF93DF93EC01EE8DFF8DC0809A
:100C4000D180E280F380CEA2DFA2E8A6F9A6EC8DE7
:100C5000FD8D80819181A281B3818AA79BA7ACA7DA
:100C6000BDA78EA89FA8A8ACB9ACA5019401C701E7
:100C7000B6010E94BC1D18162CF48EA29FA2A8A635
:100C8000B9A60CC08AA89BA8ACA8BDA8A5019401D0
:100C9000C701B6010E94051C87FDEFCFDF91CF9100
:100CA000FF90EF90DF90CF90BF90AF909F908F908C
:100CB0000895089508952091790D260F3327331F45
:100CC00021323105ECF420911012FC0190E080E01B
:100CD000243069F082E00895A091790D2191AC0152
:100CE000475A524FA40FB52FB11D2C93019686176A
:100CF00098F38091790D680F6093790D80E00895E5
:100D000081E008951092101281E080930F121092EA
:100D1000EA1161E084E10E945C0261E085E10E94E9
:100D20005C02E9EBF0E080818E7F808380818D7FA3
:100D3000808388E48093B80085E48093BC000895A4
:100D4000CF93DF9391E09093580D8823B9F0C09131
:100D5000B800D091BA008091BC008A7B8093BC001F
:100D600060E084E10E945C0260E085E10E945C0238
:100D70000E948206D093BA00C093B800DF91CF9151
:100D800008958F929F92AF92BF92CF92DF92EF928F
:100D9000FF920F931F93CF93DF93D0913912D132EB
:100DA00008F0D7C0182FC09138120E94BB026B0107
:100DB0007C018091101281116BC082E0809310122F
:100DC00010930F128FEF80930E1210920D12D0938A
:100DD0000C12A8E1B2E1ECEEF1E180E0D81391C091
:100DE0001092EB118091EB11CC0FC82BC093EB113B
:100DF0008091EA11813009F088C01092EA110E94B6
:100E0000BB026B017C018091EB118093BB00809150
:100E1000121290911312A0911412B0911512892BF5
:100E20008A2B8B2BA1F00E94BB0200911212109111
:100E3000131220911412309115126C197D098E092C
:100E40009F09061717072807390708F442C0809141
:100E5000BC0083FDD8CF85EC8093BC000E94BB0210
:100E60006B017C0180911012823009F450C0809196
:100E70000E128F3F09F46FC080910E12803209F478
:100E80006CC080910E12803309F469C084E026C0E2
:100E90008091121290911312A0911412B091151218
:100EA000892B8A2B8B2B09F484CF0E94BB02809064
:100EB000121290901312A0901412B09015126C1987
:100EC0007D098E099F0986169706A806B90608F0BF
:100ED00070CF809111120E94A00685E01092171227
:100EE0001092391210921612DF91CF911F910F912B
:100EF000FF90EF90DF90CF90BF90AF909F908F903A
:100F000008959D9191938F5F69CF85EEA5CF8091D4
:100F1000121290911312A0911412B0911512892BF4
:100F20008A2B8B2B09F49ECF0E94BB0200911212D8
:100F30001091131220911412309115126C197D0921
:100F40008E099F09061717072807390708F08ACF67
:100F5000C0CF81E0C3CF80E0C1CF82E0BFCF83E0CC
:100F6000BDCF0895E091A10D8091A00DE81730F458
:100F7000F0E0EE55F24F808190E008958FEF9FEF03
:100F800008959091A10D8091A00D2FEF3FEF98173C
:100F900048F4E92FF0E0EE55F24F208130E09F5FFA
:100FA0009093A10DC90108958091A00D9091A10D7C
:100FB000891B990B0895CF92DF92EF92FF920F93C6
:100FC0001F93CF93DF937C01CB018A0120911612EE
:100FD000222389F0EB016B01C40ED51ECC15DD0573
:100FE00069F06991D701ED91FC910190F081E02DBC
:100FF000C7011995F3CF642F0E945B06C801DF91EA
:10100000CF911F910F91FF90EF90DF90CF900895B7
:10101000CF93DF931F92CDB7DEB76983209116126D
:101020002223F9F020913912203258F021E030E0EB
:10103000FC013383228390E080E00F90DF91CF9119
:10104000089580911712E82FF0E0E85EFD4E998137
:1010500090838F5F809317128093391281E090E024
:10106000ECCF61E0CE0101960E945B06F7CF682FBE
:101070008BED92E10C940808CF93DF93D42FC52F0A
:10108000FC01808191E090931612809338121092A7
:10109000171210923912F4E06F9FB00111246A5FA9
:1010A0007F4F8BED92E10E94080890E080E00E9463
:1010B000370890E080E00E9437088D2F9C2F0E9417
:1010C00037088C2F90E00E94370881E0DF91CF91A4
:1010D0000C94C106CF93C42FFC01808191E09093C2
:1010E00016128093381210921712109239128BED4B
:1010F00092E10E9408086C2F8BED92E10E94080893
:1011000081E0CF910C94C106CF93DF93EC01109254
:10111000A10D1092A00D10921712109239120E9478
:10112000820689E596E090939F0D80939E0D8AE557
:1011300096E090939D0D80939C0D40E060E0CE0181
:10114000DF91CF910C946A0890E080E008950895B3
:101150004F925F926F927F928F929F92AF92BF92C7
:10116000CF92DF92EF92FF920F931F93CF93DF9373
:10117000CDB7DEB74C0127013801DC015F965C93E7
:101180004E935E975D967C936E935C9791963C939D
:101190002E939097DA961C92FC0112AA13AA14AA15
:1011A00015AA80E090E0AFE7B3E486AB97ABA0AFC1
:1011B000B1AF84E690E0A0E0B0E086A797A7A0AB2F
:1011C000B1AB118E108E20E030E0A901C801B7014B
:1011D0000E94051C87FD53C020E030E0A901C60134
:1011E000B5010E94051C87FD4AC020E030E0A9013E
:1011F0006C897D898E899F890E94051C87FD3FC06F
:1012000081E090E0D4015B969C938E935A97DB9695
:101210008C93DB97F4014082518262827382149630
:10122000AD92BD92CD92DC9217978C899D89AE8943
:10123000BF8980879187A287B38744865586668653
:1012400077862DEC3CEC4CEC5DE3C601B5010E94C9
:10125000C11DF401608B718B828B938B2DEC3CEC68
:101260004CEC5DE36C897D898E899F890E940A1C04
:10127000D40154966D937D938D939C9357972FB77C
:10128000F89480913A1290913B12A0913C12B09147
:101290003D122FBFF40146A557A560A971A9841B73
:1012A000950BA60BB70B82A393A3A4A3B5A3DF91C1
:1012B000CF911F910F91FF90EF90DF90CF90BF9053
:1012C000AF909F908F907F906F905F904F90089518
:1012D000FC0101900020E9F73197AF01481B590B41
:1012E000BC018EE392E10C9470048F929F92AF92B6
:1012F000BF920F931F93CF93DF93CDB7DEB7A19724
:101300000FB6F894DEBF0FBECDBF19A2423008F46D
:101310004AE08E010F5D1F4F842E912CB12CA12C21
:10132000A50194010E94671BE62FB901CA01EA30AA
:10133000F4F4E05DD801EE938D01232B242B252BB3
:1013400079F790E080E0109719F0CD010E946809CC
:10135000A1960FB6F894DEBF0FBECDBFDF91CF913F
:101360001F910F91BF90AF909F908F900895E95C6F
:10137000E1CFCF93DF93BC0190E080E04AE00E9490
:101380007509EC0181E89AE00E9468098C0F9D1FA5
:10139000DF91CF910895CF93DF930E946809EC010C
:1013A00081E89AE00E9468098C0F9D1FDF91CF9120
:1013B0000895CF92DF92EF92FF92CF93DF936C016B
:1013C000990FEE08FF08F7FE1FC06DE28EE392E171
:1013D0000E940605EC0166277727CB016C197D0971
:1013E0008E099F094AE00E947509C80FD91F81E83C
:1013F0009AE00E9468098C0F9D1FDF91CF91FF90AA
:10140000EF90DF90CF9008954AE0C701B6010E94A7
:101410007509EC01ECCFCF93DF93682F70E090E07B
:1014200080E04AE00E947509EC0181E89AE00E94A0
:1014300068098C0F9D1FDF91CF9108958F929F9225
:10144000AF92BF92CF92DF92EF92FF920F931F93D2
:10145000CF93DF93EC019A01AB0160E27CEB8EEB62
:1014600095E40E940A1C20E030E040E85FE30E941F
:10147000981B20E030E040E05FE30E94991B0E944F
:10148000EF1C0E94831C062F888191E09093161216
:1014900080933812109217121092391260E08BED7F
:1014A00092E10E94080881E00E94C10618810E9412
:1014B000BB026B017C0180911012811164C081E03C
:1014C0008093101280930F129FEF90930E12109240
:1014D0000D1210920C128093EB118091EB11110FF1
:1014E000182B1093EB118091EA11813009F0A3C001
:1014F0001092EA110E94BB026B017C018091EB11FA
:101500008093BB008091121290911312A09114123B
:10151000B0911512892B8A2B8B2BA1F00E94BB0254
:101520008090121290901312A0901412B090151285
:101530006C197D098E099F0986169706A806B906BB
:1015400008F442C08091BC0083FDD8CF85EC809325
:10155000BC000E94BB026B017C01809110128130A3
:1015600009F46BC080910D12811189C080910D1218
:10157000ECEEF1E1A2EABDE090E0981751F1219183
:101580002D939F5FFACF8091121290911312A09128
:101590001412B0911512892B8A2B8B2B09F48BCF47
:1015A0000E94BB028090121290901312A09014120D
:1015B000B09015126C197D098E099F098616970641
:1015C000A806B90608F077CF809111120E94A006F4
:1015D00080E01092A10D8093A00D8BED92E10E940E
:1015E000C107182F482F4F76406160E0CE010E945E
:1015F0006A08402F6EEFCE010E946A08412F60E01A
:10160000CE010E946A0865E070E080E090E00E94F0
:10161000E002412F416A60E0CE01DF91CF911F913E
:101620000F91FF90EF90DF90CF90BF90AF909F9081
:101630008F900C946A0885EE8ACF80911212909157
:101640001312A0911412B0911512892B8A2B8B2B97
:1016500009F483CF0E94BB02809012129090131263
:10166000A0901412B09015126C197D098E099F0973
:1016700086169706A806B90608F06FCFA5CF81E0B9
:1016800077CF85ED8093BC00809112129091131258
:10169000A0911412B09115120796A11DB11D23E05F
:1016A000B695A795979587952A95D1F72091BC0077
:1016B00024FD03C01092101208954091121250910F
:1016C00013126091141270911512452B462B472B63
:1016D00069F30097A105B10541F025E32A95F1F7DB
:1016E00000000197A109B109E1CF809111120C947A
:1016F000A0060F931F93CF93DF93CDB7DEB7DA9594
:101700000FB6F894DEBF0FBECDBF8091C90D8130FA
:1017100079F084E89AE00E94CB09D3950FB6F8944B
:10172000DEBF0FBECDBFDF91CF911F910F91089506
:10173000F89478948E010F5F1F4F80E091E0F801DC
:101740009C01119221503040E1F7AE01465F5E4F9F
:10175000C85FDE4F68817981C850D140C8010E94BE
:101760003D1EC801D8CFCF92DF92EF92FF926B015E
:101770007C01E5ECFEE080E090E0DC0162857385B1
:10178000672BD1F00196A11DB11D70968233910592
:10179000A105B10599F786E99AE09F938F930E947E
:1017A000790B0F900F906DEF7FEF8FEF9FEFFF9012
:1017B000EF90DF90CF90089564E0880F991F6A95AD
:1017C000E1F7FC01EB53F14FC082D182E282F38258
:1017D00014821582168217825187408733872287A9
:1017E0006091C30D7091C40D6F5F7F4F7093C40DF6
:1017F0006093C30D90E080E0648775878687978744
:10180000D6CF0F931F93AB01BC01E5ECFEE080E067
:1018100090E0DC01048515852685378504171507BA
:101820002607370799F424E0880F991F2A95E1F7D6
:10183000FC01EB53F14F80E1DF011D928A95E9F73E
:1018400060E070E0CB011F910F9108950196A11DFA
:10185000B11D709682339105A105B105D9F682EBD1
:101860009AE09F938F930E94790B0F900F906EEFE9
:101870007FEF8FEF9FEFE7CF0F931F93CF93DF9310
:10188000EC016C817D818E819F810E94010C098514
:101890001A85209741F088819981AA81BB8142975E
:1018A000A105B10578F083ED9AE09F938F930E9494
:1018B000790B0F900F901A870987DF91CF911F91B5
:1018C0000F9108951C821D821E821F821886F3CFFD
:1018D0000F931F93CF93DF93EC01688179818A8105
:1018E0009B810E94010C50E040E062E089EE92E1B1
:1018F0000E943C080D811E81209779F483ED9AE0C7
:101900009F938F930E94790B0F900F901E830D83EE
:10191000DF91CF911F910F910895188219821A8239
:101920001B821C82F3CF0F931F93CF93DF93EC01A5
:10193000688179818A819B810E94010C50E040E09E
:1019400063E082E393E10E943C080D811E812097B1
:1019500079F483ED9AE09F938F930E94790B0F9017
:101960000F901E830D83DF91CF911F910F910895EA
:10197000188219821A821B821C82F3CF0F931F9345
:10198000CF93DF93EC016C817D818E819F810E94DA
:10199000010C88819981AA81BB8150E040E060E020
:1019A000892B8A2B8B2B09F061E083E393E10E9462
:1019B0003C0809851A85209779F483ED9AE09F9376
:1019C0008F930E94790B0F900F901A870987DF91F0
:1019D000CF911F910F9108951C821D821E821F823C
:1019E0001886F3CF1F920F920FB60F9211242F93E8
:1019F0003F938F939F93AF93BF9380913A129091AF
:101A00003B12A0913C12B0913D123091E51123E0C0
:101A1000230F2D3758F50196A11DB11D2093E51117
:101A200080933A1290933B12A0933C12B0933D12D4
:101A30008091E6119091E711A091E811B091E91120
:101A40000196A11DB11D8093E6119093E711A0931B
:101A5000E811B093E911BF91AF919F918F913F91A0
:101A60002F910F900FBE0F901F90189526E8230F0F
:101A70000296A11DB11DD2CF1F920F920FB60F92E9
:101A800011240BB60F922F933F934F935F936F9355
:101A90007F938F939F93AF93BF93EF93FF93E091C7
:101AA0001002F09111021995FF91EF91BF91AF9142
:101AB0009F918F917F916F915F914F913F912F9166
:101AC0000F900BBE0F900FBE0F901F9018951F9296
:101AD0000F920FB60F9211240BB60F922F933F93D4
:101AE0004F935F936F937F938F939F93AF93BF9326
:101AF000EF93FF93E0910E02F0910F021995FF9181
:101B0000EF91BF91AF919F918F917F916F915F9175
:101B10004F913F912F910F900BBE0F900FBE0F90E2
:101B20001F9018951F920F920FB60F9211240BB6AB
:101B30000F922F933F934F935F936F937F938F9366
:101B40009F93AF93BF93EF93FF93E0910402F091C3
:101B500005021995FF91EF91BF91AF919F918F91E0
:101B60007F916F915F914F913F912F910F900BBE9D
:101B70000F900FBE0F901F9018951F920F920FB6E7
:101B80000F9211240BB60F922F933F934F935F93B5
:101B90006F937F938F939F93AF93BF93EF93FF9335
:101BA000E0910202F09103021995FF91EF91BF912C
:101BB000AF919F918F917F916F915F914F913F91E5
:101BC0002F910F900BBE0F900FBE0F901F90189586
:101BD0001F920F920FB60F9211240BB60F922F93F4
:101BE0003F934F935F936F937F938F939F93AF93A5
:101BF000BF93EF93FF93E0910C02F0910D021995C2
:101C0000FF91EF91BF91AF919F918F917F916F91D4
:101C10005F914F913F912F910F900BBE0F900FBE90
:101C20000F901F9018951F920F920FB60F921124CC
:101C30000BB60F922F933F934F935F936F937F93C6
:101C40008F939F93AF93BF93EF93FF93E0910A021B
:101C5000F0910B021995FF91EF91BF91AF919F9178
:101C60008F917F916F915F914F913F912F910F9045
:101C70000BBE0F900FBE0F901F9018951F920F92E2
:101C80000FB60F9211240BB60F922F933F934F93E1
:101C90005F936F937F938F939F93AF93BF93EF93D4
:101CA000FF93E0910802F09109021995FF91EF91DD
:101CB000BF91AF919F918F917F916F915F914F9164
:101CC0003F912F910F900BBE0F900FBE0F901F9062
:101CD00018951F920F920FB60F9211240BB60F9208
:101CE0002F933F934F935F936F937F938F939F9324
:101CF000AF93BF93EF93FF93E0910602F091070239
:101D00001995FF91EF91BF91AF919F918F917F9125
:101D10006F915F914F913F912F910F900BBE0F905C
:101D20000FBE0F901F9018951F920F920FB60F9233
:101D300011240BB60F922F933F934F935F936F93A2
:101D40007F938F939F93AF93BF93EF93FF938EE314
:101D500092E10E94E404FF91EF91BF91AF919F91B6
:101D60008F917F916F915F914F913F912F910F9044
:101D70000BBE0F900FBE0F901F9018951F920F92E1
:101D80000FB60F9211240BB60F922F938F939F9340
:101D9000EF93FF93E0914E12F0914F128081E0910A
:101DA0005412F091551282FD1DC0908180915712FE
:101DB0008F5F8F7320915812821741F0E091571274
:101DC000F0E0E25CFD4E958F80935712FF91EF910A
:101DD0009F918F912F910F900BBE0F900FBE0F9080
:101DE0001F9018958081F2CF1F920F920FB60F921D
:101DF00011240BB60F922F933F934F935F936F93E2
:101E00007F938F939F93AF93BF93EF93FF938091B3
:101E1000B900887F803609F44DC008F040C0883290
:101E200009F4A9C028F5803109F49DC0C8F48823BD
:101E300009F4FBC0883009F496C0FF91EF91BF917F
:101E4000AF919F918F917F916F915F914F913F9152
:101E50002F910F900BBE0F900FBE0F901F901895F3
:101E6000883109F488C0803241F780930E1214C083
:101E7000803409F49DC040F48033B9F38833E9F627
:101E800080930E1285ECB0C0803509F485C088358A
:101E900009F496C0883489F60E94410BCECF883968
:101EA00009F48CC038F5883729F050F4883611F0E1
:101EB000803719F683E08093101210929B0D57C063
:101EC000883809F47BC0803919F0803809F0B5CF23
:101ED00080919B0D803208F071C0E0919B0D81E0F4
:101EE0008E0F80939B0D8091BB00F0E0E558F24F80
:101EF00080833DC0803B39F0E0F4803A09F479C03A
:101F0000883A09F09ACF84E08093101210927A0DEB
:101F10001092790DE0919E0DF0919F0D1995809191
:101F2000790D81110FC081E08093790D1092590DC8
:101F300009C0803C09F4A6CF883C09F4A3CF883BB4
:101F400009F07BCFE0917A0D81E08E0F80937A0DBE
:101F5000F0E0E75AF24F80818093BB0090917A0DB8
:101F60008091790D29C08091EB118093BB0085ECA5
:101F70008093BC0062CF90910D1280910C12981743
:101F800058F5E0910D1281E08E0F80930D12F0E074
:101F9000E451FE4E8081E9CFE0910D1281E08E0F79
:101FA00080930D128091BB00F0E0E451FE4E8083DF
:101FB00090910D1280910C129817C8F285E8D8CF35
:101FC000E0910D1281E08E0F80930D128091BB0085
:101FD000F0E0E451FE4E808380910F1281115CCFBE
:101FE00081E08093EA1184EA8093BC001092101281
:101FF00024CF85EC8093BC001092101280919B0D31
:10200000803230F4E0919B0DF0E0E558F24F108201
:1020100060919B0D70E0E0919C0DF0919D0D8BE720
:102020009DE0199510929B0D08CF10920E1234CF9F
:102030001F920F920FB60F9211240BB60F922F938F
:102040003F934F935F936F937F938F939F93AF9340
:10205000BF93EF93FF93E0910002F0910102199575
:10206000FF91EF91BF91AF919F918F917F916F9170
:102070005F914F913F912F910F900BBE0F900FBE2C
:102080000F901F9018957F928F929F92AF92BF9260
:10209000CF92DF92EF92FF920F931F93CF93DF9334
:1020A000EEE3F2E11382128288EE93E0A0E0B0E06A
:1020B00084839583A683B78321E63AE03183208326
:1020C00025EC30E03587248724EC30E037872687FD
:1020D00020EC30E0318B208B21EC30E0338B228BF5
:1020E00022EC30E0358B248B26EC30E0378B268BCE
:1020F000118E128E138E148EEBEDF2E1138212828A
:1021000084839583A683B78383E79AE09183808352
:1021100081E48093E81282E48093E7128EE3782EC4
:102120007F929CE4892E8F922CEC922E9F92DDEC74
:10213000DF93A12CB12C6501E12CF12C00E810E417
:102140002AEE32E14EEE52E162EF72E186EF92E169
:102150000E94A808C3E4C093E912C09332137F928F
:102160008F929F92DF932CE733E140E853E164E8DC
:1021700073E188E893E10E94A8087F928F929F9272
:10218000DF9324E333E148E353E16CE373E180E45C
:1021900093E10E94A808C09333138DB79EB70C96A5
:1021A0000FB6F8949EBF0FBE8DBFDF91CF911F91E8
:1021B0000F91FF90EF90DF90CF90BF90AF909F90E6
:1021C0008F907F900895CF93DF93CDB7DEB7CE5534
:1021D000D8400FB6F894DEBF0FBECDBF789484B55B
:1021E000826084BD84B5816084BD85B5826085BD13
:1021F00085B5816085BD80916E00816080936E00A1
:102200001092810080918100826080938100809192
:102210008100816080938100809180008160809343
:1022200080008091B10084608093B1008091B00003
:1022300081608093B00080919100826080939100D2
:1022400080919100816080939100809190008160E5
:10225000809390008091A10082608093A100809182
:10226000A10081608093A1008091A0008160809393
:10227000A000809121018260809321018091210141
:1022800081608093210180912001816080932001F1
:1022900080917A00846080937A0080917A008260D5
:1022A00080937A0080917A00816080937A00809197
:1022B0007A00806880937A001092C100E0914E12FB
:1022C000F0914F1282E08083E0914A12F0914B121C
:1022D0001082E0914C12F0914D1290E19083109297
:1022E0005612E0915212F091531286E08083E091F1
:1022F0005012F0915112808180618083E0915012E0
:10230000F0915112808188608083E0915012F091A9
:102310005112808180688083E0915012F0915112B7
:1023200080818F7D80831092C50D1092C60D109212
:10233000C70D1092C80D1092C40D1092C30DE5EC9C
:10234000FEE020E233E0DF01A9011D924150504040
:10235000E1F7909381001092800081E08093C20D9C
:1023600020E43FE1309387002093860091E1909331
:10237000810021E434E03093010220930002809335
:102380006F0010928100109285001092840090914D
:10239000C20D9061909381008093C90DA1EFB9E0C7
:1023A000EBEDFDE040E050E0BA01408351836283F1
:1023B0007383148215821682178210868D919D91E7
:1023C000928781874F5F5F4F6F4F7F4F3B964231C0
:1023D00051056105710549F788EE92E10E94840874
:1023E00087EE92E10E94840860E084E10E948A0204
:1023F00060E085E10E948A0218E41093B80088EE3C
:1024000092E10E94840887EE92E10E94840860E0D5
:1024100084E10E948A0260E085E10E948A021093B2
:10242000B80040E050E068EC72E488EE92E10E946F
:102430001E0A40E050E068EC72E487EE92E10E94F0
:102440001E0A1092A10E1092A20E1092A30E1092CC
:10245000A40E1092A50E1092A60E1092A70E109226
:10246000A80E1092A90E81E090E0A0E0B0E0809369
:10247000AC0E9093AD0EA093AE0EB093AF0E109233
:10248000B00E1092B10E1092B20E1092B30E1092C6
:10249000B40E8EE190E09093AB0E8093AA0E9093D1
:1024A000B60E8093B50E1092D10D1092D00D1092F1
:1024B000CF0D1092CE0D1092CD0D1092CC0D10922A
:1024C000CB0D1092CA0D10928413109285131092A6
:1024D00086131092871310923C1310923D131092A2
:1024E0003E1310923F1310927C1310927D131092A2
:1024F0007E1310927F1310923413109235131092A2
:1025000036131092371361E080E00E948A0261E086
:1025100086E00E948A0261E081E00E948A0261E016
:1025200087E00E948A0260E082E00E948A0260E006
:1025300086E10E948A0260E083E00E948A0260E0F5
:1025400087E10E948A0287E793E0909303028093D9
:10255000020280916A008C7F816080936A00EC9A0D
:102560008CED93E0909305028093040280916A00C1
:10257000837F846080936A00ED9A8091C2138111F9
:1025800004C088E893E10E94120681E08093C213A0
:1025900088E893E10E948E0180E090E0AFE7B3EC21
:1025A0008093BA139093BB13A093BC13B093BD1345
:1025B00080E090E0AFE7B3E48093BE139093BF1345
:1025C000A093C013B093C1138091C213882361F00C
:1025D00000E010E02FE733E440E050E06FE773ECF9
:1025E00088E893E10E94A40580917A13811104C0C8
:1025F00080E493E10E94120681E080937A1380E4E4
:1026000093E10E948E0180E090E0AFE7B3EC80930D
:10261000721390937313A0937413B093751380E0A7
:1026200090E0AFE7B3E48093761390937713A09391
:102630007813B093791380917A13882361F000E0C6
:1026400010E02FE733E440E050E06FE773EC80E404
:1026500093E10E94A40583E393E10E94840860E073
:1026600084E10E948A0260E085E10E948A0210E211
:102670001093B80040E050E06AE774E483E393E12C
:102680000E941E0A50E040E060E083E393E10E9474
:102690003C0861E086E00E945C0261E087E00E9405
:1026A0005C021092BE0E1092BF0E1092C00E1092DD
:1026B000C10E1092C20E1092C40E1092C30E61E0B1
:1026C00083E00E948A0261E089E00E948A0282E33C
:1026D00093E10E94840860E084E10E948A0260E045
:1026E00085E10E948A021093B80040E050E06AE75A
:1026F00074E482E393E10E941E0A50E040E060E04F
:1027000082E393E10E943C0861E089E00E945C0260
:102710001092B70E1092B80E1092B90E1092BA0E17
:102720001092BB0E1092BD0E1092BC0E1092D50DE1
:102730001092D40D1092D30D1092D20D1092F2126D
:102740001092F3121092F4121092F5121092EA12F3
:102750001092EB121092EC121092ED1261E082E0F6
:102760000E948A0261E088E00E948A0260E082E1C1
:102770000E948A0260E088E10E948A0282E193E07E
:1027800090930D0280930C02809169008F73806496
:1027900080936900EB9A80913013811104C086EF19
:1027A00092E10E94120681E08093301386EF92E15D
:1027B0000E948E0180E090EFAFE7B5EC8093281384
:1027C00090932913A0932A13B0932B1380E090EFDA
:1027D000AFE7B5E480932C1390932D13A0932E13A1
:1027E000B0932F1380913013882361F000E010EF35
:1027F0002FE735E440E050EF6FE775EC86EF92E1AC
:102800000E94A40589EE92E10E94840860E084E1C0
:102810000E948A0260E085E10E948A0280E2809341
:10282000B80040E050E06AE774E489EE92E10E946B
:102830001E0A50E040E060E089EE92E10E943C0810
:1028400061E088E00E945C021FB7F8948091D60D89
:10285000811127C0E7E1F2E08491EDE5F2E0949187
:10286000E82FF0E0EE0FFF1FEC56FE4FA591B4915C
:10287000EC919E2321F461E085E30E945C0261E01B
:1028800085E30E948A028CB580618CBD8CB5806422
:102890008CBD61E084E30E948A0261E083E30E94D0
:1028A0008A028091D60D8F5F8093D60D1FBF61E0A5
:1028B00085E30E945C028CEE9AE00E94CB0961E005
:1028C00070E080E090E00E94E0024E0159E1851A3C
:1028D00058EF950A84E2D4011D928A95E9F7C15C0C
:1028E000D74F19821882CF53D840CF5BD74F198268
:1028F0001882C154D8407E01B1E6EB1AB8EFFB0A4A
:1029000082E1F70111928A95E9F7D701EBEDFDE03D
:1029100080858D933B962EE0E13AF207C9F78091CE
:10292000C20E882351F105EC1EE0F80180819181EF
:10293000A281B3810097A105B105B1F04481558111
:1029400066817781481759076A077B0768F0028418
:10295000F385E02DD80118968D919C911995F80179
:102960001482158216821782005F1F4FF1E1053E27
:102970001F07D9F60E947305ADCF8091BB0E811160
:10298000D2CF8091A90E8111CECF8091B40E81114A
:10299000CACFD7018C918111C6CF11968C91119716
:1029A0008111C1CF12968C9112978111BCCF1396D1
:1029B0008C9113978111B7CF14968C911497811134
:1029C000B2CF15968C9115978111ADCF16968C913B
:1029D00016978111A8CF17968C9117978111A3CFC5
:1029E00018968C91189781119ECF19968C911997F2
:1029F000811199CF1A968C911A97811194CF1B96B9
:102A00008C911B9781118FCF1C968C911C978111F3
:102A10008ACF1D968C911D97811185CF1E968C9122
:102A20001E97811180CF1F968C911F9781117BCFAC
:102A300050968C915097811176CF5196DC90D110A1
:102A400072CF89EF9AE00E94CB0964E670E080E0E3
:102A500090E00E94E00287E2E2E1F2E0D70101901B
:102A60000D928A95E1F783E19BE00E94CB0980916A
:102A7000D90D9091DA0D0E94B9098BE29BE00E947A
:102A8000CB098091D70D9091D80D0E94B909809102
:102A9000D90D9091DA0D8732910580F087E290E0B0
:102AA0009093DA0D8093D90D80E49BE00E94CB09CE
:102AB00082E00E940B0A32E0D32E01C10091D70DB3
:102AC0001091D80DE80EF91EF7018081833009F4CA
:102AD0008FC108F003C1813009F426C1823009F4A6
:102AE00047C18091D70D9091D80D01969093D80D44
:102AF0008093D70D80E49BE00E94CB0980E00E9488
:102B00000B0ACB5DD74F5881C552D840CF5AD74F0B
:102B10005883C155D840CA5DD74F8881C652D84026
:102B2000C45BD74F8883CC54D840C95DD74F9881B8
:102B3000C752D840C25AD74F9883CE55D840C85DA7
:102B4000D74FA881C852D840CC5AD74FA883C45574
:102B5000D840C75DD74FB881C952D840C05BD74F66
:102B6000B883C055D840C65DD74FE881CA52D84017
:102B7000C25BD74FE883CE54D840C55DD74FF881AC
:102B8000CB52D840C65BD74FF883CA54D840C45DF7
:102B9000D74F2881CC52D840C35AD74F2883CD5520
:102BA000D840C35DD74F3881CD52D840CD5AD74F8A
:102BB0003883C355D840C25DD74F4881CE52D840E4
:102BC000C15BD74F4883CF54D840C15DD74F5881A0
:102BD000CF52D840C35BD74F5883CD54D840C05D47
:102BE000D74F8881C053D840CB5AD74F8883C5551B
:102BF000D840CF5CD74F9881C153D840CE5AD74FD9
:102C00009883C255D840CE5CD74FA881C253D840D4
:102C1000C95AD74FA883C755D840CD5CD74FB88184
:102C2000C353D840CA5AD74FB883C655D840CC5C96
:102C3000D74FE881C453D840C45AD74FE883CC5506
:102C4000D840CB5CD74FF881C553D840C55BD74F30
:102C5000F883CB54D840CA5CD74F2881C653D8409C
:102C6000C75BD74F2883C954D840C95CD74F488128
:102C70005981C753D840C85AD74F59834883C8553C
:102C8000D840C75CD74F88819981C953D840C65A6C
:102C9000D74F99838883CA55D840C55CD74F2880C1
:102CA0003980CB53D840C35CD74FA881B981CD536D
:102CB000D840C95BD74FB983A883C754D84082E6B0
:102CC0009CE00E94CB098D2D0E940B0AB2E0DB1222
:102CD000F1C087E79CE00E94CB0925CE853009F43E
:102CE000CCC008F4AFC0863009F0FBCE8CE9E9E334
:102CF000F2E0DE01A959B94F01900D928A95E1F7F2
:102D00008CE49CE00E94CB09C8010E94B9090630FE
:102D1000110508F0AAC08AE1809FF001819FF00DA3
:102D2000112447E656E05FC082E292E0E5EDF2E072
:102D3000DE01AB5BBB4F01900D920197E1F780E59F
:102D40009BE00E94CB09C8010E94B9098BE69BE079
:102D50000531110520F58AE1809FF001819FF00D7A
:102D6000112425E434E02C0F3D1FE20FF31F62C055
:102D700082E292E0E7EFF4E0DE01AD5DBD4F01904D
:102D80000D920197E1F784E99BE00E94CB09C8010D
:102D90000E94B90905311105F0F08CEA9BE09F9380
:102DA0008F930E94790B0F900F901092D80D109274
:102DB000D70D8091D90D9091DA0D01969093DA0D8F
:102DC0008093D90D8AE39DE09F938F930E94790BA6
:102DD0000F900F9070CE8AE1809FF001819FF00DDF
:102DE000112443E252E04C0F5D1FE40FF51F22C097
:102DF00082E292E0E9E1F7E0DE01119601900D92A6
:102E00000197E1F782ED9BE00E94CB09C8010E9487
:102E1000B9098AEE9BE00531110508F68AE1809F29
:102E2000F001819FF00D1124A1E0B0E0AC0FBD1FB7
:102E3000EA0FFB1FDE01AB5DB74F01900D928A9543
:102E4000E1F74FCE8AE1EBE3F9E0DE01A55FB74F92
:102E500001900D928A95E1F780E19CE00E94CB09F8
:102E6000C8010E94B909012B19F087E29CE097CFB5
:102E70008AE1FE01E55FF74FDDCF8CE9E5E5F9E09A
:102E8000DE01AD5FB84F01900D928A95E1F78CE4B9
:102E90009CE00E94CB09C8010E94B90906301105C7
:102EA00020F78AE1809FF001819FF00D112423E03B
:102EB00037E059CF82E99CE00E94CB09CF5AD74F27
:102EC000E881C155D8408E2F90E0D4018D939C931A
:102ED000C45BD74FB881CC54D8408B2F90E0F4011D
:102EE00093838283C25AD74FF881CE55D8408F2F13
:102EF00090E0D40115969C938E931497CC5AD74F9B
:102F0000B881C455D8408B2F90E0F4019783868315
:102F1000C05BD74FF881C055D8408F2F90E0D401C7
:102F200019969C938E931897C25BD74FB881CE5455
:102F3000D8408B2F90E0F40193878287C65BD74FF0
:102F4000F881CA54D8408F2F90E0D4011D969C93ED
:102F50008E931C97C35AD74FB881CD55D8408B2F2D
:102F600090E0F40197878687CD5AD74FF881C355F3
:102F7000D8408F2F90E0D40151969C938E93509718
:102F8000C15BD74FB881CF54D8408B2F90E0F4016C
:102F9000938B828BC35BD74FF881CD54D8408F2F52
:102FA00090E0D40155969C938E935497CB5AD74F6B
:102FB000B881C555D8408B2F90E0F401978B868B54
:102FC000CE5AD74FF881C255D8408F2F90E0D40108
:102FD00059969C938E935897C95AD74FB881C75525
:102FE000D8408B2F90E0F401938F828FCA5AD74F2D
:102FF000F881C655D8408F2F90E0D4015D969C9300
:103000008E935C97C45AD74FB881CC55D8408B2F3C
:1030100090E0F401978F868FC55BD74FF881CB5432
:10302000D8408F2F90E0D40191969C938E939097E7
:10303000C75BD74FB881C954D8408B2F90E0F401BB
:1030400093A382A3C85AD74F28813981C855D84045
:10305000C15CD74F39832883CF53D840C65AD74F46
:1030600048815981CA55D840CF5BD74F598348838F
:10307000C154D840CE018156984FCB5BD74F99832E
:103080008883C554D8407401A5E1BAE0CD5BD74F21
:10309000B983A883C354D84029E3A22E2AE0B22ED4
:1030A0006C010BED1DE0412C512C3201F8018085A3
:1030B000833091F584EA9CE00E94CB0923E030E064
:1030C00040E050E0D6012D933D934D935C931397D0
:1030D0004FEF441A540A640A740A055F1F4F54E004
:1030E000C50ED11C82E0E80EF11CCD5BD74FA88144
:1030F000B981C354D8401296CD5BD74FB983A8830A
:10310000C354D840B2E0AB0EB11CE2E14E165104FC
:103110006104710459F657C0F70120813181D5014E
:103120008D919C912817390778F0CD5BD74FE881B6
:10313000F981C354D840808191818217930748F464
:103140002F3FFFEE3F0729F02EEF3FEF4FEF5FEFEE
:10315000B9CFF80181859285821B930B97FF03C03D
:10316000919581959109F6E0F89FB001F99F700D56
:1031700011246115710511F461E070E0072E000C57
:10318000880B990B2CE33CE0A8010E94B30B9B0138
:10319000AC012D5F3F4F4F4F5F4F2230310541054E
:1031A000510508F059C09F938F937F936F9381EBE4
:1031B0009CE09F938F930E94790B0F900F900F903C
:1031C0000F900F900F9081ED9CE09F938F930E9442
:1031D000790B01EA1EE05E01F1ECAF1AF7EFBF0ACE
:1031E0000F900F90412C512C3201D80118968C91E0
:1031F000833009F07BC023E030E040E050E0CB5B5F
:10320000D74FA881B981C554D8402D933D934D9394
:103210005C93139789ED9CE00E94CB09055F1F4FDB
:10322000CB5BD74F48815981C554D8404C5F5F4F25
:10323000CB5BD74F59834883C554D84052E0A50E85
:10324000B11C4A9445284628472809F4C5C0412C9A
:10325000512C32014394C9CFE3E0D8011896EC9386
:10326000189714966D937D938D939C931797F70100
:10327000A081B181F801B287A18720ED37E00E94DB
:10328000361EF1E04F1651046104710431F027E05D
:10329000421651046104710421F52EE031E040E052
:1032A00050E00E94481BD901AC50BE4F2FEF3FE0C9
:1032B0000E94361E20E137E240E050E00E94481BA9
:1032C000A901642D88EE92E139E0431651046104AE
:1032D000710424F067EF640D87EE92E10E943C08D0
:1032E000F7CE24EB30E040E050E0DBCFF501808109
:1032F00091818F35F1E09F07A8F08F3F2FEE920765
:1033000089F08EEF9FEFAFEFBFEFCB5BD74FE88138
:10331000F981C554D84080839183A283B3838CEE16
:103320009CE07ACFD8011996ED90FC90E81AF90A42
:103330008FEF9CE00E94CB09C7010E94D9098CE065
:103340009DE00E94CB09F7FE01C1F194E194F108E0
:10335000B1E0CD5BD74FB883C354D840EAE0EE9DCF
:103360006001EF9DD00C1124C114D10419F4CC24B8
:10337000C394D12C87E19DE00E94CB09C6010E9435
:10338000D9098CE09DE00E94CB09B601DD0C880BC9
:10339000990B2EEB3CE0A8010E94B30B6B017C0162
:1033A000F3E0CF0ED11CE11CF11C22E0C216D104C7
:1033B000E104F10408F0D0C09F938F937F936F9343
:1033C00081EB9CE09F938F930E94790B0F900F905D
:1033D0000F900F900F900F908091BB0E833061F48F
:1033E00023E030E040E050E0C156D84F28833983D5
:1033F0004A835B83CF59D74033E32316310488F0E7
:103400004FEF24164FEE340661F08EEF9FEFAFEFD3
:10341000BFEFC156D84F88839983AA83BB83CF5906
:10342000D7408091BC0E9091BD0E8219930910E097
:1034300097FF04C091958195910911E02DE0289F97
:10344000B001299F700D112411110EC0072E000C20
:10345000880B990B0E94B41C2AE939E949E95FE31A
:103460000E94C11D0E947C1C6115710511F461E070
:1034700070E0072E000C880B990B28E63CE047EB28
:103480005EE00E94B30B6B017C01A3E0CA0ED11C6D
:10349000E11CF11CB2E0CB16D104E104F10408F008
:1034A000AEC09F938F937F936F9381EB9CE09F932C
:1034B0008F930E94790B0F900F900F900F900F90A9
:1034C0000F908091C20E833009F42DCAC95BD74F8B
:1034D000E881F981C754D840E230F10508F023CAE9
:1034E0008091C30E9091C40EE817F90709F41BCA26
:1034F00011E08E179F070CF012E023E93CE04EEB41
:103500005EE060EF7AE080E090E00E94B30B6B0138
:103510007C01F3E0CF0ED11CE11CF11C22E0C216AD
:10352000D104E104F10408F088C09F938F937F9346
:103530006F9381EB9CE09F938F930E94790B0F9088
:103540000F900F900F900F900F90EDC9CD5BD74F5C
:103550001882C354D84002CFE3E0D8011896EC9308
:10356000189714966D937D938D939C931797F501FF
:10357000808191811A969C938E931997F1E04F1652
:1035800051046104710459F1CD5BD74F2881C354B4
:10359000D84084E29DE02223B1F00E94CB0981E073
:1035A00090E00E94D9098CE09DE00E94CB0960E088
:1035B00086E00E945C024FEF5FE060E083E393E10E
:1035C0000E943C082BCE0E94CB0990E080E00E9434
:1035D000D9098CE09DE00E94CB0961E0E9CFCD5B89
:1035E000D74F3881C354D84060E0311101C061E049
:1035F00087E00E945C024FEF5FE061E0DFCF23E0F5
:103600002093BB0E6093B70E7093B80E8093B90EE3
:103610009093BA0E3092BD0E2092BC0E60E0111154
:1036200001C061E088E00E945C024FEF5FE062E071
:1036300089EE92E10E943C0844CF23E02093C20E21
:103640006093BE0E7093BF0E8093C00E9093C10E18
:10365000C95BD74F48815981C754D8405093C40E95
:103660004093C30E81E39DE00E94CB09812F0E940D
:103670000B0A61E0113009F060E089E00E945C0211
:103680004FEF5FE063E082E393E10E943C084BC9A7
:10369000052E97FB1EF400940E945F1B57FD07D078
:1036A0000E94671B07FC03D04EF40C945F1B5095DF
:1036B0004095309521953F4F4F4F5F4F089590951E
:1036C0008095709561957F4F8F4F9F4F0895A1E230
:1036D0001A2EAA1BBB1BFD010DC0AA1FBB1FEE1F8C
:1036E000FF1FA217B307E407F50720F0A21BB30BD7
:1036F000E40BF50B661F771F881F991F1A9469F753
:1037000060957095809590959B01AC01BD01CF01AE
:103710000895A29FB001B39FC001A39F700D811DAA
:103720001124911DB29F700D811D1124911D0895CA
:103730005058BB27AA270E94B01B0C946A1D0E94F8
:103740005C1D38F00E94631D20F039F49F3F19F48E
:1037500026F40C94591D0EF4E095E7FB0C942A1DF9
:10376000E92F0E947B1D58F3BA176207730784077D
:10377000950720F079F4A6F50C94B51D0EF4E095AC
:103780000B2EBA2FA02D0B01B90190010C01CA011B
:10379000A0011124FF27591B99F0593F50F4503EC6
:1037A00068F11A16F040A22F232F342F4427585FB8
:1037B000F3CF469537952795A795F0405395C9F7D0
:1037C0007EF41F16BA0B620B730B840BBAF0915088
:1037D000A1F0FF0FBB1F661F771F881FC2F70EC027
:1037E000BA0F621F731F841F48F4879577956795FA
:1037F000B795F7959E3F08F0B0CF9395880F08F0E6
:103800009927EE0F9795879508950E94061D08F455
:1038100081E008950E941E1C0C946A1D0E94631D85
:1038200058F00E945C1D40F029F45F3F29F00C9491
:103830002A1D51110C94B61D0C94591D0E947B1D1C
:1038400068F39923B1F3552391F3951B550BBB27CF
:10385000AA2762177307840738F09F5F5F4F220F14
:10386000331F441FAA1FA9F335D00E2E3AF0E0E80B
:1038700032D091505040E695001CCAF72BD0FE2F55
:1038800029D0660F771F881FBB1F261737074807E9
:10389000AB07B0E809F0BB0B802DBF01FF279358A1
:1038A0005F4F3AF09E3F510578F00C942A1D0C941E
:1038B000B61D5F3FE4F3983ED4F386957795679500
:1038C000B795F7959F5FC9F7880F911D96958795D6
:1038D00097F90895E1E0660F771F881FBB1F6217F5
:1038E00073078407BA0720F0621B730B840BBA0BB3
:1038F000EE1F88F7E09508950E94831C6894B1112B
:103900000C94B61D08950E94831D88F09F5798F06F
:10391000B92F9927B751B0F0E1F0660F771F881FD4
:10392000991F1AF0BA95C9F714C0B13091F00E94EE
:10393000B51DB1E008950C94B51D672F782F882729
:10394000B85F39F0B93FCCF3869577956795B39515
:10395000D9F73EF490958095709561957F4F8F4F84
:103960009F4F0895E89409C097FB3EF49095809589
:10397000709561957F4F8F4F9F4F9923A9F0F92F35
:1039800096E9BB279395F695879577956795B795B3
:10399000F111F8CFFAF4BB0F11F460FF1BC06F5F99
:1039A0007F4F8F4F9F4F16C0882311F096E911C0AB
:1039B000772321F09EE8872F762F05C0662371F0CC
:1039C00096E8862F70E060E02AF09A95660F771FE0
:1039D000881FDAF7880F9695879597F908950E94C2
:1039E0009D1D90F09F3748F4911116F00C94B61D70
:1039F00060E070E080E89FEB089526F41B16611DDF
:103A0000711D811D0C94301D0C944B1D990F0008E5
:103A1000550FAA0BE0E8FEEF16161706E807F907A0
:103A2000C0F012161306E407F50798F0621B730B3B
:103A3000840B950B39F40A2661F0232B242B252BBC
:103A400021F408950A2609F4A140A6958FEF811D5F
:103A5000811D089597F99F6780E870E060E0089500
:103A6000882371F4772321F09850872B762F07C095
:103A7000662311F499270DC09051862B70E060E009
:103A80002AF09A95660F771F881FDAF7880F9695A8
:103A9000879597F908959F3F31F0915020F48795CD
:103AA00077956795B795880F911D9695879597F9A6
:103AB00008959FEF80EC089500240A9416161706C7
:103AC00018060906089500240A941216130614060F
:103AD00005060895092E0394000C11F4882352F072
:103AE000BB0F40F4BF2B11F460FF04C06F5F7F4F2A
:103AF0008F4F9F4F089557FD9058440F551F59F011
:103B00005F3F71F04795880F97FB991F61F09F3FCA
:103B100079F087950895121613061406551FF2CFF3
:103B20004695F1DF08C0161617061806991FF1CF43
:103B3000869571056105089408950E94831DA0F083
:103B4000BEE7B91788F4BB279F3860F41616B11D7D
:103B5000672F782F8827985FF7CF86957795679599
:103B6000B11D93959639C8F30895E894BB2766274D
:103B70007727CB0197F908950E94061D08F48FEF6F
:103B800008950E94D41D0C946A1D0E945C1D38F09B
:103B90000E94631D20F0952311F00C942A1D0C94B3
:103BA000591D11240C94B61D0E947B1D70F3959F26
:103BB000C1F3950F50E0551F629FF001729FBB2724
:103BC000F00DB11D639FAA27F00DB11DAA1F649FC0
:103BD0006627B00DA11D661F829F2227B00DA11D73
:103BE000621F739FB00DA11D621F839FA00D611DF9
:103BF000221F749F3327A00D611D231F849F600D1A
:103C0000211D822F762F6A2F11249F5750409AF042
:103C1000F1F088234AF0EE0FFF1FBB1F661F771FCE
:103C2000881F91505040A9F79E3F510580F00C9499
:103C30002A1D0C94B61D5F3FE4F3983ED4F386959D
:103C400077956795B795F795E7959F5FC1F7FE2B39
:103C5000880F911D9695879597F90895EE0FFF1F90
:103C6000881F8BBF0790F691E02D19940E94891B45
:103C7000B7FF0895821B930B08950F931F93CF9363
:103C8000DF93CDB7DEB72E970FB6F894DEBF0FBE29
:103C9000CDBF8C0186E08C831A8309838FEF9FE769
:103CA0009E838D83CE0101960E94671E2F813885E9
:103CB000020F131FF80110822E960FB6F894DEBF84
:103CC0000FBECDBFDF91CF911F910F9108952F921D
:103CD0003F924F925F926F927F928F929F92AF929C
:103CE000BF92CF92DF92EF92FF920F931F93CF93E9
:103CF000DF9300D000D000D01F921F92CDB7DEB767
:103D00007C013B018A01FC0117821682838181FFBD
:103D1000DDC1CE0101965C01F7019381F30193FDB2
:103D2000859193FF81913F01882309F453C1853226
:103D300039F493FD859193FF81913F01853229F4F8
:103D4000B70190E00E947F20E7CF912C212C312CED
:103D5000FFE1F31538F08B3211F190F4803209F164
:103D6000833229F137FC3CC020ED280F2A3050F572
:103D700036FE20C08AE0989E200D1124922E06C0A7
:103D80008D3291F0803371F7689430F8F30193FD30
:103D9000859193FF81913F018111DACF21C0689411
:103DA00031F8689432F8F2CF689433F8EFCF689422
:103DB00034F8ECCFEAE02E9E200D1124222E6894D8
:103DC00035F8E4CF8E3229F436FC04C1689436F815
:103DD000DDCF8C3619F4689437F8D8CF8836B1F235
:103DE000982F9F7D95549330E0F08336A1F183376F
:103DF000C1F1833509F063C02801F2E04F0E511C78
:103E0000F801C080D180692D70E036FC02C06FEFF0
:103E10007FEFC6010E9469204C01689437F8820147
:103E20000AC00C5F1F4FFFE3F98388248394912C11
:103E30006501E89437F833FE2DC0522C81149104AB
:103E400071F5552009F468CFB70180E290E00E9437
:103E50007F205A94F6CFF801808189830E5F1F4F2F
:103E6000E4CF2801F2E04F0E511CF801C080D18050
:103E7000692D70E036FC02C06FEF7FEFC6010E9433
:103E800074204C018201D5CFB70180E290E00E94FE
:103E90007F202A942814190409F0B0F7CECFF60138
:103EA00037FC859137FE81916F01B70190E00E9448
:103EB0007F2051105A94F1E08F1A9108BFCF8436B9
:103EC00019F0893609F077C0F80137FE6BC06081C0
:103ED0007181828193810C5F1F4FF32DFF763F2EFE
:103EE00097FF09C090958095709561957F4F8F4F92
:103EF0009F4F689437F82AE030E0A5010E94AF2078
:103F0000C82ECA188C2C432C36FE0CC0E89440F8FE
:103F1000C91440F434FE05C032FC03C0F32DFE7E0C
:103F20004F2E892C44FEAAC0FE01EC0DF11D8081AC
:103F3000803309F09CC0242D297E422E842D887068
:103F4000582E43FCAAC040FEA4C09C2C821418F436
:103F50002C0C922C981844FEA6C0B70180E390E088
:103F60000E947F2042FE09C088E790E041FE02C027
:103F700088E590E0B7010E947F20C91408F49FC033
:103F8000CA94D12C9FEFC91AD90ACA0CDB1CF601BE
:103F900082916F01B70190E00E947F20AC14BD04B4
:103FA000B1F74FCF60817181072E000C880B990B00
:103FB0000E5F1F4F92CFD32CE894D4F82AE030E064
:103FC0008537E1F1232D297FD22E8F36A9F1F0F428
:103FD000883551F1F701868197812B960FB6F894B9
:103FE000DEBF0FBECDBFDF91CF911F910F91FF902C
:103FF000EF90DF90CF90BF90AF909F908F907F9089
:104000006F905F904F903F902F900895803749F0C8
:10401000883701F7D4FE02C06894D2F820E130E07E
:104020000DC06894D4F8F6CF34FE03C0822F8660AA
:10403000D82E20E132E002C028E030E0F801D7FEBF
:104040000FC060817181828193810C5F1F4FA50138
:104050000E94AF20C82ECA183D2CE89437F852CFE2
:104060006081718190E080E00E5F1F4FF0CF42FCD5
:1040700002C0839463CF8394839460CF842D867829
:1040800009F45CCFF6CFB70180E290E00E947F2078
:1040900083948214C0F3512C5ECF522C5818821492
:1040A00008F459CFF8CF842D867809F466CF8BE2D7
:1040B00041FE80E247FC8DE2B70190E05CCFB701A2
:1040C00080E390E00E947F209A9457CF8FEF9FEF7C
:1040D00084CFFC010590615070400110D8F78095A5
:1040E00090958E0F9F1F0895FC01615070400190C4
:1040F0000110D8F7809590958E0F9F1F08950F930C
:104100001F93CF93DF93182F092FEB018B8181FD34
:1041100009C01FEF0FEF812F902FDF91CF911F91DB
:104120000F91089582FF14C02E813F818C819D8163
:10413000281739073CF4E881F981CF01019699836A
:10414000888310838E819F8101969F838E83E3CF26
:10415000E885F985812F1995892BA1F3DACFFA012A
:10416000AA27283051F1203181F1E8946F936E7FB6
:104170006E5F7F4F8F4F9F4FAF4FB1E03ED0B4E0A7
:104180003CD0670F781F891F9A1FA11D680F791FE8
:104190008A1F911DA11D6A0F711D811D911DA11DF9
:1041A00020D009F468943F912AE0269F1124301909
:1041B000305D3193DEF6CF010895462F4770405DA4
:1041C0004193B3E00FD0C9F7F6CF462F4F70405D53
:1041D0004A3318F0495D31FD4052419302D0A9F7AE
:1041E000EACFB4E0A6959795879577956795BA95A8
:1041F000C9F700976105710508959B01AC010A2E6E
:1042000006945795479537952795BA95C9F7620F44
:10421000731F841F951FA01D0895F894FFCFA70852
:104220006F046F046F046F046F046F046F046F04F6
:104230000401010101010503030303030303030355
:10424000030303030303030303030303030303033E
:10425000030101010101068C46788C235F8C4641E5
:104260008C233C8C235A7D23735E010E01000001D8
:10427000008C46788C235F8C46418C233C8C235ADF
:104280007D23735E010E01F40101008C46788C23BE
:104290005F8C46418C233C8C235A7D23735E010E38
:1042A00001F40100008C46788C235F8C46418C23FE
:1042B0003C8C235A7D23735E010E01000000008CAC
:1042C00046788C235F8C46418C233C8C235A7D237B
:1042D000736D000300000000008C46788C235F8C17
:1042E00046418C233C8C235A7D23736D00030000D0
:1042F0000000008C46788C235F8C46419B0A3C8CE6
:10430000235A7D23731E001E00000001008C467896
:104310008C235F8C4641780A3C8C235A7D23731E84
:10432000001E00000001008C46788C235F8C464103
:1043300078283C8C235A7D23731E001E0000000148
:10434000008C46788C0A5F8C464178283C8C235A36
:104350007D23731E001E00000001008C46788C0A2D
:104360006E8C464178283C8C235A7D23731E001E98
:1043700000000001008C46788C236E8C4641782822
:104380003C8C235A7D23731E001E00000001008C0C
:1043900046788C236E8C464178283C8C235A7D0AC3
:1043A000731E001E00000001008C46788C236E8C6A
:1043B000464178283C8C235A910A731E001E000047
:1043C0000001008C46788C236E8C464178283C8C0A
:1043D000235A912B731E001E0000000100962878BE
:1043E0008C236E8C464178283C8C235A912B731E6B
:1043F000001E00000001007328788C236E8C46415B
:1044000078283C8C235A912B731E001E000000015B
:1044100000734D788C236E8C464178283C8C235A4F
:10442000912B731E001E0000000100734D788C2339
:104430006E8C464178283C8C0A5A912B731E001EC4
:104440000000000100734D788C236E8C4641782863
:104450003C8C0A4B912B731E001E00000001007360
:104460004D788C236E8C464178283C8C234B912BC5
:10447000731E001E0000000100734D788C236E8CAB
:104480002D4178283C8C234B912B731E001E00007D
:10449000000100734D788C236E9B2D4178283C8C55
:1044A000234B912B731E001E0000000100734D78FA
:1044B0008C236E9B524178283C8C234B912B731E8E
:1044C000001E0000000100784B788C23699649415A
:1044D0007D263C8C23508C22731E001E00000001A0
:1044E000007D49788C236491484182243C8C23557B
:1044F0008721731E001E00000001008248788C2373
:104500005F8C484187233C8C235A8221731E001EF6
:1045100000000001008C46828C235F8C46418C0A8F
:104520003C8C235A7D23731E001E00000001008C6A
:1045300046828C235F8C46418C0A2D8C235A7D2326
:10454000731E001E00000001008C46828C235F8CCD
:1045500046418C282D8C235A7D23731E001E00009B
:104560000001008C46828C0A5F8C46418C282D8C81
:10457000235A7D23731E001E00000001008C46821A
:104580008C0A508C46418C282D8C235A7D23731E17
:10459000001E00000001008C46828C23508C464196
:1045A0008C282D8C235A7D23731E001E00000001D1
:1045B000008C46828C23508C2D418C282D8C235AC4
:1045C0007D23731E001E00000001008C46828C2398
:1045D000508C2D328C282D8C235A7D23731E001E67
:1045E00000000001008C46828C23508C52328C28B3
:1045F0002D8C235A7D23731E001E00000001008CA9
:1046000028828C23508C52328C282D8C235A7D2367
:10461000731E001E00000001008C28738C23508C38
:1046200052328C282D8C235A7D23731E001E0000CD
:104630000001008C4D738C23508C52328C282D8CB1
:10464000235A7D23731E001E00000001008C4D7351
:104650008C23508C52328C282D8C0A5A7D23731E49
:10466000001E00000001008C4D738C23508C5232D0
:104670008C282D8C0A4B7D23731E001E0000000128
:10468000008C4D738C23508C52328C282D8C234BF4
:104690007D23731E001E00000001008C4D738C23CF
:1046A000508C52328C282D8C234B7D0A731E001E99
:1046B00000000001008C4D738C23508C52328C28EA
:1046C0002D8C234B7D0A641E001E00000001008C0F
:1046D0004D738C23508C52328C282D8C234B7D2B88
:1046E000641E001E00000001008C4D788C23558C48
:1046F00052378C28328C23507D2B691E001E0000FF
:104700000001008C4D7D8C235A8C523C8C28378CB8
:1047100023557D2B6E1E001E00000001008C4D8273
:104720008C235F8C52418C283C8C235A7D2B731E2A
:10473000001E00000001008C46788C235F8C4641EF
:104740008C0A3C8C235A7D23731E001E000000013E
:10475000008C46788C235F8C46418C0A4B8C235A04
:104760007D23731E001E00000001008C46788C2300
:104770005F8C46418C284B8C235A7D23731E001E70
:1047800000000001008C46788C0A5F8C46418C2822
:104790004B8C235A7D23731E001E00000001008CE9
:1047A00046788C0A6E8C46418C284B8C235A7D238C
:1047B000731E001E00000001008C46788C236E8C56
:1047C00046418C284B8C235A7D23731E001E00000B
:1047D0000001008C46788C236E8C2D418C284B8CEC
:1047E000235A7D23731E001E00000001008C4678B2
:1047F0008C236E8C2D508C284B8C235A7D23731E5A
:10480000001E00000001008C46788C236E8C5250F4
:104810008C284B8C235A7D23731E001E0000000140
:10482000008C28788C236E8C52508C284B8C235A09
:104830007D23731E001E00000001008C28878C233E
:104840006E8C52508C284B8C235A7D23731E001E75
:1048500000000001008C4D878C236E8C52508C28F8
:104860004B8C235A7D23731E001E00000001008C18
:104870004D878C236E8C52508C284B8C0A5A7D238A
:10488000731E001E00000001008C4D878C236E8C6F
:1048900052508C284B8C0A697D23731E001E000029
:1048A0000001008C4D878C236E8C52508C284B8CD1
:1048B00023697D23731E001E00000001008C4D87BC
:1048C0008C236E8C52508C284B8C23697D0A731E6E
:1048D000001E00000001008C4D878C236E8C52500E
:1048E0008C284B8C23697D0A821E001E000000016B
:1048F000008C4D878C236E8C52508C284B8C2369F6
:104900007D2B821E001E00000001008C4D828C2336
:10491000698C524B8C28468C23647D2B7D1E001E97
:1049200000000001008C4D7D8C23648C52468C2845
:10493000418C235F7D2B781E001E00000001008C3F
:104940004D788C235F8C52418C283C8C235A7D2BD4
:10495000731E001E00000001008C46788C235F8CC3
:1049600046418C233C8C235A7D23731E001E00007D
:104970000000008C46788C235F8C46418C233C8C55
:10498000235A7D23730E010E01000000008C46782F
:104990008C235F8C46418C233C8C235A7D23730EE1
:1049A000010E01F40100008C46788C235F8C464197
:1049B0008C233C8C235A7D23730E010E01F40101DC
:1049C000008C46788C235F8C46418C233C8C235A88
:1049D0007D23730E010E01000001008C46788C23AC
:1049E0005F8C46418C233C8C235A7D23731D00032E
:1049F00000000001008C46788C235F8C46418C239C
:104A00003C8C235A7D23731D000300000001008CA1
:104A100000460082008C0023005F009100460041A8
:104A2000008C0023003C008C0023005A007D0023F2
:104A3000007300B40052009100B40025006E00B471
:104A40000052007800B40032007800B400230069FE
:104A500000B4002B0084007300280041007D00009A
:104A60000050007D0028002C0078000A002D007DF9
:104A70000005004B0073000A003C00000000000627
:104A80000570049D045305CE04AC04C0040000006E
:104A9000000808DB07A408B107D407C107B2070D57
:104AA0000A002053797374656D206E6F7420696EEF
:104AB00069742000E382BFE382A4E3839EE383BCA6
:104AC000E4B88AE99990E382A8E383A9E383BC0070
:104AD000E382BFE382A4E3839EE383BC4944E38192
:104AE0008CE5AD98E59CA8E38197E381AAE38184F6
:104AF00000E38193E3828CE38282E38186E784A1F1
:104B0000E79086E38284E381A70053797374656D2F
:104B1000205374617274002D2D2D205363656E65D2
:104B200020496E707574205374617274202D2D2D80
:104B3000002D2D2D207363656E6172696F636F7533
:104B40006E746572202D2D2D002D2D2D2073636523
:104B50006E65636F756E746572202D2D2D002D2D81
:104B60002D20636865636B6572202D2D2D002D2D22
:104B70002D2073747261696768745363656E65494B
:104B80006E707574202D2D2D002D2D2D20737472B7
:104B900061696768745363656E65496E70757420EA
:104BA000636F756E746572206F766572202D2D2D82
:104BB0000A002D2D2D206C5475726E5363656E6541
:104BC000496E707574202D2D2D002D2D2D206C54C7
:104BD00075726E5363656E65496E70757420636F90
:104BE000756E746572206F766572202D2D2D0A000A
:104BF0002D2D2D20725475726E5363656E65496E4E
:104C0000707574202D2D2D002D2D2D207254757250
:104C10006E5363656E65496E70757420636F756E53
:104C2000746572206F766572202D2D2D0A002D2D52
:104C30002D20496E69745363656E65496E70757495
:104C4000202D2D2D002D2D2D20496E697453636567
:104C50006E65496E70757420636F756E7465722031
:104C60006F766572202D2D2D0A002D2D2D2041727D
:104C70006D5363656E65496E707574202D2D2D0022
:104C80002D2D2D207363656E65636865636B65729A
:104C9000202D2D2D002D2D2D207363656E65206335
:104CA0006F756E746572206F766572202D2D2D00E4
:104CB0002D2D2D20616E676C6520736574202D2D60
:104CC0002D002D2D2D20283829202D2D2D0A00E3F3
:104CD00082BFE382A4E3839EE383BCE996A2E980DA
:104CE000A3E382A8E383A9E383BC3A202564006D93
:104CF000734443536574002D2D2D2D20646320656E
:104D000072722031202D2D2D2D002D2D2D2D206462
:104D100063206572722032202D2D2D2D002D2D2D1A
:104D20002D206474202D2D2D2D002D2D2D2D202096
:104D30002D2D2D2D002D2D2D2D204454202D2D2DAC
:104D40002D002D2D2D2D205544202D2D2D2D007283
:104D500072727272727272002D2D2D205363656E05
:0C4D60006520454E44202D2D2D2D000017
:020000040003F7
:10E000000D9489F10D94B2F10D94B2F10D94B2F129
:10E010000D94B2F10D94B2F10D94B2F10D94B2F1F0
:10E020000D94B2F10D94B2F10D94B2F10D94B2F1E0
:10E030000D94B2F10D94B2F10D94B2F10D94B2F1D0
:10E040000D94B2F10D94B2F10D94B2F10D94B2F1C0
:10E050000D94B2F10D94B2F10D94B2F10D94B2F1B0
:10E060000D94B2F10D94B2F10D94B2F10D94B2F1A0
:10E070000D94B2F10D94B2F10D94B2F10D94B2F190
:10E080000D94B2F10D94B2F10D94B2F10D94B2F180
:10E090000D94B2F10D94B2F10D94B2F10D94B2F170
:10E0A0000D94B2F10D94B2F10D94B2F10D94B2F160
:10E0B0000D94B2F10D94B2F10D94B2F10D94B2F150
:10E0C0000D94B2F10D94B2F10D94B2F10D94B2F140
:10E0D0000D94B2F10D94B2F10D94B2F10D94B2F130
:10E0E0000D94B2F141546D656761323536300041AF
:10E0F000726475696E6F206578706C6F72657220DE
:10E1000073746B3530305632206279204D4C530099
:10E11000426F6F746C6F616465723E004875683F52
:10E1200000436F6D70696C6564206F6E203D200048
:10E130004350552054797065202020203D20005FF9
:10E140005F4156525F415243485F5F3D2000415658
:10E1500052204C696243205665723D20004743437C
:10E160002056657273696F6E203D20004350552024
:10E1700049442020202020203D20004C6F7720663D
:10E18000757365202020203D20004869676820665F
:10E190007573652020203D200045787420667573D6
:10E1A00065202020203D20004C6F636B2066757336
:10E1B000652020203D20004D617220203720323024
:10E1C000313300312E362E3800342E332E350056A2
:10E1D00023202020414444522020206F7020636F70
:10E1E00064652020202020696E73747275637469E1
:10E1F0006F6E2061646472202020496E74657272B3
:10E20000757074006E6F20766563746F7200726A49
:10E210006D702020006A6D70200057686174207056
:10E220006F72743A00506F7274206E6F7420737541
:10E2300070706F72746564004D7573742062652030
:10E2400061206C6574746572002000577269747483
:10E25000696E672045450052656164696E672045B7
:10E26000450045452065727220636E743D00504F35
:10E27000525400303D5A65726F2061646472003FF1
:10E280003D43505520737461747300403D454550C3
:10E29000524F4D207465737400423D426C696E6B41
:10E2A000204C454400453D44756D70204545505215
:10E2B0004F4D00463D44756D7020464C415348001B
:10E2C000483D48656C70004C3D4C69737420492F83
:10E2D0004F20506F72747300513D51756974005234
:10E2E0003D44756D702052414D00563D73686F7707
:10E2F00020696E7465727275707420566563746FF0
:10E30000727300593D506F727420626C696E6B00BD
:10E310002A0011241FBECFEFD1E2DEBFCDBF01E046
:10E320000CBF12E0A0E0B2E0EEE1FDEF03E00BBFB6
:10E3300002C007900D92A030B107D9F712E0A0E01B
:10E34000B2E001C01D92AE30B107E1F70F9460F367
:10E350000D948DFE01E20EBF0FEF0DBF11241FBE05
:10E360000D9460F30D9400F020E030E040ED57E0B4
:10E3700005C0FA013197F1F72F5F3F4F2817390792
:10E38000C0F308959C01260F311DC901A0E0B0E043
:10E390002F5F3F4FABBFFC018791882361F08093D3
:10E3A000C6008091C00086FFFCCF8091C0008064D1
:10E3B0008093C000EACF08958DE08093C6008091DD
:10E3C000C00086FFFCCF8091C00080648093C000B5
:10E3D0008AE08093C6008091C00086FFFCCF8091C8
:10E3E000C00080648093C00008950F94C2F10F9420
:10E3F000DCF10895FC019081992359F09093C600B7
:10E400008091C00086FFFCCF8091C0008064809323
:10E41000C0003196992379F70895282F982F929567
:10E420009F70892F805D8A3308F0895F8093C600D2
:10E430008091C00086FFFCCF8091C00080648093F3
:10E44000C000822F8F70982F905D9A3308F0995FEB
:10E450009093C6008091C00086FFFCCF8091C000E1
:10E4600080648093C00008959C01FB01853691056E
:10E470001CF46330710594F0C90164E670E00F94F8
:10E480002EFE605D7F4F6093C6008091C00086FFC6
:10E49000FCCF8091C00080648093C0002B30310598
:10E4A00014F43297B4F0C90164E670E00F942EFEC4
:10E4B0006AE070E00F942EFE605D7F4F6093C600AF
:10E4C0008091C00086FFFCCF8091C0008064809363
:10E4D000C000C9016AE070E00F942EFEC0968093E0
:10E4E000C6008091C00086FFFCCF8091C000806490
:10E4F0008093C00008951F93182F8EE692EE60E07F
:10E500000F94C2F11093C6008091C00086FFFCCF2B
:10E510008091C00080648093C0000F94DCF11F9153
:10E5200008952F923F924F925F926F927F928F92B7
:10E530009F92AF92BF92CF92DF92EF92FF920F9392
:10E540001F93DF93CF93CDB7DEB762970FB6F894E2
:10E55000DEBF0FBECDBF382E622ECA01DB015C01CB
:10E560006D01772420E2222E2E010894411C511CBB
:10E570008BC081E0A81680E0B80681E0C80680E084
:10E58000D80628F0C601AA27BB270F940DF2BB2797
:10E59000AD2D9C2D8B2D0F940DF28A2D0F940DF225
:10E5A0002092C6008091C00086FFFCCF8091C00001
:10E5B00080648093C0009DE29093C6008091C0006B
:10E5C00086FFFCCF8091C00080648093C0002092C1
:10E5D000C6008091C00086FFFCCF8091C00080649F
:10E5E0008093C00019828601750188249924A1E0D6
:10E5F0003A1651F03A1620F0B2E03B1661F409C029
:10E600000BBFF701779007C0C7010F9477FE782EF4
:10E6100002C0F7017080872D0F940DF22092C60082
:10E620008091C00086FFFCCF8091C0008064809301
:10E63000C000872D8052F401EF70F0708F3520F408
:10E64000E40DF51D708204C0E40DF51D8EE280839B
:10E650000894E11CF11C011D111D0894811C911CE2
:10E6600090E18916910409F0C2CF80E190E0A0E02A
:10E67000B0E0A80EB91ECA1EDB1E198AC2010F9493
:10E68000FAF10F94DCF16A94662009F072CF629679
:10E690000FB6F894DEBF0FBECDBFCF91DF911F91B3
:10E6A0000F91FF90EF90DF90CF90BF90AF909F9031
:10E6B0008F907F906F905F904F903F902F90089534
:10E6C0002F923F924F925F926F927F928F929F9282
:10E6D000AF92BF92CF92DF92EF92FF920F931F9370
:10E6E000DF93CF93CDB7DEB7CD53D1400FB6F894BB
:10E6F000DEBF0FBECDBF01E20EBF0FEF0DBF94B75F
:10E70000F894A89514BE80916000886180936000A1
:10E7100010926000789493FF05C0E0910002F091A0
:10E7200001021995279A2F9A8091C00082608093E8
:10E73000C00080E18093C40088E18093C1000000A4
:10E74000EE24FF24870144E0A42EB12CCC24DD2448
:10E7500024C0C5010197F1F70894E11CF11C011DCB
:10E76000111D21E2E2162EE4F20620E0020720E06D
:10E77000120718F031E0C32ED12CC801B70127ECE5
:10E780003BE140E050E00F9441FE611571058105C9
:10E79000910519F485B1805885B98091C00087FD35
:10E7A00003C0C114D104A9F2A6014F5F5F4FC25E3E
:10E7B000DE4F59834883CE51D140C25EDE4F8881FF
:10E7C0009981CE51D140019711F00D9410FEC05D9A
:10E7D000DE4F19821882C053D14060E0C15DDE4F28
:10E7E0001882CF52D14088249924C35DDE4F19820C
:10E7F0001882CD52D140C05EDE4F188219821A8233
:10E800001B82C052D140CE5CDE4F188219821A8220
:10E810001B82C253D140EE24FF2487010BBFF701B6
:10E8200007911691C45CDE4F19830883CC53D14005
:10E830000D940BFEC25EDE4F28813981CE51D1404E
:10E840002130310509F52091C600C25EDE4F1982E4
:10E850001882CE51D14022C02F5F3F4F4F4F5F4FA4
:10E86000213082E138078AE7480780E0580780F0C6
:10E87000C45CDE4FE881F981CC53D140EF5FFF4F9C
:10E8800019F0EE27FF27099420E030E040E050E047
:10E890008091C00087FFE0CF2091C600C35DDE4FAE
:10E8A00048815981CD52D1404F5F5F4FC35DDE4FEC
:10E8B00059834883CD52D140213209F063C64A3092
:10E8C000510508F05FC60894811C911C53E0851621
:10E8D000910409F059C600E010E018C081E280936D
:10E8E000C6008091C00086FFFCCF8091C00080648C
:10E8F0008093C0002F5F3F4F2931310579F70F9486
:10E90000DCF10F5F1F4F0530110519F020E030E0FA
:10E91000E5CF10920A0210920B0210920C02109294
:10E920000D02109206021092070210920802109235
:10E930000902109202021092030210920402109235
:10E9400005028FEE90EE60E00F94F5F180E191EE1C
:10E9500060E00F94C2F18091C00087FFFCCF9091DE
:10E96000C600903608F09F759032B8F09093C600BC
:10E970008091C00086FFFCCF8091C00080648093AE
:10E98000C000A0E2A093C6008091C00086FFFCCF2B
:10E990008091C00080648093C000983409F4D7C18E
:10E9A0009934B8F4923409F459C1933458F490333B
:10E9B00019F1903308F4E3C59F33A1F1903409F0C5
:10E9C000DEC5BDC0953409F470C1963409F0D7C5D1
:10E9D00098C1923509F42BC2933538F49C3409F46C
:10E9E000F5C1913509F0CBC518C2963509F445C279
:10E9F000993509F0C4C567C483E792EE62E00F94CD
:10EA0000F5F110920602109207021092080210927D
:10EA1000090210920A0210920B0210920C0210923C
:10EA20000D0213C18FE792EE62E00F94F5F18FEEC5
:10EA300090EE60E00F94F5F181E291EE60E00F94CA
:10EA4000C2F187EB91EE60E00F94F5F180E391EE77
:10EA500060E00F94C2F184EE90EE60E00F94F5F167
:10EA60008FE391EE60E00F94C2F186E090E061E008
:10EA700070E00F9434F20F94DCF18DE591EE60E0DC
:10EA80000F94C2F189EC91EE60E00F94F5F18EE401
:10EA900091EE60E00F94C2F183EC91EE60E00F9490
:10EAA000F5F18CE691EE60E00F94C2F18EE10F94E7
:10EAB0000DF288E90F940DF281E00F940DF20F949E
:10EAC000DCF18BE791EE60E00F94C2F119E0E0E039
:10EAD000F0E010935700E4918E2F0F940DF20F94F5
:10EAE000DCF18AE891EE60E00F94C2F1E3E0F0E03F
:10EAF00010935700E4918E2F0F940DF20F94DCF1D8
:10EB000089E991EE60E00F94C2F1E2E0F0E0109349
:10EB10005700E4918E2F0F940DF20F94DCF188EAE8
:10EB200091EE60E00F94C2F1E1E0F0E01093570045
:10EB30001491812F0F940DF20F94DCF107CF8BE825
:10EB400092EE62E00F94F5F18BE492EE60E00F94A8
:10EB5000F5F10F94DCF100E010E019C0C8016F2D51
:10EB60000F947FFEFF2031F489E492EE60E00F9471
:10EB7000C2F10BC0F092C6008091C00086FFFCCFAE
:10EB80008091C00080648093C0000F5F1F4FC80158
:10EB900081519F41A0E0B0E0ABBFFC01F790BAE229
:10EBA000FB1621F0E2E000301E07C1F60F94DCF105
:10EBB0000F94DCF187E592EE60E00F94F5F10F948D
:10EBC000DCF1CC24DD2400E010E01EC0C8010F946D
:10EBD00077FEF82E882331F489E492EE60E00F94FA
:10EBE000C2F10BC08093C6008091C00086FFFCCFAD
:10EBF0008091C00080648093C000FE1419F00894D6
:10EC0000C11CD11C0F5F1F4FC80181519F41A0E063
:10EC1000B0E0ABBFFC01E790FAE2EF1621F022E092
:10EC20000030120799F60F94DCF10F94DCF182E6C4
:10EC300092EE60E00F94C2F1C60161E070E00F94C3
:10EC400034F20F94DCF10F94DCF110920202109276
:10EC50000302109204021092050278CE89E992EE26
:10EC600062E00F94F5F1279A2F9A16C02F9880E052
:10EC700090E0E0EDF7E03197F1F7019684369105E9
:10EC8000C1F72F9A80E090E0E0EDF7E03197F1F7DF
:10EC9000019684369105C1F78091C00087FFE6CFC9
:10ECA0008091C00087FFFCCF64C485EA92EE62E0E9
:10ECB0000F94F5F140910202509103026091040219
:10ECC0007091050281E020E10F9491F2809102029F
:10ECD00090910302A0910402B091050280509F4FD1
:10ECE000AF4FBF4F8093020290930302A0930402A0
:10ECF000B093050280509041A040B04008F426CE69
:10ED0000A4CF83EB92EE62E00F94F5F140910602FE
:10ED100050910702609108027091090280E020E1A1
:10ED20000F9491F28091060290910702A09108023F
:10ED3000B091090280509F4FAF4FBF4F80930602A2
:10ED400090930702A0930802B0930902FFCD80ECD4
:10ED500092EE62E00F94F5F183E792EE60E00F949B
:10ED6000F5F18FE792EE60E00F94F5F18BE892EE0B
