:100000000C945B010C94B80D0C948D0D0C94620D46
:100010000C94370D0C940C0D0C94E10C0C94B60C54
:100020000C948B0C0C948C010C948C010C948C0112
:100030000C948C010C948C010C948C010C948C010C
:100040000C948C010C948C010C948C010C948C01FC
:100050000C94670F0C948C010C948C010C94410C43
:100060000C948C010C940D0E0C94E30D0C948C01EB
:100070000C948C010C948C010C948C010C948C01CC
:100080000C948C010C948C010C948C010C948C01BC
:100090000C948C010C948C010C948C010C94430EE8
:1000A0000C948C010C948C010C948C010C948C019C
:1000B0000C948C010C948C010C948C010C948C018C
:1000C0000C948C010C948C010C948C010C948C017C
:1000D0000C948C010C948C010C948C010C948C016C
:1000E0000C948C010C945A060C9477030C94CE0457
:1000F0000C9417020C9409020C94F0010C94EA0180
:100100000C94D4070C9453050C9441040C940F02E6
:100110000C9470040C9405020C948B0B0C9421022B
:100120000C94A7080C94B70B0C9406050C94B1071B
:100130000C94DC030C9408080C942A020C94C1075C
:100140000C942B020C94AC040C941D020C94E20B46
:100150000C94FF010C9459060C94F4010C94C00407
:100160000C94FC010C94920F0C9412030C94F80163
:100170000C940D0C0C942F020C94A4080C94DB0727
:100180000C946F040C9425020C949D040C9413029F
:100190000C94B20700002100240027002A002D0043
:1001A0003000330001010000040107010A010000D2
:1001B0002200250028002B002E003100340002010F
:1001C0000000050108010B010000200023002600AB
:1001D00029002C002F00320000010000030106015D
:1001E00009010505050507050808080802020202BD
:1001F0000A0A0808040404040101010101010101C3
:100200000303030303030303040707070C0C0C0C8D
:100210000C0C0C0C02020202060606060606060676
:100220000B0B0B0B0B0B0B0B010210202008081003
:100230002040102040800201020108040201010256
:10024000040810204080804020100804020180042F
:10025000020180402010080402010804020101028A
:100260000408102040800102040810204080000093
:100270000A0B02090C0D0E08070304010000000020
:10028000000000000000000000000000000000006E
:10029000000000000000000000001211100000002B
:1002A000000000000000000000000000000000004E
:1002B00000000000920F11241FBECFEFD1E2DEBF7D
:1002C000CDBF00E00CBF1DE0A0E0B2E0E0EFF1E444
:1002D00000E00BBF02C007900D92AA34B107D9F716
:1002E00023E1AAE4BDE001C01D92A03CB207E1F702
:1002F00011E0CBE5D1E000E006C021970109802F95
:10030000FE010E94171ECA35D10780E00807A9F731
:100310000E9432100C94F6200C940000CF92DF92D1
:10032000EF92FF92CF93DF93EC016EA57FA588A992
:1003300099A90E949B1C9B01AC0160E070E088ECD5
:1003400091E40E94F31B6B017C01AC019B01688965
:1003500079898A899B890E94AA1D688B798B8A8BEF
:100360009B8BA70196016C897D898E899F890E944C
:10037000F31B6C8B7D8B8E8B9F8B89E190E0A0E0D3
:10038000B0E08EA79FA7A8ABB9ABDF91CF91FF904C
:10039000EF90DF90CF9008958150823108F05AC0DD
:1003A000E82FF0E08827E852FE4F8F4F0C94171E7D
:1003B000F801FC01EA01F001F4012A02FF01050243
:1003C00009020F02130217021D0221022A0225024E
:1003D0002B022F02809180008F77809380000895F8
:1003E000809180008F7DF9CF80918000877FF5CF4D
:1003F00084B58F7784BD089584B58F7DFBCF8091C0
:10040000B0008F778093B00008958091B0008F7D09
:10041000F9CF809190008F7780939000089580911C
:1004200090008F7DF9CF80919000877FF5CF8091EC
:10043000A0008F778093A00008958091A0008F7D09
:10044000F9CF8091A000877FF5CF809120018F7731
:10045000809320010895809120018F7DF9CF8091B4
:100460002001877FF5CFCF93DF93282F30E0F9016C
:10047000E259FD4F8491F901E85DFD4FD491F901F6
:10048000EE51FE4FC491CC23A1F081110E94CC010A
:10049000EC2FF0E0EE0FFF1FE853FE4FA591B49153
:1004A000EC91ED2381E090E009F480E0DF91CF91C1
:1004B000089580E090E0FACF1F93CF93DF93282F29
:1004C00030E0F901E259FD4F8491F901E85DFD4FFB
:1004D000D491F901EE51FE4FC491CC23A9F0162F0F
:1004E00081110E94CC01EC2FF0E0EE0FFF1FE255CE
:1004F000FE4FA591B4918FB7F894EC91111108C0FB
:10050000D095DE23DC938FBFDF91CF911F910895AB
:10051000DE2BF8CFCF93DF9390E0FC01E85DFD4F39
:1005200024918E519E4FFC0184918823D1F090E05C
:10053000880F991FFC01EC56FE4FA591B491FC0168
:10054000E255FE4FC591D49161110EC09FB7F8944A
:100550008C91E22FE0958E238C932881E223E8830F
:100560009FBFDF91CF9108958FB7F894EC91E22B64
:10057000EC938FBFF6CF3FB7F8948091E211909142
:10058000E311A091E411B091E51126B5A89B05C037
:100590002F3F19F00196A11DB11D3FBFBA2FA92F02
:1005A000982F8827BC01CD01620F711D811D911DFF
:1005B00042E0660F771F881F991F4A95D1F708956B
:1005C0008F929F92AF92BF92CF92DF92EF92FF9263
:1005D0004B015C010E94BB026B017C010E94BB02CB
:1005E0006C197D098E099F09683E7340810591054C
:1005F000A8F321E0821A9108A108B10888EEC80E7C
:1006000083E0D81EE11CF11C81149104A104B10403
:1006100029F7FF90EF90DF90CF90BF90AF909F9021
:100620008F900895CF92DF92EF92FF92CF93DF9356
:1006300082E10E943302C091CE0DD091CF0D01977F
:1006400039F488E10E943302892B39F4219706C0DE
:1006500088E10E943302892BC9F72196D093CF0DF0
:10066000C093CE0D6091CE0D7091CF0D072E000C72
:10067000880B990B0E949D1C6B017C012FE832ECCA
:100680004DE850E40E94A51D1816F4F42FE832EC52
:100690004DE850E4C701B6010E94811B0E94651C11
:1006A0007093CF0D6093CE0D8091D00D9091D10DB0
:1006B00001969093D10D8093D00DDF91CF91FF9053
:1006C000EF90DF90CF9008952FE832EC4DE850EC9A
:1006D000C701B6010E94EE1B87FFEFCF2FE832EC77
:1006E0004DE850E4C701B6010E94821BD7CFCF92DC
:1006F000DF92EF92FF92CF93DF9382E00E9433026A
:10070000C091C80DD091C90D019739F486E10E94BE
:100710003302892B39F4219706C086E10E94330207
:10072000892BC9F72196D093C90DC093C80D60914C
:10073000C80D7091C90D072E000C880B990B0E94F3
:100740009D1C6B017C0126E636E64EEB51E40E94CF
:10075000A51D1816F4F426E636E64EEB51E4C70163
:10076000B6010E94811B0E94651C7093C90D6093A5
:10077000C80D8091CC0D9091CD0D01969093CD0D2B
:100780008093CC0DDF91CF91FF90EF90DF90CF90D1
:10079000089526E636E64EEB51ECC701B6010E94FD
:1007A000EE1B87FFEFCF26E636E64EEB51E4C7019E
:1007B000B6010E94821BD7CFCF92DF92EF92FF92B9
:1007C000CF93DF9383E00E943302C091C60DD09196
:1007D000C70D019739F487E10E943302892B39F460
:1007E000219706C087E10E943302892BC9F7219621
:1007F000D093C70DC093C60D6091C60D7091C70D03
:10080000072E000C880B990B0E949D1C6B017C012C
:1008100026E636E64EEB51E40E94A51D1816F4F4C8
:1008200026E636E64EEB51E4C701B6010E94811B75
:100830000E94651C7093C70D6093C60D8091CA0D10
:100840009091CB0D01969093CB0D8093CA0DDF91C3
:10085000CF91FF90EF90DF90CF90089526E636E697
:100860004EEB51ECC701B6010E94EE1B87FFEFCFA4
:1008700026E636E64EEB51E4C701B6010E94821B24
:10088000D7CF8091C10D9091C20DA091C30DB091B1
:10089000C40D0196A11DB11D8093C10D9093C20D91
:1008A000A093C30DB093C40DE1ECFEE08081918173
:1008B000A281B381892B8A2B8B2B59F0848195815E
:1008C000A681B7810196A11DB11D84839583A6835E
:1008D000B783709681E1E13EF80741F708950895E6
:1008E000AF92BF92CF92DF92EF92FF920F931F933E
:1008F000CF93DF936C017B018B01040F151FEB017C
:100900005E01AE18BF08C017D10759F06991D60132
:10091000ED91FC910190F081E02DC6011995892B94
:1009200079F7C501DF91CF911F910F91FF90EF9063
:10093000DF90CF90BF90AF900895FC01538D448D10
:10094000252F30E0842F90E0821B930B541710F07A
:10095000CF96089501970895FC01918D828D981787
:1009600061F0A28DAE0FBF2FB11D5D968C91928D5F
:100970009F5F9F73928F90E008958FEF9FEF089590
:10098000FC01918D828D981731F0828DE80FF11D59
:10099000858D90E008958FEF9FEF0895FC01918D74
:1009A000228D892F90E0805C9F4F821B91098F736D
:1009B000992708958AE392E10E94CE0421E0892BD1
:1009C00009F420E0822F0895FC01A48DA80FB92F0F
:1009D000B11DA35ABF4F2C91848D90E001968F7367
:1009E0009927848FA689B7892C93A089B1898C9186
:1009F000837080648C93938D848D981306C00288D5
:100A0000F389E02D80818F7D80830895EF92FF929E
:100A10000F931F93CF93DF93EC0181E0888F9B8D21
:100A20008C8D98131AC0E889F989808185FF15C0DB
:100A30009FB7F894EE89FF896083E889F9898081FE
:100A40008370806480839FBF81E090E0DF91CF91CD
:100A50001F910F91FF90EF900895F62E0B8D10E0EF
:100A60000F5F1F4F0F731127E02E8C8D8E110CC05E
:100A70000FB607FCFACFE889F989808185FFF5CFA9
:100A8000CE010E94E404F1CFEB8DEC0FFD2FF11DA0
:100A9000E35AFF4FF0829FB7F8940B8FEA89FB89E6
:100AA00080818062CFCFCF93DF93EC01888D882344
:100AB000B9F0AA89BB89E889F9898C9185FD03C0C1
:100AC000808186FD0DC00FB607FCF7CF8C9185FFA6
:100AD000F2CF808185FFEDCFCE010E94E404E9CF03
:100AE000DF91CF91089580E090E0892B29F00E945A
:100AF000DA0481110E94000080E090E0892B49F027
:100B000080E090E0892B29F00E94000081110E9472
:100B1000000080E090E0892B49F080E090E0892B94
:100B200029F00E94000081110E94000080E090E006
:100B3000892B49F080E090E0892B29F00E94000089
:100B400081110C94000008952F923F924F925F9272
:100B50006F927F928F929F92AF92BF92CF92DF92CD
:100B6000EF92FF920F931F93CF93DF931C016A01C3
:100B70007B0128013901FC01C68DD78D88809980C1
:100B8000AA80BB80A9019801C501B4010E94A51DDE
:100B900018166CF5488259826A827B82F10186A020
:100BA00097A0A0A4B1A4C6A8D7A8E0ACF1ACA701B7
:100BB0009601C501B4010E94A51DF101181624F586
:100BC000C6A2D7A2E0A6F1A6DF91CF911F910F9107
:100BD000FF90EF90DF90CF90BF90AF909F908F905D
:100BE0007F906F905F904F903F902F900895A70156
:100BF0009601C501B4010E94EE1B87FFCFCFC882CA
:100C0000D982EA82FB82CACFC2A8D3A8E4A8F5A8F9
:100C1000A7019601C501B4010E94EE1B87FFD4CF46
:100C2000F101CECF8F929F92AF92BF92CF92DF927F
:100C3000EF92FF92CF93DF93EC01EE8DFF8DC0809A
:100C4000D180E280F380CEA2DFA2E8A6F9A6EC8DE7
:100C5000FD8D80819181A281B3818AA79BA7ACA7DA
:100C6000BDA78EA89FA8A8ACB9ACA5019401C701E7
:100C7000B6010E94A51D18162CF48EA29FA2A8A64C
:100C8000B9A60CC08AA89BA8ACA8BDA8A5019401D0
:100C9000C701B6010E94EE1B87FDEFCFDF91CF9118
:100CA000FF90EF90DF90CF90BF90AF909F908F908C
:100CB0000895089508952091750D260F3327331F49
:100CC00021323105ECF420910C12FC0190E080E01F
:100CD000243069F082E00895A091750D2191AC0156
:100CE0004B5A524FA40FB52FB11D2C930196861766
:100CF00098F38091750D680F6093750D80E00895ED
:100D000081E0089510920C1281E080930B121092F2
:100D1000E61161E084E10E945C0261E085E10E94ED
:100D20005C02E9EBF0E080818E7F808380818D7FA3
:100D3000808388E48093B80085E48093BC000895A4
:100D4000CF93DF9391E09093540D8823B9F0C09135
:100D5000B800D091BA008091BC008A7B8093BC001F
:100D600060E084E10E945C0260E085E10E945C0238
:100D70000E948206D093BA00C093B800DF91CF9151
:100D800008958F929F92AF92BF92CF92DF92EF928F
:100D9000FF920F931F93CF93DF93D0913512D132EF
:100DA00008F0D7C0182FC09134120E94BB026B010B
:100DB0007C0180910C1281116BC082E080930C1237
:100DC00010930B128FEF80930A1210920912D09396
:100DD0000812A4E1B2E1E8EEF1E180E0D81391C09D
:100DE0001092E7118091E711CC0FC82BC093E71147
:100DF0008091E611813009F088C01092E6110E94BE
:100E0000BB026B017C018091E7118093BB00809154
:100E10000E1290910F12A0911012B0911112892B05
:100E20008A2B8B2BA1F00E94BB0200910E12109115
:100E30000F1220911012309111126C197D098E0938
:100E40009F09061717072807390708F442C0809141
:100E5000BC0083FDD8CF85EC8093BC000E94BB0210
:100E60006B017C0180910C12823009F450C080919A
:100E70000A128F3F09F46FC080910A12803209F480
:100E80006CC080910A12803309F469C084E026C0E6
:100E900080910E1290910F12A0911012B091111228
:100EA000892B8A2B8B2B09F484CF0E94BB02809064
:100EB0000E1290900F12A0901012B09011126C1997
:100EC0007D098E099F0986169706A806B90608F0BF
:100ED00070CF80910D120E94A00685E0109213122F
:100EE0001092351210921212DF91CF911F910F9133
:100EF000FF90EF90DF90CF90BF90AF909F908F903A
:100F000008959D9191938F5F69CF85EEA5CF8091D4
:100F10000E1290910F12A0911012B0911112892B04
:100F20008A2B8B2B09F49ECF0E94BB0200910E12DC
:100F300010910F1220911012309111126C197D092D
:100F40008E099F09061717072807390708F08ACF67
:100F5000C0CF81E0C3CF80E0C1CF82E0BFCF83E0CC
:100F6000BDCF0895E0919D0D80919C0DE81730F460
:100F7000F0E0E256F24F808190E008958FEF9FEF0E
:100F8000089590919D0D80919C0D2FEF3FEF981744
:100F900048F4E92FF0E0E256F24F208130E09F5F05
:100FA00090939D0DC901089580919C0D90919D0D88
:100FB000891B990B0895CF92DF92EF92FF920F93C6
:100FC0001F93CF93DF937C01CB018A0120911212F2
:100FD000222389F0EB016B01C40ED51ECC15DD0573
:100FE00069F06991D701ED91FC910190F081E02DBC
:100FF000C7011995F3CF642F0E945B06C801DF91EA
:10100000CF911F910F91FF90EF90DF90CF900895B7
:10101000CF93DF931F92CDB7DEB769832091121271
:101020002223F9F020913512203258F021E030E0EF
:10103000FC013383228390E080E00F90DF91CF9119
:10104000089580911312E82FF0E0EC5EFD4E998137
:1010500090838F5F809313128093351281E090E02C
:10106000ECCF61E0CE0101960E945B06F7CF682FBE
:1010700087ED92E10C940808CF93DF93D42FC52F0E
:10108000FC01808191E090931212809334121092AF
:10109000131210923512F4E06F9FB00111246A5FB1
:1010A0007F4F87ED92E10E94080890E080E00E9467
:1010B000370890E080E00E9437088D2F9C2F0E9417
:1010C00037088C2F90E00E94370881E0DF91CF91A4
:1010D0000C94C106CF93C42FFC01808191E09093C2
:1010E000121280933412109213121092351287ED5F
:1010F00092E10E9408086C2F87ED92E10E94080897
:1011000081E0CF910C94C106CF93DF93EC01109254
:101110009D0D10929C0D10921312109235120E9488
:10112000820689E596E090939B0D80939A0D8AE55F
:1011300096E09093990D8093980D40E060E0CE0189
:10114000DF91CF910C946A0890E080E008950895B3
:101150004F925F926F927F928F929F92AF92BF92C7
:10116000CF92DF92EF92FF920F931F93CF93DF9373
:10117000CDB7DEB74C0127013801DC015F965C93E7
:101180004E935E975D967C936E935C9791963C939D
:101190002E939097DA961C92FC0112AA13AA14AA15
:1011A00015AA80E090E0AFE7B3E486AB97ABA0AFC1
:1011B000B1AF84E690E0A0E0B0E086A797A7A0AB2F
:1011C000B1AB118E108E20E030E0A901C801B7014B
:1011D0000E94EE1B87FD53C020E030E0A901C6014C
:1011E000B5010E94EE1B87FD4AC020E030E0A90156
:1011F0006C897D898E899F890E94EE1B87FD3FC087
:1012000081E090E0D4015B969C938E935A97DB9695
:101210008C93DB97F4014082518262827382149630
:10122000AD92BD92CD92DC9217978C899D89AE8943
:10123000BF8980879187A287B38744865586668653
:1012400077862DEC3CEC4CEC5DE3C601B5010E94C9
:10125000AA1DF401608B718B828B938B2DEC3CEC7F
:101260004CEC5DE36C897D898E899F890E94F31B1C
:10127000D40154966D937D938D939C9357972FB77C
:10128000F8948091361290913712A0913812B09153
:1012900039122FBFF40146A557A560A971A9841B77
:1012A000950BA60BB70B82A393A3A4A3B5A3DF91C1
:1012B000CF911F910F91FF90EF90DF90CF90BF9053
:1012C000AF909F908F907F906F905F904F90089518
:1012D0008F929F92AF92BF92CF92DF92EF92FF9246
:1012E0000F931F93CF93DF93EC019A01AB0160E260
:1012F0007CEB8EEB95E40E94F31B20E030E040E8AD
:101300005FE30E94811B20E030E040E05FE30E9449
:10131000821B0E94D81C0E946C1C062F888191E0C1
:10132000909312128093341210921312109235126D
:1013300060E087ED92E10E94080881E00E94C1060A
:1013400018810E94BB026B017C0180910C128111FB
:1013500064C081E080930C1280930B129FEF9093F6
:101360000A1210920912109208128093E7118091CC
:10137000E711110F182B1093E7118091E6118130BE
:1013800009F0A3C01092E6110E94BB026B017C0120
:101390008091E7118093BB0080910E1290910F1203
:1013A000A0911012B0911112892B8A2B8B2BA1F0D6
:1013B0000E94BB0280900E1290900F12A09010120B
:1013C000B09011126C197D098E099F098616970637
:1013D000A806B90608F442C08091BC0083FDD8CFAE
:1013E00085EC8093BC000E94BB026B017C01809164
:1013F0000C12813009F46BC080910912811189C0EF
:1014000080910912E8EEF1E1AEE9BDE090E09817B5
:1014100051F121912D939F5FFACF80910E129091FF
:101420000F12A0911012B0911112892B8A2B8B2BC5
:1014300009F48BCF0E94BB0280900E1290900F1285
:10144000A0901012B09011126C197D098E099F099D
:1014500086169706A806B90608F077CF80910D1278
:101460000E94A00680E010929D0D80939C0D87ED58
:1014700092E10E94C107182F482F4F76406160E02B
:10148000CE010E946A08402F6EEFCE010E946A08CA
:10149000412F60E0CE010E946A0865E070E080E0C4
:1014A00090E00E94E002412F416A60E0CE01DF91AE
:1014B000CF911F910F91FF90EF90DF90CF90BF9051
:1014C000AF909F908F900C946A0885EE8ACF8091A0
:1014D0000E1290910F12A0911012B0911112892B3F
:1014E0008A2B8B2B09F483CF0E94BB0280900E12B3
:1014F00090900F12A0901012B09011126C197D09EB
:101500008E099F0986169706A806B90608F06FCFC0
:10151000A5CF81E077CF85ED8093BC0080910E123E
:1015200090910F12A0911012B09111120796A11D67
:10153000B11D23E0B695A795979587952A95D1F784
:101540002091BC0024FD03C010920C12089540911C
:101550000E1250910F126091101270911112452BC2
:10156000462B472B69F30097A105B10541F025E310
:101570002A95F1F700000197A109B109E1CF809107
:101580000D120C94A0060F931F93CF93DF93CDB74A
:10159000DEB7DA950FB6F894DEBF0FBECDBF8091EF
:1015A000C50D813099F081E89AE09F938F930E9456
:1015B000C30A0F900F90D3950FB6F894DEBF0FBEFD
:1015C000CDBFDF91CF911F910F910895F89478943A
:1015D0008E010F5F1F4F80E091E0F8019C01119296
:1015E00021503040E1F7AE01465F5E4FC85FDE4FED
:1015F00068817981C850D140C8010E94261E1F937E
:101600000F93D5CFCF92DF92EF92FF926B017C01C7
:10161000E1ECFEE080E090E0DC0162857385672B01
:10162000D1F00196A11DB11D709682339105A105DF
:10163000B10599F783E99AE09F938F930E94C30ABB
:101640000F900F906DEF7FEF8FEF9FEFFF90EF9078
:10165000DF90CF90089564E0880F991F6A95E1F7B5
:10166000FC01EF53F14FC082D182E282F3821482F7
:1016700015821682178251874087338722876091AF
:10168000BF0D7091C00D6F5F7F4F7093C00D609361
:10169000BF0D90E080E06487758786879787D6CFF7
:1016A0000F931F93AB01BC01E1ECFEE080E090E002
:1016B000DC0104851585268537850417150726075F
:1016C000370799F424E0880F991F2A95E1F7FC0168
:1016D000EF53F14F80E1DF011D928A95E9F760E059
:1016E00070E0CB011F910F9108950196A11DB11DCE
:1016F000709682339105A105B105D9F68FEA9AE07B
:101700009F938F930E94C30A0F900F906EEF7FEF0D
:101710008FEF9FEFE7CF0F931F93CF93DF93EC01F2
:101720006C817D818E819F810E94500B09851A8575
:10173000209741F088819981AA81BB814297A105B8
:10174000B10578F080ED9AE09F938F930E94C30AD1
:101750000F900F901A870987DF91CF911F910F91FA
:1017600008951C821D821E821F821886F3CF0F935C
:101770001F93CF93DF93EC01688179818A819B81EC
:101780000E94500B50E040E062E085EE92E10E9442
:101790003C080D811E81209779F480ED9AE09F939B
:1017A0008F930E94C30A0F900F901E830D83DF91C9
:1017B000CF911F910F910895188219821A821B826E
:1017C0001C82F3CF0F931F93CF93DF93EC016881BB
:1017D00079818A819B810E94500B50E040E063E058
:1017E0008EE293E10E943C080D811E81209779F4DE
:1017F00080ED9AE09F938F930E94C30A0F900F9001
:101800001E830D83DF91CF911F910F910895188250
:1018100019821A821B821C82F3CF0F931F93CF93DE
:10182000DF93EC016C817D818E819F810E94500B42
:1018300088819981AA81BB8150E040E060E0892BDA
:101840008A2B8B2B09F061E08FE293E10E943C0828
:1018500009851A85209779F480ED9AE09F938F93FC
:101860000E94C30A0F900F901A870987DF91CF91CA
:101870001F910F9108951C821D821E821F8218865F
:10188000F3CF1F920F920FB60F9211242F933F9315
:101890008F939F93AF93BF9380913612909137129D
:1018A000A0913812B09139123091E11123E0230F49
:1018B0002D3758F50196A11DB11D2093E11180939C
:1018C000361290933712A0933812B0933912809148
:1018D000E2119091E311A091E411B091E51101960C
:1018E000A11DB11D8093E2119093E311A093E41127
:1018F000B093E511BF91AF919F918F913F912F913F
:101900000F900FBE0F901F90189526E8230F029698
:10191000A11DB11DD2CF1F920F920FB60F921124AD
:101920000BB60F922F933F934F935F936F937F93D9
:101930008F939F93AF93BF93EF93FF93E091100228
:10194000F09111021995FF91EF91BF91AF919F9185
:101950008F917F916F915F914F913F912F910F9058
:101960000BBE0F900FBE0F901F9018951F920F92F5
:101970000FB60F9211240BB60F922F933F934F93F4
:101980005F936F937F938F939F93AF93BF93EF93E7
:10199000FF93E0910E02F0910F021995FF91EF91E4
:1019A000BF91AF919F918F917F916F915F914F9177
:1019B0003F912F910F900BBE0F900FBE0F901F9075
:1019C00018951F920F920FB60F9211240BB60F921B
:1019D0002F933F934F935F936F937F938F939F9337
:1019E000AF93BF93EF93FF93E0910402F091050250
:1019F0001995FF91EF91BF91AF919F918F917F9139
:101A00006F915F914F913F912F910F900BBE0F906F
:101A10000FBE0F901F9018951F920F920FB60F9246
:101A200011240BB60F922F933F934F935F936F93B5
:101A30007F938F939F93AF93BF93EF93FF93E09127
:101A40000202F09103021995FF91EF91BF91AF91BE
:101A50009F918F917F916F915F914F913F912F91C6
:101A60000F900BBE0F900FBE0F901F9018951F92F6
:101A70000F920FB60F9211240BB60F922F933F9334
:101A80004F935F936F937F938F939F93AF93BF9386
:101A9000EF93FF93E0910C02F0910D021995FF91E5
:101AA000EF91BF91AF919F918F917F916F915F91D6
:101AB0004F913F912F910F900BBE0F900FBE0F9043
:101AC0001F9018951F920F920FB60F9211240BB60C
:101AD0000F922F933F934F935F936F937F938F93C7
:101AE0009F93AF93BF93EF93FF93E0910A02F0911E
:101AF0000B021995FF91EF91BF91AF919F918F913B
:101B00007F916F915F914F913F912F910F900BBEFD
:101B10000F900FBE0F901F9018951F920F920FB647
:101B20000F9211240BB60F922F933F934F935F9315
:101B30006F937F938F939F93AF93BF93EF93FF9395
:101B4000E0910802F09109021995FF91EF91BF9180
:101B5000AF919F918F917F916F915F914F913F9145
:101B60002F910F900BBE0F900FBE0F901F901895E6
:101B70001F920F920FB60F9211240BB60F922F9354
:101B80003F934F935F936F937F938F939F93AF9305
:101B9000BF93EF93FF93E0910602F091070219952E
:101BA000FF91EF91BF91AF919F918F917F916F9135
:101BB0005F914F913F912F910F900BBE0F900FBEF1
:101BC0000F901F9018951F920F920FB60F9211242D
:101BD0000BB60F922F933F934F935F936F937F9327
:101BE0008F939F93AF93BF93EF93FF938AE392E119
:101BF0000E94E404FF91EF91BF91AF919F918F916B
:101C00007F916F915F914F913F912F910F900BBEFC
:101C10000F900FBE0F901F9018951F920F920FB646
:101C20000F9211240BB60F922F938F939F93EF93E4
:101C3000FF93E0914A12F0914B128081E091501293
:101C4000F091511282FD1DC09081809153128F5FDF
:101C50008F7320915412821741F0E0915312F0E0FB
:101C6000E65CFD4E958F80935312FF91EF919F910B
:101C70008F912F910F900BBE0F900FBE0F901F9062
:101C800018958081F2CF1F920F920FB60F921124F8
:101C90000BB60F922F933F934F935F936F937F9366
:101CA0008F939F93AF93BF93EF93FF938091B9006E
:101CB000887F803609F44DC008F040C0883209F4AE
:101CC000A9C028F5803109F49DC0C8F4882309F41F
:101CD000FBC0883009F496C0FF91EF91BF91AF919E
:101CE0009F918F917F916F915F914F913F912F9134
:101CF0000F900BBE0F900FBE0F901F90189588315C
:101D000009F488C0803241F780930A1214C08034ED
:101D100009F49DC040F48033B9F38833E9F6809329
:101D20000A1285ECB0C0803509F485C0883509F405
:101D300096C0883489F60E948B0ACECF883909F480
:101D40008CC038F5883729F050F4883611F0803788
:101D500019F683E080930C121092970D57C08838C3
:101D600009F47BC0803919F0803809F0B5CF809133
:101D7000970D803208F071C0E091970D81E08E0FD1
:101D80008093970D8091BB00F0E0E958F24F80837B
:101D90003DC0803B39F0E0F4803A09F479C0883ADC
:101DA00009F09ACF84E080930C121092760D109275
:101DB000750DE0919A0DF0919B0D19958091750D1F
:101DC00081110FC081E08093750D1092550D09C0EF
:101DD000803C09F4A6CF883C09F4A3CF883B09F0E6
:101DE0007BCFE091760D81E08E0F8093760DF0E051
:101DF000EB5AF24F80818093BB009091760D8091D9
:101E0000750D29C08091E7118093BB0085EC80930C
:101E1000BC0062CF9091091280910812981758F572
:101E2000E091091281E08E0F80930912F0E0E851F1
:101E3000FE4E8081E9CFE091091281E08E0F809300
:101E400009128091BB00F0E0E851FE4E8083909132
:101E50000912809108129817C8F285E8D8CFE0914E
:101E6000091281E08E0F809309128091BB00F0E08F
:101E7000E851FE4E808380910B1281115CCF81E08E
:101E80008093E61184EA8093BC0010920C1224CF58
:101E900085EC8093BC0010920C128091970D8032DB
:101EA00030F4E091970DF0E0E958F24F1082609124
:101EB000970D70E0E091980DF091990D87E79DE006
:101EC00019951092970D08CF10920A1234CF1F92D5
:101ED0000F920FB60F9211240BB60F922F933F93D0
:101EE0004F935F936F937F938F939F93AF93BF9322
:101EF000EF93FF93E0910002F09101021995FF9199
:101F0000EF91BF91AF919F918F917F916F915F9171
:101F10004F913F912F910F900BBE0F900FBE0F90DE
:101F20001F9018957F928F929F92AF92BF92CF92FF
:101F3000DF92EF92FF920F931F93CF93DF93EAE329
:101F4000F2E11382128288EE93E0A0E0B0E0848395
:101F50009583A683B78321E63AE03183208325EC7D
:101F600030E03587248724EC30E03787268720EC63
:101F700030E0318B208B21EC30E0338B228B22EC54
:101F800030E0358B248B26EC30E0378B268B118E9E
:101F9000128E138E148EE7EDF2E113821282848387
:101FA0009583A683B78383E79AE09183808381E456
:101FB0008093E41282E48093E3128EE3782E7F9282
:101FC0009CE4892E8F922CEC922E9F92DDECDF9375
:101FD000A12CB12C6501E12CF12C00E810E426EED7
:101FE00032E14AEE52E16EEE72E182EF92E10E943E
:101FF000A808C3E4C093E512C0932E137F928F927A
:102000009F92DF9328E733E14CE753E160E873E107
:1020100084E893E10E94A8087F928F929F92DF93B9
:1020200020E333E144E353E168E373E18CE393E1BC
:102030000E94A808C0932F138DB79EB70C960FB6B9
:10204000F8949EBF0FBE8DBFDF91CF911F910F916E
:10205000FF90EF90DF90CF90BF90AF909F908F90C8
:102060007F900895CF93DF93CDB7DEB7CF55D8409B
:102070000FB6F894DEBF0FBECDBF789484B58260F2
:1020800084BD84B5816084BD85B5826085BD85B51C
:10209000816085BD80916E00816080936E0010929A
:1020A0008100809181008260809381008091810015
:1020B00081608093810080918000816080938000A6
:1020C0008091B10084608093B1008091B000816004
:1020D0008093B00080919100826080939100809104
:1020E0009100816080939100809190008160809345
:1020F00090008091A10082608093A1008091A10056
:1021000081608093A1008091A00081608093A000F5
:102110008091210182608093210180912101816061
:102120008093210180912001816080932001809122
:102130007A00846080937A0080917A008260809334
:102140007A0080917A00816080937A0080917A0091
:10215000806880937A001092C100E0914A12F09159
:102160004B1282E08083E0914612F0914712108278
:10217000E0914812F091491290E19083109252122E
:10218000E0914E12F0914F1286E08083E0914C1264
:10219000F0914D12808180618083E0914C12F0912A
:1021A0004D12808188608083E0914C12F0914D1235
:1021B000808180688083E0914C12F0914D12808183
:1021C0008F7D80831092C10D1092C20D1092C30DAD
:1021D0001092C40D1092C00D1092BF0DE1ECFEE004
:1021E00020E233E0DF01A9011D9241505040E1F7A8
:1021F000909381001092800081E08093BE0D20E4D6
:102200003FE1309387002093860091E19093810015
:1022100021E434E0309301022093000280936F00A8
:102220001092810010928500109284009091BE0D52
:102230009061909381008093C50DA1EFB9E0E7ED27
:10224000FDE040E050E0BA01408351836283738334
:10225000148215821682178210868D919D91928725
:1022600081874F5F5F4F6F4F7F4F3B9642315105E4
:102270006105710549F784EE92E10E94840883EEBE
:1022800092E10E94840860E084E10E948A0260E09A
:1022900085E10E948A0218E41093B80084EE92E16E
:1022A0000E94840883EE92E10E94840860E084E149
:1022B0000E948A0260E085E10E948A021093B800C1
:1022C00040E050E068EC72E484EE92E10E9468091C
:1022D00040E050E068EC72E483EE92E10E9468090D
:1022E00010929D0E10929E0E10929F0E1092A00EB4
:1022F0001092A10E1092A20E1092A30E1092A40E94
:102300001092A50E81E090E0A0E0B0E08093A80ECE
:102310009093A90EA093AA0EB093AB0E1092AC0EA0
:102320001092AD0E1092AE0E1092AF0E1092B00E33
:102330008EE190E09093A70E8093A60E9093B20E3C
:102340008093B10E1092CD0D1092CC0D1092CB0D4A
:102350001092CA0D1092C90D1092C80D1092C70D9F
:102360001092C60D10928013109281131092821356
:1023700010928313109238131092391310923A135B
:1023800010923B13109278131092791310927A13D3
:1023900010927B131092301310923113109232135B
:1023A0001092331361E080E00E948A0261E086E0CF
:1023B0000E948A0261E081E00E948A0261E087E077
:1023C0000E948A0260E082E00E948A0260E086E168
:1023D0000E948A0260E083E00E948A0260E087E156
:1023E0000E948A0287E793E090930302809302029F
:1023F00080916A008C7F816080936A00EC9A8CEDFA
:1024000093E0909305028093040280916A00837F99
:10241000846080936A00ED9A8091BE13811104C09C
:1024200084E893E10E94120681E08093BE1384E861
:1024300093E10E948E0180E090E0AFE7B3EC8093DF
:10244000B6139093B713A093B813B093B91380E069
:1024500090E0AFE7B3E48093BA139093BB13A093DB
:10246000BC13B093BD138091BE13882361F000E0CC
:1024700010E02FE733E440E050E06FE773EC84E8CE
:1024800093E10E94A40580917613811104C08CE32E
:1024900093E10E94120681E0809376138CE393E12E
:1024A0000E948E0180E090E0AFE7B3EC80936E1362
:1024B00090936F13A0937013B093711380E090E02A
:1024C000AFE7B3E48093721390937313A0937413E4
:1024D000B093751380917613882361F000E010E0CB
:1024E0002FE733E440E050E06FE773EC8CE393E1D7
:1024F0000E94A4058FE293E10E94840860E084E1D9
:102500000E948A0260E085E10E948A0210E2109334
:10251000B80040E050E06AE774E48FE293E10E9483
:10252000680950E040E060E08FE293E10E943C08DF
:1025300061E086E00E945C0261E087E00E945C024C
:102540001092BA0E1092BB0E1092BC0E1092BD0EDD
:102550001092BE0E1092C00E1092BF0E61E083E08A
:102560000E948A0261E089E00E948A028EE293E181
:102570000E94840860E084E10E948A0260E085E1B4
:102580000E948A021093B80040E050E06AE774E4C9
:102590008EE293E10E94680950E040E060E08EE244
:1025A00093E10E943C0861E089E00E945C02109285
:1025B000B30E1092B40E1092B50E1092B60E109289
:1025C000B70E1092B90E1092B80E1092D10D109253
:1025D000D00D1092CF0D1092CE0D1092EE121092DF
:1025E000EF121092F0121092F1121092E612109265
:1025F000E7121092E8121092E91261E082E00E9464
:102600008A0261E088E00E948A0260E082E10E9422
:102610008A0260E088E10E948A0282E193E090935E
:102620000D0280930C02809169008F738064809307
:102630006900EB9A80912C13811104C082EF92E122
:102640000E94120681E080932C1382EF92E10E9497
:102650008E0180E090EFAFE7B5EC80932413909368
:102660002513A0932613B093271380E090EFAFE7D4
:10267000B5E48093281390932913A0932A13B09361
:102680002B1380912C13882361F000E010EF2FE7CB
:1026900035E440E050EF6FE775EC82EF92E10E9485
:1026A000A40585EE92E10E94840860E084E10E9426
:1026B0008A0260E085E10E948A0280E28093B8008D
:1026C00040E050E06AE774E485EE92E10E94680918
:1026D00050E040E060E085EE92E10E943C0861E05D
:1026E00088E00E945C021FB7F8948091D20D81119E
:1026F00027C0E7E1F2E08491EDE5F2E09491E82F64
:10270000F0E0EE0FFF1FEC56FE4FA591B491EC9157
:102710009E2321F461E085E30E945C0261E085E391
:102720000E948A028CB580618CBD8CB580648CBDA2
:1027300061E084E30E948A0261E083E30E948A02EE
:102740008091D20D8F5F8093D20D1FBF61E085E332
:102750000E945C0289EE9AE09F938F930E94C30AC5
:1027600061E070E080E090E00E94E0020F900F9046
:102770004E0159E1851A58EF950A84E2D4011D9261
:102780008A95E9F7C15CD74F19821882CF53D84098
:10279000CF5BD74F19821882C154D8407E01B1E671
:1027A000EB1AB8EFFB0A82E1F70111928A95E9F77B
:1027B000D701E7EDFDE080858D933B962EE0ED3966
:1027C000F207C9F78091BE0E882351F101EC1EE09B
:1027D000F80180819181A281B3810097A105B105A3
:1027E000B1F04481558166817781481759076A079E
:1027F0007B0768F00284F385E02DD80118968D914F
:102800009C911995F8011482158216821782005F37
:102810001F4FF1E1013E1F07D9F60E947305ADCFAE
:102820008091B70E8111D2CF8091A50E8111CECFAC
:102830008091B00E8111CACFD7018C918111C6CF82
:1028400011968C9111978111C1CF12968C9112978C
:102850008111BCCF13968C9113978111B7CF149629
:102860008C9114978111B2CF15968C911597811187
:10287000ADCF16968C9116978111A8CF17968C9193
:1028800017978111A3CF18968C91189781119ECF1D
:1028900019968C911997811199CF1A968C911A9744
:1028A000811194CF1B968C911B9781118FCF1C9611
:1028B0008C911C9781118ACF1D968C911D97811147
:1028C00085CF1E968C911E97811180CF1F968C917B
:1028D0001F9781117BCF50968C915097811176CFA5
:1028E00051968C91811172CF86EF9AE09F938F93CE
:1028F0000E94C30A64E670E080E090E00E94E0027B
:1029000087E2E2E1F2E0D70101900D928A95E1F7CA
:1029100080E19BE09F938F930E94C30A8091D60D24
:102920008F938091D50D8F930E94C30A88E29BE01C
:102930009F938F930E94C30A8091D40D8F938091AF
:10294000D30D8F930E94C30A8091D50D9091D60D1F
:102950000FB6F894DEBF0FBECDBF87329105B8F039
:1029600087E290E09093D60D8093D50D8DE39BE0A8
:102970009F938F930E94C30A1F9282E08F930E94BD
:10298000C30A0F900F900F900F9012E00FC10091AB
:10299000D30D1091D40DE80EF91ED7018C91833020
:1029A00009F4BDC108F01CC1813009F446C1823070
:1029B00009F46EC18091D30D9091D40D019690933E
:1029C000D40D8093D30D8DE39BE09F938F930E9452
:1029D000C30A1F921F920E94C30ACB5DD74F588132
:1029E000C552D840CD5AD74F5883C355D840CA5D39
:1029F000D74F8881C652D840C35BD74F8883CD5408
:102A0000D840C95DD74F9881C752D840C15AD74FD7
:102A10009883CF55D840C85DD74FA881C852D840B9
:102A2000CB5AD74FA883C555D840C75DD74FB8817B
:102A3000C952D840CE5AD74FB883C255D840C65D88
:102A4000D74FE881CA52D840C15BD74FE883CF54F3
:102A5000D840C55DD74FF881CB52D840C55BD74F22
:102A6000F883CB54D840C45DD74F2881CC52D8408E
:102A7000C25AD74F2883CE55D840C35DD74F38812F
:102A8000CD52D840C05BD74F3883C055D840C25DC7
:102A9000D74F4881CE52D840CF5AD74F4883C155DF
:102AA000D840C15DD74F5881CF52D840C25BD74F75
:102AB0005883CE54D840C05DD74F8881C053D8408A
:102AC000CA5AD74F8883C655D840CF5CD74F988114
:102AD000C153D840CC5AD74F9883C455D840CE5C08
:102AE000D74FA881C253D840C85AD74FA883C855DA
:102AF000D840CD5CD74FB881C353D840C95AD74FBF
:102B0000B883C755D840CC5CD74FE881C453D84070
:102B1000C35AD74FE883CD55D840CB5CD74FF88107
:102B2000C553D840C45BD74FF883CC54D840CA5C57
:102B3000D74F2881C653D840C65BD74F2883CA5485
:102B4000D840C95CD74F48815981C753D840C75A2C
:102B5000D74F59834883C955D840C75CD74F888120
:102B60009981C953D840C55AD74F99838883CB558B
:102B7000D840C55CD74FA881B981CB53D840CA5B38
:102B8000D74FB983A883C654D840C35CD74FE881D8
:102B9000F981CD53D840C85BD74FF983E883C85437
:102BA000D8400F900F900F900F9010E08FE59CE0B1
:102BB0009F938F930E94C30A1F921F930E94C30A80
:102BC0000F900F900F900F90123009F020C184E702
:102BD0009CE09F938F930E94C30A0F900F90F6CDB5
:102BE000853009F4F0C008F4CCC0863009F0E2CE9C
:102BF0008CE9E9E3F2E0DE01A959B94F01900D92A9
:102C00008A95E1F789E49CE09F938F930E94C30A21
:102C10001F930F930E94C30A0F900F900F900F9075
:102C20000630110508F0C7C08AE1809FF001819F3E
:102C3000F00D112447E656E06DC082E292E0E5ED2A
:102C4000F2E0DE01AB5BBB4F01900D920197E1F723
:102C50008DE49BE09F938F930E94C30A1F930F9371
:102C60000E94C30A0F900F900F900F9088E69BE090
:102C70000531110558F58AE1809FF001819FF00D23
:102C8000112425E434E02C0F3D1FE20FF31F71C027
:102C900082E292E0E7EFF4E0DE01AD5DBD4F01902E
:102CA0000D920197E1F781E99BE09F938F930E943A
:102CB000C30A1F930F930E94C30A0F900F900F90A7
:102CC0000F9005311105F0F089EA9BE09F938F93F7
:102CD0000E94C30A0F900F901092D40D1092D30D42
:102CE0008091D50D9091D60D01969093D60D80933D
:102CF000D50D87E39DE09F938F930E94C30A0F90A9
:102D00000F9043CE8AE1809FF001819FF00D112446
:102D100043E252E04C0F5D1FE40FF51F2AC082E230
:102D200092E0E9E1F7E0DE01119601900D92019742
:102D3000E1F78FEC9BE09F938F930E94C30A1F9350
:102D40000F930E94C30A0F900F900F900F9087EE81
:102D50009BE00531110508F0B9CF8AE1809FF001B1
:102D6000819FF00D1124A1E0B0E0AC0FBD1FEA0F70
:102D7000FB1FDE01AB5DB74F01900D928A95E1F725
:102D800019CE8AE1EBE3F9E0DE01A55FB74F0190D0
:102D90000D928A95E1F78DE09CE09F938F930E94BE
:102DA000C30A1F930F930E94C30A0F900F900F90B6
:102DB0000F90012B19F084E29CE088CF8AE1FE019C
:102DC000E55FF74FD6CF8CE9E5E5F9E0DE01AD5FD1
:102DD000B84F01900D928A95E1F789E49CE09F93AA
:102DE0008F930E94C30A1F930F930E94C30A0F90F0
:102DF0000F900F900F9006301105E8F68AE1809F42
:102E0000F001819FF00D112423E037E03CCF8FE8E3
:102E10009CE09F938F930E94C30ACD5AD74FF881AD
:102E2000C355D8408F2F90E0D4018D939C93C35B02
:102E3000D74FB881CD54D8408B2F90E0F4019383C5
:102E40008283C15AD74FF881CF55D8408F2F90E059
:102E5000D40115969C938E931497CB5AD74FB88173
:102E6000C555D8408B2F90E0F40197838683CE5AC6
:102E7000D74FF881C255D8408F2F90E0D4011996D2
:102E80009C938E931897C15BD74FB881CF54D8408D
:102E90008B2F90E0F40193878287C55BD74FF88131
:102EA000CB54D8408F2F90E0D4011D969C938E93E5
:102EB0001C97C25AD74FB881CE55D8408B2F90E07F
:102EC000F40197878687C05BD74FF881C055D840FB
:102ED0008F2F90E0D40151969C938E935097CF5AA8
:102EE000D74FB881C155D8408B2F90E0F401938B18
:102EF000828BC25BD74FF881CE54D8408F2F90E0A1
:102F0000D40155969C938E935497CA5AD74FB88143
:102F1000C655D8408B2F90E0F401978B868BCC5A06
:102F2000D74FF881C455D8408F2F90E0D4015996DF
:102F30009C938E935897C85AD74FB881C855D8409C
:102F40008B2F90E0F401938F828FC95AD74FF8816D
:102F5000C755D8408F2F90E0D4015D969C938E93F7
:102F60005C97C35AD74FB881CD55D8408B2F90E08E
:102F7000F401978F868FC45BD74FF881CC54D8402B
:102F80008F2F90E0D40191969C938E939097C65B7F
:102F9000D74FB881CA54D8408B2F90E0F40193A347
:102FA00082A3C75AD74F28813981C955D840C15CFF
:102FB000D74F39832883CF53D840C55AD74F48813C
:102FC0005981CB55D840CF5BD74F59834883C154E3
:102FD000D840CE018156984FCC5BD74F99838883D8
:102FE000C454D840740135E1232E3AE0332E49E32E
:102FF000A42E4AE0B42E0F900F906C0107ED1DE057
:10300000412C512C3201D80118968C91833059F5FE
:10301000E1EAFCE0FF93EF930E94C30A83E090E0B3
:10302000A0E0B0E0F60180839183A283B3830F9088
:103030000F904FEF441A540A640A740A055F1F4F39
:1030400054E0C50ED11C82E0E80EF11C92E0290E7E
:10305000311CA2E0AA0EB11CB2E14B16510461046E
:10306000710489F658C0D7012D913C91F5018081FA
:1030700091812817390750F0D1018D919C918217C9
:10308000930778F42F3FBFEE3B0759F02EEF3FEF49
:103090004FEF5FEFD6012D933D934D935C931397C4
:1030A000C8CFF80181859285821B930B97FF03C0DF
:1030B000919581959109F6E0F89FB001F99F700D07
:1030C00011246115710511F461E070E0072E000C08
:1030D000880B990B2BE83BE0A8010E94020B9B0197
:1030E000AC012D5F3F4F4F4F5F4F223031054105FF
:1030F000510508F061C09F938F937F936F938EEA81
:103100009CE09F938F930E94C30A0F900F900F90A3
:103110000F900F900F908EEC9CE09F938F930E94E6
:10312000C30A0DE91EE03E01E1EC6E1AE7EF7E0AEC
:103130000F900F90212C312C210129E0E22E2DE05F
:10314000F22ED80118968C91833009F07FC023E0CD
:1031500030E040E050E0CC5BD74FA881B981C45447
:10316000D8402D933D934D935C931397E6EDFCE08F
:10317000FF93EF930E94C30A0F900F90055F1F4FBC
:10318000CC5BD74F28813981C454D8402C5F3F4F46
:10319000CC5BD74F39832883C454D84032E0630EC8
:1031A000711C2A9423282428252809F4D6C0212C10
:1031B000312C21012394C5CFE3E0D8011896EC937C
:1031C000189714966D937D938D939C931797F701A1
:1031D000A081B181F801B287A18720ED37E00E947C
:1031E0001F1EF1E04F1651046104710431F027E015
:1031F000421651046104710421F52EE031E040E0F3
:1032000050E00E94311BD901AC50BE4F2FEF3FE080
:103210000E941F1E20E137E240E050E00E94311B77
:10322000A901642D84EE92E139E043165104610452
:10323000710424F067EF640D83EE92E10E943C0874
:10324000F8CE24EB30E040E050E0DBCFD3018D91AD
:103250009C918F35B1E09B07B0F08F3FEFEE9E075A
:1032600091F02EEF3FEF4FEF5FEFCC5BD74FA88190
:10327000B981C454D8402D933D934D935C931397DB
:10328000E9EEFCE075CFD8011996CD90DC90C81A14
:10329000D90AECEFFCE0FF93EF930E94C30ADF92A0
:1032A000CF920E94C30AFF92EF920E94C30A0F902E
:1032B0000F900F900F900F900F90D7FE11C1D194E7
:1032C000C194D10831E0CD5BD74F3883C354D84087
:1032D0004AE04C9D50014D9DB00C1124A114B10445
:1032E00019F4AA24A394B12C84E19DE09F938F93B9
:1032F0000E94C30ABF92AF920E94C30AFF92EF924C
:103300000E94C30AB501BB0C880B990B2DE03CE071
:10331000A8010E94020B9B01AC012D5F3F4F4F4F54
:103320005F4F0F900F900F900F900F900F902230E3
:1033300031054105510508F0D9C09F938F937F93C4
:103340006F938EEA9CE09F938F930E94C30A0F9025
:103350000F900F900F900F900F908091B70E8330C9
:1033600061F483E090E0A0E0B0E0C156D84F8883DC
:103370009983AA83BB83CF59D740CA5BD74FA88113
:10338000B981C654D840A333B10578F0AF3FBF4EE2
:1033900061F02EEF3FEF4FEF5FEFC156D84F28831C
:1033A00039834A835B83CF59D7408091B80E90917F
:1033B000B90ECA5BD74F48815981C654D840841B87
:1033C000950B10E097FF04C091958195910911E04C
:1033D0002DE0289FB001299F700D112411110EC0FE
:1033E000072E000C880B990B0E949D1C2AE939E9D5
:1033F00049E95FE30E94AA1D0E94651C61157105E1
:1034000011F461E070E0072E000C880B990B27EB9C
:103410003BE043EB5EE00E94020B6B017C0153E05A
:10342000C50ED11CE11CF11CA2E0CA16D104E104B6
:10343000F10408F0C0C09F938F937F936F938EEA3F
:103440009CE09F938F930E94C30A0F900F900F9060
:103450000F900F900F908091BE0E833009F4B6C983
:10346000C85BD74F28813981C854D84022303105F4
:1034700008F0ACC98091BF0E9091C00E2817390793
:1034800009F4A4C911E0821793070CF012E022EEB0
:103490003BE04AEB5EE060EF7AE080E090E00E9483
:1034A000020B6B017C0133E0C30ED11CE11CF11C4B
:1034B00042E0C416D104E104F10408F0A0C09F93D7
:1034C0008F937F936F938EEA9CE09F938F930E94DC
:1034D000C30A0F900F900F900F900F900F9076C926
:1034E000CD5BD74F1882C354D840F2CE23E0F80109
:1034F0002087D8016483758386839783F301808155
:1035000091811A969C938E931997F1E02F163104AE
:1035100041045104E1F1CD5BD74F2881C354D84019
:10352000213029F541E25DE05F934F930E94C30A89
:103530001F92CD5BD74F9881C354D8409F930E9470
:10354000C30AFF92EF920E94C30A60E086E00E94E5
:103550005C024FEF5FE060E08FE293E10E943C0885
:103560000F900F900F900F900F900F9007CEA1E249
:10357000BDE0BF93AF930E94C30A1F921F920E94A7
:10358000C30AFF92EF920E94C30A61E0DFCFCD5BD6
:10359000D74FF881C354D84060E0F13009F061E0C2
:1035A00087E00E945C024FEF5FE061E08FE293E111
:1035B0000E943C08E3CD23E02093B70E6093B30E46
:1035C0007093B40E8093B50E9093B60ECA5BD74F2E
:1035D000E881F981C654D840F093B90EE093B80E53
:1035E00060E0111101C061E088E00E945C024FEFD1
:1035F0005FE062E085EE92E10E943C082CCF23E080
:103600002093BE0E6093BA0E7093BB0E8093BC0ED7
:103610009093BD0EC85BD74F88819981C854D8401C
:103620009093C00E8093BF0E8EE29DE09F938F9388
:103630000E94C30A1F921F930E94C30A0F900F900B
:103640000F900F9061E0113009F060E089E00E9476
:103650005C024FEF5FE063E08EE293E10E943C0882
:10366000B5C8052E97FB1EF400940E94481B57FD19
:1036700007D00E94501B07FC03D04EF40C94481B4B
:1036800050954095309521953F4F4F4F5F4F08958E
:1036900090958095709561957F4F8F4F9F4F0895BE
:1036A000A1E21A2EAA1BBB1BFD010DC0AA1FBB1F46
:1036B000EE1FFF1FA217B307E407F50720F0A21BB8
:1036C000B30BE40BF50B661F771F881F991F1A9425
:1036D00069F760957095809590959B01AC01BD014F
:1036E000CF010895A29FB001B39FC001A39F700DA9
:1036F000811D1124911DB29F700D811D1124911DFA
:1037000008955058BB27AA270E94991B0C94531D5B
:103710000E94451D38F00E944C1D20F039F49F3F57
:1037200019F426F40C94421D0EF4E095E7FB0C947A
:10373000131DE92F0E94641D58F3BA17620773071F
:103740008407950720F079F4A6F50C949E1D0EF4DD
:10375000E0950B2EBA2FA02D0B01B90190010C01A1
:10376000CA01A0011124FF27591B99F0593F50F4B9
:10377000503E68F11A16F040A22F232F342F442711
:10378000585FF3CF469537952795A795F040539509
:10379000C9F77EF41F16BA0B620B730B840BBAF0D9
:1037A0009150A1F0FF0FBB1F661F771F881FC2F744
:1037B0000EC0BA0F621F731F841F48F48795779558
:1037C0006795B795F7959E3F08F0B0CF9395880F12
:1037D00008F09927EE0F9795879508950E94EF1CA2
:1037E00008F481E008950E94071C0C94531D0E9468
:1037F0004C1D58F00E94451D40F029F45F3F29F010
:103800000C94131D51110C949F1D0C94421D0E9489
:10381000641D68F39923B1F3552391F3951B550B60
:10382000BB27AA2762177307840738F09F5F5F4F93
:10383000220F331F441FAA1FA9F335D00E2E3AF0D2
:10384000E0E832D091505040E695001CCAF72BD0EA
:10385000FE2F29D0660F771F881FBB1F261737073B
:103860004807AB07B0E809F0BB0B802DBF01FF276D
:1038700093585F4F3AF09E3F510578F00C94131D1A
:103880000C949F1D5F3FE4F3983ED4F386957795A3
:103890006795B795F7959F5FC9F7880F911D969526
:1038A000879597F90895E1E0660F771F881FBB1F82
:1038B000621773078407BA0720F0621B730B840B2F
:1038C000BA0BEE1F88F7E09508950E946C1C68946F
:1038D000B1110C949F1D08950E946C1D88F09F5794
:1038E00098F0B92F9927B751B0F0E1F0660F771F24
:1038F000881F991F1AF0BA95C9F714C0B13091F01A
:103900000E949E1DB1E008950C949E1D672F782F94
:103910008827B85F39F0B93FCCF3869577956795DE
:10392000B395D9F73EF490958095709561957F4F4A
:103930008F4F9F4F0895E89409C097FB3EF49095F0
:103940008095709561957F4F8F4F9F4F9923A9F078
:10395000F92F96E9BB279395F69587957795679507
:10396000B795F111F8CFFAF4BB0F11F460FF1BC04B
:103970006F5F7F4F8F4F9F4F16C0882311F096E9DE
:1039800011C0772321F09EE8872F762F05C066238C
:1039900071F096E8862F70E060E02AF09A95660F45
:1039A000771F881FDAF7880F9695879597F90895FE
:1039B0000E94861D90F09F3748F4911116F00C94E8
:1039C0009F1D60E070E080E89FEB089526F41B16D1
:1039D000611D711D811D0C94191D0C94341D990FCE
:1039E0000008550FAA0BE0E8FEEF16161706E807C9
:1039F000F907C0F012161306E407F50798F0621BEA
:103A0000730B840B950B39F40A2661F0232B242BBE
:103A1000252B21F408950A2609F4A140A6958FEFDD
:103A2000811D811D089597F99F6780E870E060E02F
:103A30000895882371F4772321F09850872B762FEF
:103A400007C0662311F499270DC09051862B70E0B2
:103A500060E02AF09A95660F771F881FDAF7880FC3
:103A60009695879597F908959F3F31F0915020F4EE
:103A7000879577956795B795880F911D969587954A
:103A800097F908959FEF80EC089500240A94161684
:103A9000170618060906089500240A94121613063C
:103AA000140605060895092E0394000C11F48823CA
:103AB00052F0BB0F40F4BF2B11F460FF04C06F5FE6
:103AC0007F4F8F4F9F4F089557FD9058440F551FBC
:103AD00059F05F3F71F04795880F97FB991F61F090
:103AE0009F3F79F087950895121613061406551F07
:103AF000F2CF4695F1DF08C0161617061806991F73
:103B0000F1CF869571056105089408950E946C1D9A
:103B1000A0F0BEE7B91788F4BB279F3860F41616EB
:103B2000B11D672F782F8827985FF7CF86957795F7
:103B30006795B11D93959639C8F30895E894BB270E
:103B400066277727CB0197F908950E94EF1C08F4A8
:103B50008FEF08950E94BD1D0C94531D0E94451DBA
:103B600038F00E944C1D20F0952311F00C94131D89
:103B70000C94421D11240C949F1D0E94641D70F32F
:103B8000959FC1F3950F50E0551F629FF001729F02
:103B9000BB27F00DB11D639FAA27F00DB11DAA1F11
:103BA000649F6627B00DA11D661F829F2227B00D5E
:103BB000A11D621F739FB00DA11D621F839FA00DE9
:103BC000611D221F749F3327A00D611D231F849F39
:103BD000600D211D822F762F6A2F11249F57504090
:103BE0009AF0F1F088234AF0EE0FFF1FBB1F661F0B
:103BF000771F881F91505040A9F79E3F510580F0D4
:103C00000C94131D0C949F1D5F3FE4F3983ED4F376
:103C1000869577956795B795F795E7959F5FC1F777
:103C2000FE2B880F911D9695879597F90895EE0FB5
:103C3000FF1F881F8BBF0790F691E02D19940E94FB
:103C4000721BB7FF0895821B930B08950F931F9368
:103C5000CF93DF93CDB7DEB72E970FB6F894DEBFC4
:103C60000FBECDBF8C0186E08C831A8309838FEF52
:103C70009FE79E838D83CE0101960E94501E2F8167
:103C80003885020F131FF80110822E960FB6F89494
:103C9000DEBF0FBECDBFDF91CF911F910F91089571
:103CA0002F923F924F925F926F927F928F929F924C
:103CB000AF92BF92CF92DF92EF92FF920F931F933A
:103CC000CF93DF9300D000D000D01F921F92CDB7CA
:103CD000DEB77C013B018A01FC01178216828381D9
:103CE00081FFDDC1CE0101965C01F7019381F301F3
:103CF00093FD859193FF81913F01882309F453C17E
:103D0000853239F493FD859193FF81913F0185328E
:103D100029F4B70190E00E946820E7CF912C212C74
:103D2000312CFFE1F31538F08B3211F190F4803231
:103D300009F1833229F137FC3CC020ED280F2A30ED
:103D400050F536FE20C08AE0989E200D1124922E58
:103D500006C08D3291F0803371F7689430F8F3012A
:103D600093FD859193FF81913F018111DACF21C0AD
:103D7000689431F8689432F8F2CF689433F8EFCF52
:103D8000689434F8ECCFEAE02E9E200D1124222E08
:103D9000689435F8E4CF8E3229F436FC04C1689477
:103DA00036F8DDCF8C3619F4689437F8D8CF8836DA
:103DB000B1F2982F9F7D95549330E0F08336A1F1B6
:103DC0008337C1F1833509F063C02801F2E04F0E5B
:103DD000511CF801C080D180692D70E036FC02C012
:103DE0006FEF7FEFC6010E9452204C01689437F8B4
:103DF00082010AC00C5F1F4FFFE3F983882483947C
:103E0000912C6501E89437F833FE2DC0522C8114B3
:103E1000910471F5552009F468CFB70180E290E074
:103E20000E9468205A94F6CFF801808189830E5F42
:103E30001F4FE4CF2801F2E04F0E511CF801C08063
:103E4000D180692D70E036FC02C06FEF7FEFC601B4
:103E50000E945D204C018201D5CFB70180E290E045
:103E60000E9468202A942814190409F0B0F7CECFD4
:103E7000F60137FC859137FE81916F01B70190E023
:103E80000E94682051105A94F1E08F1A9108BFCF18
:103E9000843619F0893609F077C0F80137FE6BC017
:103EA00060817181828193810C5F1F4FF32DFF76BA
:103EB0003F2E97FF09C090958095709561957F4F33
:103EC0008F4F9F4F689437F82AE030E0A5010E9499
:103ED0009820C82ECA188C2C432C36FE0CC0E894AF
:103EE00040F8C91440F434FE05C032FC03C0F32D81
:103EF000FE7E4F2E892C44FEAAC0FE01EC0DF11D62
:103F00008081803309F09CC0242D297E422E842D8F
:103F10008870582E43FCAAC040FEA4C09C2C82147A
:103F200018F42C0C922C981844FEA6C0B70180E31C
:103F300090E00E94682042FE09C088E790E041FEC0
:103F400002C088E590E0B7010E946820C91408F417
:103F50009FC0CA94D12C9FEFC91AD90ACA0CDB1C86
:103F6000F60182916F01B70190E00E946820AC14C5
:103F7000BD04B1F74FCF60817181072E000C880B13
:103F8000990B0E5F1F4F92CFD32CE894D4F82AE000
:103F900030E08537E1F1232D297FD22E8F36A9F12C
:103FA000F0F4883551F1F701868197812B960FB691
:103FB000F894DEBF0FBECDBFDF91CF911F910F915F
:103FC000FF90EF90DF90CF90BF90AF909F908F9039
:103FD0007F906F905F904F903F902F900895803723
:103FE00049F0883701F7D4FE02C06894D2F820E186
:103FF00030E00DC06894D4F8F6CF34FE03C0822FB1
:104000008660D82E20E132E002C028E030E0F801DE
:10401000D7FE0FC060817181828193810C5F1F4F39
:10402000A5010E949820C82ECA183D2CE89437F8A4
:1040300052CF6081718190E080E00E5F1F4FF0CF22
:1040400042FC02C0839463CF8394839460CF842D19
:10405000867809F45CCFF6CFB70180E290E00E9449
:10406000682083948214C0F3512C5ECF522C5818D0
:10407000821408F459CFF8CF842D867809F466CFDE
:104080008BE241FE80E247FC8DE2B70190E05CCF1D
:10409000B70180E390E00E9468209A9457CF8FEF99
:1040A0009FEF84CFFC010590615070400110D8F75C
:1040B000809590958E0F9F1F0895FC016150704070
:1040C00001900110D8F7809590958E0F9F1F08954D
:1040D0000F931F93CF93DF93182F092FEB018B8141
:1040E00081FD09C01FEF0FEF812F902FDF91CF913E
:1040F0001F910F91089582FF14C02E813F818C8102
:104100009D81281739073CF4E881F981CF01019698
:104110009983888310838E819F8101969F838E83EC
:10412000E3CFE885F985812F1995892BA1F3DACFA3
:10413000FA01AA27283051F1203181F1E8946F93D8
:104140006E7F6E5F7F4F8F4F9F4FAF4FB1E03ED07E
:10415000B4E03CD0670F781F891F9A1FA11D680F1C
:10416000791F8A1F911DA11D6A0F711D811D911D4F
:10417000A11D20D009F468943F912AE0269F1124C4
:104180003019305D3193DEF6CF010895462F477028
:10419000405D4193B3E00FD0C9F7F6CF462F4F7083
:1041A000405D4A3318F0495D31FD4052419302D0E1
:1041B000A9F7EACFB4E0A695979587957795679587
:1041C000BA95C9F700976105710508959B01AC0187
:1041D0000A2E06945795479537952795BA95C9F7AE
:1041E000620F731F841F951FA01D0895F894FFCFC1
:1041F000A7086F046F046F046F046F046F046F04EB
:104200006F04040101010101050303030303030318
:10421000030303030303030303030303030303036E
:104220000303030101010101068C46788C235F8C96
:1042300046418C233C8C235A7D23735E010E010082
:104240000001008C46788C235F8C46418C233C8C8B
:10425000235A7D23735E010E01F40101008C467820
:104260008C235F8C46418C233C8C235A7D23735EC8
:10427000010E01F40100008C46788C235F8C4641CE
:104280008C233C8C235A7D23735E010E01000000B9
:10429000008C46788C235F8C46418C233C8C235ABF
:1042A0007D23736D000300000000008C46788C2392
:1042B0005F8C46418C233C8C235A7D23736D000315
:1042C00000000000008C46788C235F8C46419B0ADE
:1042D0003C8C235A7D23731E001E00000001008CBD
:1042E00046788C235F8C4641780A3C8C235A7D2388
:1042F000731E001E00000001008C46788C235F8C2A
:10430000464178283C8C235A7D23731E001E0000F2
:104310000001008C46788C0A5F8C464178283C8CE2
:10432000235A7D23731E001E00000001008C467876
:104330008C0A6E8C464178283C8C235A7D23731E50
:10434000001E00000001008C46788C236E8C4641D4
:1043500078283C8C235A7D23731E001E0000000128
:10436000008C46788C236E8C464178283C8C235AEE
:104370007D0A731E001E00000001008C46788C230D
:104380006E8C464178283C8C235A910A731E001E7D
:1043900000000001008C46788C236E8C4641782802
:1043A0003C8C235A912B731E001E000000010096C6
:1043B00028788C236E8C464178283C8C235A912B8C
:1043C000731E001E00000001007328788C236E8C81
:1043D000464178283C8C235A912B731E001E000006
:1043E000000100734D788C236E8C464178283C8CFC
:1043F000235A912B731E001E0000000100734D789C
:104400008C236E8C464178283C8C0A5A912B731E63
:10441000001E0000000100734D788C236E8C464115
:1044200078283C8C0A4B912B731E001E0000000163
:1044300000734D788C236E8C464178283C8C234B3E
:10444000912B731E001E0000000100734D788C2319
:104450006E8C2D4178283C8C234B912B731E001EB3
:104460000000000100734D788C236E9B2D4178284D
:104470003C8C234B912B731E001E00000001007327
:104480004D788C236E9B524178283C8C234B912B8A
:10449000731E001E0000000100784B788C23699683
:1044A00049417D263C8C23508C22731E001E000047
:1044B0000001007D49788C236491484182243C8C22
:1044C00023558721731E001E0000000100824878DA
:1044D0008C235F8C484187233C8C235A8221731E96
:1044E000001E00000001008C46828C235F8C464138
:1044F0008C0A3C8C235A7D23731E001E0000000191
:10450000008C46828C235F8C46418C0A2D8C235A6A
:104510007D23731E001E00000001008C46828C2348
:104520005F8C46418C282D8C235A7D23731E001EE0
:1045300000000001008C46828C0A5F8C46418C286A
:104540002D8C235A7D23731E001E00000001008C59
:1045500046828C0A508C46418C282D8C235A7D2310
:10456000731E001E00000001008C46828C23508CBC
:1045700046418C282D8C235A7D23731E001E00007B
:104580000001008C46828C23508C2D418C282D8C70
:10459000235A7D23731E001E00000001008C4682FA
:1045A0008C23508C2D328C282D8C235A7D23731E06
:1045B000001E00000001008C46828C23508C523279
:1045C0008C282D8C235A7D23731E001E00000001B1
:1045D000008C28828C23508C52328C282D8C235AAC
:1045E0007D23731E001E00000001008C28738C23A5
:1045F000508C52328C282D8C235A7D23731E001E22
:1046000000000001008C4D738C23508C52328C289A
:104610002D8C235A7D23731E001E00000001008C88
:104620004D738C23508C52328C282D8C0A5A7D234A
:10463000731E001E00000001008C4D738C23508CF3
:1046400052328C282D8C0A4B7D23731E001E0000D5
:104650000001008C4D738C23508C52328C282D8C91
:10466000234B7D23731E001E00000001008C4D7340
:104670008C23508C52328C282D8C234B7D0A731E38
:10468000001E00000001008C4D738C23508C5232B0
:104690008C282D8C234B7D0A641E001E0000000117
:1046A000008C4D738C23508C52328C282D8C234BD4
:1046B0007D2B641E001E00000001008C4D788C23B1
:1046C000558C52378C28328C23507D2B691E001E4E
:1046D00000000001008C4D7D8C235A8C523C8C28AC
:1046E000378C23557D2B6E1E001E00000001008CB0
:1046F0004D828C235F8C52418C283C8C235A7D2B1D
:10470000731E001E00000001008C46788C235F8C15
:1047100046418C0A3C8C235A7D23731E001E0000E8
:104720000001008C46788C235F8C46418C0A4B8CB0
:10473000235A7D23731E001E00000001008C467862
:104740008C235F8C46418C284B8C235A7D23731E0F
:10475000001E00000001008C46788C0A5F8C4641E8
:104760008C284B8C235A7D23731E001E00000001F1
:10477000008C46788C0A6E8C46418C284B8C235AD0
:104780007D23731E001E00000001008C46788C23E0
:104790006E8C46418C284B8C235A7D23731E001E41
:1047A00000000001008C46788C236E8C2D418C28F3
:1047B0004B8C235A7D23731E001E00000001008CC9
:1047C00046788C236E8C2D508C284B8C235A7D235D
:1047D000731E001E00000001008C46788C236E8C36
:1047E00052508C284B8C235A7D23731E001E0000D0
:1047F0000001008C28788C236E8C52508C284B8CB6
:10480000235A7D23731E001E00000001008C2887A0
:104810008C236E8C52508C284B8C235A7D23731E14
:10482000001E00000001008C4D878C236E8C5250BE
:104830008C284B8C235A7D23731E001E0000000120
:10484000008C4D878C236E8C52508C284B8C0A5ACE
:104850007D23731E001E00000001008C4D878C23F9
:104860006E8C52508C284B8C0A697D23731E001E5F
:1048700000000001008C4D878C236E8C52508C28D8
:104880004B8C23697D23731E001E00000001008CE9
:104890004D878C236E8C52508C284B8C23697D0A5B
:1048A000731E001E00000001008C4D878C236E8C4F
:1048B00052508C284B8C23697D0A821E001E0000FA
:1048C0000001008C4D878C236E8C52508C284B8CB1
:1048D00023697D2B821E001E00000001008C4D828A
:1048E0008C23698C524B8C28468C23647D2B7D1E37
:1048F000001E00000001008C4D7D8C23648C52460C
:104900008C28418C235F7D2B781E001E0000000147
:10491000008C4D788C235F8C52418C283C8C235A20
:104920007D2B731E001E00000001008C46788C2336
:104930005F8C46418C233C8C235A7D23731E001EC2
:1049400000000000008C46788C235F8C46418C234D
:104950003C8C235A7D23730E010E01000000008C55
:1049600046788C235F8C46418C233C8C235A7D23D4
:10497000730E010E01F40100008C46788C235F8CCD
:1049800046418C233C8C235A7D23730E010E01F487
:104990000101008C46788C235F8C46418C233C8C33
:1049A000235A7D23730E010E01000001008C46780E
:1049B0008C235F8C46418C233C8C235A7D23731DB2
:1049C000000300000001008C46788C235F8C464178
:1049D0008C233C8C235A7D23731D000300000001AF
:1049E000008C00460082008C0023005F009100468E
:1049F0000041008C0023003C008C0023005A007D05
:104A00000023007300B40052009100B40025006E32
:104A100000B40052007800B40032007800B40023E3
:104A2000006900B4002B0084007300280041007D61
:104A300000000050007D0028002C0078000A002DA6
:104A4000007D0005004B0073000A003C00000000E0
:104A500000060570049D045305CE04AC04C0040098
:104A60000000000808DB07A408B107D407C107B29B
:104A7000072053797374656D206E6F7420696E69B9
:104A8000742000E382BFE382A4E3839EE383BCE45B
:104A9000B88AE99990E382A8E383A9E383BC00E3A1
:104AA00082BFE382A4E3839EE383BC4944E3818C19
:104AB000E5AD98E59CA8E38197E381AAE3818400B2
:104AC000E38193E3828CE38282E38186E784A1E73A
:104AD0009086E38284E381A70053797374656D2027
:104AE0005374617274002D2D2D205363656E652003
:104AF000496E707574205374617274202D2D2D00D1
:104B00002D2D2D207363656E6172696F636F756EF5
:104B1000746572202D2D2D002D2D2D207363656E53
:104B200065636F756E746572202D2D2D002D2D2DF2
:104B300020636865636B6572202D2D2D002D2D2D52
:104B40002073747261696768745363656E65496E3A
:104B5000707574202D2D2D002D2D2D2073747261F4
:104B6000696768745363656E65496E707574206318
:104B70006F756E746572206F766572202D2D2D0A0B
:104B8000002D2D2D206C5475726E5363656E654932
:104B90006E707574202D2D2D002D2D2D206C5475CB
:104BA000726E5363656E65496E70757420636F75C0
:104BB0006E746572206F766572202D2D2D0A002D82
:104BC0002D2D20725475726E5363656E65496E703B
:104BD0007574202D2D2D002D2D2D20725475726E83
:104BE0005363656E65496E70757420636F756E747E
:104BF0006572206F766572202D2D2D0A002D2D2DCA
:104C000020496E69745363656E65496E70757420D2
:104C10002D2D2D002D2D2D20496E69745363656E49
:104C200065496E70757420636F756E746572206F60
:104C3000766572202D2D2D0A002D2D2D2041726DAF
:104C40005363656E65496E707574202D2D2D002D92
:104C50002D2D207363656E65636865636B657220D7
:104C60002D2D2D002D2D2D207363656E6520636F16
:104C7000756E746572206F766572202D2D2D002D56
:104C80002D2D20616E676C6520736574202D2D2D90
:104C9000002D2D2D20283829202D2D2D0A00E382CE
:104CA000BFE382A4E3839EE383BCE996A2E980A3E9
:104CB000E382A8E383A9E383BC3A202564006D73F3
:104CC0004443536574002D2D2D2D2064632065729F
:104CD000722031202D2D2D2D002D2D2D2D206463A2
:104CE000206572722032202D2D2D2D002D2D2D2D81
:104CF000206474202D2D2D2D002D2D2D2D20202DC7
:104D00002D2D2D002D2D2D2D204454202D2D2D2DDC
:104D1000002D2D2D2D205544202D2D2D2D0072726E
:104D2000727272727272002D2D2D205363656E6542
:0A4D300020454E44202D2D2D2D00AE
:00000001FF
