:020000040000FA
:100000000C9448010C94640C0C94390C0C940E0C58
:100010000C94E30B0C94B80B0C948D0B0C94620BAA
:100020000C94370B0C9479010C9479010C947901A0
:100030000C9479010C9479010C9479010C94790158
:100040000C9479010C9479010C9479010C94790148
:100050000C94130E0C9479010C9479010C94ED0A14
:100060000C9479010C94B90C0C948F0C0C947901BC
:100070000C9479010C9479010C9479010C94790118
:100080000C9479010C9479010C9479010C94790108
:100090000C9479010C9479010C9479010C94EF0C77
:1000A0000C9479010C9479010C9479010C947901E8
:1000B0000C9479010C9479010C9479010C947901D8
:1000C0000C9479010C9479010C9479010C947901C8
:1000D0000C9479010C9479010C9479010C947901B8
:1000E0000C9479010C948E0A0C9401020C94E10199
:1000F0000C94CA010C94E5010C94AB010C94D80645
:100100000C94EB020C94BB070C94BE020C94630A93
:100110000C9471050C94D1010C94C9060C94F30154
:100120000C94FD010C94FE0E0C94B0010C94B90AD1
:100130000C94C8060C948F020C94F7010C94DB010C
:100140000C94BD020C94BE070C94C2010C94700573
:100150000C9454030C941F070C94C6010C94E901F1
:100160000C94FA020C94D7010C94CE010C940E035B
:100170000C94EF010C94A1030C94370A0C94F20632
:100180000C941C030C94EB060000210024002700B3
:100190002A002D0030003300010100000401070196
:1001A0000A0100002200250028002B002E0031004B
:1001B000340002010000050108010B0105050505D9
:1001C000070508080808020202020A0A08080404CF
:1001D00004040101010101010101030303030303FD
:1001E0000303040707070C0C0C0C0C0C0C0C02028C
:1001F000020206060606060606060B0B0B0B0B0B89
:100200000B0B010210202008081020401020408015
:1002100002010201080402010102040810204080CA
:100220008040201008040201800402018040201058
:1002300008040201080402010102040810204080A1
:10024000010204081020408000000A0B02090C0D76
:100250000E08070304010000000000000000000079
:10026000000000000000000000000000000000008E
:10027000000000001211100000000000000000004B
:100280000000000000000000000000000000FE0E62
:1002900011241FBECFEFD1E2DEBFCDBF00E00CBF07
:1002A00018E0A0E0B2E0E6EDF6E300E00BBF02C02C
:1002B00007900D92AA3BB107D9F72FE0AAEBB8E05F
:1002C00001C01D92A232B207E1F711E0C8E4D1E00B
:1002D00000E006C021970109802FFE010E948A18C4
:1002E000C734D10780E00807A9F70E949E0F0C943D
:1002F000691B0C940000282F30E0F901E85BFD4FEA
:100300009491F901EE5FFD4F449124543E4FF90161
:100310002491222309F435C0992311F1915092318F
:10032000F8F4E92FF0E08827E756FE4F8F4F0C9442
:100330008A18CA01CE01AB01C201C601B001D101C8
:10034000D701DB01E101E501E901EF01F301B001B2
:10035000F701FD010102809180008F77809380007A
:10036000E22FF0E0EE0FFF1FEE55FE4FA591B49186
:100370008FB7F894EC91611148C040954E234C938F
:100380008FBF0895809180008F7DE8CF809180009D
:10039000877FE4CF84B58F7784BDE2CF84B58F7D2E
:1003A000FBCF8091B0008F778093B000D9CF809140
:1003B000B0008F7DF9CF809190008F77809390006F
:1003C000CFCF809190008F7DF9CF80919000877F73
:1003D000F5CF8091A0008F778093A000C1CF80914E
:1003E000A0008F7DF9CF8091A000877FF5CF80910D
:1003F00020018F7780932001B3CF809120018F7DE2
:10040000F9CF80912001877FF5CF4E2BB8CFCF93C6
:10041000DF9390E0FC01EE5FFD4F249184549E4FEA
:10042000FC0184918823D1F090E0880F991FFC0192
:10043000E857FE4FA591B491FC01EE55FE4FC591D2
:10044000D49161110EC09FB7F8948C91E22FE09582
:100450008E238C932881E223E8839FBFDF91CF9185
:1004600008958FB7F894EC91E22BEC938FBFF6CF01
:100470003FB7F8948091220D9091230DA091240D07
:10048000B091250D26B5A89B05C02F3F19F0019608
:10049000A11DB11D3FBFBA2FA92F982F8827BC01DE
:1004A000CD01620F711D811D911D42E0660F771F06
:1004B000881F991F4A95D1F708958F929F92AF9206
:1004C000BF92CF92DF92EF92FF924B015C010E94AC
:1004D00038026B017C010E9438026C197D098E097B
:1004E0009F09683E734081059105A8F321E0821AB7
:1004F0009108A108B10888EEC80E83E0D81EE11C5F
:10050000F11C81149104A104B10429F7FF90EF902C
:10051000DF90CF90BF90AF909F908F900895809183
:100520000F0990911009A0911109B091120901963B
:10053000A11DB11D80930F0990931009A09311097B
:10054000B0931209E1E0FAE080819181A281B38148
:10055000892B8A2B8B2B59F084819581A681B781B9
:100560000196A11DB11D84839583A683B7837096E0
:100570008DE0E132F80741F708950895AF92BF92F8
:10058000CF92DF92EF92FF920F931F93CF93DF935F
:100590006C017B018B01040F151FEB015E01AE188E
:1005A000BF08C017D10759F06991D601ED91FC91B0
:1005B0000190F081E02DC6011995892B79F7C501CD
:1005C000DF91CF911F910F91FF90EF90DF90CF902F
:1005D000BF90AF900895FC01538D448D252F30E0DE
:1005E000842F90E0821B930B541710F0CF96089540
:1005F00001970895FC01918D828D981761F0A28D6D
:10060000AE0FBF2FB11D5D968C91928D9F5F9F7332
:10061000928F90E008958FEF9FEF0895FC01918DE8
:10062000828D981731F0828DE80FF11D858D90E055
:1006300008958FEF9FEF0895FC01918D228D892FF2
:1006400090E0805C9F4F821B91098F7399270895DA
:100650008CE99DE00E941C0321E0892B09F420E035
:10066000822F0895FC01A48DA80FB92FB11DA35AA4
:10067000BF4F2C91848D90E001968F739927848FC2
:10068000A689B7892C93A089B1898C9183708064E5
:100690008C93938D848D981306C00288F389E02D86
:1006A00080818F7D80830895EF92FF920F931F9337
:1006B000CF93DF93EC0181E0888F9B8D8C8D981315
:1006C0001AC0E889F989808185FF15C09FB7F89421
:1006D000EE89FF896083E889F9898081837080646D
:1006E00080839FBF81E090E0DF91CF911F910F91B8
:1006F000FF90EF900895F62E0B8D10E00F5F1F4FC7
:100700000F731127E02E8C8D8E110CC00FB607FCD5
:10071000FACFE889F989808185FFF5CFCE010E9463
:100720003203F1CFEB8DEC0FFD2FF11DE35AFF4F9C
:10073000F0829FB7F8940B8FEA89FB8980818062F1
:10074000CFCFCF93DF93EC01888D8823B9F0AA89AE
:10075000BB89E889F9898C9185FD03C0808186FD7C
:100760000DC00FB607FCF7CF8C9185FFF2CF8081CB
:1007700085FFEDCFCE010E943203E9CFDF91CF910B
:10078000089580E090E0892B29F00E9428038111D0
:100790000E94000080E090E0892B49F080E090E02A
:1007A000892B29F00E94000081110E94000080E046
:1007B00090E0892B49F080E090E0892B29F00E949D
:1007C000000081110E94000080E090E0892B49F038
:1007D00080E090E0892B29F00E94000081110C94A8
:1007E000000008952F923F924F925F926F927F92F6
:1007F0008F929F92AF92BF92CF92DF92EF92FF9231
:100800000F931F93CF93DF93CDB7DEB760970FB6EB
:10081000F894DEBF0FBECDBF9A838983DC01DA96E0
:10082000BC91BD83B1111BC01D828D8160960FB636
:10083000F894DEBF0FBECDBFDF91CF911F910F9116
:10084000FF90EF90DF90CF90BF90AF909F908F90F0
:100850007F906F905F904F903F902F9008958FB74B
:10086000F8942091980D3091990D40919A0D5091E6
:100870009B0D2B873C874D875E878FBFE981FA816F
:1008800082A193A1A4A1B5A14B855C856D857E85D0
:10089000481B590B6A0B7B0B86A597A5A0A9B1A98C
:1008A000481759076A077B0708F4BECFF88BEF8714
:1008B000048CF58DE02D2081318142815381298383
:1008C0003A834B835C83AF85B8899096ED91FC9118
:1008D00060817181828193810E944C164B015C0181
:1008E000EF85F88922A533A544A555A569817A81AC
:1008F0008B819C810E944C166B017C01AF85B8896D
:1009000050962D913D914D915C915397C501B40145
:100910000E941D18EF85F88926A137A140A551A591
:100920000E944D162B013C01AF85B88996964D92D9
:100930005D926D927C929997DB96BC91BE83B111CA
:1009400018C0EF85F8892485358546855785C70108
:10095000B6010E941D189B01AC01C301B2010E94A7
:100960004C16AF85B88996966D937D938D939C9325
:100970009997EF85F88946A057A060A471A416A99D
:1009800007A930AC21AC212F302F432D522DC301AC
:10099000B2010E94181818160CF07FC0812F902FFA
:1009A000A32DB22DEF85F88986A397A3A0A7B1A7A1
:1009B000BE81BB2309F490C0EF85F8892485358575
:1009C00046855785C501B4010E941D184B015C0185
:1009D000AF85B88954962D913D914D915C91579773
:1009E000C701B6010E941D189B01AC01EF85F88973
:1009F00066A177A180A591A50E944C16A50194013E
:100A00000E944D166B017C019B01AC01612F702F80
:100A1000832D922D0E94B91687FD1BC0AF85B88922
:100A2000D2961C91D297D3960C91D397D4963C90A2
:100A3000D497D5962C90212F302F432D522DB601CF
:100A4000C7010E94B91687FD04C01C2D0D2D3E2C38
:100A50002F2CAF85B8895E96ED91FC91812F902F58
:100A6000A32DB22D80839183A283B38329813A8100
:100A70004B815C81AF85B8899A962D933D934D93B8
:100A80005C939D972B853C854D855E8592962D9335
:100A90003D934D935C939597C8CEAF85B889D29618
:100AA0002D913D914D915C91D5972F833887498742
:100AB0005A87C301B2010E94B91687FF79CF2F81EF
:100AC000388549855A85AF85B88996962D933D938B
:100AD0004D935C9399976CCF812C912C540178CFD6
:100AE000089508952091E508260F3327331F2132FA
:100AF0003105ECF420916E0DFC0190E080E0243093
:100B000069F082E00895A091E5082191AC014B5372
:100B1000574FA40FB52FB11D2C930196861798F34C
:100B20008091E508680F6093E50880E0089581E012
:100B3000089510926E0D81E080936D0D1092480D16
:100B400061E084E10E947B0161E085E10E947B011C
:100B5000E9EBF0E080818E7F808380818D7F8083D0
:100B600088E48093B80085E48093BC000895CF9317
:100B7000DF9391E09093C4088823B9F0C091B80046
:100B8000D091BA008091BC008A7B8093BC0060E069
:100B900084E10E947B0160E085E10E947B010E946C
:100BA0009905D093BA00C093B800DF91CF91089512
:100BB0008F929F92AF92BF92CF92DF92EF92FF926D
:100BC0000F931F93CF93DF93D091970DD13208F0FD
:100BD000D7C0182FC091960D0E9438026B017C017E
:100BE00080916E0D81116BC082E080936E0D109329
:100BF0006D0D8FEF80936C0D10926B0DD0936A0D7D
:100C0000A6E7BDE0EAE4FDE080E0D81391C01092D1
:100C1000490D8091490DCC0FC82BC093490D80918F
:100C2000480D813009F088C01092480D0E943802AA
:100C30006B017C018091490D8093BB008091700D08
:100C40009091710DA091720DB091730D892B8A2B2B
:100C50008B2BA1F00E9438020091700D1091710D44
:100C60002091720D3091730D6C197D098E099F09C9
:100C7000061717072807390708F442C08091BC00FF
:100C800083FDD8CF85EC8093BC000E9438026B01B5
:100C90007C0180916E0D823009F450C080916C0D02
:100CA0008F3F09F46FC080916C0D803209F46CC0E5
:100CB00080916C0D803309F469C084E026C0809176
:100CC000700D9091710DA091720DB091730D892BE3
:100CD0008A2B8B2B09F484CF0E9438028090700DF0
:100CE0009090710DA090720DB090730D6C197D09EC
:100CF0008E099F0986169706A806B90608F070CFD8
:100D000080916F0D0E94B70585E01092750D1092CD
:100D1000970D1092740DDF91CF911F910F91FF905D
:100D2000EF90DF90CF90BF90AF909F908F900895FD
:100D30009D9191938F5F69CF85EEA5CF8091700DC6
:100D40009091710DA091720DB091730D892B8A2B2A
:100D50008B2B09F49ECF0E9438020091700D1091E8
:100D6000710D2091720D3091730D6C197D098E09F2
:100D70009F09061717072807390708F08ACFC0CF41
:100D800081E0C3CF80E0C1CF82E0BFCF83E0BDCFA1
:100D90000895E091270D8091260DE81730F4F0E0DA
:100DA000E85DF24F808190E008958FEF9FEF089506
:100DB0009091270D8091260D2FEF3FEF981748F463
:100DC000E92FF0E0E85DF24F208130E09F5F9093E3
:100DD000270DC90108958091260D9091270D891B3B
:100DE000990B0895CF92DF92EF92FF920F931F938A
:100DF000CF93DF937C01CB018A012091740D2223D4
:100E000089F0EB016B01C40ED51ECC15DD0569F030
:100E10006991D701ED91FC910190F081E02DC7011E
:100E20001995F3CF642F0E947205C801DF91CF910D
:100E30001F910F91FF90EF90DF90CF900895CF9387
:100E4000DF931F92CDB7DEB769832091740D222303
:100E5000F9F02091970D203258F021E030E0FC01AC
:100E60003383228390E080E00F90DF91CF9108954B
:100E70008091750DE82FF0E0EA58F24F9981908348
:100E80008F5F8093750D8093970D81E090E0ECCF9C
:100E900061E0CE0101960E947205F7CF682F89E3C9
:100EA0009EE00C941F07CF93DF93D42FC52FFC0136
:100EB000808191E09093740D8093960D1092750D42
:100EC0001092970DF4E06F9FB00111246A5F7F4F7D
:100ED00089E39EE00E941F0790E080E00E944E0799
:100EE00090E080E00E944E078D2F9C2F0E944E07BD
:100EF0008C2F90E00E944E0781E0DF91CF910C94FF
:100F0000D805CF93C42FFC01808191E09093740D9C
:100F10008093960D1092750D1092970D89E39EE0C7
:100F20000E941F076C2F89E39EE00E941F0781E04B
:100F3000CF910C94D805CF93DF93EC011092270D3D
:100F40001092260D1092750D1092970D0E94990522
:100F500080E795E090930B0980930A0981E795E07B
:100F6000909309098093080940E060E0CE01DF9189
:100F7000CF910C94810790E080E008950895FC01E2
:100F800001900020E9F73197AF01481B590BBC01D4
:100F90008CE99DE00C94BE028F929F92AF92BF921B
:100FA0000F931F93CF93DF93CDB7DEB7A1970FB603
:100FB000F894DEBF0FBECDBF19A2423008F44AE05C
:100FC0008E010F5D1F4F842E912CB12CA12CA501F9
:100FD00094010E941B16E62FB901CA01EA30F4F40D
:100FE000E05DD801EE938D01232B242B252B79F77F
:100FF00090E080E0109719F0CD010E94BF07A19604
:101000000FB6F894DEBF0FBECDBFDF91CF911F9119
:101010000F91BF90AF909F908F900895E95CE1CFC2
:10102000CF93DF930E94BF07EC018AE197E00E9413
:10103000BF078C0F9D1FDF91CF910895CF93DF9352
:10104000BC0190E080E04AE00E94CC07EC018AE11C
:1010500097E00E94BF078C0F9D1FDF91CF910895ED
:101060008F929F92AF92BF92CF92DF92EF92FF92B8
:101070000F931F93CF93DF93EC01888191E09093BE
:10108000740D8093960D1092750D1092970D60E07F
:1010900089E39EE00E941F0781E00E94D805188125
:1010A0000E9438026B017C0180916E0D811164C039
:1010B00081E080936E0D80936D0D9FEF90936C0D8A
:1010C00010926B0D10926A0D8093490D8091490D1D
:1010D000110F182B1093490D8091480D813009F0A4
:1010E000A3C01092480D0E9438026B017C018091D0
:1010F000490D8093BB008091700D9091710DA0916E
:10110000720DB091730D892B8A2B8B2BA1F00E944D
:1011100038020091700D1091710D2091720D309177
:10112000730D6C197D098E099F090617170728078B
:10113000390708F442C08091BC0083FDD8CF85EC0C
:101140008093BC000E9438026B017C0180916E0D7F
:10115000813009F46BC080916B0D811189C0809141
:101160006B0DAAE4BDE0E8E2FDE090E0981751F1D4
:101170002D9121939F5FFACF8091700D9091710D09
:10118000A091720DB091730D892B8A2B8B2B09F4D2
:101190008BCF0E9438028090700D9090710DA090BE
:1011A000720DB090730D6C197D098E099F0986161A
:1011B0009706A806B90608F077CF80916F0D0E94B8
:1011C000B70580E01092270D8093260D89E39EE0FD
:1011D0000E94D806182F482F4F76406160E0CE015C
:1011E0000E9481074CE36EEFCE010E948107412FE0
:1011F00060E0CE010E94810765E070E080E090E051
:101200000E945D02412F416A60E0CE01DF91CF91E3
:101210001F910F91FF90EF90DF90CF90BF90AF9014
:101220009F908F900C94810785EE8ACF8091700DEE
:101230009091710DA091720DB091730D892B8A2B35
:101240008B2B09F483CF0E9438020091700D10910E
:10125000710D2091720D3091730D6C197D098E09FD
:101260009F09061717072807390708F06FCFA5CF82
:1012700081E077CF85ED8093BC008091700D9091D7
:10128000710DA091720DB091730D0796A11DB11D46
:1012900023E0B695A795979587952A95D1F7209144
:1012A000BC0024FD03C010926E0D08954091700D96
:1012B0005091710D6091720D7091730D452B462BFD
:1012C000472B69F30097A105B10541F025E32A9565
:1012D000F1F700000197A109B109E1CF80916F0DED
:1012E0000C94B7050F931F93CF93DF93CDB7DEB761
:1012F000DA950FB6F894DEBF0FBECDBF809113090B
:10130000813079F08DE197E00E941008D3950FB6F7
:10131000F894DEBF0FBECDBFDF91CF911F910F912B
:101320000895F89478948E010F5F1F4F80E091E04C
:10133000F8019C01119221503040E1F7AE01465F67
:101340005E4FC85FDE4F68817981C850D140C801C7
:101350000E949918C801D8CFCF92DF92EF92FF92E6
:101360006B017C01E1E0FAE080E090E0DC01628565
:101370007385672BD1F00196A11DB11D7096823344
:101380009105A105B10599F78FE297E09F938F939F
:101390000E9472090F900F906DEF7FEF8FEF9FEF1C
:1013A000FF90EF90DF90CF90089564E0880F991F31
:1013B0006A95E1F7FC01EF5FF54FC082D182E282CE
:1013C000F3821482158216821782518740873387F1
:1013D000228760910D0970910E096F5F7F4F7093A6
:1013E0000E0960930D0990E080E064877587868719
:1013F0009787D6CF0F931F93AB01BC01E1E0FAE0D2
:1014000080E090E0DC01048515852685378504178A
:10141000150726073707A9F424E0880F991F2A9596
:10142000E1F7FC01EF5FF54F80E1DF011D928A9546
:10143000E9F71386128660E070E0CB011F910F91EF
:1014400008950196A11DB11D709682339105A105E5
:10145000B105C9F68BE497E09F938F930E947209C0
:101460000F900F906EEF7FEF8FEF9FEFE7CF0F930F
:101470001F93CF93DF93EC016C817D818E819F81DF
:101480000E94FA0909851A85209741F0888199817F
:10149000AA81BB814297A105B10578F08CE697E05F
:1014A0009F938F930E9472090F900F901A8709875C
:1014B000DF91CF911F910F9108951C821D821E8292
:1014C0001F821886F3CF0F931F93CF93DF93EC0106
:1014D000688179818A819B810E94FA0950E040E00D
:1014E00062E087E49EE00E9453070D811E812097F1
:1014F00079F48CE697E09F938F930E9472090F9086
:101500000F901E830D83DF91CF911F910F9108954E
:10151000188219821A821B821C82F3CF0F931F93A9
:10152000CF93DF93EC01688179818A819B810E944E
:10153000FA0950E040E063E080E99EE00E94530732
:101540000D811E81209779F48CE697E09F938F930D
:101550000E9472090F900F901E830D83DF91CF912F
:101560001F910F910895188219821A821B821C8282
:10157000F3CF0F931F93CF93DF93EC016C817D81A9
:101580008E819F810E94FA0988819981AA81BB81FD
:1015900050E040E060E0892B8A2B8B2B09F061E062
:1015A00081E99EE00E94530709851A85209779F406
:1015B0008CE697E09F938F930E9472090F900F9093
:1015C0001A870987DF91CF911F910F9108951C828F
:1015D0001D821E821F821886F3CF1F920F920FB6B4
:1015E0000F9211242F933F938F939F93AF93BF93A9
:1015F0008091980D9091990DA0919A0DB0919B0DAD
:101600003091210D23E0230F2D3758F50196A11DB0
:10161000B11D2093210D8093980D9093990DA09367
:101620009A0DB0939B0D8091220D9091230DA09166
:10163000240DB091250D0196A11DB11D8093220DA1
:101640009093230DA093240DB093250DBF91AF91DE
:101650009F918F913F912F910F900FBE0F901F90F0
:10166000189526E8230F0296A11DB11DD2CF1F9217
:101670000F920FB60F9211240BB60F922F933F9338
:101680004F935F936F937F938F939F93AF93BF938A
:10169000EF93FF93E0910E02F0910F021995FF91E5
:1016A000EF91BF91AF919F918F917F916F915F91DA
:1016B0004F913F912F910F900BBE0F900FBE0F9047
:1016C0001F9018951F920F920FB60F9211240BB610
:1016D0000F922F933F934F935F936F937F938F93CB
:1016E0009F93AF93BF93EF93FF93E0910C02F09120
:1016F0000D021995FF91EF91BF91AF919F918F913D
:101700007F916F915F914F913F912F910F900BBE01
:101710000F900FBE0F901F9018951F920F920FB64B
:101720000F9211240BB60F922F933F934F935F9319
:101730006F937F938F939F93AF93BF93EF93FF9399
:10174000E0910202F09103021995FF91EF91BF9190
:10175000AF919F918F917F916F915F914F913F9149
:101760002F910F900BBE0F900FBE0F901F901895EA
:101770001F920F920FB60F9211240BB60F922F9358
:101780003F934F935F936F937F938F939F93AF9309
:10179000BF93EF93FF93E0910002F091010219953E
:1017A000FF91EF91BF91AF919F918F917F916F9139
:1017B0005F914F913F912F910F900BBE0F900FBEF5
:1017C0000F901F9018951F920F920FB60F92112431
:1017D0000BB60F922F933F934F935F936F937F932B
:1017E0008F939F93AF93BF93EF93FF93E0910A0280
:1017F000F0910B021995FF91EF91BF91AF919F91DD
:101800008F917F916F915F914F913F912F910F90A9
:101810000BBE0F900FBE0F901F9018951F920F9246
:101820000FB60F9211240BB60F922F933F934F9345
:101830005F936F937F938F939F93AF93BF93EF9338
:10184000FF93E0910802F09109021995FF91EF9141
:10185000BF91AF919F918F917F916F915F914F91C8
:101860003F912F910F900BBE0F900FBE0F901F90C6
:1018700018951F920F920FB60F9211240BB60F926C
:101880002F933F934F935F936F937F938F939F9388
:10189000AF93BF93EF93FF93E0910602F09107029D
:1018A0001995FF91EF91BF91AF919F918F917F918A
:1018B0006F915F914F913F912F910F900BBE0F90C1
:1018C0000FBE0F901F9018951F920F920FB60F9298
:1018D00011240BB60F922F933F934F935F936F9307
:1018E0007F938F939F93AF93BF93EF93FF93E09179
:1018F0000402F09105021995FF91EF91BF91AF910C
:101900009F918F917F916F915F914F913F912F9117
:101910000F900BBE0F900FBE0F901F9018951F9247
:101920000F920FB60F9211240BB60F922F933F9385
:101930004F935F936F937F938F939F93AF93BF93D7
:10194000EF93FF938CE99DE00E943203FF91EF91AA
:10195000BF91AF919F918F917F916F915F914F91C7
:101960003F912F910F900BBE0F900FBE0F901F90C5
:1019700018951F920F920FB60F9211240BB60F926B
:101980002F938F939F93EF93FF93E091AC0DF09182
:10199000AD0D8081E091B20DF091B30D82FD1DC0BF
:1019A00090818091B50D8F5F8F732091B60D821756
:1019B00041F0E091B50DF0E0E456F24F958F809341
:1019C000B50DFF91EF919F918F912F910F900BBECD
:1019D0000F900FBE0F901F9018958081F2CF1F922D
:1019E0000F920FB60F9211240BB60F922F933F93C5
:1019F0004F935F936F937F938F939F93AF93BF9317
:101A0000EF93FF938091B900887F803609F44DC031
:101A100008F040C0883209F4A9C028F5803109F4E3
:101A20009DC0C8F4882309F4FBC0883009F496C02F
:101A3000FF91EF91BF91AF919F918F917F916F91A6
:101A40005F914F913F912F910F900BBE0F900FBE62
:101A50000F901F901895883109F488C0803241F7A3
:101A600080936C0D14C0803409F49DC040F4803321
:101A7000B9F38833E9F680936C0D85ECB0C08035FE
:101A800009F485C0883509F496C0883489F60E9427
:101A90003A09CECF883909F48CC038F5883729F057
:101AA00050F4883611F0803719F683E080936E0D7C
:101AB0001092070957C0883809F47BC0803919F0A3
:101AC000803809F0B5CF80910709803208F071C0E5
:101AD000E091070981E08E0F809307098091BB0098
:101AE000F0E0E951F74F80833DC0803B39F0E0F4EE
:101AF000803A09F479C0883A09F09ACF84E080935B
:101B00006E0D1092E6081092E508E0910A09F09136
:101B10000B0919958091E50881110FC081E0809330
:101B2000E5081092C50809C0803C09F4A6CF883C9E
:101B300009F4A3CF883B09F07BCFE091E60881E070
:101B40008E0F8093E608F0E0EB53F74F808180938F
:101B5000BB009091E6088091E50829C08091490D6D
:101B60008093BB0085EC8093BC0062CF90916B0D9D
:101B700080916A0D981758F5E0916B0D81E08E0FFA
:101B800080936B0DF0E0E65BF24F8081E9CFE0914E
:101B90006B0D81E08E0F80936B0D8091BB00F0E0A8
:101BA000E65BF24F808390916B0D80916A0D9817E0
:101BB000C8F285E8D8CFE0916B0D81E08E0F80935D
:101BC0006B0D8091BB00F0E0E65BF24F808380916B
:101BD0006D0D81115CCF81E08093480D84EA809384
:101BE000BC0010926E0D24CF85EC8093BC00109247
:101BF0006E0D80910709803230F4E0910709F0E022
:101C0000E951F74F10826091070970E0E0910809EF
:101C1000F091090987EE98E019951092070908CF0D
:101C200010926C0D34CF1F920F920FB60F921124A9
:101C30000BB60F922F933F934F935F936F937F93C6
:101C40008F939F93AF93BF93EF93FF93E091100215
:101C5000F09111021995FF91EF91BF91AF919F9172
:101C60008F917F916F915F914F913F912F910F9045
:101C70000BBE0F900FBE0F901F9018954F925F9262
:101C80006F927F928F929F92AF92BF92CF92DF928C
:101C9000EF92FF920F931F93CF93DF93CDB7DEB7F1
:101CA0004C0127013801DC015F965C934E935E97EF
:101CB0005D967C936E935C9791963C932E93909750
:101CC000DA961C92FC0112AA13AA14AA15AA80E0A3
:101CD00090E0AFE7B3E486AB97ABA0AFB1AF84E6DB
:101CE00090E0A0E0B0E086A797A7A0ABB1AB118EC3
:101CF000108E20E030E0A901C801B7010E94B9169A
:101D000087FD53C020E030E0A901C601B5010E9463
:101D1000B91687FD4AC020E030E0A9016C897D89B1
:101D20008E899F890E94B91687FD3FC081E090E0AF
:101D3000D4015B969C938E935A97DB968C93DB979A
:101D4000F40140825182628273821496AD92BD92F8
:101D5000CD92DC9217978C899D89AE89BF89808747
:101D60009187A287B38744865586668677862DEC51
:101D70003CEC4CEC5DE3C601B5010E941D18F4017A
:101D8000608B718B828B938B2DEC3CEC4CEC5DE388
:101D90006C897D898E899F890E94BE16D4015496D4
:101DA0006D937D938D939C9357972FB7F894809163
:101DB000980D9091990DA0919A0DB0919B0D2FBF08
:101DC000F40146A557A560A971A9841B950BA60B24
:101DD000B70B82A393A3A4A3B5A3DF91CF911F91C7
:101DE0000F91FF90EF90DF90CF90BF90AF909F90BA
:101DF0008F907F906F905F904F9008957F928F9219
:101E00009F92AF92BF92CF92DF92EF92FF920F9389
:101E10001F93CF93DF93ECE9FDE01382128288EEEB
:101E200093E0A0E0B0E084839583A683B7832AEF94
:101E300036E03183208325EC30E03587248724EC9D
:101E400030E03787268720EC30E0318B208B21EC87
:101E500030E0338B228B22EC30E0358B248B26EC68
:101E600030E0378B268B118E128E138E148EE9E3A1
:101E7000FEE01382128284839583A683B7838CE06D
:101E800097E09183808381E48093460E82E480937F
:101E9000450E8EE3782E7F929CE4892E8F922CEC57
:101EA000922E9F92DDECDF93A12CB12C6501E12CE9
:101EB000F12C00E810E428E43EE04CE45EE060E54C
:101EC0007EE084E59EE00E943E0EC3E4C093470E90
:101ED000C093900E7F928F929F92DF932AED3EE007
:101EE0004EED5EE062EE7EE086EE9EE00E943E0EEB
:101EF0007F928F929F92DF9322E93EE046E95EE077
:101F00006AE97EE08EE99EE00E943E0EC093910E4B
:101F10008DB79EB70C960FB6F8949EBF0FBE8DBFBF
:101F2000DF91CF911F910F91FF90EF90DF90CF90B5
:101F3000BF90AF909F908F907F900895CF93DF9345
:101F4000CDB7DEB7C957D1090FB6F894DEBF0FBEC3
:101F5000CDBF789484B5826084BD84B5816084BD32
:101F600085B5826085BD85B5816085BD80916E0037
:101F7000816080936E001092810080918100826068
:101F800080938100809181008160809381008091A5
:101F900080008160809380008091B1008460809394
:101FA000B1008091B00081608093B0008091910079
:101FB0008260809391008091910081608093910074
:101FC000809190008160809390008091A100826058
:101FD0008093A1008091A10081608093A1008091F5
:101FE000A00081608093A000809121018260809395
:101FF0002101809121018160809321018091200144
:1020000081608093200180917A00846080937A00BF
:1020100080917A00826080937A0080917A0081605A
:1020200080937A0080917A00806880937A00109281
:10203000C100E091AC0DF091AD0D82E08083E091A4
:10204000A80DF091A90D1082E091AA0DF091AB0DB1
:1020500090E190831092B40DE091B00DF091B10D2C
:1020600086E08083E091AE0DF091AF0D80818061BC
:102070008083E091AE0DF091AF0D80818860808308
:10208000E091AE0DF091AF0D808180688083E0918A
:10209000AE0DF091AF0D80818F7D808310920F097E
:1020A00010921009109211091092120910920E0943
:1020B00010920D09E1E0FAE020E233E0DF01A9012E
:1020C0001D9241505040E1F79093810010928000A2
:1020D00081E080930C0920E43FE130938700209356
:1020E000860091E1909381002FE832E03093110255
:1020F0002093100280936F0010928100109285004F
:102100001092840090910C099061909381008093CB
:1021100013092AE836E065E179E080E090E0DC012F
:10212000FB0180839183A283B3831482158216827C
:1021300017821086F901419151919F01FB0152874D
:1021400041870196A11DB11D655F7F4F82319105C9
:10215000A105B10529F786E49EE00E949B0785E46E
:102160009EE00E949B0760E084E10E94070260E01D
:1021700085E10E94070218E41093B80086E49EE00F
:102180000E949B0785E49EE00E949B0760E084E13B
:102190000E94070260E085E10E9407021093B800E8
:1021A00086E49EE00E94300885E49EE00E943008AC
:1021B0001FB7F89480911409811127C0E1EFF1E075
:1021C0008491E7E3F2E09491E82FF0E0EE0FFF1F37
:1021D000E857FE4FA591B491EC91E92321F461E019
:1021E00085E30E947B0161E085E30E9407028CB5D4
:1021F00080618CBD8CB580648CBD61E084E30E94FD
:10220000070261E083E30E940702809114098F5F57
:10221000809314091FBF61E085E30E947B0185E87C
:1022200097E00E94100861E070E080E090E00E947A
:102230005D028E01075B1F4F84E2D8011D928A95D3
:10224000E9F7AF961FAE1EAEAF97E1961FAE1EAE7A
:10225000E197FE0131966F0182E1DF011D928A95BF
:10226000E9F7DF01E5E1F9E080858D933B9629E010
:10227000EB3DF207C9F789818111BBC48A818111C5
:10228000B8C48B818111B5C48C818111B2C48D8198
:102290008111AFC48E818111ACC48F818111A9C419
:1022A00088858111A6C489858111A3C48A8581117D
:1022B000A0C48B8581119DC48C8581119AC48D85A4
:1022C000811197C48E85811194C48F85811191C429
:1022D000888981118EC4898981118BC44A89E696C7
:1022E0004FAFE697411185C482E997E00E9410083C
:1022F00081EA97E00E9410088091FF099091000AFE
:102300008A31910528F08BEB97E00E94100808C3F2
:102310003CE2E32EE89EF001E99EF00D1124EE5E12
:10232000FD4F80819181D80111969C938E9382817B
:10233000938113969C938E93129784819581159621
:102340009C938E9314978681978117969C938E9376
:1023500016978085918519969C938E931897828500
:1023600093851B969C938E931A97848595851D96CD
:102370009C938E931C97868597851F969C938E932E
:102380001E978089918951969C938E93509782894C
:10239000938953969C938E935297848995895596E9
:1023A0009C938E9354978689978957969C938E9386
:1023B0005697808D918D59969C938E935897828DC8
:1023C000938D5B969C938E935A97848D958D5D9695
:1023D0009C938E935C97868D978D5F969C938E933E
:1023E0005E9780A191A191969C938E93909782A1E4
:1023F00093A193969C938E93929786ED97E00E947B
:1024000010088091FF099091000A0E941E08F801AF
:1024100080A191A10E941E08D80192968D919C9155
:102420000E941E088091FF099091000AE89EF00129
:10243000E99EF00D1124EE5EFD4F84A195A1AF96AB
:102440009FAF8EAFAF9786A197A1E1969FAF8EAF5A
:10245000E19720A431A4E2A4F3A489EF97E00E94BD
:102460001008F801808191810E941E08E896DFAE75
:10247000CEAEE89748014EEA56E0E5965FAF4EAF24
:10248000E59782ED96E0E3969FAF8EAFE397560116
:1024900045E1C42E49E0D42E412C512C3201D60105
:1024A00018968C918330A9F58DE098E00E94100871
:1024B00083E090E0A0E0B0E0F50180839183A28307
:1024C000B3839FEF491A590A690A790AABE0CA0E29
:1024D000D11CB4E0AB0EB11CE2E08E0E911CE5966F
:1024E0004EAD5FADE5974E5F5F4FE5965FAF4EAF88
:1024F000E597E3968EAD9FADE3970296E3969FAF87
:102500008EAFE39792E1491651046104710439F6E4
:102510006BC0D4012D913C91E396EEADFFADE397F6
:10252000808191812817390768F0E596AEADBFAD7F
:10253000E5978D919C9182179307D8F42F3FBFEEBA
:102540003B07B9F08AE198E00E9410084AE0C30115
:10255000B2010E94CC078AE197E00E94BF07F40114
:10256000808191810E941E088EEF9FEFAFEFBFEF39
:10257000A3CFD60119968D919C91821B930B97FF47
:1025800003C0919581959109B2E3B89FB001B99FBD
:10259000700D11246115710511F461E070E0072ED2
:1025A000000C880B990B27E33AE0A6010E94AC09C6
:1025B0009B01AC012D5F3F4F4F4F5F4F22303105E4
:1025C0004105510508F04FC09F938F937F936F9300
:1025D00087E298E09F938F930E9472090F900F906B
:1025E0000F900F900F900F902BEDC22E29E0D22E5E
:1025F000DE01A359BF4FE396BFAFAEAFE397812C87
:10260000912C5401F6018085833009F07EC083E06F
:1026100090E0A0E0B0E0E896EEADFFADE8978083F3
:102620009183A283B3835BE0C50ED11CE8968EAD87
:102630009FADE8970496E8969FAF8EAFE897E39634
:10264000AEADBFADE3971296E396BFAFAEAFE397E3
:102650008A9489288A288B2809F4B1C0812C912C6E
:1026600054018394CFCF23E0F601208764837583E0
:1026700086839783F401A081B181F601B287A18797
:1026800020ED37E00E949218F1E04F1651046104EA
:10269000710431F027E0421651046104710459F5C8
:1026A0002EE031E040E050E00E94FC15EA963FAF9A
:1026B0002EAFEA9787E498E00E941008EA96AEAD44
:1026C000BFADEA97AC50BE4F2FEF3FE00E9492188B
:1026D00020E137E240E050E00E94FC15A90189E0CA
:1026E00048165104610471045CF4642D86E49EE094
:1026F0000E945307E6CE24EB30E040E050E0D4CF18
:1027000067EF640D85E49EE0F3CFE396AEADBFAD19
:10271000E3972D913C912F30B1E03B0748F02F3FDC
:10272000EFEE3E0729F08EEF9FEFAFEFBFEF73CFD5
:10273000D60119968D919C91821B930B97FF2BC10B
:10274000919581959109B1E0E496BFAFE497EAE0F5
:10275000E89F9001E99F300D1124B901032E000C70
:10276000880B990B232B09F01AC145E558E05F93BC
:102770004F930E9472090F900F906EEF7FEF8FEFD3
:102780009FEF2B013C01A3E04A0E511C611C711C00
:10279000B2E04B1651046104710408F006C19F9326
:1027A0008F937F936F9387E298E09F938F930E941C
:1027B00072090F900F900F900F900F900F908091D3
:1027C000F509833041F483E090E0A0E0B0E0898334
:1027D0009A83AB83BC83E3E32E16310468F0FFEFEA
:1027E0002F16FFEE3F0641F08EEF9FEFAFEFBFEFEA
:1027F00089839A83AB83BC838091F6099091F70912
:1028000082199309D12C97FF05C091958195910963
:10281000DD24D3944AE0489F9001499F300D112454
:10282000B901032E000C880B990B232B09F05AC118
:1028300085E598E09F938F930E9472090F900F9007
:102840006EEF7FEF8FEF9FEF4B015C0123E0820E75
:10285000911CA11CB11C42E084169104A104B10496
:1028600008F047C19F938F937F936F9387E298E01F
:102870009F938F930E9472090F900F900F900F906B
:102880000F900F908091FC098330D9F152E0E5164A
:10289000F104B8F58091FD099091FE09E816F9065A
:1028A00041F08E159F050CF077C181E0E6968FAF61
:1028B000E6972EE83AE048EF59E068EE73E080E0F2
:1028C00090E00E94AC094B015C01A3E08A0E911CD0
:1028D000A11CB11CB2E08B169104A104B10408F054
:1028E00060C19F938F937F936F9387E298E09F934C
:1028F0008F930E9472090F900F900F900F900F907E
:102900000F908091FF099091000A0E941E0880910B
:10291000FF099091000A01969093000A8093FF09A5
:1029200088E698E00E9410088EE798E00E94100860
:1029300081E0E82E8AE0F82EF70180819181A28162
:10294000B3810097A105B105D9F044815581668115
:102950007781481759076A077B0790F08DE898E060
:102960000E941008D7011A96ED91FC911B971896BA
:102970008D919C911995F701148215821682178208
:10298000F0E1EF0EF11C21E2E2162DE0F206A1F6D5
:102990000E94C10351CCE4961FAEE497D8CE29EB38
:1029A0003AE0A6010E94AC09ECCE23E0F6012087B4
:1029B000D6016483758386839783E396EEADFFAD7E
:1029C000E397608171811A967C936E931997072E15
:1029D000000C880B990B0E946817F1E08F16910488
:1029E000A104B10409F441C01092E20E1092E30E6A
:1029F0001092E40E1092E50E6093DA0E7093DB0EE7
:102A00008093DC0E9093DD0E86EE9EE00E94F20332
:102A10006091DE0E7091DF0E8091E00E9091E10EDC
:102A20000E943017DB0177FF04C0AA27BB27A61B33
:102A3000B70B2FEF3FE00E9492182FEF30E040E0FD
:102A400050E00E94FC152901E4962FADE49761E067
:102A5000211101C060E086E00E947B01A20160E0DC
:102A600081E99EE00E945307DECD10929A0E1092EB
:102A70009B0E10929C0E10929D0E6093920E70937E
:102A8000930E8093940E9093950E8EE99EE00E9493
:102A9000F2036091960E7091970E8091980E90912E
:102AA000990E0E943017DB0177FF04C0AA27BB27CD
:102AB000A61BB70B2FEF3FE00E9492182FEF30E0DC
:102AC00040E050E00E94FC152901E4964FADE497E8
:102AD00061E0411101C060E087E00E947B01A2013A
:102AE00061E0BECF23E63AE041EF59E00E94AC0935
:102AF000ABCE23E02093F5096093F1097093F209BE
:102B00008093F3099093F4093092F7092092F60923
:102B10001092500E1092510E1092520E1092530EAF
:102B2000B101330C880B990B0E9468176093480E13
:102B30007093490E80934A0E90934B0E84E59EE06D
:102B40000E94F20360914C0E70914D0E80914E0EDA
:102B500090914F0E0E943017DB0177FF04C0AA2727
:102B6000BB27A61BB70B2FEF3FE00E9492182FEF59
:102B700030E040E050E00E94FC15490161E0D110D6
:102B800001C060E088E00E947B01A40162E087E46C
:102B90009EE00E94530776CE92E0E6969FAFE697BE
:102BA00088CE23E02093FC096093F8097093F9091B
:102BB0008093FA099093FB09F092FE09E092FD09D7
:102BC000E696EFADE69750E040E0EE2361F0E69642
:102BD000FFADE69761E0F13009F060E089E00E9426
:102BE0007B014FEF50E063E080E99EE00E945307D5
:102BF00088CE84EA98E089CB052E97FB1EF40094DA
:102C00000E94131657FD07D00E941B1607FC03D025
:102C10004EF40C94131650954095309521953F4FE6
:102C20004F4F5F4F089590958095709561957F4FB8
:102C30008F4F9F4F0895A1E21A2EAA1BBB1BFD01C7
:102C40000DC0AA1FBB1FEE1FFF1FA217B307E4078B
:102C5000F50720F0A21BB30BE40BF50B661F771FE3
:102C6000881F991F1A9469F76095709580959095C3
:102C70009B01AC01BD01CF010895A29FB001B39F9C
:102C8000C001A39F700D811D1124911DB29F700D75
:102C9000811D1124911D08955058BB27AA270E9419
:102CA00064160C94DE170E94D01738F00E94D717D4
:102CB00020F039F49F3F19F426F40C94CD170EF44C
:102CC000E095E7FB0C94C717E92F0E94EF1758F324
:102CD000BA17620773078407950720F079F4A6F501
:102CE0000C9411180EF4E0950B2EBA2FA02D0B01A9
:102CF000B90190010C01CA01A0011124FF27591B41
:102D000099F0593F50F4503E68F11A16F040A22F46
:102D1000232F342F4427585FF3CF469537952795B7
:102D2000A795F0405395C9F77EF41F16BA0B620BB6
:102D3000730B840BBAF09150A1F0FF0FBB1F661FFD
:102D4000771F881FC2F70EC0BA0F621F731F841F40
:102D500048F4879577956795B795F7959E3F08F066
:102D6000B0CF9395880F08F09927EE0F9795879528
:102D700008950E94A31708F481E008950E94D216D6
:102D80000C94DE170E94D71758F00E94D01740F01D
:102D900029F45F3F29F00C94C71751110C941218B5
:102DA0000C94CD170E94EF1768F39923B1F35523C4
:102DB00091F3951B550BBB27AA276217730784074E
:102DC00038F09F5F5F4F220F331F441FAA1FA9F3E4
:102DD00035D00E2E3AF0E0E832D091505040E695D2
:102DE000001CCAF72BD0FE2F29D0660F771F881F33
:102DF000BB1F261737074807AB07B0E809F0BB0B26
:102E0000802DBF01FF2793585F4F3AF09E3F510539
:102E100078F00C94C7170C9412185F3FE4F3983EB7
:102E2000D4F3869577956795B795F7959F5FC9F722
:102E3000880F911D9695879597F90895E1E0660FA3
:102E4000771F881FBB1F621773078407BA0720F01C
:102E5000621B730B840BBA0BEE1F88F7E095089585
:102E60000E9437176894B1110C94121808950E94AB
:102E7000F71788F09F5798F0B92F9927B751B0F0FE
:102E8000E1F0660F771F881F991F1AF0BA95C9F7EE
:102E900014C0B13091F00E941118B1E008950C9463
:102EA0001118672F782F8827B85F39F0B93FCCF316
:102EB000869577956795B395D9F73EF4909580956B
:102EC000709561957F4F8F4F9F4F0895E89409C08B
:102ED00097FB3EF490958095709561957F4F8F4F4D
:102EE0009F4F9923A9F0F92F96E9BB279395F69563
:102EF000879577956795B795F111F8CFFAF4BB0FE1
:102F000011F460FF1BC06F5F7F4F8F4F9F4F16C044
:102F1000882311F096E911C0772321F09EE8872FCE
:102F2000762F05C0662371F096E8862F70E060E08A
:102F30002AF09A95660F771F881FDAF7880F969503
:102F4000879597F90895990F0008550FAA0BE0E8A7
:102F5000FEEF16161706E807F907C0F0121613065B
:102F6000E407F50798F0621B730B840B950B39F49B
:102F70000A2661F0232B242B252B21F408950A2601
:102F800009F4A140A6958FEF811D811D089597F941
:102F90009F6780E870E060E008959FEF80EC0895FF
:102FA00000240A9416161706180609060895002428
:102FB0000A9412161306140605060895092E0394A2
:102FC000000C11F4882352F0BB0F40F4BF2B11F416
:102FD00060FF04C06F5F7F4F8F4F9F4F089557FD75
:102FE0009058440F551F59F05F3F71F04795880F77
:102FF00097FB991F61F09F3F79F08795089512160E
:1030000013061406551FF2CF4695F1DF08C01616B9
:1030100017061806991FF1CF86957105610508946A
:103020000895E894BB2766277727CB0197F9089581
:103030000E94A31708F48FEF08950E9430180C9493
:10304000DE170E94D01738F00E94D71720F0952382
:1030500011F00C94C7170C94CD1711240C9412186E
:103060000E94EF1770F3959FC1F3950F50E0551F25
:10307000629FF001729FBB27F00DB11D639FAA27CD
:10308000F00DB11DAA1F649F6627B00DA11D661F1C
:10309000829F2227B00DA11D621F739FB00DA11D3D
:1030A000621F839FA00D611D221F749F3327A00DF7
:1030B000611D231F849F600D211D822F762F6A2F93
:1030C00011249F5750409AF0F1F088234AF0EE0FF8
:1030D000FF1FBB1F661F771F881F91505040A9F725
:1030E0009E3F510580F00C94C7170C9412185F3F57
:1030F000E4F3983ED4F3869577956795B795F79561
:10310000E7959F5FC1F7FE2B880F911D96958795D8
:1031100097F90895EE0FFF1F881F8BBF0790F69158
:10312000E02D19940E943D16B7FF0895821B930B62
:1031300008950F931F93CF93DF93CDB7DEB72E97EC
:103140000FB6F894DEBF0FBECDBF8C0186E08C8336
:103150001A8309838FEF9FE79E838D83CE010196AB
:103160000E94C3182F813885020F131FF8011082A7
:103170002E960FB6F894DEBF0FBECDBFDF91CF9174
:103180001F910F9108952F923F924F925F926F92ED
:103190007F928F929F92AF92BF92CF92DF92EF92E7
:1031A000FF920F931F93CF93DF9300D000D000D0F6
:1031B0001F921F92CDB7DEB77C013B018A01FC0153
:1031C00017821682838181FFDDC1CE0101965C01E9
:1031D000F7019381F30193FD859193FF81913F0165
:1031E000882309F453C1853239F493FD859193FF07
:1031F00081913F01853229F4B70190E00E94DB1AEA
:10320000E7CF912C212C312CFFE1F31538F08B32D4
:1032100011F190F4803209F1833229F137FC3CC07E
:1032200020ED280F2A3050F536FE20C08AE0989E07
:10323000200D1124922E06C08D3291F0803371F74B
:10324000689430F8F30193FD859193FF81913F01DC
:103250008111DACF21C0689431F8689432F8F2CF46
:10326000689433F8EFCF689434F8ECCFEAE02E9E00
:10327000200D1124222E689435F8E4CF8E3229F4E3
:1032800036FC04C1689436F8DDCF8C3619F46894A6
:1032900037F8D8CF8836B1F2982F9F7D9554933068
:1032A000E0F08336A1F18337C1F1833509F063C0C3
:1032B0002801F2E04F0E511CF801C080D180692D29
:1032C00070E036FC02C06FEF7FEFC6010E94C51AA6
:1032D0004C01689437F882010AC00C5F1F4FFFE36E
:1032E000F98388248394912C6501E89437F833FEA0
:1032F0002DC0522C8114910471F5552009F468CF2A
:10330000B70180E290E00E94DB1A5A94F6CFF801F0
:10331000808189830E5F1F4FE4CF2801F2E04F0EBA
:10332000511CF801C080D180692D70E036FC02C0CC
:103330006FEF7FEFC6010E94D01A4C018201D5CFFA
:10334000B70180E290E00E94DB1A2A942814190445
:1033500009F0B0F7CECFF60137FC859137FE8191A9
:103360006F01B70190E00E94DB1A51105A94F1E00E
:103370008F1A9108BFCF843619F0893609F077C0CB
:10338000F80137FE6BC060817181828193810C5F8F
:103390001F4FF32DFF763F2E97FF09C09095809524
:1033A000709561957F4F8F4F9F4F689437F82AE053
:1033B00030E0A5010E940B1BC82ECA188C2C432C90
:1033C00036FE0CC0E89440F8C91440F434FE05C041
:1033D00032FC03C0F32DFE7E4F2E892C44FEAAC082
:1033E000FE01EC0DF11D8081803309F09CC0242D7D
:1033F000297E422E842D8870582E43FCAAC040FEA0
:10340000A4C09C2C821418F42C0C922C981844FE06
:10341000A6C0B70180E390E00E94DB1A42FE09C01B
:1034200088E790E041FE02C088E590E0B7010E9485
:10343000DB1AC91408F49FC0CA94D12C9FEFC91A93
:10344000D90ACA0CDB1CF60182916F01B70190E02A
:103450000E94DB1AAC14BD04B1F74FCF60817181BB
:10346000072E000C880B990B0E5F1F4F92CFD32CA9
:10347000E894D4F82AE030E08537E1F1232D297F64
:10348000D22E8F36A9F1F0F4883551F1F7018681FB
:1034900097812B960FB6F894DEBF0FBECDBFDF919C
:1034A000CF911F910F91FF90EF90DF90CF90BF9041
:1034B000AF909F908F907F906F905F904F903F90D4
:1034C0002F900895803749F0883701F7D4FE02C065
:1034D0006894D2F820E130E00DC06894D4F8F6CFBB
:1034E00034FE03C0822F8660D82E20E132E002C075
:1034F00028E030E0F801D7FE0FC060817181828141
:1035000093810C5F1F4FA5010E940B1BC82ECA1888
:103510003D2CE89437F852CF6081718190E080E0D3
:103520000E5F1F4FF0CF42FC02C0839463CF8394A1
:10353000839460CF842D867809F45CCFF6CFB701F1
:1035400080E290E00E94DB1A83948214C0F3512C35
:103550005ECF522C5818821408F459CFF8CF842D1E
:10356000867809F466CF8BE241FE80E247FC8DE26B
:10357000B70190E05CCFB70180E390E00E94DB1AD6
:103580009A9457CF8FEF9FEF84CFFC010590615045
:1035900070400110D8F7809590958E0F9F1F089569
:1035A000FC016150704001900110D8F78095909512
:1035B0008E0F9F1F08950F931F93CF93DF93182FA4
:1035C000092FEB018B8181FD09C01FEF0FEF812FC8
:1035D000902FDF91CF911F910F91089582FF14C01A
:1035E0002E813F818C819D81281739073CF4E88129
:1035F000F981CF0101969983888310838E819F8101
:1036000001969F838E83E3CFE885F985812F1995F5
:10361000892BA1F3DACFFA01AA27283051F1203102
:1036200081F1E8946F936E7F6E5F7F4F8F4F9F4F56
:10363000AF4FB1E03ED0B4E03CD0670F781F891F98
:103640009A1FA11D680F791F8A1F911DA11D6A0F66
:10365000711D811D911DA11D20D009F468943F9119
:103660002AE0269F11243019305D3193DEF6CF0118
:103670000895462F4770405D4193B3E00FD0C9F7DE
:10368000F6CF462F4F70405D4A3318F0495D31FD4B
:103690004052419302D0A9F7EACFB4E0A69597959E
:1036A000879577956795BA95C9F700976105710574
:1036B00008959B01AC010A2E0694579547953795BE
:1036C0002795BA95C9F7620F731F841F951FA01D18
:1036D0000895F894FFCFBD02BD02BD02BD02BD0238
:1036E000BD02BD02BD02BE078C0046008C008C00EE
:1036F00023005F00910046002C008C002300320064
:103700008C0023005A008C0023008400000000007D
:10371000000000008C0046008C008C0023005F003D
:10372000910046002C008C000A0032008C0023001F
:103730005A008C00230084000000000000000000FC
:103740008C0046008C008C0023005F009100460036
:103750002C0078000A0032008C0023005A008C00F4
:103760002300840000000000000000008C004600E0
:103770008C008C0023005F00910046002C00780034
:10378000280032008C0023005A008C0023008400A3
:1037900000000000000000008C0046008C008C003F
:1037A0000A005F00910046002C00780028003200DB
:1037B0008C0023005A008C002300840000000000CD
:1037C000000000008C0046008C008C000A006E0097
:1037D000910046002C007800280032008C00230065
:1037E0005A008C002300840000000000000000004C
:1037F0008C0046008C008C0023006E009100460077
:103800002C007800280032008C0023005A008C0025
:103810002300840000000000000000008C0046002F
:103820008C008C0023006E00910046002C00780074
:10383000280032008C0023005A008C000A0084000B
:1038400000000000000000008C0046008C008C008E
:1038500023006E00910046002C0078002800320002
:103860008C0023005A0091000A0084000000000030
:10387000000000008C0046008C008C0023006E00CD
:10388000910046002C007800280032008C002300B4
:103890005A0091002B00840000000000000000008E
:1038A0008C0028008C008C0023006E0091004600E4
:1038B0002C007800280032008C0023005A00910070
:1038C0002B008400000000000000000073002800AE
:1038D0008C008C0023006E00910046002C007800C4
:1038E000280032008C0023005A0091002B00840035
:1038F000000000000000000073004D008C008C00F0
:1039000023006E00910046002C0078002800320051
:103910008C0023005A0091002B008400000000005E
:103920000000000073004D008C008C0023006E002E
:10393000910046002C007800280032008C000A001C
:103940005A0091002B0084000000000000000000DD
:1039500073004D008C008C0023006E009100460027
:103960002C007800280032008C000A004B009100E7
:103970002B008400000000000000000073004D00D8
:103980008C008C0023006E00910046002C00780013
:10399000280032008C0023004B0091002B00840093
:1039A000000000000000000073004D008C008C003F
:1039B00023006E0091002D002C00780028003200BA
:1039C0008C0023004B0091002B00840000000000BD
:1039D0000000000073004D008C008C0023006E007E
:1039E0009B002D002C007800280032008C00230062
:1039F0004B0091002B00840000000000000000003C
:103A000073004D008C008C0023006E009B00520060
:103A10002C007800280032008C0023004B0091001D
:103A20002B008400000000000000000078004B0024
:103A30008C008C0023006900960049002C007D005A
:103A4000260032008C00230050008C0022008400ED
:103A500000000000000000007D0049008C008C0088
:103A600023006400910048002C00820024003200F2
:103A70008C00230055008700210084000000000016
:103A800000000000820048008C008C0023005F00D2
:103A90008C0048002C008700230032008C0023009B
:103AA0005A00820021008400000000000000000095
:103AB000870048008C008C0023005A0087004900D2
:103AC0002C008C00230032008C0023005F007D005E
:103AD0002200840000000000000000008C0049006B
:103AE0008C008C002300550082004B002C009100BC
:103AF000240032008C00230064007800240084003D
:103B00000000000000000000910052008C008C00BA
:103B1000230050007D004D002C0096002D00320047
:103B20008C00230069007300260084000000000060
:103B3000000000008C0046008C008C0023005F0019
:103B4000910046002C008C00230032008C002300E2
:103B50005A008C00230084000000000000000000D8
:103B60008C0046008C008C0023005F009100460012
:103B70002C008C00230032008C0023005A008C00A3
:103B800023008400B40052008C00B40025006E00B5
:103B9000B40052007800B40032007800B400230072
:103BA0006900B4002B0084007300280041007D00F0
:103BB0000A0050007D002D002C0078000A00320021
:103BC0007D000A004B0073000A003C00000000006A
:103BD0005403BE02EB02A1031C03FA020E03000011
:103BE00000001F07F206BB07C806EB06D806C90689
:103BF0000D0A002053797374656D206E6F7420690F
:103C00006E69742000E382BFE382A4E3839EE383B2
:103C1000BCE4B88AE99990E382A8E383A9E383BC72
:103C200000E382BFE382A4E3839EE383BC4944E3D1
:103C3000818CE5AD98E59CA8E38197E381AAE381B7
:103C40008400E38193E3828CE38282E38186E784CC
:103C5000A1E79086E38284E381A7005379737465BA
:103C60006D205374617274002D2D2D207363656E69
:103C700065202D2D2D0A002D2D2D205363656E6599
:103C800020496E707574205374617274202D2D2D2F
:103C9000002D2D2D207363656E6520636F756E7426
:103CA0006572206F766572202D2D2D002D2D2D2D06
:103CB0002D2D2D2D2D2D2D616E67206B6F6B6F209F
:103CC0002D2D2D2D2D2D2D2D2D2D2D2D2D2D002D51
:103CD0002D2D20616E676C6520636865636B202DF8
:103CE0002D2D002D2D2D20283829202D2D2D0A0099
:103CF0002D2D2D20283929202D2D2D0A00E382BFBE
:103D0000E382A4E3839EE383BCE996A2E980A3E374
:103D100082A8E383A9E383BC3A202564006B6F6B20
:103D20006F206B6974657275796F00E5BC95E695D7
:103D3000B0E382A8E383A9E383BCEFBC98000A2D1B
:103D40002D2D2054455354205354415254202D2D91
:103D50002D2D0A000A2D2D2D20454E44202D2D2DD0
:103D60002D0A002D2D2D2063616C6C6261636B2028
:103D70007374617274202D2D2D002D2D2D207363F1
:103D8000656E65427573792829202D2D2D0A000056
:020000040003F7
:10E000000D9489F10D94B2F10D94B2F10D94B2F129
:10E010000D94B2F10D94B2F10D94B2F10D94B2F1F0
:10E020000D94B2F10D94B2F10D94B2F10D94B2F1E0
:10E030000D94B2F10D94B2F10D94B2F10D94B2F1D0
:10E040000D94B2F10D94B2F10D94B2F10D94B2F1C0
:10E050000D94B2F10D94B2F10D94B2F10D94B2F1B0
:10E060000D94B2F10D94B2F10D94B2F10D94B2F1A0
:10E070000D94B2F10D94B2F10D94B2F10D94B2F190
:10E080000D94B2F10D94B2F10D94B2F10D94B2F180
:10E090000D94B2F10D94B2F10D94B2F10D94B2F170
:10E0A0000D94B2F10D94B2F10D94B2F10D94B2F160
:10E0B0000D94B2F10D94B2F10D94B2F10D94B2F150
:10E0C0000D94B2F10D94B2F10D94B2F10D94B2F140
:10E0D0000D94B2F10D94B2F10D94B2F10D94B2F130
:10E0E0000D94B2F141546D656761323536300041AF
:10E0F000726475696E6F206578706C6F72657220DE
:10E1000073746B3530305632206279204D4C530099
:10E11000426F6F746C6F616465723E004875683F52
:10E1200000436F6D70696C6564206F6E203D200048
:10E130004350552054797065202020203D20005FF9
:10E140005F4156525F415243485F5F3D2000415658
:10E1500052204C696243205665723D20004743437C
:10E160002056657273696F6E203D20004350552024
:10E1700049442020202020203D20004C6F7720663D
:10E18000757365202020203D20004869676820665F
:10E190007573652020203D200045787420667573D6
:10E1A00065202020203D20004C6F636B2066757336
:10E1B000652020203D20004D617220203720323024
:10E1C000313300312E362E3800342E332E350056A2
:10E1D00023202020414444522020206F7020636F70
:10E1E00064652020202020696E73747275637469E1
:10E1F0006F6E2061646472202020496E74657272B3
:10E20000757074006E6F20766563746F7200726A49
:10E210006D702020006A6D70200057686174207056
:10E220006F72743A00506F7274206E6F7420737541
:10E2300070706F72746564004D7573742062652030
:10E2400061206C6574746572002000577269747483
:10E25000696E672045450052656164696E672045B7
:10E26000450045452065727220636E743D00504F35
:10E27000525400303D5A65726F2061646472003FF1
:10E280003D43505520737461747300403D454550C3
:10E29000524F4D207465737400423D426C696E6B41
:10E2A000204C454400453D44756D70204545505215
:10E2B0004F4D00463D44756D7020464C415348001B
:10E2C000483D48656C70004C3D4C69737420492F83
:10E2D0004F20506F72747300513D51756974005234
:10E2E0003D44756D702052414D00563D73686F7707
:10E2F00020696E7465727275707420566563746FF0
:10E30000727300593D506F727420626C696E6B00BD
:10E310002A0011241FBECFEFD1E2DEBFCDBF01E046
:10E320000CBF12E0A0E0B2E0EEE1FDEF03E00BBFB6
:10E3300002C007900D92A030B107D9F712E0A0E01B
:10E34000B2E001C01D92AE30B107E1F70F9460F367
:10E350000D948DFE01E20EBF0FEF0DBF11241FBE05
:10E360000D9460F30D9400F020E030E040ED57E0B4
:10E3700005C0FA013197F1F72F5F3F4F2817390792
:10E38000C0F308959C01260F311DC901A0E0B0E043
:10E390002F5F3F4FABBFFC018791882361F08093D3
:10E3A000C6008091C00086FFFCCF8091C0008064D1
:10E3B0008093C000EACF08958DE08093C6008091DD
:10E3C000C00086FFFCCF8091C00080648093C000B5
:10E3D0008AE08093C6008091C00086FFFCCF8091C8
:10E3E000C00080648093C00008950F94C2F10F9420
:10E3F000DCF10895FC019081992359F09093C600B7
:10E400008091C00086FFFCCF8091C0008064809323
:10E41000C0003196992379F70895282F982F929567
:10E420009F70892F805D8A3308F0895F8093C600D2
:10E430008091C00086FFFCCF8091C00080648093F3
:10E44000C000822F8F70982F905D9A3308F0995FEB
:10E450009093C6008091C00086FFFCCF8091C000E1
:10E4600080648093C00008959C01FB01853691056E
:10E470001CF46330710594F0C90164E670E00F94F8
:10E480002EFE605D7F4F6093C6008091C00086FFC6
:10E49000FCCF8091C00080648093C0002B30310598
:10E4A00014F43297B4F0C90164E670E00F942EFEC4
:10E4B0006AE070E00F942EFE605D7F4F6093C600AF
:10E4C0008091C00086FFFCCF8091C0008064809363
:10E4D000C000C9016AE070E00F942EFEC0968093E0
:10E4E000C6008091C00086FFFCCF8091C000806490
:10E4F0008093C00008951F93182F8EE692EE60E07F
:10E500000F94C2F11093C6008091C00086FFFCCF2B
:10E510008091C00080648093C0000F94DCF11F9153
:10E5200008952F923F924F925F926F927F928F92B7
:10E530009F92AF92BF92CF92DF92EF92FF920F9392
:10E540001F93DF93CF93CDB7DEB762970FB6F894E2
:10E55000DEBF0FBECDBF382E622ECA01DB015C01CB
:10E560006D01772420E2222E2E010894411C511CBB
:10E570008BC081E0A81680E0B80681E0C80680E084
:10E58000D80628F0C601AA27BB270F940DF2BB2797
:10E59000AD2D9C2D8B2D0F940DF28A2D0F940DF225
:10E5A0002092C6008091C00086FFFCCF8091C00001
:10E5B00080648093C0009DE29093C6008091C0006B
:10E5C00086FFFCCF8091C00080648093C0002092C1
:10E5D000C6008091C00086FFFCCF8091C00080649F
:10E5E0008093C00019828601750188249924A1E0D6
:10E5F0003A1651F03A1620F0B2E03B1661F409C029
:10E600000BBFF701779007C0C7010F9477FE782EF4
:10E6100002C0F7017080872D0F940DF22092C60082
:10E620008091C00086FFFCCF8091C0008064809301
:10E63000C000872D8052F401EF70F0708F3520F408
:10E64000E40DF51D708204C0E40DF51D8EE280839B
:10E650000894E11CF11C011D111D0894811C911CE2
:10E6600090E18916910409F0C2CF80E190E0A0E02A
:10E67000B0E0A80EB91ECA1EDB1E198AC2010F9493
:10E68000FAF10F94DCF16A94662009F072CF629679
:10E690000FB6F894DEBF0FBECDBFCF91DF911F91B3
:10E6A0000F91FF90EF90DF90CF90BF90AF909F9031
:10E6B0008F907F906F905F904F903F902F90089534
:10E6C0002F923F924F925F926F927F928F929F9282
:10E6D000AF92BF92CF92DF92EF92FF920F931F9370
:10E6E000DF93CF93CDB7DEB7CD53D1400FB6F894BB
:10E6F000DEBF0FBECDBF01E20EBF0FEF0DBF94B75F
:10E70000F894A89514BE80916000886180936000A1
:10E7100010926000789493FF05C0E0910002F091A0
:10E7200001021995279A2F9A8091C00082608093E8
:10E73000C00080E18093C40088E18093C1000000A4
:10E74000EE24FF24870144E0A42EB12CCC24DD2448
:10E7500024C0C5010197F1F70894E11CF11C011DCB
:10E76000111D21E2E2162EE4F20620E0020720E06D
:10E77000120718F031E0C32ED12CC801B70127ECE5
:10E780003BE140E050E00F9441FE611571058105C9
:10E79000910519F485B1805885B98091C00087FD35
:10E7A00003C0C114D104A9F2A6014F5F5F4FC25E3E
:10E7B000DE4F59834883CE51D140C25EDE4F8881FF
:10E7C0009981CE51D140019711F00D9410FEC05D9A
:10E7D000DE4F19821882C053D14060E0C15DDE4F28
:10E7E0001882CF52D14088249924C35DDE4F19820C
:10E7F0001882CD52D140C05EDE4F188219821A8233
:10E800001B82C052D140CE5CDE4F188219821A8220
:10E810001B82C253D140EE24FF2487010BBFF701B6
:10E8200007911691C45CDE4F19830883CC53D14005
:10E830000D940BFEC25EDE4F28813981CE51D1404E
:10E840002130310509F52091C600C25EDE4F1982E4
:10E850001882CE51D14022C02F5F3F4F4F4F5F4FA4
:10E86000213082E138078AE7480780E0580780F0C6
:10E87000C45CDE4FE881F981CC53D140EF5FFF4F9C
:10E8800019F0EE27FF27099420E030E040E050E047
:10E890008091C00087FFE0CF2091C600C35DDE4FAE
:10E8A00048815981CD52D1404F5F5F4FC35DDE4FEC
:10E8B00059834883CD52D140213209F063C64A3092
:10E8C000510508F05FC60894811C911C53E0851621
:10E8D000910409F059C600E010E018C081E280936D
:10E8E000C6008091C00086FFFCCF8091C00080648C
:10E8F0008093C0002F5F3F4F2931310579F70F9486
:10E90000DCF10F5F1F4F0530110519F020E030E0FA
:10E91000E5CF10920A0210920B0210920C02109294
:10E920000D02109206021092070210920802109235
:10E930000902109202021092030210920402109235
:10E9400005028FEE90EE60E00F94F5F180E191EE1C
:10E9500060E00F94C2F18091C00087FFFCCF9091DE
:10E96000C600903608F09F759032B8F09093C600BC
:10E970008091C00086FFFCCF8091C00080648093AE
:10E98000C000A0E2A093C6008091C00086FFFCCF2B
:10E990008091C00080648093C000983409F4D7C18E
:10E9A0009934B8F4923409F459C1933458F490333B
:10E9B00019F1903308F4E3C59F33A1F1903409F0C5
:10E9C000DEC5BDC0953409F470C1963409F0D7C5D1
:10E9D00098C1923509F42BC2933538F49C3409F46C
:10E9E000F5C1913509F0CBC518C2963509F445C279
:10E9F000993509F0C4C567C483E792EE62E00F94CD
:10EA0000F5F110920602109207021092080210927D
:10EA1000090210920A0210920B0210920C0210923C
:10EA20000D0213C18FE792EE62E00F94F5F18FEEC5
:10EA300090EE60E00F94F5F181E291EE60E00F94CA
:10EA4000C2F187EB91EE60E00F94F5F180E391EE77
:10EA500060E00F94C2F184EE90EE60E00F94F5F167
:10EA60008FE391EE60E00F94C2F186E090E061E008
:10EA700070E00F9434F20F94DCF18DE591EE60E0DC
:10EA80000F94C2F189EC91EE60E00F94F5F18EE401
:10EA900091EE60E00F94C2F183EC91EE60E00F9490
:10EAA000F5F18CE691EE60E00F94C2F18EE10F94E7
:10EAB0000DF288E90F940DF281E00F940DF20F949E
:10EAC000DCF18BE791EE60E00F94C2F119E0E0E039
:10EAD000F0E010935700E4918E2F0F940DF20F94F5
:10EAE000DCF18AE891EE60E00F94C2F1E3E0F0E03F
:10EAF00010935700E4918E2F0F940DF20F94DCF1D8
:10EB000089E991EE60E00F94C2F1E2E0F0E0109349
:10EB10005700E4918E2F0F940DF20F94DCF188EAE8
:10EB200091EE60E00F94C2F1E1E0F0E01093570045
:10EB30001491812F0F940DF20F94DCF107CF8BE825
:10EB400092EE62E00F94F5F18BE492EE60E00F94A8
:10EB5000F5F10F94DCF100E010E019C0C8016F2D51
:10EB60000F947FFEFF2031F489E492EE60E00F9471
:10EB7000C2F10BC0F092C6008091C00086FFFCCFAE
:10EB80008091C00080648093C0000F5F1F4FC80158
:10EB900081519F41A0E0B0E0ABBFFC01F790BAE229
:10EBA000FB1621F0E2E000301E07C1F60F94DCF105
:10EBB0000F94DCF187E592EE60E00F94F5F10F948D
:10EBC000DCF1CC24DD2400E010E01EC0C8010F946D
:10EBD00077FEF82E882331F489E492EE60E00F94FA
:10EBE000C2F10BC08093C6008091C00086FFFCCFAD
:10EBF0008091C00080648093C000FE1419F00894D6
:10EC0000C11CD11C0F5F1F4FC80181519F41A0E063
:10EC1000B0E0ABBFFC01E790FAE2EF1621F022E092
:10EC20000030120799F60F94DCF10F94DCF182E6C4
:10EC300092EE60E00F94C2F1C60161E070E00F94C3
:10EC400034F20F94DCF10F94DCF110920202109276
:10EC50000302109204021092050278CE89E992EE26
:10EC600062E00F94F5F1279A2F9A16C02F9880E052
:10EC700090E0E0EDF7E03197F1F7019684369105E9
:10EC8000C1F72F9A80E090E0E0EDF7E03197F1F7DF
:10EC9000019684369105C1F78091C00087FFE6CFC9
:10ECA0008091C00087FFFCCF64C485EA92EE62E0E9
:10ECB0000F94F5F140910202509103026091040219
:10ECC0007091050281E020E10F9491F2809102029F
:10ECD00090910302A0910402B091050280509F4FD1
:10ECE000AF4FBF4F8093020290930302A0930402A0
:10ECF000B093050280509041A040B04008F426CE69
:10ED0000A4CF83EB92EE62E00F94F5F140910602FE
:10ED100050910702609108027091090280E020E1A1
:10ED20000F9491F28091060290910702A09108023F
:10ED3000B091090280509F4FAF4FBF4F80930602A2
:10ED400090930702A0930802B0930902FFCD80ECD4
:10ED500092EE62E00F94F5F183E792EE60E00F949B
:10ED6000F5F18FE792EE60E00F94F5F18BE892EE0B
:10ED700060E00F94F5F189E992EE60E00F94F5F10F
:10ED800085EA92EE60E00F94F5F183EB92EE60E09D
:10ED90000F94F5F180EC92EE60E00F94F5F187ECC2
:10EDA00092EE60E00F94F5F188ED92EE60E00F9442
:10EDB000F5F18FED92EE60E00F94F5F18AEE92EEB0
:10EDC00060E00F94F5F183E093EEBDCD87EC92EE19
:10EDD00062E00F94F5F181E40F947BF282E40F94EA
:10EDE0007BF283E40F947BF284E40F947BF285E45E
:10EDF0000F947BF286E40F947BF287E40F947BF20E
:10EE000088E40F947BF28AE40F947BF28BE40F94F6
:10EE10007BF28CE40F947BF299CD88ED92EE62E068
:10EE20000F94F5F1772473948824992409C48FED05
:10EE300092EE62E00F94F5F140910A0250910B02BC
:10EE400060910C0270910D0282E020E10F9491F22A
:10EE500080910A0290910B02A0910C02B0910D02D8
:10EE600080509F4FAF4FBF4F80930A0290930B0289
:10EE7000A0930C02B0930D0269CD8AEE92EE62E08F
:10EE80000F94F5F184EE90EE60E00F94F5F18FECC5
:10EE900091EE60E00F94F5F1662477244301CC5D98
:10EEA000DE4F19821882C452D140D401C301B695F5
:10EEB000A79597958795CA5DDE4F88839983AA8326
:10EEC000BB83C652D140CC5DDE4FA881B981C4520C
:10EED000D1401196CC5DDE4FB983A883C452D14096
:10EEE000CD0162E070E00F9434F2B0E2B093C6005E
:10EEF0008091C00086FFFCCF8091C0008064809329
:10EF0000C000EDE2E093C6008091C00086FFFCCF18
:10EF10008091C00080648093C000F0E2F093C6004E
:10EF20008091C00086FFFCCF8091C00080648093F8
:10EF3000C000CA5DDE4FE880F9800A811B81C6529D
:10EF4000D140BB27A12F902F8F2D0F940DF2CA5DBA
:10EF5000DE4F8881C652D1400F940DF2B0E2FB2EF5
:10EF6000F092C6008091C00086FFFCCF8091C00067
:10EF700080648093C0000DE30093C6008091C000C0
:10EF800086FFFCCF8091C00080648093C00010E2B7
:10EF90001093C6008091C00086FFFCCF8091C00016
:10EFA00080648093C0008BBEF3012791C65DDE4F65
:10EFB0002883CA52D140A22EBB24CC24DD2408943D
:10EFC000611C711C811C911C8BBEF3018791282E42
:10EFD0003324442455240894611C711C811C911C09
:10EFE0008BBEF3013791C55DDE4F3883CB52D140E4
:10EFF0000894611C711C811C911C8BBEF30147910C
:10F00000C45DDE4F4883CC52D140ADEFEA2EAFEF66
:10F01000FA2EAFEF0A2FAFEF1A2F6E0C7F1C801E57
:10F02000911E142D032DF22CEE24EA0CFB1C0C1D5A
:10F030001D1D0F940DF220E22093C6008091C000A8
:10F0400086FFFCCF8091C00080648093C000C65DC5
:10F05000DE4F8881CA52D1400F940DF230E23093D6
:10F06000C6008091C00086FFFCCF8091C000806404
:10F070008093C000C45DDE4F8881CC52D1400F9494
:10F080000DF240E24093C6008091C00086FFFCCFA5
:10F090008091C00080648093C000C55DDE4F888190
:10F0A000CB52D1400F940DF250E25093C6008091A4
:10F0B000C00086FFFCCF8091C00080648093C000B8
:10F0C0008FEFE8168FEFF80680E0080780E018075A
:10F0D00031F484E092EE60E00F94C2F1DFC0D80119
:10F0E000C7018070907CA070B0708050904CA040A0
:10F0F000B040D1F52FEF3FE340E050E0E222F322B1
:10F1000004231523CA5DDE4FA880B980CA80DB8046
:10F11000C652D140AE0CBF1CC01ED11EAA0CBB1CD7
:10F12000CC1CDD1C8EE092EE60E00F94C2F1BB2798
:10F13000A12F902F8F2D0F940DF28E2D0F940DF285
:10F1400030E23093C6008091C00086FFFCCF8091F2
:10F15000C00080648093C0004EE34093C60080915D
:10F16000C00086FFFCCF87C08EE09EEFA0E0B0E03D
:10F17000E822F9220A231B239CE0E91694E9F90608
:10F1800090E0090790E0190709F088C0C45DDE4FE0
:10F19000A881CC52D140EA2EFF2400E010E0102FCD
:10F1A0000F2DFE2CEE24C55DDE4FB881CB52D14031
:10F1B000EB0EF11C011D111DD601C501817090706F
:10F1C000A070B070DC0199278827E80EF91E0A1F8D
:10F1D0001B1F20EF30E040E050E0A222B322C42207
:10F1E000D52241E1AA0CBB1CCC1CDD1C4A95D1F7F1
:10F1F000EA0CFB1C0C1D1D1D81E090E0A0E0B0E0BE
:10F20000282239224A225B2235E1220C331C441C7D
:10F21000551C3A95D1F7E20CF31C041D151D57013E
:10F220006801AA0CBB1CCC1CDD1C85E192EE60E0E1
:10F230000F94C2F1C801AA27BB270F940DF2BB2778
:10F24000A12F902F8F2D0F940DF28E2D0F940DF274
:10F2500090E29093C6008091C00086FFFCCF809121
:10F26000C00080648093C000AEE3A093C60080918C
:10F27000C00086FFFCCF8091C00080648093C000F6
:10F28000C601AA27BB270F940DF2BB27AD2D9C2DDD
:10F290008B2D0F940DF28A2D0F940DF20F94DCF14B
:10F2A000CC5DDE4FE881F981C452D140F99709F471
:10F2B0004DCBF4E0EF2EF12C012D112D6E0C7F1CA7
:10F2C000801E911EF2CD83E093EE62E00F94F5F183
:10F2D0008AE192EE60E00F94C2F18091C00087FF56
:10F2E000FCCF1091C6001F751093C6008091C0001E
:10F2F00086FFFCCF8091C00080648093C0000F9493
:10F30000DCF1812F81548A3108F036C1163409F4BA
:10F3100095C0173490F4133409F44EC0143430F40B
:10F320001134F1F0123409F01DC130C0143409F465
:10F3300059C0153409F016C16BC01A3409F4C4C0A1
:10F340001B3438F4173409F48FC0183409F00AC19B
:10F35000A1C01B3409F4D2C01C3409F003C1E8C0B9
:10F360008FEF81B90DC082B1809582B980E090E0C5
:10F37000E0EDF7E03197F1F70196883C9105C1F790
:10F380008091C00087FFEFCF12B8EFC08FEF84B934
:10F390000DC085B1809585B980E090E0E0EDF7E0A3
:10F3A0003197F1F70196883C9105C1F78091C00033
:10F3B00087FFEFCF15B8D9C08FEF87B90DC088B1DF
:10F3C000809588B980E090E0E0EDF7E03197F1F7C3
:10F3D0000196883C9105C1F78091C00087FFEFCF6F
:10F3E00018B8C3C08FEF8AB90DC08BB180958BB9A7
:10F3F00080E090E0E0EDF7E03197F1F70196883C8E
:10F400009105C1F78091C00087FFEFCF1BB8ADC059
:10F410008FEF8DB90DC08EB180958EB980E090E0F0
:10F42000E0EDF7E03197F1F70196883C9105C1F7DF
:10F430008091C00087FFEFCF1EB897C08FEF80BBD1
:10F440000DC081B3809581BB80E090E0E0EDF7E0F6
:10F450003197F1F70196883C9105C1F78091C00082
:10F4600087FFEFCF11BA81C08FEF83BB0DC084B38C
:10F47000809584BB80E090E0E0EDF7E03197F1F714
:10F480000196883C9105C1F78091C00087FFEFCFBE
:10F4900014BA6BC08FEF809301010FC080910201FD
:10F4A00080958093020180E090E0E0EDF7E03197F5
:10F4B000F1F70196883C9105C1F78091C00087FF64
:10F4C000EDCF1092020151C08FEF809304010FC065
:10F4D0008091050180958093050180E090E0E0ED4A
:10F4E000F7E03197F1F70196883C9105C1F78091DB
:10F4F000C00087FFEDCF1092050137C08FEF8093DA
:10F5000007010FC08091080180958093080180E079
:10F5100090E0E0EDF7E03197F1F70196883C910536
:10F52000C1F78091C00087FFEDCF109208011DC088
:10F530008FEF80930A010FC080910B01809580931B
:10F540000B0180E090E0E0EDF7E03197F1F70196F4
:10F55000883C9105C1F78091C00087FFEDCF1092E4
:10F560000B0103C085E292EEEEC98091C00087FFD7
:10F57000FCCF8091C600EAC988E392EEE4C98CE131
:10F5800091EEE1C988249924933011F1943028F444
:10F59000913089F09230B8F408C0953061F195301F
:10F5A000F0F0963009F048C043C02B3109F042C951
:10F5B00091E06BE13FC96227C15DDE4F2883CF52E6
:10F5C000D14092E037C9B22FA0E0622793E032C960
:10F5D000822F90E0A82BB92B622794E02BC92E3004
:10F5E00009F039C3622795E0C05DDE4F19821882A9
:10F5F000C053D1401FC9E1E0F0E0EC0FFD1FC05D3A
:10F60000DE4F08811981C053D140E00FF11F2083E4
:10F610000F5F1F4FC05DDE4F19830883C053D14079
:10F6200062270A171B0709F005C9D80196E002C92D
:10F63000261709F010C303C0973009F0FBC87724E0
:10F640009981933109F412C19431C8F4963009F4C8
:10F65000D8C0973050F4923009F406C1933009F4C1
:10F660006DC0913009F059C253C0913109F477C08F
:10F67000923108F0BBC0903109F04FC2F5C098310B
:10F6800009F487C0993150F4953109F4EFC09531F0
:10F6900008F4C6C1963109F040C2C2C19A3109F4DA
:10F6A0006CC09A3108F491C09B3109F45BC09D3164
:10F6B00009F033C29D81903359F48F81882311F46E
:10F6C0009EE11CC0813011F091E018C098E916C08D
:10F6D000892F807591F0903539F4E0E0F0E089E011
:10F6E0008093570094910AC0983539F4E3E0F0E034
:10F6F00089E080935700949101C090E01A821B82A8
:10F700008D818C831D829E831F8227E030E009C299
:10F710001A8288E08B8381E48C8386E58D8382E581
:10F720008E8389E48F8383E5888780E589878FE5E9
:10F730008A8782E38B872BE030E0F3C18A818139AD
:10F7400041F0823941F0803911F48FE005C080E04A
:10F7500003C082E001C08AE01A828B8344C0772410
:10F76000739482C08D81882311F48EE12CC0813086
:10F7700011F081E028C088E926C01A82E1E0F0E0BB
:10F7800089E08093570084918B831C8224E030E0D1
:10F79000C8C18B81803589F48C81883039F4E2E0EE
:10F7A000F0E089E08093570084910DC0E0E0F0E044
:10F7B00089E080935700849106C0E3E0F0E089E09F
:10F7C0008093570084911A82DFCF8D81836C99E0FA
:10F7D000E1E0F0E0082E90935700E89507B600FCB2
:10F7E000FDCF1A821B8223E030E09BC180EC8A832C
:10F7F000CE5CDE4F188219821A821B82C253D1401E
:10F800008EC18A8190E0A0E0B0E0582F44273327D2
:10F8100022278B8190E0A0E0B0E0DC0199278827C7
:10F82000282B392B4A2B5B2B8D8190E0A0E0B0E098
:10F83000282B392B4A2B5B2B8C8190E0A0E0B0E089
:10F84000BA2FA92F982F8827282B392B4A2B5B2BCF
:10F85000220F331F441F551FC05EDE4F288339839C
:10F860004A835B83C052D1401A8259C13A81C95C34
:10F87000DE4F3883C753D140CA5CDE4F1882C6536F
:10F88000D1408B81C82EDD24CA5CDE4F488159816E
:10F89000C653D140C42AD52A933109F082C0CE5C28
:10F8A000DE4F88819981AA81BB81C253D1408050AB
:10F8B000904CA340B04030F583E0CE5CDE4FE88052
:10F8C000F9800A811B81C253D140F70100935B008C
:10F8D00080935700E89507B600FCFDCFCE5CDE4F65
:10F8E000088119812A813B81C253D14000501F4FAA
:10F8F0002F4F3F4FCE5CDE4F088319832A833B8313
:10F90000C253D140C05EDE4F488159816A817B81FC
:10F91000C052D140DE011B9631E08C9111962C91A2
:10F9200011971296C75CDE4F2883C953D140C85C3B
:10F93000DE4F1882C853D14090E0C85CDE4FE881AA
:10F94000F981C853D1408E2B9F2B0C01FA01609393
:10F950005B0030935700E89511244E5F5F4F6F4F67
:10F960007F4F0EEFE02E0FEFF02ECE0CDF1CC114F8
:10F97000D10499F685E0C05EDE4F088119812A81A5
:10F980003B81C052D140F80120935B008093570027
:10F99000E89507B600FCFDCF81E180935700E8951C
:10F9A00035C0C05EDE4F88819981AA81BB81C0527B
:10F9B000D140B695A795979587957C018601ABE0D8
:10F9C000AA2EB12CAC0EBD1E0BC0D5016D915D01F0
:10F9D000C7010F947FFE0894E11CF11C01501040F8
:10F9E0000115110591F7A60160E070E0440F551F65
:10F9F000661F771FC05EDE4FE880F9800A811B8199
:10FA0000C052D1404E0D5F1D601F711F1A82C05E33
:10FA1000DE4F488359836A837B83C052D1407FC0C5
:10FA2000FA80C55CDE4FF882CB53D140C65CDE4F16
:10FA30001882CA53D1408B81C82EDD24C65CDE4FAC
:10FA400008811981CA53D140C02AD12A1A828981DA
:10FA5000BE016D5F7F4F843121F59601C05EDE4FA0
:10FA6000E880F9800A811B81C052D1400BBFF701A9
:10FA700087919691DB018C9311969C936E5F7F4FDB
:10FA8000D801C7010296A11DB11DC05EDE4F88835B
:10FA90009983AA83BB83C052D14022503040F1F6F3
:10FAA00036C0C05EDE4F288139814A815B81C052F9
:10FAB000D1400894C108D108760100E010E0089414
:10FAC000C11CD11C0894E11CF11C011D111DE20E8A
:10FAD000F31E041F151F21BDBB27A52F942F832FB5
:10FAE00082BD2F5F3F4F4F4F5F4FF89A80B5DB01CC
:10FAF0008D93BD012E153F054007510761F7C05E8C
:10FB0000DE4F288339834A835B83C052D1409601FC
:10FB10002D5F3F4FFB01108204C080EC8A8322E0FE
:10FB200030E08BE18093C6008091C00086FFFCCF5F
:10FB30008091C00080648093C000C15DDE4FF88179
:10FB4000CF52D140F093C6008091C00086FFFCCF19
:10FB50008091C00080648093C000432F3093C60022
:10FB60008091C00086FFFCCF8091C00080648093AC
:10FB7000C000922F2093C6008091C00086FFFCCF6A
:10FB80008091C00080648093C0008EE08093C600A6
:10FB90008091C00086FFFCCF8091C000806480937C
:10FBA000C00065E1C15DDE4FE880CF52D1406E25D7
:10FBB00069276427FE01319610C090819093C6009A
:10FBC0008091C00086FFFCCF31968091C000806498
:10FBD0008093C0006927215030402115310569F715
:10FBE0006093C6008091C00086FFFCCF8091C0006A
:10FBF00080648093C00085B1805885B9772081F4F6
:10FC0000C15DDE4F0881CF52D1400F5FC15DDE4F35
:10FC10000883CF52D14090E0A0E0B0E00D941AF4F8
:10FC200027982F9880E090E020ED37E0F901319798
:10FC3000F1F7019684369105C9F700008091C00064
:10FC40008D7F8093C00081E180935700E895EE2777
:10FC5000FF270994FFCF90E00D941AF497FB092E2B
:10FC600007260AD077FD04D02ED006D000201AF443
:10FC7000709561957F4F0895F6F7909581959F4F08
:10FC80000895A1E21A2EAA1BBB1BFD010DC0AA1FDD
:10FC9000BB1FEE1FFF1FA217B307E407F50720F0F5
:10FCA000A21BB30BE40BF50B661F771F881F991F70
:10FCB0001A9469F760957095809590959B01AC01B9
:10FCC000BD01CF010895AA1BBB1B51E107C0AA1FAC
:10FCD000BB1FA617B70710F0A61BB70B881F991FED
:10FCE0005A95A9F780959095BC01CD010895F99991
:10FCF000FECF92BD81BDF89A992780B50895262F31
:10FD0000F999FECF1FBA92BD81BD20BD0FB6F89400
:0EFD1000FA9AF99A0FBE01960895F894FFCF63
:00000001FF
