:100000000C941D010C94E6050C94BB050C94900512
:100010000C9465050C943A050C940F050C94E404BB
:100020000C94B9040C944E010C944E010C944E01A6
:100030000C944E010C944E010C944E010C944E0104
:100040000C944E010C944E010C944E010C944E01F4
:100050000C9491070C944E010C944E010C946F0477
:100060000C944E010C943B060C9411060C944E011A
:100070000C944E010C944E010C944E010C944E01C4
:100080000C944E010C944E010C944E010C944E01B4
:100090000C944E010C944E010C944E010C9471067C
:1000A0000C944E010C944E010C944E010C944E0194
:1000B0000C944E010C944E010C944E010C944E0184
:1000C0000C944E010C944E010C944E010C944E0174
:1000D0000C944E010C944E010C944E010C944E0164
:1000E0000C944E010C94AC010C94DD010C940A02AA
:1000F0000C94C0020C9419020C94BA010C949B0746
:100100000C94BE010C943B020C949B010C94C8010E
:100110000C949F010C942D020C94D2010C94B0010C
:100120000C9485010C9497010C94DC010C94A601AD
:100130000C94CC010C94B6010C94A3010C94800196
:100140000C94C4010C9473020C94D601000022009C
:10015000250028002B002E00310034000201000091
:10016000050108010B010505050507050808080834
:10017000020202020A0A080804040404010101013F
:10018000010101010303030303030303040707073A
:100190000C0C0C0C0C0C0C0C0202020206060606DF
:1001A000060606060B0B0B0B0B0B0B0B01021020AC
:1001B000200808102040102040800201020108049D
:1001C0000201010204081020408080402010080431
:1001D000020180040201804020100804020108048A
:1001E00002010102040810204080010204081020CE
:1001F000408000000A0B02090C0D0E0807030401E1
:1002000000000000000000000000000000000000EE
:1002100000000000000000000000000000001211BB
:1002200010000000000000000000000000000000BE
:1002300000000000000000009B0711241FBECFEF4C
:10024000D1E2DEBFCDBF00E00CBF12E0A0E0B2E023
:10025000E2ECF6E100E00BBF02C007900D92AE3673
:10026000B107D9F723E0AEE6B2E001C01D92AE3887
:10027000B207E1F711E0CDE1D1E000E006C021973F
:100280000109802FFE010E948108CC31D10780E056
:100290000807A9F70E94D5070C945F0B0C94000087
:1002A000282F30E0F901EE50FE4F9491F901E4550A
:1002B000FE4F44912A593E4FF9012491222309F41B
:1002C00035C0992311F191509231F8F4E92FF0E003
:1002D0008827E259FE4F8F4F0C9481089F01A3019C
:1002E000800197019B018501A601AC01B001B60117
:1002F000BA01BE01C401C8018501CC01D201D601F9
:10030000809180008F7780938000E22FF0E0EE0FE5
:10031000FF1FE45BFE4FA591B4918FB7F894EC9169
:10032000611148C040954E234C938FBF0895809132
:1003300080008F7DE8CF80918000877FE4CF84B5F7
:100340008F7784BDE2CF84B58F7DFBCF8091B000E5
:100350008F778093B000D9CF8091B0008F7DF9CF97
:10036000809190008F7780939000CFCF8091900004
:100370008F7DF9CF80919000877FF5CF8091A0008D
:100380008F778093A000C1CF8091A0008F7DF9CF9F
:100390008091A000877FF5CF809120018F77809397
:1003A0002001B3CF809120018F7DF9CF8091200172
:1003B000877FF5CF4E2BB8CF0895AF92BF92CF92E3
:1003C000DF92EF92FF920F931F93CF93DF936C0115
:1003D0007B018B01040F151FEB015E01AE18BF08F6
:1003E000C017D10759F06991D601ED91FC910190A8
:1003F000F081E02DC6011995892B79F7C501DF91B0
:10040000CF911F910F91FF90EF90DF90CF90BF9011
:10041000AF900895FC01538D448D252F30E0842F3B
:1004200090E0821B930B541710F0CF96089501971C
:100430000895FC01918D828D981761F0A28DAE0F09
:10044000BF2FB11D5D968C91928D9F5F9F73928F90
:1004500090E008958FEF9FEF0895FC01918D828DBC
:10046000981731F0828DE80FF11D858D90E0089589
:100470008FEF9FEF0895FC01918D228D892F90E0E1
:10048000805C9F4F821B91098F73992708958CEE92
:1004900092E00E943B0221E0892B09F420E0822FA8
:1004A0000895FC01A48DA80FB92FB11DA35ABF4F09
:1004B0002C91848D90E001968F739927848FA68963
:1004C000B7892C93A089B1898C91837080648C93B7
:1004D000938D848D981306C00288F389E02D808166
:1004E0008F7D80830895EF92FF920F931F93CF9398
:1004F000DF93EC0181E0888F9B8D8C8D98131AC05F
:10050000E889F989808185FF15C09FB7F894EE8945
:10051000FF896083E889F9898081837080648083A2
:100520009FBF81E090E0DF91CF911F910F91FF90ED
:10053000EF900895F62E0B8D10E00F5F1F4F0F7395
:100540001127E02E8C8D8E110CC00FB607FCFACF50
:10055000E889F989808185FFF5CFCE010E9451029B
:10056000F1CFEB8DEC0FFD2FF11DE35AFF4FF08221
:100570009FB7F8940B8FEA89FB8980818062CFCF87
:10058000CF93DF93EC01888D8823B9F0AA89BB89CA
:10059000E889F9898C9185FD03C0808186FD0DC0B5
:1005A0000FB607FCF7CF8C9185FFF2CF808185FFD6
:1005B000EDCFCE010E945102E9CFDF91CF91089596
:1005C00080E090E0892B29F00E94470281110E946F
:1005D000000080E090E0892B49F080E090E0892BDA
:1005E00029F00E94000081110E94000080E090E04C
:1005F000892B49F080E090E0892B29F00E940000CF
:1006000081110E94000080E090E0892B49F080E099
:1006100090E0892B29F00E94000081110C940000C9
:10062000089520919902260F3327331F2132310577
:10063000ECF42091BD02FC0190E080E0243069F0F0
:1006400082E00895A09199022191AC0147585D4F35
:10065000A40FB52FB11D2C930196861798F38091A6
:100660009902680F6093990280E0089581E00895EF
:1006700008958FEF9FEF08958FEF9FEF089580917A
:10068000720290E09195819591090895CF93DF933F
:10069000CB01EA01642F0E941103CE01DF91CF91BB
:1006A0000895CF93DF931F92CDB7DEB7698361E0E2
:1006B000CE0101960E94110381E090E00F90DF913E
:1006C000CF91089590E080E008950895FC01019095
:1006D0000020E9F73197AF01481B590BBC018CEEA4
:1006E00092E00C94DD01CF93DF930E946603EC014E
:1006F00082E292E00E9466038C0F9D1FDF91CF91F2
:1007000008951F93CF93DF9385ED8093BC00809174
:10071000750290917602A0917702B09178020796C7
:10072000A11DB11D23E0B695A795979587952A95AC
:10073000D1F72091BC0024FD03C01092BD0252C02D
:100740004091750250917602609177027091780223
:10075000452B462B472B69F30097A105B10541F0C6
:1007600025E32A95F1F700000197A109B109E1CF2E
:1007700080917402C1E0C0937302882399F1D091F3
:10078000B8001091BA008091BC008A7B8093BC00B5
:1007900060E084E10E94500160E085E10E94500128
:1007A0001092BD02C093BF021092BE0261E084E1CC
:1007B0000E94500161E085E10E9450018091B900E2
:1007C0008E7F8093B9008091B9008D7F8093B900AE
:1007D00088E48093B80085E48093BC001093BA004D
:1007E000D093B800DF91CF911F9108958F929F927F
:1007F000AF92BF92CF92DF92EF92FF920F931F932F
:10080000CF93DF93CDB7DEB764970FB6F894DEBF12
:100810000FBECDBF8AE09E012F5F3F4F6901F901F6
:10082000282F11922A95E9F77E013BE0E30EF11C97
:10083000F70111928A95E9F785E292E00E9473032D
:1008400086E392E00E9466038DE3882E8F929CEFF0
:10085000992E9F9226EDA22EAF923AEEB32EBF9222
:1008600004E412E01F930F93FF92EF920E94890815
:10087000C7010E94730381E592E00E9466031F9204
:100880008F928FEF8F939F928F93AF928F93BF92A0
:100890001F930F93DF92CF920E948908C6010E9496
:1008A00073038EE592E00E9473030FB6F894DEBFE7
:1008B0000FBECDBF90E080E064960FB6F894DEBF27
:1008C0000FBECDBFDF91CF911F910F91FF90EF90A1
:1008D000DF90CF90BF90AF909F908F9008951F9220
:1008E0000F920FB60F9211242F933F938F939F93E4
:1008F000AF93BF938091E8029091E902A091EA0240
:10090000B091EB023091E70223E0230F2D3758F529
:100910000196A11DB11D2093E7028093E8029093F8
:10092000E902A093EA02B093EB028091E302909176
:10093000E402A091E502B091E6020196A11DB11D6D
:100940008093E3029093E402A093E502B093E60261
:10095000BF91AF919F918F913F912F910F900FBEBB
:100960000F901F90189526E8230F0296A11DB11D28
:10097000D2CF1F920F920FB60F9211240BB60F9287
:100980002F933F934F935F936F937F938F939F9397
:10099000AF93BF93EF93FF93E0910E02F0910F029C
:1009A0001995FF91EF91BF91AF919F918F917F9199
:1009B0006F915F914F913F912F910F900BBE0F90D0
:1009C0000FBE0F901F9018951F920F920FB60F92A7
:1009D00011240BB60F922F933F934F935F936F9316
:1009E0007F938F939F93AF93BF93EF93FF93E09188
:1009F0000C02F0910D021995FF91EF91BF91AF910B
:100A00009F918F917F916F915F914F913F912F9126
:100A10000F900BBE0F900FBE0F901F9018951F9256
:100A20000F920FB60F9211240BB60F922F933F9394
:100A30004F935F936F937F938F939F93AF93BF93E6
:100A4000EF93FF93E0910202F09103021995FF9159
:100A5000EF91BF91AF919F918F917F916F915F9136
:100A60004F913F912F910F900BBE0F900FBE0F90A3
:100A70001F9018951F920F920FB60F9211240BB66C
:100A80000F922F933F934F935F936F937F938F9327
:100A90009F93AF93BF93EF93FF93E0910002F09188
:100AA00001021995FF91EF91BF91AF919F918F91A5
:100AB0007F916F915F914F913F912F910F900BBE5E
:100AC0000F900FBE0F901F9018951F920F920FB6A8
:100AD0000F9211240BB60F922F933F934F935F9376
:100AE0006F937F938F939F93AF93BF93EF93FF93F6
:100AF000E0910A02F0910B021995FF91EF91BF91DD
:100B0000AF919F918F917F916F915F914F913F91A5
:100B10002F910F900BBE0F900FBE0F901F90189546
:100B20001F920F920FB60F9211240BB60F922F93B4
:100B30003F934F935F936F937F938F939F93AF9365
:100B4000BF93EF93FF93E0910802F091090219958A
:100B5000FF91EF91BF91AF919F918F917F916F9195
:100B60005F914F913F912F910F900BBE0F900FBE51
:100B70000F901F9018951F920F920FB60F9211248D
:100B80000BB60F922F933F934F935F936F937F9387
:100B90008F939F93AF93BF93EF93FF93E0910602E0
:100BA000F09107021995FF91EF91BF91AF919F913D
:100BB0008F917F916F915F914F913F912F910F9006
:100BC0000BBE0F900FBE0F901F9018951F920F92A3
:100BD0000FB60F9211240BB60F922F933F934F93A2
:100BE0005F936F937F938F939F93AF93BF93EF9395
:100BF000FF93E0910402F09105021995FF91EF91A6
:100C0000BF91AF919F918F917F916F915F914F9124
:100C10003F912F910F900BBE0F900FBE0F901F9022
:100C200018951F920F920FB60F9211240BB60F92C8
:100C30002F933F934F935F936F937F938F939F93E4
:100C4000AF93BF93EF93FF938CEE92E00E9451021B
:100C5000FF91EF91BF91AF919F918F917F916F9194
:100C60005F914F913F912F910F900BBE0F900FBE50
:100C70000F901F9018951F920F920FB60F9211248C
:100C80000BB60F922F938F939F93EF93FF93E09167
:100C9000FC02F091FD028081E0910203F0910303D8
:100CA00082FD1DC09081809105038F5F8F7320911D
:100CB0000603821741F0E0910503F0E0E451FD4F97
:100CC000958F80930503FF91EF919F918F912F91C5
:100CD0000F900BBE0F900FBE0F901F901895808144
:100CE000F2CF1F920F920FB60F9211240BB60F92F4
:100CF0002F933F934F935F936F937F938F939F9324
:100D0000AF93BF93EF93FF938091B900887F8036B4
:100D100009F44DC008F040C0883209F4A7C028F596
:100D2000803109F49BC0C8F4882309F4F7C08830E7
:100D300009F494C0FF91EF91BF91AF919F918F9172
:100D40007F916F915F914F913F912F910F900BBECB
:100D50000F900FBE0F901F901895883109F486C030
:100D6000803241F78093BC0214C0803409F49BC0E8
:100D700040F48033B9F38833E9F68093BC0285EC04
:100D8000AEC0803509F483C0883509F494C0883436
:100D900089F60E948103CECF883909F48AC038F5DC
:100DA000883729F050F4883611F0803719F683E03F
:100DB0008093BD021092BB0255C0883809F479C0F7
:100DC000803919F0803809F0B5CF8091BB028032AC
:100DD00008F06FC0E091BB0281E08E0F8093BB02F0
:100DE0008091BB00F0E0E556FD4F80833BC0803B27
:100DF00039F0D0F4803A09F477C0883A09F09ACFF4
:100E000084E08093BD0210929A0210929902F0E061
:100E1000E0E019958091990281110FC081E08093E3
:100E200099021092790209C0803C09F4A8CF883C4D
:100E300009F4A5CF883B09F07DCFE0919A0281E0CB
:100E40008E0F80939A02F0E0E758FD4F80818093E7
:100E5000BB0090919A028091990229C08091E20290
:100E60008093BB0085EC8093BC0064CF9091E1023D
:100E70008091E002981758F5E091E10281E08E0F31
:100E80008093E102F0E0E054FD4F8081E9CFE091F2
:100E9000E10281E08E0F8093E1028091BB00F0E0DF
:100EA000E054FD4F80839091E1028091E002981719
:100EB000C8F285E8D8CFE091E10281E08E0F8093FF
:100EC000E1028091BB00F0E0E054FD4F808380910F
:100ED000BF0281115ECF81E08093BE0284EA8093DD
:100EE000BC001092BD0226CF85EC8093BC0010920E
:100EF000BD028091BB02803230F4E091BB02F0E091
:100F0000E556FD4F10826091BB0270E08BE992E0E4
:100F1000F0E0E0E019951092BB020CCF1092BC02F9
:100F200038CF1F920F920FB60F9211240F900FBE61
:100F30000F901F901895ECEEF2E01382128288EE6B
:100F400093E0A0E0B0E084839583A683B78384E137
:100F500092E09183808385EC90E09587848784EC90
:100F600090E09787868780EC90E0918B808B81EC76
:100F700090E0938B828B82EC90E0958B848B86EC57
:100F800090E0978B868B118E128E138E148E81E4D7
:100F900080938A0382E48093890383E480938B03A4
:100FA00080938C0380938D030895789484B5826038
:100FB00084BD84B5816084BD85B5826085BD85B5FD
:100FC000816085BD80916E00816080936E0010927B
:100FD00081008091810082608093810080918100F6
:100FE0008160809381008091800081608093800087
:100FF0008091B10084608093B1008091B0008160E5
:101000008093B000809191008260809391008091E4
:101010009100816080939100809190008160809325
:1010200090008091A10082608093A1008091A10036
:1010300081608093A1008091A00081608093A000D6
:101040008091210182608093210180912101816042
:101050008093210180912001816080932001809103
:101060007A00846080937A0080917A008260809315
:101070007A0080917A00816080937A0080917A0072
:10108000806880937A001092C100E091FC02F09198
:10109000FD0282E08083E091F802F091F902108273
:1010A000E091FA02F091FB0280E180831092040348
:1010B000E0910003F091010386E08083E091FE025D
:1010C000F091FF02808180618083E091FE02F091C7
:1010D000FF02808188608083E091FE02F091FF0230
:1010E000808180688083E091FE02F091FF02808120
:1010F0008F7D80830E94F6030E94F6030E94E00227
:10110000FBCFEE0FFF1F881F8BBF0790F691E02DDE
:1011100019940F931F93CF93DF93CDB7DEB72E971C
:101120000FB6F894DEBF0FBECDBF0E891F8986E0D3
:101130008C831A8309838FEF9FE79E838D83AE0193
:10114000465E5F4F688D798DCE0101960E94B90889
:101150002F813885020F131FF80110822E960FB6CB
:10116000F894DEBF0FBECDBFDF91CF911F910F91DD
:1011700008952F923F924F925F926F927F928F923B
:101180009F92AF92BF92CF92DF92EF92FF920F9316
:101190001F93CF93DF9300D000D000D01F921F92F7
:1011A000CDB7DEB77C013B018A01FC0117821682B4
:1011B000838181FFDDC1CE0101965C01F70193813E
:1011C000F30193FD859193FF81913F01882309F4F9
:1011D00053C1853239F493FD859193FF81913F018D
:1011E000853229F4B70190E00E94D10AE7CF912C13
:1011F000212C312CFFE1F31538F08B3211F190F4F2
:10120000803209F1833229F137FC3CC020ED280FF0
:101210002A3050F536FE20C08AE0989E200D112419
:10122000922E06C08D3291F0803371F7689430F8B9
:10123000F30193FD859193FF81913F018111DACFF5
:1012400021C0689431F8689432F8F2CF689433F88A
:10125000EFCF689434F8ECCFEAE02E9E200D1124F5
:10126000222E689435F8E4CF8E3229F436FC04C17E
:10127000689436F8DDCF8C3619F4689437F8D8CFF7
:101280008836B1F2982F9F7D95549330E0F08336E5
:10129000A1F18337C1F1833509F063C02801F2E081
:1012A0004F0E511CF801C080D180692D70E036FCD2
:1012B00002C06FEF7FEFC6010E94BB0A4C01689429
:1012C00037F882010AC00C5F1F4FFFE3F9838824BF
:1012D0008394912C6501E89437F833FE2DC0522C8D
:1012E0008114910471F5552009F468CFB70180E2AB
:1012F00090E00E94D10A5A94F6CFF8018081898348
:101300000E5F1F4FE4CF2801F2E04F0E511CF80191
:10131000C080D180692D70E036FC02C06FEF7FEF96
:10132000C6010E94C60A4C018201D5CFB70180E2F6
:1013300090E00E94D10A2A942814190409F0B0F709
:10134000CECFF60137FC859137FE81916F01B70151
:1013500090E00E94D10A51105A94F1E08F1A91083E
:10136000BFCF843619F0893609F077C0F80137FE0F
:101370006BC060817181828193810C5F1F4FF32D5F
:10138000FF763F2E97FF09C09095809570956195E7
:101390007F4F8F4F9F4F689437F82AE030E0A501C8
:1013A0000E94010BC82ECA188C2C432C36FE0CC090
:1013B000E89440F8C91440F434FE05C032FC03C080
:1013C000F32DFE7E4F2E892C44FEAAC0FE01EC0DAB
:1013D000F11D8081803309F09CC0242D297E422E8E
:1013E000842D8870582E43FCAAC040FEA4C09C2CBB
:1013F000821418F42C0C922C981844FEA6C0B70145
:1014000080E390E00E94D10A42FE09C088E790E0A4
:1014100041FE02C088E590E0B7010E94D10AC914DC
:1014200008F49FC0CA94D12C9FEFC91AD90ACA0CDC
:10143000DB1CF60182916F01B70190E00E94D10A96
:10144000AC14BD04B1F74FCF60817181072E000C41
:10145000880B990B0E5F1F4F92CFD32CE894D4F8D2
:101460002AE030E08537E1F1232D297FD22E8F3617
:10147000A9F1F0F4883551F1F701868197812B9617
:101480000FB6F894DEBF0FBECDBFDF91CF911F9195
:101490000F91FF90EF90DF90CF90BF90AF909F9013
:1014A0008F907F906F905F904F903F902F90089516
:1014B000803749F0883701F7D4FE02C06894D2F82B
:1014C00020E130E00DC06894D4F8F6CF34FE03C0BC
:1014D000822F8660D82E20E132E002C028E030E082
:1014E000F801D7FE0FC060817181828193810C5F0A
:1014F0001F4FA5010E94010BC82ECA183D2CE8946D
:1015000037F852CF6081718190E080E00E5F1F4F0D
:10151000F0CF42FC02C0839463CF8394839460CF66
:10152000842D867809F45CCFF6CFB70180E290E095
:101530000E94D10A83948214C0F3512C5ECF522CA6
:101540005818821408F459CFF8CF842D867809F4FE
:1015500066CF8BE241FE80E247FC8DE2B70190E06E
:101560005CCFB70180E390E00E94D10A9A9457CFF4
:101570008FEF9FEF84CFFC01059061507040011008
:10158000D8F7809590958E0F9F1F0895FC016150AC
:10159000704001900110D8F7809590958E0F9F1F95
:1015A00008950F931F93CF93DF93182F092FEB010B
:1015B0008B8181FD09C01FEF0FEF812F902FDF91ED
:1015C000CF911F910F91089582FF14C02E813F810A
:1015D0008C819D81281739073CF4E881F981CF017E
:1015E00001969983888310838E819F8101969F83C2
:1015F0008E83E3CFE885F985812F1995892BA1F397
:10160000DACFFA01AA27283051F1203181F1E8948C
:101610006F936E7F6E5F7F4F8F4F9F4FAF4FB1E0E5
:101620003ED0B4E03CD0670F781F891F9A1FA11DE0
:10163000680F791F8A1F911DA11D6A0F711D811DE1
:10164000911DA11D20D009F468943F912AE0269FA6
:1016500011243019305D3193DEF6CF010895462F05
:101660004770405D4193B3E00FD0C9F7F6CF462FE6
:101670004F70405D4A3318F0495D31FD405241934F
:1016800002D0A9F7EACFB4E0A6959795879577950C
:101690006795BA95C9F700976105710508959B0193
:1016A000AC010A2E06945795479537952795BA951C
:1016B000C9F7620F731F841F951FA01D0895F8942A
:0216C000FFCF5A
:1016C200DC01DC01DC01DC01DC01DC01DC01DC0130
:1016D200000000007302DD010A02C0023B0219028F
:1016E2002D020D0A000A2D2D2D2053544152542053
:1016F2002D2D2D2D0A002D2D2D20666C6F6174204D
:101702002D2D2D0025237825237825237825237850
:10171200002D2D2D2063686172202D2D2D000A2DA4
:0E1722002D2D20454E44202D2D2D2D0A00008A
:00000001FF
