:100000000C942A010C9499060C946E060C944306E9
:100010000C9418060C94ED050C94C2050C949705ED
:100020000C946C050C945B010C945B010C945B01CB
:100030000C945B010C945B010C945B010C945B01D0
:100040000C945B010C945B010C945B010C945B01C0
:100050000C9424070C945B010C945B010C94220516
:100060000C945B010C94EE060C94C4060C945B019A
:100070000C945B010C945B010C945B010C945B0190
:100080000C945B010C945B010C945B010C945B0180
:100090000C945B010C945B010C945B010C942E0797
:1000A0000C945B010C945B010C945B010C945B0160
:1000B0000C945B010C945B010C945B010C945B0150
:1000C0000C945B010C945B010C945B010C945B0140
:1000D0000C945B010C945B010C945B010C945B0130
:1000E0000C945B010C9436020C94AC010C94F4015A
:1000F0000C94C3010C9408020C940E090C94DC01BE
:100100000C94D8010C94EC020C9459020C94020249
:100110000C94CB010C94F8010C94EA010C94E601C8
:100120000C94C7010C949F020C94B1010C94CF0164
:100130000C9445020C94F0010C94E2010C946702BB
:100140000C94D2010C9409020C94FE0100000A0BDD
:1001500002090C0D0E080703040100000000000056
:10016000000000000000000000000000000000008F
:10017000000000000000000012111000000000004C
:10018000000000000000000000000000000000006F
:10019000000000002200250028002B002E00310066
:1001A000340002010000050108010B0100002100DC
:1001B000240027002A002D00300033000101000038
:1001C000040107010A0105050505070508080808D7
:1001D000020202020A0A08080404040401010101DF
:1001E00001010101030303030303030304070707DA
:1001F0000C0C0C0C0C0C0C0C02020202060606067F
:10020000060606060B0B0B0B0B0B0B0B010210204B
:10021000200808102040102040800201020108043C
:1002200002010102040810204080804020100804D0
:100230000201800402018040201008040201080429
:10024000020101020408102040800102040810206D
:1002500040800E0911241FBECFEFD1E2DEBFCDBF1B
:1002600000E00CBF12E0A0E0B2E0ECE1FBE100E056
:100270000BBF02C007900D92A235B107D9F724E059
:10028000A2E5B2E001C01D92A937B207E1F711E083
:10029000CAE2D1E000E006C021970109802FFE01EB
:1002A0000E947B0DC932D10780E00807A9F70E94A0
:1002B000A2090C948C0D0C94000090E0FC01E45F0A
:1002C000FD4F24918A539E4FFC018491882399F01D
:1002D00090E0880F991FFC01E455FE4FA591B49161
:1002E000FC01EE56FE4F859194918FB7F894EC91F6
:1002F000E22BEC938FBF0895282F30E0F901E45BE7
:10030000FE4F9491F901E45FFD4F44912A533E4F13
:10031000F9012491222309F435C0992311F1915058
:100320009231F8F4E92FF0E08827E656FE4F8F4F20
:100330000C947B0DCB01CF01AC01C301C701B1010E
:10034000D201D801DC01E201E601EA01F001F40189
:10035000B101F801FE010202809180008F77809345
:100360008000E22FF0E0EE0FFF1FEE56FE4FA5914A
:10037000B4918FB7F894EC91611148C040954E2329
:100380004C938FBF0895809180008F7DE8CF80913E
:100390008000877FE4CF84B58F7784BDE2CF84B5BA
:1003A0008F7DFBCF8091B0008F778093B000D9CF45
:1003B0008091B0008F7DF9CF809190008F778093EE
:1003C0009000CFCF809190008F7DF9CF80919000E9
:1003D000877FF5CF8091A0008F778093A000C1CF59
:1003E0008091A0008F7DF9CF8091A000877FF5CF0D
:1003F000809120018F7780932001B3CF80912001DD
:100400008F7DF9CF80912001877FF5CF4E2BB8CF1C
:100410000895AF92BF92CF92DF92EF92FF920F9327
:100420001F93CF93DF936C017B018B01040F151F8A
:10043000EB015E01AE18BF08C017D10759F06991F2
:10044000D601ED91FC910190F081E02DC601199546
:10045000892B79F7C501DF91CF911F910F91FF9003
:10046000EF90DF90CF90BF90AF900895FC01538D37
:10047000448D252F30E0842F90E0821B930B54177E
:1004800010F0CF96089501970895FC01918D828D0B
:10049000981761F0A28DAE0FBF2FB11D5D968C91A4
:1004A000928D9F5F9F73928F90E008958FEF9FEFE3
:1004B0000895FC01918D828D981731F0828DE80F9F
:1004C000F11D858D90E008958FEF9FEF0895FC0159
:1004D000918D228D892F90E0805C9F4F821B910926
:1004E0008F73992708958FEF92E00E94670221E0B1
:1004F000892B09F420E0822F0895FC01A48DA80F18
:10050000B92FB11DA35ABF4F2C91848D90E0019655
:100510008F739927848FA689B7892C93A089B18975
:100520008C91837080648C93938D848D981306C016
:100530000288F389E02D80818F7D80830895EF927A
:10054000FF920F931F93CF93DF93EC0181E0888F8D
:100550009B8D8C8D98131AC0E889F989808185FF5D
:1005600015C09FB7F894EE89FF896083E889F989FF
:1005700080818370806480839FBF81E090E0DF9101
:10058000CF911F910F91FF90EF900895F62E0B8D54
:1005900010E00F5F1F4F0F731127E02E8C8D8E110F
:1005A0000CC00FB607FCFACFE889F989808185FF76
:1005B000F5CFCE010E947D02F1CFEB8DEC0FFD2F28
:1005C000F11DE35AFF4FF0829FB7F8940B8FEA8931
:1005D000FB8980818062CFCFCF93DF93EC01888D40
:1005E0008823B9F0AA89BB89E889F9898C9185FDAE
:1005F00003C0808186FD0DC00FB607FCF7CF8C913C
:1006000085FFF2CF808185FFEDCFCE010E947D0274
:10061000E9CFDF91CF91089580E090E0892B29F018
:100620000E94730281110E94000080E090E0892BFB
:1006300049F080E090E0892B29F00E9400008111B0
:100640000E94000080E090E0892B49F080E090E07B
:10065000892B29F00E94000081110E94000080E097
:1006600090E0892B49F080E090E0892B29F00E94EE
:10067000000081110C9400000895089520918302D8
:10068000260F3327331F21323105ECF42091A702C6
:10069000FC0190E080E0243069F082E00895A091B0
:1006A00083022191AC014D595D4FA40FB52FB11DAF
:1006B0002C930196861798F380918302680F6093BC
:1006C000830280E0089581E0089508958FEF9FEF01
:1006D00008958FEF9FEF089580915C0290E09195CF
:1006E000819591090895CF93DF93CB01EA01642F9F
:1006F0000E943E03CE01DF91CF910895CF93DF9307
:100700001F92CDB7DEB7698361E0CE0101960E94EA
:100710003E0381E090E00F90DF91CF91089590E04B
:1007200080E00895FC0101900020E9F73197AF01C6
:10073000481B590BBC018FEF92E00C9409028F9279
:100740009F92AF92BF920F931F93CF93DF93CDB73A
:10075000DEB7A1970FB6F894DEBF0FBECDBF19A2CA
:10076000423008F44AE08E010F5D1F4F842E912C19
:10077000B12CA12CA50194010E941D0BE62FB901FB
:10078000CA01EA30F4F4E05DD801EE938D01232B29
:10079000242B252B79F790E080E0109719F0CD01FC
:1007A0000E949203A1960FB6F894DEBF0FBECDBF94
:1007B000DF91CF911F910F91BF90AF909F908F903D
:1007C0000895E95CE1CF4F925F926F927F928F9292
:1007D0009F92AF92BF92CF92DF92EF92FF926B0106
:1007E0007C01AC019B010E94760D8823C1F082E25E
:1007F00092E00E9492037C018EE292E00E949203BA
:100800008E0D9F1DFF90EF90DF90CF90BF90AF9027
:100810009F908F907F906F905F904F9008954601CA
:100820005701E894B7F82FEF3FEF4FE75FE7C501B7
:10083000B4010E94760D81110DC02FEF3FEF4FE7FD
:100840005FE7C501B4010E94AC0B18161CF486E2E8
:1008500092E0CFCF2FEF3FEF4FE75FE4C701B60144
:100860000E94040D18161CF48AE292E0C2CF2FEF0A
:100870003FEF4FE75FECC701B6010E94AC0B87FD6D
:10088000F3CF20E030E0A901C701B6010E94AC0B14
:10089000B12CA12C87FF0AC06DE28FEF92E00E947D
:1008A0009F025C01F7FAF094F7F8F0942AE037ED34
:1008B00043EA5BE3C701B6010E94400B2B013C01F8
:1008C0000E94230C6B017C010E94520C9B01AC0125
:1008D000C301B2010E943F0B2B013C014AE0C7015A
:1008E000B6010E949F037C01EA0CFB1C6EE28FEFB5
:1008F00092E00E949F02E80EF91E20E030E040E204
:1009000051E4C301B2010E94090D2B013C010E9478
:10091000230C4B01B12CA12C4AE0C501B4010E946B
:100920009F03E80EF91EC501B4010E94520C9B0101
:10093000AC01C301B2010E943F0B20E030E040E275
:1009400051E40E94090D0E94230C90E080E04AE0EF
:100950000E949F03E80EF91E4FCF1F93CF93DF93A2
:1009600085ED8093BC0080915F0290916002A09120
:100970006102B09162020796A11DB11D23E0B695F8
:10098000A795979587952A95D1F72091BC0024FDCE
:1009900003C01092A70252C040915F0250916002C2
:1009A0006091610270916202452B462B472B69F3DF
:1009B0000097A105B10541F025E32A95F1F7000064
:1009C0000197A109B109E1CF80915E02C1E0C09316
:1009D0005D02882399F1D091B8001091BA008091FE
:1009E000BC008A7B8093BC0060E084E10E947C01B3
:1009F00060E085E10E947C011092A702C093A902E9
:100A00001092A80261E084E10E947C0161E085E12E
:100A10000E947C018091B9008E7F8093B900809103
:100A2000B9008D7F8093B90088E48093B80085E495
:100A30008093BC001093BA00D093B800DF91CF919F
:100A40001F9108951F920F920FB60F9211242F93AA
:100A50003F938F939F93AF93BF938091FB029091AD
:100A6000FC02A091FD02B091FE023091FA0223E057
:100A7000230F2D3758F50196A11DB11D2093FA02C1
:100A80008093FB029093FC02A093FD02B093FE02C0
:100A90008091F6029091F702A091F802B091F902CC
:100AA0000196A11DB11D8093F6029093F702A093C9
:100AB000F802B093F902BF91AF919F918F913F914E
:100AC0002F910F900FBE0F901F90189526E8230FBF
:100AD0000296A11DB11DD2CF1F920F920FB60F9299
:100AE00011240BB60F922F933F934F935F936F9305
:100AF0007F938F939F93AF93BF93EF93FF93E09177
:100B00000E02F0910F021995FF91EF91BF91AF91F5
:100B10009F918F917F916F915F914F913F912F9115
:100B20000F900BBE0F900FBE0F901F9018951F9245
:100B30000F920FB60F9211240BB60F922F933F9383
:100B40004F935F936F937F938F939F93AF93BF93D5
:100B5000EF93FF93E0910C02F0910D021995FF9134
:100B6000EF91BF91AF919F918F917F916F915F9125
:100B70004F913F912F910F900BBE0F900FBE0F9092
:100B80001F9018951F920F920FB60F9211240BB65B
:100B90000F922F933F934F935F936F937F938F9316
:100BA0009F93AF93BF93EF93FF93E0910202F09175
:100BB00003021995FF91EF91BF91AF919F918F9192
:100BC0007F916F915F914F913F912F910F900BBE4D
:100BD0000F900FBE0F901F9018951F920F920FB697
:100BE0000F9211240BB60F922F933F934F935F9365
:100BF0006F937F938F939F93AF93BF93EF93FF93E5
:100C0000E0910002F09101021995FF91EF91BF91DF
:100C1000AF919F918F917F916F915F914F913F9194
:100C20002F910F900BBE0F900FBE0F901F90189535
:100C30001F920F920FB60F9211240BB60F922F93A3
:100C40003F934F935F936F937F938F939F93AF9354
:100C5000BF93EF93FF93E0910A02F0910B02199575
:100C6000FF91EF91BF91AF919F918F917F916F9184
:100C70005F914F913F912F910F900BBE0F900FBE40
:100C80000F901F9018951F920F920FB60F9211247C
:100C90000BB60F922F933F934F935F936F937F9376
:100CA0008F939F93AF93BF93EF93FF93E0910802CD
:100CB000F09109021995FF91EF91BF91AF919F912A
:100CC0008F917F916F915F914F913F912F910F90F5
:100CD0000BBE0F900FBE0F901F9018951F920F9292
:100CE0000FB60F9211240BB60F922F933F934F9391
:100CF0005F936F937F938F939F93AF93BF93EF9384
:100D0000FF93E0910602F09107021995FF91EF9190
:100D1000BF91AF919F918F917F916F915F914F9113
:100D20003F912F910F900BBE0F900FBE0F901F9011
:100D300018951F920F920FB60F9211240BB60F92B7
:100D40002F933F934F935F936F937F938F939F93D3
:100D5000AF93BF93EF93FF93E0910402F0910502EC
:100D60001995FF91EF91BF91AF919F918F917F91D5
:100D70006F915F914F913F912F910F900BBE0F900C
:100D80000FBE0F901F9018951F920F920FB60F92E3
:100D900011240BB60F922F933F934F935F936F9352
:100DA0007F938F939F93AF93BF93EF93FF938FEFB7
:100DB00092E00E947D02FF91EF91BF91AF919F91D0
:100DC0008F917F916F915F914F913F912F910F90F4
:100DD0000BBE0F900FBE0F901F9018951F920F9291
:100DE0000FB60F9211240BB60F922F938F939F93F0
:100DF000EF93FF93E0910F03F09110038081E09156
:100E00001503F091160382FD1DC090818091180397
:100E10008F5F8F7320911903821741F0E0911803BF
:100E2000F0E0E150FD4F958F80931803FF91EF9113
:100E30009F918F912F910F900BBE0F900FBE0F902F
:100E40001F9018958081F2CF1F920F920FB60F92CC
:100E500011240F900FBE0F901F9018951F920F92A4
:100E60000FB60F9211240BB60F922F933F934F930F
:100E70005F936F937F938F939F93AF93BF93EF9302
:100E8000FF938091B900887F803609F44DC008F047
:100E900040C0883209F4A7C028F5803109F49BC00E
:100EA000C8F4882309F4F7C0883009F494C0FF918E
:100EB000EF91BF91AF919F918F917F916F915F91D2
:100EC0004F913F912F910F900BBE0F900FBE0F903F
:100ED0001F901895883109F486C0803241F78093BD
:100EE000A60214C0803409F49BC040F48033B9F3E7
:100EF0008833E9F68093A60285ECAEC0803509F40C
:100F000083C0883509F494C0883489F60E94AD0402
:100F1000CECF883909F48AC038F5883729F050F4E3
:100F2000883611F0803719F683E08093A70210927B
:100F3000A50255C0883809F479C0803919F0803885
:100F400009F0B5CF8091A502803208F06FC0E09122
:100F5000A50281E08E0F8093A5028091BB00F0E096
:100F6000EB57FD4F80833BC0803B39F0D0F4803A93
:100F700009F477C0883A09F09ACF84E08093A702F9
:100F80001092840210928302F0E0E0E019958091C3
:100F9000830281110FC081E080938302109263026B
:100FA00009C0803C09F4A8CF883C09F4A5CF883B50
:100FB00009F07DCFE091840281E08E0F809384025E
:100FC000F0E0ED59FD4F80818093BB009091840249
:100FD0008091830229C08091CC028093BB0085EC74
:100FE0008093BC0064CF9091CB028091CA02981785
:100FF00058F5E091CB0281E08E0F8093CB02F0E0B8
:10100000E655FD4F8081E9CFE091CB0281E08E0F64
:101010008093CB028091BB00F0E0E655FD4F8083CA
:101020009091CB028091CA029817C8F285E8D8CF78
:10103000E091CB0281E08E0F8093CB028091BB00C8
:10104000F0E0E655FD4F80838091A90281115ECFCB
:1010500081E08093A80284EA8093BC001092A702EA
:1010600026CF85EC8093BC001092A7028091A50248
:10107000803230F4E091A502F0E0EB57FD4F108292
:101080006091A50270E085E892E0F0E0E0E019955B
:101090001092A5020CCF1092A60238CF4F925F9209
:1010A0006F927F928F929F92AF92BF92CF92DF9278
:1010B000EF92FF920F931F93CF93DF93CDB7DEB7DD
:1010C0004C0127013801DC015F965C934E935E97DB
:1010D0005D967C936E935C9791963C932E9390973C
:1010E000DA961C92FC0112AA13AA14AA15AA80E08F
:1010F00090E0AFE7B3E486AB97ABA0AFB1AF84E6C7
:1011000090E0A0E0B0E086A797A7A0ABB1AB118EAE
:10111000108E20E030E0A901C801B7010E94AC0B9D
:1011200087FD53C020E030E0A901C601B5010E944F
:10113000AC0B87FD4AC020E030E0A9016C897D89B5
:101140008E899F890E94AC0B87FD3FC081E090E0B3
:10115000D4015B969C938E935A97DB968C93DB9786
:10116000F40140825182628273821496AD92BD92E4
:10117000CD92DC9217978C899D89AE89BF89808733
:101180009187A287B38744865586668677862DEC3D
:101190003CEC4CEC5DE3C601B5010E94090DF40185
:1011A000608B718B828B938B2DEC3CEC4CEC5DE374
:1011B0006C897D898E899F890E94B10BD4015496D8
:1011C0006D937D938D939C9357972FB7F89480914F
:1011D000FB029091FC02A091FD02B091FE022FBF94
:1011E000F40146A557A560A971A9841B950BA60B10
:1011F000B70B82A393A3A4A3B5A3DF91CF911F91B3
:101200000F91FF90EF90DF90CF90BF90AF909F90A5
:101210008F907F906F905F904F9008957F928F9204
:101220009F92AF92BF92CF92DF92EF92FF920F9375
:101230001F93CF93DF93EFEFF2E01382128288EED9
:1012400093E0A0E0B0E084839583A683B78384E134
:1012500092E09183808385EC90E09587848784EC8D
:1012600090E09787868780EC90E0918B808B81EC73
:1012700090E0938B828B82EC90E0958B848B86EC54
:1012800090E0978B868B118E128E138E148E81E4D4
:1012900080939D0382E480939C038EE3782E7F925B
:1012A0009CE4892E8F922CEC922E9F92DDECDF93A2
:1012B000A12CB12C6501E12CF12C00E810E42FE900
:1012C00033E043EA53E067EA73E08BEA93E00E947D
:1012D0004E08C3E4C0939E03C093E7037F928F92AE
:1012E0009F92DF9321E334E045E354E069E374E047
:1012F0008DE394E00E944E087F928F929F92DF933D
:1013000029EE33E04DEE53E061EF73E085EF93E0BB
:101310000E944E08C093E8038DB79EB70C960FB697
:10132000F8949EBF0FBE8DBFDF91CF911F910F919B
:10133000FF90EF90DF90CF90BF90AF909F908F90F5
:101340007F900895789484B5826084BD84B581606F
:1013500084BD85B5826085BD85B5816085BD809180
:101360006E00816080936E001092810080918100F8
:1013700082608093810080918100816080938100F0
:10138000809180008160809380008091B1008460B2
:101390008093B1008091B00081608093B000809113
:1013A0009100826080939100809191008160809390
:1013B0009100809190008160809390008091A100C5
:1013C00082608093A1008091A10081608093A10040
:1013D0008091A00081608093A000809121018260B3
:1013E000809321018091210181608093210180916E
:1013F000200181608093200180917A008460809335
:101400007A0080917A00826080937A0080917A00DD
:10141000816080937A0080917A00806880937A005E
:101420001092C100E0910F03F091100382E08083DD
:10143000E0910B03F0910C031082E0910D03F09109
:101440000E0380E1808310921703E0911303F09163
:10145000140386E08083E0911103F09112038081F0
:1014600080618083E0911103F09112038081886094
:101470008083E0911103F091120380818068808362
:10148000E0911103F091120380818F7D8083CFB7AB
:10149000F8948091CD02811124C0EBEFF1E08491AA
:1014A000E1E4F2E09491E82FF0E0EE0FFF1FE45545
:1014B000FE4FA591B491EC91E92321F461E085E31D
:1014C0000E947C0185E30E945D018CB580618CBD2A
:1014D0008CB580648CBD84E30E945D0183E30E942F
:1014E0005D018091CD028F5F8093CD02CFBF61E01F
:1014F00085E30E947C018AEE482E86ED582E8CEF03
:10150000682E8DE3782E04E312E1C2E14092CE0210
:101510005092CF026092D0027092D1024092D202D9
:101520005092D3026092D4027092D5024092D602B9
:101530005092D7026092D8027092D9021093DB02C7
:101540000093DA02C093DC02C093DD02C093DF0295
:10155000C093DE02C093E002C093E202C093E102B6
:10156000C093E302C093E502C093E402C093E60295
:10157000C093E802C093E702C093E902C093EB0274
:10158000C093EA02C093EC02C093EE02C093ED0256
:10159000C093EF02C093F002C093F102C093F20235
:1015A000C093F302C093F402C093F50281E392E08A
:1015B0000E9492038EE292E00E9492038090D202F7
:1015C0009090D302A090D402B090D502C090D602E1
:1015D000D090D702E090D802F090D9026091CE026C
:1015E0007091CF028091D0029091D1020E94E303CA
:1015F000C501B4010E94E303C701B6010E94E303E1
:1016000042E050E06AED72E090E080E00E94830DDD
:101610004AE060E070E0CB010E949F038EE292E01E
:101620000E94920382E492E00E9492038EE292E092
:101630000E9492030E940C0369CFA1E21A2EAA1BFA
:10164000BB1BFD010DC0AA1FBB1FEE1FFF1FA21772
:10165000B307E407F50720F0A21BB30BE40BF50B6F
:10166000661F771F881F991F1A9469F760957095F8
:10167000809590959B01AC01BD01CF010895505814
:10168000BB27AA270E94570B0C94CA0C0E94BC0CC3
:1016900038F00E94C30C20F039F49F3F19F426F46F
:1016A0000C94B90C0EF4E095E7FB0C94B30CE92F05
:1016B0000E94DB0C58F3BA1762077307840795077B
:1016C00020F079F4A6F50C94FD0C0EF4E0950B2EA9
:1016D000BA2FA02D0B01B90190010C01CA01A00184
:1016E0001124FF27591B99F0593F50F4503E68F1DF
:1016F0001A16F040A22F232F342F4427585FF3CF20
:10170000469537952795A795F0405395C9F77EF4F0
:101710001F16BA0B620B730B840BBAF09150A1F039
:10172000FF0FBB1F661F771F881FC2F70EC0BA0FBF
:10173000621F731F841F48F4879577956795B79547
:10174000F7959E3F08F0B0CF9395880F08F0992742
:10175000EE0F9795879508950E948F0C08F481E00D
:1017600008950E94C50B0C94CA0C0E94C30C58F03B
:101770000E94BC0C40F029F45F3F29F00C94B30C9C
:1017800051110C94FE0C0C94B90C0E94DB0C68F304
:101790009923B1F3552391F3951B550BBB27AA272A
:1017A00062177307840738F09F5F5F4F220F331F64
:1017B000441FAA1FA9F335D00E2E3AF0E0E832D02C
:1017C00091505040E695001CCAF72BD0FE2F29D02F
:1017D000660F771F881FBB1F261737074807AB0701
:1017E000B0E809F0BB0B802DBF01FF2793585F4F76
:1017F0003AF09E3F510578F00C94B30C0C94FE0C1B
:101800005F3FE4F3983ED4F3869577956795B79557
:10181000F7959F5FC9F7880F911D9695879597F962
:101820000895E1E0660F771F881FBB1F62177307DB
:101830008407BA0720F0621B730B840BBA0BEE1FF0
:1018400088F7E09508950E94E30C88F09F5798F080
:10185000B92F9927B751B0F0E1F0660F771F881FB5
:10186000991F1AF0BA95C9F714C0B13091F00E94CF
:10187000FD0CB1E008950C94FD0C672F782F88279C
:10188000B85F39F0B93FCCF3869577956795B395F6
:10189000D9F73EF490958095709561957F4F8F4F65
:1018A0009F4F0895E89409C097FB3EF4909580956A
:1018B000709561957F4F8F4F9F4F9923A9F0F92F16
:1018C00096E9BB279395F695879577956795B79594
:1018D000F111F8CFFAF4BB0F11F460FF1BC06F5F7A
:1018E0007F4F8F4F9F4F16C0882311F096E911C08C
:1018F000772321F09EE8872F762F05C0662371F0AD
:1019000096E8862F70E060E02AF09A95660F771FC0
:10191000881FDAF7880F9695879597F90895990F9C
:101920000008550FAA0BE0E8FEEF16161706E807A9
:10193000F907C0F012161306E407F50798F0621BCA
:10194000730B840B950B39F40A2661F0232B242B9F
:10195000252B21F408950A2609F4A140A6958FEFBE
:10196000811D811D089597F99F6780E870E060E010
:1019700008959FEF80EC089500240A941616170628
:1019800018060906089500240A9412161306140670
:1019900005060895092E0394000C11F4882352F0D3
:1019A000BB0F40F4BF2B11F460FF04C06F5F7F4F8B
:1019B0008F4F9F4F089557FD9058440F551F59F072
:1019C0005F3F71F04795880F97FB991F61F09F3F2C
:1019D00079F087950895121613061406551FF2CF55
:1019E0004695F1DF08C0161617061806991FF1CFA5
:1019F00086957105610508940895E894BB276627CC
:101A00007727CB0197F908950E948F0C08F48FEF88
:101A100008950E941C0D0C94CA0C0E94BC0C38F056
:101A20000E94C30C20F0952311F00C94B30C0C947D
:101A3000B90C11240C94FE0C0E94DB0C70F3959FE2
:101A4000C1F3950F50E0551F629FF001729FBB27B5
:101A5000F00DB11D639FAA27F00DB11DAA1F649F51
:101A60006627B00DA11D661F829F2227B00DA11D04
:101A7000621F739FB00DA11D621F839FA00D611D8A
:101A8000221F749F3327A00D611D231F849F600DAB
:101A9000211D822F762F6A2F11249F5750409AF0D4
:101AA000F1F088234AF0EE0FFF1FBB1F661F771F60
:101AB000881F91505040A9F79E3F510580F00C942B
:101AC000B30C0C94FE0C5F3FE4F3983ED4F3869580
:101AD00077956795B795F795E7959F5FC1F7FE2BCB
:101AE000880F911D9695879597F908950E948F0C00
:101AF000880B990B0895EE0FFF1F881F8BBF07906F
:101B0000F691E02D1994FB01DC0102C001900D92C9
:0C1B100041505040D8F70895F894FFCFE2
:101B1C000802080208020802080208020802080269
:101B2C00000000009F0209023602EC026702450227
:101B3C0059026E616E00696E66006F7666000D0A62
:101B4C00000A2D2D2D205354415254202D2D2D2D76
:101B5C000A000A2D2D2D20454E44202D2D2D2D0A09
:021B6C00000077
:00000001FF
