:100000000C945B010C94690E0C943E0E0C94130E30
:100010000C94E80D0C94BD0D0C94920D0C94670D8E
:100020000C943C0D0C948C010C948C010C948C0160
:100030000C948C010C948C010C948C010C948C010C
:100040000C948C010C948C010C948C010C948C01FC
:100050000C9418100C948C010C948C010C94F20CE0
:100060000C948C010C94BE0E0C94940E0C948C0188
:100070000C948C010C948C010C948C010C948C01CC
:100080000C948C010C948C010C948C010C948C01BC
:100090000C948C010C948C010C948C010C94F40E37
:1000A0000C948C010C948C010C948C010C948C019C
:1000B0000C948C010C948C010C948C010C948C018C
:1000C0000C948C010C948C010C948C010C948C017C
:1000D0000C948C010C948C010C948C010C948C016C
:1000E0000C948C010C945A060C946F040C943C0CE8
:1000F0000C9408080C94A7080C9405020C94F801C1
:100100000C94F0010C9443100C94AC040C94250254
:100110000C942A020C94DB070C9409020C941D0227
:100120000C94FF010C94BE0C0C94D4070C94930C0B
:100130000C9406050C9441040C9412030C9459067B
:100140000C94C0040C94CE040C9421020C94A408CA
:100150000C94B1070C9453050C94FC010C942B02E5
:100160000C94B2070C94EA010C949D040C941702B1
:100170000C94680C0C940F020C9470040C94C1073E
:100180000C9413020C94F4010C942F020C9477033A
:100190000C94DC0300002100240027002A002D001D
:1001A0003000330001010000040107010A010000D2
:1001B0002200250028002B002E003100340002010F
:1001C0000000050108010B010000200023002600AB
:1001D00029002C002F00320000010000030106015D
:1001E00009010505050507050808080802020202BD
:1001F0000A0A0808040404040101010101010101C3
:100200000303030303030303040707070C0C0C0C8D
:100210000C0C0C0C02020202060606060606060676
:100220000B0B0B0B0B0B0B0B010210202008081003
:100230002040102040800201020108040201010256
:10024000040810204080804020100804020180042F
:10025000020180402010080402010804020101028A
:100260000408102040800102040810204080000093
:100270000A0B02090C0D0E08070304010000000020
:10028000000000000000000000000000000000006E
:10029000000000000000000000001211100000002B
:1002A000000000000000000000000000000000004E
:1002B00000000000431011241FBECFEFD1E2DEBFCB
:1002C000CDBF00E00CBF1AE0A0E0B2E0E2E4F0E451
:1002D00000E00BBF02C007900D92A434B107D9F71C
:1002E00020E1A4E4BAE001C01D92AA3BB207E1F705
:1002F00011E0CBE5D1E000E006C021970109802F95
:10030000FE010E94401DCA35D10780E00807A9F709
:100310000E94E3100C941F200C940000CF92DF92F7
:10032000EF92FF92CF93DF93EC016EA57FA588A992
:1003300099A90E94C41B9B01AC0160E070E088ECAD
:1003400091E40E941C1B6B017C01AC019B0168893C
:1003500079898A899B890E94D31C688B798B8A8BC7
:100360009B8BA70196016C897D898E899F890E944C
:100370001C1B6C8B7D8B8E8B9F8B89E190E0A0E0AA
:10038000B0E08EA79FA7A8ABB9ABDF91CF91FF904C
:10039000EF90DF90CF9008958150823108F05AC0DD
:1003A000E82FF0E08827E852FE4F8F4F0C94401D55
:1003B000F801FC01EA01F001F4012A02FF01050243
:1003C00009020F02130217021D0221022A0225024E
:1003D0002B022F02809180008F77809380000895F8
:1003E000809180008F7DF9CF80918000877FF5CF4D
:1003F00084B58F7784BD089584B58F7DFBCF8091C0
:10040000B0008F778093B00008958091B0008F7D09
:10041000F9CF809190008F7780939000089580911C
:1004200090008F7DF9CF80919000877FF5CF8091EC
:10043000A0008F778093A00008958091A0008F7D09
:10044000F9CF8091A000877FF5CF809120018F7731
:10045000809320010895809120018F7DF9CF8091B4
:100460002001877FF5CFCF93DF93282F30E0F9016C
:10047000E259FD4F8491F901E85DFD4FD491F901F6
:10048000EE51FE4FC491CC23A1F081110E94CC010A
:10049000EC2FF0E0EE0FFF1FE853FE4FA591B49153
:1004A000EC91ED2381E090E009F480E0DF91CF91C1
:1004B000089580E090E0FACF1F93CF93DF93282F29
:1004C00030E0F901E259FD4F8491F901E85DFD4FFB
:1004D000D491F901EE51FE4FC491CC23A9F0162F0F
:1004E00081110E94CC01EC2FF0E0EE0FFF1FE255CE
:1004F000FE4FA591B4918FB7F894EC91111108C0FB
:10050000D095DE23DC938FBFDF91CF911F910895AB
:10051000DE2BF8CFCF93DF9390E0FC01E85DFD4F39
:1005200024918E519E4FFC0184918823D1F090E05C
:10053000880F991FFC01EC56FE4FA591B491FC0168
:10054000E255FE4FC591D49161110EC09FB7F8944A
:100550008C91E22FE0958E238C932881E223E8830F
:100560009FBFDF91CF9108958FB7F894EC91E22B64
:10057000EC938FBFF6CF3FB7F8948091DC0E90914B
:10058000DD0EA091DE0EB091DF0E26B5A89B05C052
:100590002F3F19F00196A11DB11D3FBFBA2FA92F02
:1005A000982F8827BC01CD01620F711D811D911DFF
:1005B00042E0660F771F881F991F4A95D1F708956B
:1005C0008F929F92AF92BF92CF92DF92EF92FF9263
:1005D0004B015C010E94BB026B017C010E94BB02CB
:1005E0006C197D098E099F09683E7340810591054C
:1005F000A8F321E0821A9108A108B10888EEC80E7C
:1006000083E0D81EE11CF11C81149104A104B10403
:1006100029F7FF90EF90DF90CF90BF90AF909F9021
:100620008F900895CF92DF92EF92FF92CF93DF9356
:1006300082E10E943302C091C80AD091C90A019791
:1006400039F488E10E943302892B39F4219706C0DE
:1006500088E10E943302892BC9F72196D093C90AF9
:10066000C093C80A6091C80A7091C90A072E000C8D
:10067000880B990B0E94C61B6B017C012FE832ECA2
:100680004DE850E40E94CE1C1816F4F42FE832EC2A
:100690004DE850E4C701B6010E94AA1A0E948E1BC1
:1006A0007093C90A6093C80A8091CA0A9091CB0AD4
:1006B00001969093CB0A8093CA0ADF91CF91FF9065
:1006C000EF90DF90CF9008952FE832EC4DE850EC9A
:1006D000C701B6010E94171B87FFEFCF2FE832EC4E
:1006E0004DE850E4C701B6010E94AB1AD7CFCF92B4
:1006F000DF92EF92FF92CF93DF9382E00E9433026A
:10070000C091C20AD091C30A019739F486E10E94D0
:100710003302892B39F4219706C086E10E94330207
:10072000892BC9F72196D093C30AC093C20A60915E
:10073000C20A7091C30A072E000C880B990B0E9405
:10074000C61B6B017C0126E636E64EEB51E40E94A7
:10075000CE1C1816F4F426E636E64EEB51E4C7013B
:10076000B6010E94AA1A0E948E1B7093C30A60935E
:10077000C20A8091C60A9091C70A01969093C70A4F
:100780008093C60ADF91CF91FF90EF90DF90CF90DA
:10079000089526E636E64EEB51ECC701B6010E94FD
:1007A000171B87FFEFCF26E636E64EEB51E4C70175
:1007B000B6010E94AB1AD7CFCF92DF92EF92FF9291
:1007C000CF93DF9383E00E943302C091C00AD0919F
:1007D000C10A019739F487E10E943302892B39F469
:1007E000219706C087E10E943302892BC9F7219621
:1007F000D093C10AC093C00A6091C00A7091C10A27
:10080000072E000C880B990B0E94C61B6B017C0104
:1008100026E636E64EEB51E40E94CE1C1816F4F4A0
:1008200026E636E64EEB51E4C701B6010E94AA1A4D
:100830000E948E1B7093C10A6093C00A8091C40A03
:100840009091C50A01969093C50A8093C40ADF91DE
:10085000CF91FF90EF90DF90CF90089526E636E697
:100860004EEB51ECC701B6010E94171B87FFEFCF7B
:1008700026E636E64EEB51E4C701B6010E94AB1AFC
:10088000D7CF8091BB0A9091BC0AA091BD0AB091CC
:10089000BE0A0196A11DB11D8093BB0A9093BC0AAC
:1008A000A093BD0AB093BE0AEBEBFBE0808191817F
:1008B000A281B381892B8A2B8B2B59F0848195815E
:1008C000A681B7810196A11DB11D84839583A6835E
:1008D000B78370968EE0EB3DF80741F708950895D1
:1008E000AF92BF92CF92DF92EF92FF920F931F933E
:1008F000CF93DF936C017B018B01040F151FEB017C
:100900005E01AE18BF08C017D10759F06991D60132
:10091000ED91FC910190F081E02DC6011995892B94
:1009200079F7C501DF91CF911F910F91FF90EF9063
:10093000DF90CF90BF90AF900895FC01538D448D10
:10094000252F30E0842F90E0821B930B541710F07A
:10095000CF96089501970895FC01918D828D981787
:1009600061F0A28DAE0FBF2FB11D5D968C91928D5F
:100970009F5F9F73928F90E008958FEF9FEF089590
:10098000FC01918D828D981731F0828DE80FF11D59
:10099000858D90E008958FEF9FEF0895FC01918D74
:1009A000228D892F90E0805C9F4F821B91098F736D
:1009B0009927089584E39FE00E94CE0421E0892BCB
:1009C00009F420E0822F0895FC01A48DA80FB92F0F
:1009D000B11DA35ABF4F2C91848D90E001968F7367
:1009E0009927848FA689B7892C93A089B1898C9186
:1009F000837080648C93938D848D981306C00288D5
:100A0000F389E02D80818F7D80830895EF92FF929E
:100A10000F931F93CF93DF93EC0181E0888F9B8D21
:100A20008C8D98131AC0E889F989808185FF15C0DB
:100A30009FB7F894EE89FF896083E889F9898081FE
:100A40008370806480839FBF81E090E0DF91CF91CD
:100A50001F910F91FF90EF900895F62E0B8D10E0EF
:100A60000F5F1F4F0F731127E02E8C8D8E110CC05E
:100A70000FB607FCFACFE889F989808185FFF5CFA9
:100A8000CE010E94E404F1CFEB8DEC0FFD2FF11DA0
:100A9000E35AFF4FF0829FB7F8940B8FEA89FB89E6
:100AA00080818062CFCFCF93DF93EC01888D882344
:100AB000B9F0AA89BB89E889F9898C9185FD03C0C1
:100AC000808186FD0DC00FB607FCF7CF8C9185FFA6
:100AD000F2CF808185FFEDCFCE010E94E404E9CF03
:100AE000DF91CF91089580E090E0892B29F00E945A
:100AF000DA0481110E94000080E090E0892B49F027
:100B000080E090E0892B29F00E94000081110E9472
:100B1000000080E090E0892B49F080E090E0892B94
:100B200029F00E94000081110E94000080E090E006
:100B3000892B49F080E090E0892B29F00E94000089
:100B400081110C94000008952F923F924F925F9272
:100B50006F927F928F929F92AF92BF92CF92DF92CD
:100B6000EF92FF920F931F93CF93DF931C016A01C3
:100B70007B0128013901FC01C68DD78D88809980C1
:100B8000AA80BB80A9019801C501B4010E94CE1CB6
:100B900018166CF5488259826A827B82F10186A020
:100BA00097A0A0A4B1A4C6A8D7A8E0ACF1ACA701B7
:100BB0009601C501B4010E94CE1CF101181624F55E
:100BC000C6A2D7A2E0A6F1A6DF91CF911F910F9107
:100BD000FF90EF90DF90CF90BF90AF909F908F905D
:100BE0007F906F905F904F903F902F900895A70156
:100BF0009601C501B4010E94171B87FFCFCFC882A1
:100C0000D982EA82FB82CACFC2A8D3A8E4A8F5A8F9
:100C1000A7019601C501B4010E94171B87FFD4CF1D
:100C2000F101CECF8F929F92AF92BF92CF92DF927F
:100C3000EF92FF92CF93DF93EC01EE8DFF8DC0809A
:100C4000D180E280F380CEA2DFA2E8A6F9A6EC8DE7
:100C5000FD8D80819181A281B3818AA79BA7ACA7DA
:100C6000BDA78EA89FA8A8ACB9ACA5019401C701E7
:100C7000B6010E94CE1C18162CF48EA29FA2A8A624
:100C8000B9A60CC08AA89BA8ACA8BDA8A5019401D0
:100C9000C701B6010E94171B87FDEFCFDF91CF91EF
:100CA000FF90EF90DF90CF90BF90AF909F908F908C
:100CB00008950895089520916F0A260F3327331F52
:100CC00021323105ECF42091060FFC0190E080E028
:100CD000243069F082E00895A0916F0A2191AC015F
:100CE000415B554FA40FB52FB11D2C93019686176C
:100CF00098F380916F0A680F60936F0A80E00895FF
:100D000081E008951092060F81E08093050F109204
:100D1000E00E61E084E10E945C0261E085E10E94F6
:100D20005C02E9EBF0E080818E7F808380818D7FA3
:100D3000808388E48093B80085E48093BC000895A4
:100D4000CF93DF9391E090934E0A8823B9F0C0913E
:100D5000B800D091BA008091BC008A7B8093BC001F
:100D600060E084E10E945C0260E085E10E945C0238
:100D70000E948206D093BA00C093B800DF91CF9151
:100D800008958F929F92AF92BF92CF92DF92EF928F
:100D9000FF920F931F93CF93DF93D0912F0FD132F8
:100DA00008F0D7C0182FC0912E0F0E94BB026B0114
:100DB0007C018091060F81116BC082E08093060F49
:100DC0001093050F8FEF8093040F1092030FD093B1
:100DD000020FAEE0BFE0E2EEFEE080E0D81391C08B
:100DE0001092E10E8091E10ECC0FC82BC093E10E62
:100DF0008091E00E813009F088C01092E00E0E94D0
:100E0000BB026B017C018091E10E8093BB0080915D
:100E1000080F9091090FA0910A0FB0910B0F892B29
:100E20008A2B8B2BA1F00E94BB020091080F10911E
:100E3000090F20910A0F30910B0F6C197D098E0953
:100E40009F09061717072807390708F442C0809141
:100E5000BC0083FDD8CF85EC8093BC000E94BB0210
:100E60006B017C018091060F823009F450C08091A3
:100E7000040F8F3F09F46FC08091040F803209F492
:100E80006CC08091040F803309F469C084E026C0EF
:100E90008091080F9091090FA0910A0FB0910B0F4C
:100EA000892B8A2B8B2B09F484CF0E94BB02809064
:100EB000080F9090090FA0900A0FB0900B0F6C19BB
:100EC0007D098E099F0986169706A806B90608F0BF
:100ED00070CF8091070F0E94A00685E010920D0F41
:100EE00010922F0F10920C0FDF91CF911F910F9145
:100EF000FF90EF90DF90CF90BF90AF909F908F903A
:100F000008959D9191938F5F69CF85EEA5CF8091D4
:100F1000080F9091090FA0910A0FB0910B0F892B28
:100F20008A2B8B2B09F49ECF0E94BB020091080FE5
:100F30001091090F20910A0F30910B0F6C197D0948
:100F40008E099F09061717072807390708F08ACF67
:100F5000C0CF81E0C3CF80E0C1CF82E0BFCF83E0CC
:100F6000BDCF0895E091970A8091960AE81730F472
:100F7000F0E0E856F54F808190E008958FEF9FEF05
:100F800008959091970A8091960A2FEF3FEF981756
:100F900048F4E92FF0E0E856F54F208130E09F5FFC
:100FA0009093970AC90108958091960A9091970AA3
:100FB000891B990B0895CF92DF92EF92FF920F93C6
:100FC0001F93CF93DF937C01CB018A0120910C0FFB
:100FD000222389F0EB016B01C40ED51ECC15DD0573
:100FE00069F06991D701ED91FC910190F081E02DBC
:100FF000C7011995F3CF642F0E945B06C801DF91EA
:10100000CF911F910F91FF90EF90DF90CF900895B7
:10101000CF93DF931F92CDB7DEB7698320910C0F7A
:101020002223F9F020912F0F203258F021E030E0F8
:10103000FC013383228390E080E00F90DF91CF9119
:10104000089580910D0FE82FF0E0E25FF04F998155
:1010500090838F5F80930D0F80932F0F81E090E03E
:10106000ECCF61E0CE0101960E945B06F7CF682FBE
:1010700081ED9FE00C940808CF93DF93D42FC52F08
:10108000FC01808191E090930C0F80932E0F1092C1
:101090000D0F10922F0FF4E06F9FB00111246A5FC3
:1010A0007F4F81ED9FE00E94080890E080E00E9461
:1010B000370890E080E00E9437088D2F9C2F0E9417
:1010C00037088C2F90E00E94370881E0DF91CF91A4
:1010D0000C94C106CF93C42FFC01808191E09093C2
:1010E0000C0F80932E0F10920D0F10922F0F81ED89
:1010F0009FE00E9408086C2F81ED9FE00E94080885
:1011000081E0CF910C94C106CF93DF93EC01109254
:10111000970A1092960A10920D0F10922F0F0E94AC
:10112000820689E596E09093950A8093940A8AE571
:1011300096E09093930A8093920A40E060E0CE019B
:10114000DF91CF910C946A0890E080E008950895B3
:101150004F925F926F927F928F929F92AF92BF92C7
:10116000CF92DF92EF92FF920F931F93CF93DF9373
:10117000CDB7DEB74C0127013801DC015F965C93E7
:101180004E935E975D967C936E935C9791963C939D
:101190002E939097DA961C92FC0112AA13AA14AA15
:1011A00015AA80E090E0AFE7B3E486AB97ABA0AFC1
:1011B000B1AF84E690E0A0E0B0E086A797A7A0AB2F
:1011C000B1AB118E108E20E030E0A901C801B7014B
:1011D0000E94171B87FD53C020E030E0A901C60123
:1011E000B5010E94171B87FD4AC020E030E0A9012D
:1011F0006C897D898E899F890E94171B87FD3FC05E
:1012000081E090E0D4015B969C938E935A97DB9695
:101210008C93DB97F4014082518262827382149630
:10122000AD92BD92CD92DC9217978C899D89AE8943
:10123000BF8980879187A287B38744865586668653
:1012400077862DEC3CEC4CEC5DE3C601B5010E94C9
:10125000D31CF401608B718B828B938B2DEC3CEC57
:101260004CEC5DE36C897D898E899F890E941C1BF3
:10127000D40154966D937D938D939C9357972FB77C
:10128000F8948091300F9091310FA091320FB0916E
:10129000330F2FBFF40146A557A560A971A9841B80
:1012A000950BA60BB70B82A393A3A4A3B5A3DF91C1
:1012B000CF911F910F91FF90EF90DF90CF90BF9053
:1012C000AF909F908F907F906F905F904F90089518
:1012D000FC0101900020E9F73197AF01481B590B41
:1012E000BC0184E39FE00C9470048F929F92AF92B4
:1012F000BF920F931F93CF93DF93CDB7DEB7A19724
:101300000FB6F894DEBF0FBECDBF19A2423008F46D
:101310004AE08E010F5D1F4F842E912CB12CA12C21
:10132000A50194010E94791AE62FB901CA01EA3099
:10133000F4F4E05DD801EE938D01232B242B252BB3
:1013400079F790E080E0109719F0CD010E946809CC
:10135000A1960FB6F894DEBF0FBECDBFDF91CF913F
:101360001F910F91BF90AF909F908F900895E95C6F
:10137000E1CFCF92DF92EF92FF92CF93DF936C0198
:10138000990FEE08FF08F7FE1FC06DE284E39FE0AF
:101390000E940605EC0166277727CB016C197D09B1
:1013A0008E099F094AE00E947509C80FD91F8EE176
:1013B00098E00E9468098C0F9D1FDF91CF91FF90EC
:1013C000EF90DF90CF9008954AE0C701B6010E94E8
:1013D0007509EC01ECCFCF93DF930E946809EC0113
:1013E0008EE198E00E9468098C0F9D1FDF91CF91DC
:1013F0000895CF93DF93682F70E090E080E04AE09B
:101400000E947509EC018EE198E00E9468098C0F3A
:101410009D1FDF91CF910895CF93DF93BC0190E0A2
:1014200080E04AE00E947509EC018EE198E00E949C
:1014300068098C0F9D1FDF91CF9108958F929F9225
:10144000AF92BF92CF92DF92EF92FF920F931F93D2
:10145000CF93DF93EC019A01AB0160E27CEB8EEB62
:1014600095E40E941C1B20E030E040E85FE30E940E
:10147000AA1A20E030E040E05FE30E94AB1A0E942D
:10148000011C0E94951B062F888191E090930C0F00
:1014900080932E0F10920D0F10922F0F60E081EDB0
:1014A0009FE00E94080881E00E94C10618810E9406
:1014B000BB026B017C018091060F811164C081E049
:1014C0008093060F8093050F9FEF9093040F109267
:1014D000030F1092020F8093E10E8091E10E110F25
:1014E000182B1093E10E8091E00E813009F0A3C01B
:1014F0001092E00E0E94BB026B017C018091E10E14
:101500008093BB008091080F9091090FA0910A0F62
:10151000B0910B0F892B8A2B8B2BA1F00E94BB0261
:101520008090080F9090090FA0900A0FB0900B0FB9
:101530006C197D098E099F0986169706A806B906BB
:1015400008F442C08091BC0083FDD8CF85EC809325
:10155000BC000E94BB026B017C018091060F8130B0
:1015600009F46BC08091030F811189C08091030F32
:10157000E2EEFEE0A8E9BAE090E0981751F121917F
:101580002D939F5FFACF8091080F9091090FA09142
:101590000A0FB0910B0F892B8A2B8B2B09F48BCF61
:1015A0000E94BB028090080F9090090FA0900A0F34
:1015B000B0900B0F6C197D098E099F09861697064E
:1015C000A806B90608F077CF8091070F0E94A00601
:1015D00080E01092970A8093960A81ED9FE00E9426
:1015E000C107182F482F4F76406160E0CE010E945E
:1015F0006A08402F6EEFCE010E946A08412F60E01A
:10160000CE010E946A0865E070E080E090E00E94F0
:10161000E002412F416A60E0CE01DF91CF911F913E
:101620000F91FF90EF90DF90CF90BF90AF909F9081
:101630008F900C946A0885EE8ACF8091080F909164
:10164000090FA0910A0FB0910B0F892B8A2B8B2BBE
:1016500009F483CF0E94BB028090080F9090090F7D
:10166000A0900A0FB0900B0F6C197D098E099F098D
:1016700086169706A806B90608F06FCFA5CF81E0B9
:1016800077CF85ED8093BC008091080F9091090F72
:10169000A0910A0FB0910B0F0796A11DB11D23E079
:1016A000B695A795979587952A95D1F72091BC0077
:1016B00024FD03C01092060F08954091080F509129
:1016C000090F60910A0F70910B0F452B462B472B8A
:1016D00069F30097A105B10541F025E32A95F1F7DB
:1016E00000000197A109B109E1CF8091070F0C9487
:1016F000A0060F931F93CF93DF93CDB7DEB7DA9594
:101700000FB6F894DEBF0FBECDBF8091BF0A813007
:1017100079F081E298E00E94EB09D3950FB6F89436
:10172000DEBF0FBECDBFDF91CF911F910F91089506
:10173000F89478948E010F5F1F4F80E091E0F801DC
:101740009C01119221503040E1F7AE01465F5E4F9F
:10175000C85FDE4F68817981C850D140C8010E94BE
:101760004F1DC801D8CFCF92DF92EF92FF926B014D
:101770007C01EBEBFBE080E090E0DC0162857385AF
:10178000672BD1F00196A11DB11D70968233910592
:10179000A105B10599F783E398E09F938F930E9489
:1017A000790B0F900F906DEF7FEF8FEF9FEFFF9012
:1017B000EF90DF90CF90089564E0880F991F6A95AD
:1017C000E1F7FC01E554F44FC082D182E282F3825A
:1017D00014821582168217825187408733872287A9
:1017E0006091B90A7091BA0A6F5F7F4F7093BA0A1D
:1017F0006093B90A90E080E0648775878687978751
:10180000D6CF0F931F93AB01BC01EBEBFBE080E065
:1018100090E0DC01048515852685378504171507BA
:101820002607370799F424E0880F991F2A95E1F7D6
:10183000FC01E554F44F80E1DF011D928A95E9F740
:1018400060E070E0CB011F910F9108950196A11DFA
:10185000B11D709682339105A105B105D9F68FE4CB
:1018600098E09F938F930E94790B0F900F906EEFEB
:101870007FEF8FEF9FEFE7CF0F931F93CF93DF9310
:10188000EC016C817D818E819F810E94010C098514
:101890001A85209741F088819981AA81BB8142975E
:1018A000A105B10578F080E798E09F938F930E949F
:1018B000790B0F900F901A870987DF91CF911F91B5
:1018C0000F9108951C821D821E821F821886F3CFFD
:1018D0000F931F93CF93DF93EC01688179818A8105
:1018E0009B810E94010C50E040E063E088E290E1BF
:1018F0000E943C080D811E81209779F480E798E0D2
:101900009F938F930E94790B0F900F901E830D83EE
:10191000DF91CF911F910F910895188219821A8239
:101920001B821C82F3CF0F931F93CF93DF93EC01A5
:10193000688179818A819B810E94010C50E040E09E
:1019400062E08FED9FE00E943C080D811E81209790
:1019500079F480E798E09F938F930E94790B0F9022
:101960000F901E830D83DF91CF911F910F910895EA
:10197000188219821A821B821C82F3CF0F931F9345
:10198000CF93DF93EC016C817D818E819F810E94DA
:10199000010C88819981AA81BB8150E040E060E020
:1019A000892B8A2B8B2B09F061E089E290E10E9460
:1019B0003C0809851A85209779F480E798E09F9381
:1019C0008F930E94790B0F900F901A870987DF91F0
:1019D000CF911F910F9108951C821D821E821F823C
:1019E0001886F3CF1F920F920FB60F9211242F93E8
:1019F0003F938F939F93AF93BF938091300F9091BC
:101A0000310FA091320FB091330F3091DB0E23E0F4
:101A1000230F2D3758F50196A11DB11D2093DB0E24
:101A20008093300F9093310FA093320FB093330F08
:101A30008091DC0E9091DD0EA091DE0EB091DF0E54
:101A40000196A11DB11D8093DC0E9093DD0EA09335
:101A5000DE0EB093DF0EBF91AF919F918F913F91BA
:101A60002F910F900FBE0F901F90189526E8230F0F
:101A70000296A11DB11DD2CF1F920F920FB60F92E9
:101A800011240BB60F922F933F934F935F936F9355
:101A90007F938F939F93AF93BF93EF93FF93E091C7
:101AA0002407F09125071995FF91EF91BF91AF9110
:101AB0009F918F917F916F915F914F913F912F9166
:101AC0000F900BBE0F900FBE0F901F9018951F9296
:101AD0000F920FB60F9211240BB60F922F933F93D4
:101AE0004F935F936F937F938F939F93AF93BF9326
:101AF000EF93FF93E0912207F09123071995FF914F
:101B0000EF91BF91AF919F918F917F916F915F9175
:101B10004F913F912F910F900BBE0F900FBE0F90E2
:101B20001F9018951F920F920FB60F9211240BB6AB
:101B30000F922F933F934F935F936F937F938F9366
:101B40009F93AF93BF93EF93FF93E0911807F091AA
:101B500019071995FF91EF91BF91AF919F918F91C7
:101B60007F916F915F914F913F912F910F900BBE9D
:101B70000F900FBE0F901F9018951F920F920FB6E7
:101B80000F9211240BB60F922F933F934F935F93B5
:101B90006F937F938F939F93AF93BF93EF93FF9335
:101BA000E0911607F09117071995FF91EF91BF91FA
:101BB000AF919F918F917F916F915F914F913F91E5
:101BC0002F910F900BBE0F900FBE0F901F90189586
:101BD0001F920F920FB60F9211240BB60F922F93F4
:101BE0003F934F935F936F937F938F939F93AF93A5
:101BF000BF93EF93FF93E0912007F0912107199590
:101C0000FF91EF91BF91AF919F918F917F916F91D4
:101C10005F914F913F912F910F900BBE0F900FBE90
:101C20000F901F9018951F920F920FB60F921124CC
:101C30000BB60F922F933F934F935F936F937F93C6
:101C40008F939F93AF93BF93EF93FF93E0911E0702
:101C5000F0911F071995FF91EF91BF91AF919F915F
:101C60008F917F916F915F914F913F912F910F9045
:101C70000BBE0F900FBE0F901F9018951F920F92E2
:101C80000FB60F9211240BB60F922F933F934F93E1
:101C90005F936F937F938F939F93AF93BF93EF93D4
:101CA000FF93E0911C07F0911D071995FF91EF91AB
:101CB000BF91AF919F918F917F916F915F914F9164
:101CC0003F912F910F900BBE0F900FBE0F901F9062
:101CD00018951F920F920FB60F9211240BB60F9208
:101CE0002F933F934F935F936F937F938F939F9324
:101CF000AF93BF93EF93FF93E0911A07F0911B0707
:101D00001995FF91EF91BF91AF919F918F917F9125
:101D10006F915F914F913F912F910F900BBE0F905C
:101D20000FBE0F901F9018951F920F920FB60F9233
:101D300011240BB60F922F933F934F935F936F93A2
:101D40007F938F939F93AF93BF93EF93FF9384E31E
:101D50009FE00E94E404FF91EF91BF91AF919F91AA
:101D60008F917F916F915F914F913F912F910F9044
:101D70000BBE0F900FBE0F901F9018951F920F92E1
:101D80000FB60F9211240BB60F922F938F939F9340
:101D9000EF93FF93E091440FF091450F8081E09124
:101DA0004A0FF0914B0F82FD1DC0908180914D0F25
:101DB0008F5F8F7320914E0F821741F0E0914D0F8E
:101DC000F0E0EC5CF04F958F80934D0FFF91EF9119
:101DD0009F918F912F910F900BBE0F900FBE0F9080
:101DE0001F9018958081F2CF1F920F920FB60F921D
:101DF00011240BB60F922F933F934F935F936F93E2
:101E00007F938F939F93AF93BF93EF93FF938091B3
:101E1000B900887F803609F44DC008F040C0883290
:101E200009F4A9C028F5803109F49DC0C8F48823BD
:101E300009F4FBC0883009F496C0FF91EF91BF917F
:101E4000AF919F918F917F916F915F914F913F9152
:101E50002F910F900BBE0F900FBE0F901F901895F3
:101E6000883109F488C0803241F78093040F14C090
:101E7000803409F49DC040F48033B9F38833E9F627
:101E80008093040F85ECB0C0803509F485C0883597
:101E900009F496C0883489F60E94410BCECF883968
:101EA00009F48CC038F5883729F050F4883611F0E1
:101EB000803719F683E08093060F1092910A57C07D
:101EC000883809F47BC0803919F0803809F0B5CF23
:101ED0008091910A803208F071C0E091910A81E00E
:101EE0008E0F8093910A8091BB00F0E0EF58F54F80
:101EF00080833DC0803B39F0E0F4803A09F479C03A
:101F0000883A09F09ACF84E08093060F1092700A05
:101F100010926F0AE091940AF091950A19958091B8
:101F20006F0A81110FC081E080936F0A10924F0AEF
:101F300009C0803C09F4A6CF883C09F4A3CF883BB4
:101F400009F07BCFE091700A81E08E0F8093700AD8
:101F5000F0E0E15BF54F80818093BB009091700AC7
:101F600080916F0A29C08091E10E8093BB0085ECBF
:101F70008093BC0062CF9091030F8091020F98175D
:101F800058F5E091030F81E08E0F8093030FF0E08E
:101F9000EE51F14F8081E9CFE091030F81E08E0F88
:101FA0008093030F8091BB00F0E0EE51F14F8083EE
:101FB0009091030F8091020F9817C8F285E8D8CF4F
:101FC000E091030F81E08E0F8093030F8091BB009F
:101FD000F0E0EE51F14F80838091050F81115CCFCD
:101FE00081E08093E00E84EA8093BC001092060F9B
:101FF00024CF85EC8093BC001092060F8091910A4B
:10200000803230F4E091910AF0E0EF58F54F108201
:102010006091910A70E0E091920AF091930A81E751
:102020009AE019951092910A08CF1092040F34CFBC
:102030001F920F920FB60F9211240BB60F922F938F
:102040003F934F935F936F937F938F939F93AF9340
:10205000BF93EF93FF93E0911407F0911507199543
:10206000FF91EF91BF91AF919F918F917F916F9170
:102070005F914F913F912F910F900BBE0F900FBE2C
:102080000F901F9018957F928F929F92AF92BF9260
:10209000CF92DF92EF92FF920F931F93CF93DF9334
:1020A000E4E3FFE01382128288EE93E0A0E0B0E068
:1020B00084839583A683B7832EEF37E03183208313
:1020C00025EC30E03587248724EC30E037872687FD
:1020D00020EC30E0318B208B21EC30E0338B228BF5
:1020E00022EC30E0358B248B26EC30E0378B268BCE
:1020F000118E128E138E148EE1EDFFE01382128288
:1021000084839583A683B78380E198E0918380835D
:1021100081E48093DE0F82E48093DD0F8EE3782EDE
:102120007F929CE4892E8F922CEC922E9F92DDEC74
:10213000DF93A12CB12C6501E12CF12C00E810E417
:1021400020EE3FE044EE5FE068EE7FE08CEE9FE043
:102150000E94A808C3E4C093DF0FC09328107F92A9
:102160008F929F92DF9322E730E146E750E16AE7E2
:1021700070E18EE790E10E94A8087F928F929F9273
:10218000DF932AE230E14EE250E162E370E186E360
:1021900090E10E94A808C09329108DB79EB70C96B5
:1021A0000FB6F8949EBF0FBE8DBFDF91CF911F91E8
:1021B0000F91FF90EF90DF90CF90BF90AF909F90E6
:1021C0008F907F900895CF93DF93CDB7DEB7C55F33
:1021D000D1090FB6F894DEBF0FBECDBF789484B599
:1021E000826084BD84B5816084BD85B5826085BD13
:1021F00085B5816085BD80916E00816080936E00A1
:102200001092810080918100826080938100809192
:102210008100816080938100809180008160809343
:1022200080008091B10084608093B1008091B00003
:1022300081608093B00080919100826080939100D2
:1022400080919100816080939100809190008160E5
:10225000809390008091A10082608093A100809182
:10226000A10081608093A1008091A0008160809393
:10227000A000809121018260809321018091210141
:1022800081608093210180912001816080932001F1
:1022900080917A00846080937A0080917A008260D5
:1022A00080937A0080917A00816080937A00809197
:1022B0007A00806880937A001092C100E091440F08
:1022C000F091450F82E08083E091400FF091410F43
:1022D0001082E091420FF091430F90E190831092B1
:1022E0004C0FE091480FF091490F86E08083E09118
:1022F000460FF091470F808180618083E091460F07
:10230000F091470F808188608083E091460FF091C3
:10231000470F808180688083E091460FF091470FDE
:1023200080818F7D80831092BB0A1092BC0A10922C
:10233000BD0A1092BE0A1092BA0A1092B90AEBEBCB
:10234000FBE020E233E0DF01A9011D924150504043
:10235000E1F7909381001092800081E08093B80AA9
:1023600020E43FE1309387002093860091E1909331
:10237000810021E434E03093150720931407809303
:102380006F0010928100109285001092840090914D
:10239000B80A9061909381008093BF0AAEE8B7E0DD
:1023A000E1EDFAE040E050E0BA01408351836283FE
:1023B0007383148215821682178210868D919D91E7
:1023C000928781874F5F5F4F6F4F7F4F3B964231C0
:1023D00051056105710549F78EED9FE00E94840863
:1023E0008DED9FE00E94840860E084E10E948A02F3
:1023F00060E085E10E948A0218E41093B8008EED37
:102400009FE00E9484088DED9FE00E94840860E0B8
:1024100084E10E948A0260E085E10E948A021093B2
:10242000B80040E050E068EC72E48EED9FE00E945E
:102430001E0A40E050E068EC72E48DED9FE00E94DF
:102440001E0A1092970B1092980B1092990B1092F3
:102450009A0B10929B0B10929C0B10929D0B10925A
:102460009E0B10929F0B1092A10B1092A00B81E07B
:1024700090E0A0E0B0E08093A20B9093A30BA09318
:10248000A40BB093A50B1092A60B1092A70B109261
:10249000A80B1092A90B1092AA0B1092AC0B1092E1
:1024A000AB0B1092C70A1092C60A1092C50A10927E
:1024B000C40A1092C30A1092C20A1092C10A109262
:1024C000C00A10927A1010927B1010927C10109219
:1024D0007D1010923210109233101092341010921E
:1024E0003510109272101092731010927410109296
:1024F000751010922A1010922B1010922C1010921E
:102500002D1061E080E00E948A0261E086E00E9476
:102510008A0261E081E00E948A0261E087E00E9415
:102520008A0260E082E00E948A0260E086E10E9406
:102530008A0260E083E00E948A0260E087E10E94F4
:102540008A0287E793E0909317078093160780919C
:102550006A008C7F816080936A00EC9A8CED93E036
:10256000909319078093180780916A00837F846095
:1025700080936A00ED9A8091B810811104C08EE7B3
:1025800090E10E94120681E08093B8108EE790E1FE
:102590000E948E0180E090E0AFE7B3EC8093B01032
:1025A0009093B110A093B210B093B31080E090E07C
:1025B000AFE7B3E48093B4109093B510A093B61036
:1025C000B093B7108091B810882361F000E010E05C
:1025D0002FE733E440E050E06FE773EC8EE790E1E3
:1025E0000E94A40580917010811104C086E390E1DF
:1025F0000E94120681E08093701086E390E10E94B1
:102600008E0180E090E0AFE7B3EC80936810909388
:102610006910A0936A10B0936B1080E090E0AFE770
:10262000B3E480936C1090936D10A0936E10B093F0
:102630006F1080917010882361F000E010E02FE7A8
:1026400033E440E050E06FE773EC86E390E10E94F2
:10265000A40589E290E10E94840860E084E10E9480
:102660008A0260E085E10E948A0210E21093B800BD
:1026700040E050E06AE774E489E290E10E941E0ABB
:1026800050E040E060E089E290E10E943C0861E0B7
:1026900086E00E945C0261E087E00E945C0210928A
:1026A000B40B1092B50B1092B60B1092B70B1092A0
:1026B000B80B1092BA0B1092B90B61E083E00E9444
:1026C0008A0261E089E00E948A0288E290E10E9429
:1026D000840860E084E10E948A0260E085E10E9453
:1026E0008A021093B80040E050E06AE774E488E2A0
:1026F00090E10E941E0A50E040E060E088E290E134
:102700000E943C0861E089E00E945C021092AD0BDF
:102710001092AE0B1092AF0B1092B00B1092B10B47
:102720001092B30B1092B20B1092CB0A1092CA0AFD
:102730001092C90A1092C80A1092E80F1092E90F7D
:102740001092EA0F1092EB0F1092E00F1092E10F2F
:102750001092E20F1092E30F61E082E00E948A0281
:1027600061E088E00E948A0260E082E10E948A02C1
:1027700060E088E10E948A0282E193E09093210761
:1027800080932007809169008F7380648093690033
:10279000EB9A80912610811104C08CEE9FE00E947C
:1027A000120681E0809326108CEE9FE00E948E013D
:1027B00080E090EFAFE7B5EC80931E1090931F1070
:1027C000A0932010B093211080E090EFAFE7B5E424
:1027D0008093221090932310A0932410B09325107F
:1027E00080912610882361F000E010EF2FE735E498
:1027F00040E050EF6FE775EC8CEE9FE00E94A4057F
:102800008FED9FE00E94840860E084E10E948A02CC
:1028100060E085E10E948A0280E28093B80040E097
:1028200050E06AE774E48FED9FE00E941E0A50E0DA
:1028300040E060E08FED9FE00E943C0861E088E0AE
:102840000E945C021FB7F8948091CC0A811127C0C6
:10285000E7E1F2E08491EDE5F2E09491E82FF0E019
:10286000EE0FFF1FEC56FE4FA591B491EC919E2305
:1028700021F461E085E30E945C0261E085E30E944F
:102880008A028CB580618CBD8CB580648CBD61E0A2
:1028900084E30E948A0261E083E30E948A028091BD
:1028A000CC0A8F5F8093CC0A1FBF61E085E30E9452
:1028B0005C0289E898E00E94EB0961E070E080E04A
:1028C00090E00E94E0024E0151EB850E911C86E9DA
:1028D00098E00E94EB0984E2D4011D928A95E9F701
:1028E000CB52DF4F19821882C55DD040C952DF4FED
:1028F00019821882C75DD0408E0107591F4F82E1AF
:10290000F80111928A95E9F7D80187E99BE0E1ED9A
:10291000FAE020852D933B968E179F07D1F7809183
:10292000B80B882329F082E39AE00E94EB09D8C40F
:102930008091B10B8111F7CF80919F0B8111F3CF63
:102940008091AA0B8111EFCFD8018C918111EBCF2F
:1029500011968C9111978111E6CF12968C91129756
:102960008111E1CF13968C9113978111DCCF1496CE
:102970008C9114978111D7CF15968C911597811151
:10298000D2CF16968C9116978111CDCF17968C9138
:1029900017978111C8CF18968C9118978111C3CFC2
:1029A00019968C9119978111BECF1A968C911A970E
:1029B0008111B9CF1B968C911B978111B4CF1C96B6
:1029C0008C911C978111AFCF1D968C911D97811111
:1029D000AACF1E968C911E978111A5CF1F968C9120
:1029E0001F978111A0CF50968C91509781119BCF4A
:1029F0005196BC91C552DF4FB883CB5DD040B11129
:102A000092CF8CEA98E00E94EB0964E670E080E0E7
:102A100090E00E94E00286EC98E00E94EB09809131
:102A2000CF0A9091D00A0E940C0A8EED98E00E9485
:102A3000EB098091CD0A9091CE0A0E940C0A8091F8
:102A4000CF0A9091D00A892B79F081E090E09093A1
:102A5000D00A8093CF0A83EF98E00E94EB0982E0CE
:102A60000E94F90912E001C1E090CD0AF090CE0A6F
:102A700088E6E6E2F7E0DE01119601900D928A9574
:102A8000E1F783E099E00E94EB09C7010E940C0A7C
:102A9000E5E0EE16F104F0F08AE199E09F938F9360
:102AA0000E94790B1092CE0A1092CD0A8091CF0A23
:102AB0009091D00A01969093D00A8093CF0A8FE329
:102AC00099E09F938F930E94790B0F900F900F9036
:102AD0000F90C8CF8AE18E9DF0018F9DF00D1124DB
:102AE00021E030E02C0F3D1FE20FF31FD8010190D1
:102AF0000D928A95E1F78091CD0A9091CE0A0196C8
:102B00009093CE0A8093CD0A83EF98E00E94EB0960
:102B100080E00E94F909D801BC91C851DF4FB88309
:102B2000C85ED040F801F181CD51DF4FF883C35E1C
:102B3000D040D8011296BC91C052DF4FB883C05E1E
:102B4000D040F801F381C951DF4FF883C75ED04010
:102B5000D8011496BC91CE51DF4FB883C25ED040ED
:102B6000F801F581CD50DF4FF883C35FD040D80125
:102B70001696BC91CB50DF4FB883C55FD040F801AB
:102B8000F781CC50DF4FF883C45FD040D80118964E
:102B9000BC91CF51DF4FB883C15ED040F801F185C1
:102BA000C451DF4FF883CC5ED040D8011A96BC9157
:102BB000CA51DF4FB883C65ED040F801F385C651D5
:102BC000DF4FF883CA5ED040D8011C96BC91CE502E
:102BD000DF4FB883C25FD040F801F585C751DF4FA2
:102BE000F883C95ED040D8011E96BC91C351DF4F17
:102BF000B883CD5ED040F801F785CC51DF4FF88324
:102C0000C45ED040D8015096BC91C551DF4FB88307
:102C1000CB5ED040F801F189CB51DF4FF883C55E20
:102C2000D040D80152960D90BC91A02DC051DF4FDD
:102C3000B983A883C05FD040F8010488F589E02DEE
:102C4000C251DF4FF983E883CE5ED040D80156965B
:102C50002D903C9057975896ED91FC91C252DF4FC2
:102C6000F983E883CE5DD04010E083E599E00E94CF
:102C7000EB09812F0E94F90988E699E0123009F4E6
:102C800054CE83E899E00E94EB09C851DF4FF881E8
:102C9000C85ED0408F2F90E0D4018D939C93CD518E
:102CA000DF4FB881C35ED0408B2F90E0F401938357
:102CB0008283C052DF4FF881C05ED0408F2F90E0FA
:102CC000D40115969C938E931497C951DF4FB88108
:102CD000C75ED0408B2F90E0F40197838683CE515E
:102CE000DF4FF881C25ED0408F2F90E0D40119965B
:102CF0009C938E931897CD50DF4FB881C35FD0401F
:102D00008B2F90E0F40193878287CB50DF4FF881BF
:102D1000C55FD0408F2F90E0D4011D969C938E9379
:102D20001C97CC50DF4FB881C45FD0408B2F90E010
:102D3000F40197878687CF51DF4FF881C15ED0407D
:102D40008F2F90E0D40151969C938E935097C4514D
:102D5000DF4FB881CC5ED0408B2F90E0F401938B95
:102D6000828BCA51DF4FF881C65ED0408F2F90E032
:102D7000D40155969C938E935497C651DF4FB881DA
:102D8000CA5ED0408B2F90E0F401978B868BCE509B
:102D9000DF4FF881C25FD0408F2F90E0D401599669
:102DA0009C938E935897C751DF4FB881C95ED0402E
:102DB0008B2F90E0F401938F828FC351DF4FF88106
:102DC000CD5ED0408F2F90E0D4015D969C938E9382
:102DD0005C97CC51DF4FB881C45ED0408B2F90E020
:102DE000F401978F868FC551DF4FF881CB5ED040BD
:102DF0008F2F90E0D40191969C938E939097CB5116
:102E0000DF4FB881C55ED0408B2F90E0F40193A3D3
:102E100082A3C051DF4F28813981C05FD040CB529F
:102E2000DF4F39832883C55DD040C251DF4F4881D1
:102E30005981CE5ED040C952DF4F59834883C75D68
:102E4000D040CE0187599F4FC452DF4F998388836A
:102E5000CC5DD0407401A2EBB7E0C752DF4FB9831D
:102E6000A883C95DD04026EDA22E27E0B22E6C01CA
:102E700001ED1AE0412C512C3201F801808583309C
:102E800091F585E999E00E94EB0923E030E040E00C
:102E900050E0D6012D933D934D935C9313974FEFE4
:102EA000441A540A640A740A055F1F4F54E0C50EA1
:102EB000D11C82E0E80EF11CC752DF4FA881B98116
:102EC000C95DD0401296C752DF4FB983A883C95D50
:102ED000D040B2E0AB0EB11CE2E14E1651046104E9
:102EE000710459F657C0F70120813181D5018D91C8
:102EF0009C912817390778F0C752DF4FE881F98194
:102F0000C95DD040808191818217930748F42F3F9B
:102F1000FFEE3F0729F02EEF3FEF4FEF5FEFB9CF06
:102F2000F80181859285821B930B97FF03C09195D1
:102F300081959109F6E0F89FB001F99F700D112479
:102F40006115710511F461E070E0072E000C880B2B
:102F5000990B2CE33CE0A8010E94B30B9B01AC0150
:102F60002D5F3F4F4F4F5F4F2230310541055105D7
:102F700008F050C09F938F937F936F9382EA99E0FC
:102F80009F938F930E94790B0F900F900F900F904B
:102F90000F900F9007E91BE05E01F5EDAF0EB11C3D
:102FA000412C512C3201D80118968C91833009F0B4
:102FB0007BC023E030E040E050E0C452DF4FA88106
:102FC000B981CC5DD0402D933D934D935C93139785
:102FD00082EC99E00E94EB09055F1F4FC452DF4F5E
:102FE00048815981CC5DD0404C5F5F4FC452DF4F68
:102FF00059834883CC5DD04052E0A50EB11C4A9461
:1030000045284628472809F4C5C0412C512C3201D7
:103010004394C9CFE3E0D8011896EC93189714961F
:103020006D937D938D939C931797F701A081B18148
:10303000F801B287A18720ED37E00E94481DF1E03A
:103040004F1651046104710431F027E04216510417
:103050006104710421F52EE031E040E050E00E946F
:103060005A1AD901AC50BE4F2FEF3FE00E94481DC5
:1030700020E137E240E050E00E945A1AA901642D95
:103080008EED9FE039E0431651046104710424F091
:1030900067EF640D8DED9FE00E943C0800CF24EBAC
:1030A00030E040E050E0DBCFF501808191818F304E
:1030B000F1E09F07A8F08F3F2FEE920789F08EEF87
:1030C0009FEFAFEFBFEFC452DF4FE881F981CC5DD6
:1030D000D04080839183A283B38385ED99E07ACF3A
:1030E000D8011996ED90FC90E81AF90A88EE99E05B
:1030F0000E94EB09C7010E94B90985EF99E00E947F
:10310000EB09F7FE1BC1F194E194F108B1E0C7525D
:10311000DF4FB883C95DD040EAE0EE9D6001EF9DCE
:10312000D00C1124C114D10419F4CC24C394D12C93
:1031300080E09AE00E94EB09C6010E94B90985EF80
:1031400099E00E94EB09B601DD0C880B990B2EEB80
:103150003CE0A8010E94B30B6B017C01F3E0CF0EB1
:10316000D11CE11CF11C22E0C216D104E104F104DF
:1031700008F0EAC09F938F937F936F9382EA99E060
:103180009F938F930E94790B0F900F900F900F9049
:103190000F900F908091B10B833051F423E030E019
:1031A00040E050E0AD962CAF3DAF4EAF5FAFAD9776
:1031B00033E32316310478F04FEF24164FEE340634
:1031C00051F08EEF9FEFAFEFBFEFAD968CAF9DAF9D
:1031D000AEAFBFAFAD978091B20B9091B30B821998
:1031E000930910E097FF04C091958195910911E032
:1031F0002AE0289FB001299F700D112461157105E7
:1032000011F461E070E0072E000C880B990B23E9A4
:103210003CE04DEA5BE00E94B30B6B017C01A3E054
:10322000CA0ED11CE11CF11CB2E0CB16D104E104A2
:10323000F10408F0DCC09F938F937F936F9382EA31
:1032400099E09F938F930E94790B0F900F900F90AE
:103250000F900F900F908091B80B833009F440C00D
:10326000C252DF4FE881F981CE5DD040E230F105F6
:10327000B8F58091B90B9091BA0BE817F90751F0A6
:103280008E179F070CF0D1C0F1E0C552DF4FF883D5
:10329000CB5DD04028E63CE044EB5BE068EE73E0B9
:1032A00080E090E00E94B30B8B019C010D5F1F4FEB
:1032B0002F4F3F4F023011052105310508F0BCC0EA
:1032C0009F938F937F936F9382EA99E09F938F935D
:1032D0000E94790B0F900F900F900F900F900F900E
:1032E00083E29AE00E94EB090BEB1BE0F80180817E
:1032F0009181A281B3810097A105B105B1F044810C
:10330000558166817781481759076A077B0768F0FE
:103310000284F385E02DD80118968D919C91199522
:10332000F8011482158216821782005F1F4FFEE09B
:103330000B3D1F07D9F60E947305C9CAC752DF4F5C
:103340001882C95DD040E8CEE3E0D8011896EC932E
:10335000189714966D937D938D939C931797F50111
:10336000808191811A969C938E931997F1E04F1664
:1033700051046104710459F1C752DF4F2881C95DBE
:10338000D0408DE09AE02223B1F00E94EB0981E069
:1033900090E00E94B90985EF99E00E94EB0961E095
:1033A00086E00E945C024FEF5FE060E089E290E11E
:1033B0000E943C0811CE0E94EB0990E080E00E9440
:1033C000B90985EF99E00E94EB0960E0E9CFC752A7
:1033D000DF4F3881C95DD04061E0311101C060E04C
:1033E00087E00E945C024FEF5FE061E0DFCF23E007
:1033F0002093B10B6093AD0B7093AE0B8093AF0B2A
:103400009093B00B3092B30B2092B20B61E011118C
:1034100001C060E088E00E945C024FEF5FE062E084
:103420008FED9FE00E943C0816CF22E0C552DF4F8F
:103430002883CB5DD0402ECF23E02093B80B609340
:10344000B40B7093B50B8093B60B9093B70BC2522D
:10345000DF4F48815981CE5DD0405093BA0B4093E5
:10346000B90B8AE19AE00E94EB09C552DF4F8881CF
:10347000CB5DD0400E94F909C552DF4F5881CB5D2A
:10348000D040511108C050E040E063E088E290E194
:103490000E943C0825CFC552DF4F8881CB5DD040CC
:1034A00061E0813009F060E089E00E945C024FEF4A
:1034B0005FE0EBCF052E97FB1EF400940E94711A7B
:1034C00057FD07D00E94791A07FC03D04EF40C94E4
:1034D000711A50954095309521953F4F4F4F5F4F52
:1034E000089590958095709561957F4F8F4F9F4F70
:1034F0000895A1E21A2EAA1BBB1BFD010DC0AA1F35
:10350000BB1FEE1FFF1FA217B307E407F50720F04C
:10351000A21BB30BE40BF50B661F771F881F991FC7
:103520001A9469F760957095809590959B01AC0110
:10353000BD01CF010895A29FB001B39FC001A39F19
:10354000700D811D1124911DB29F700D811D1124DC
:10355000911D08955058BB27AA270E94C21A0C94A7
:103560007C1C0E946E1C38F00E94751C20F039F4FF
:103570009F3F19F426F40C946B1C0EF4E095E7FBC6
:103580000C943C1CE92F0E948D1C58F3BA1762075B
:1035900073078407950720F079F4A6F50C94C71CEF
:1035A0000EF4E0950B2EBA2FA02D0B01B90190015E
:1035B0000C01CA01A0011124FF27591B99F0593FA2
:1035C00050F4503E68F11A16F040A22F232F342FEA
:1035D0004427585FF3CF469537952795A795F04038
:1035E0005395C9F77EF41F16BA0B620B730B840B4D
:1035F000BAF09150A1F0FF0FBB1F661F771F881F05
:10360000C2F70EC0BA0F621F731F841F48F487955C
:1036100077956795B795F7959E3F08F0B0CF93954E
:10362000880F08F09927EE0F9795879508950E94C7
:10363000181C08F481E008950E94301B0C947C1C37
:103640000E94751C58F00E946E1C40F029F45F3FE8
:1036500029F00C943C1C51110C94C81C0C946B1C4C
:103660000E948D1C68F39923B1F3552391F3951BA8
:10367000550BBB27AA2762177307840738F09F5F93
:103680005F4F220F331F441FAA1FA9F335D00E2E00
:103690003AF0E0E832D091505040E695001CCAF76D
:1036A0002BD0FE2F29D0660F771F881FBB1F261730
:1036B00037074807AB07B0E809F0BB0B802DBF0107
:1036C000FF2793585F4F3AF09E3F510578F00C94D6
:1036D0003C1C0C94C81C5F3FE4F3983ED4F38695E1
:1036E00077956795B795F7959F5FC9F7880F911DF7
:1036F0009695879597F90895E1E0660F771F881FE3
:10370000BB1F621773078407BA0720F0621B730B95
:10371000840BBA0BEE1F88F7E09508950E94951B65
:103720006894B1110C94C81C08950E94951C88F0EF
:103730009F5798F0B92F9927B751B0F0E1F0660F75
:10374000771F881F991F1AF0BA95C9F714C0B130B6
:1037500091F00E94C71CB1E008950C94C71C672F1C
:10376000782F8827B85F39F0B93FCCF386957795E5
:103770006795B395D9F73EF49095809570956195CE
:103780007F4F8F4F9F4F0895E89409C097FB3EF4F9
:1037900090958095709561957F4F8F4F9F4F99239E
:1037A000A9F0F92F96E9BB279395F695879577951C
:1037B0006795B795F111F8CFFAF4BB0F11F460FFDC
:1037C0001BC06F5F7F4F8F4F9F4F16C0882311F034
:1037D00096E911C0772321F09EE8872F762F05C048
:1037E000662371F096E8862F70E060E02AF09A95E3
:1037F000660F771F881FDAF7880F9695879597F9D8
:1038000008950E94AF1C90F09F3748F4911116F074
:103810000C94C81C60E070E080E89FEB089526F4EB
:103820001B16611D711D811D0C94421C0C945D1CA6
:10383000990F0008550FAA0BE0E8FEEF16161706C1
:10384000E807F907C0F012161306E407F50798F029
:10385000621B730B840B950B39F40A2661F0232B42
:10386000242B252B21F408950A2609F4A140A695BE
:103870008FEF811D811D089597F99F6780E870E0A3
:1038800060E00895882371F4772321F09850872B06
:10389000762F07C0662311F499270DC09051862B0F
:1038A00070E060E02AF09A95660F771F881FDAF7BC
:1038B000880F9695879597F908959F3F31F091501D
:1038C00020F4879577956795B795880F911D969504
:1038D000879597F908959FEF80EC089500240A9446
:1038E0001616170618060906089500240A941216DB
:1038F0001306140605060895092E0394000C11F40E
:10390000882352F0BB0F40F4BF2B11F460FF04C0BA
:103910006F5F7F4F8F4F9F4F089557FD9058440F13
:10392000551F59F05F3F71F04795880F97FB991F1E
:1039300061F09F3F79F087950895121613061406DB
:10394000551FF2CF4695F1DF08C016161706180668
:10395000991FF1CF869571056105089408950E941D
:10396000951CA0F0BEE7B91788F4BB279F3860F418
:103970001616B11D672F782F8827985FF7CF869589
:1039800077956795B11D93959639C8F30895E89496
:10399000BB2766277727CB0197F908950E94181C4B
:1039A00008F48FEF08950E94E61C0C947C1C0E9482
:1039B0006E1C38F00E94751C20F0952311F00C94B9
:1039C0003C1C0C946B1C11240C94C81C0E948D1C74
:1039D00070F3959FC1F3950F50E0551F629FF00162
:1039E000729FBB27F00DB11D639FAA27F00DB11D7B
:1039F000AA1F649F6627B00DA11D661F829F222704
:103A0000B00DA11D621F739FB00DA11D621F839F8A
:103A1000A00D611D221F749F3327A00D611D231F60
:103A2000849F600D211D822F762F6A2F11249F57AE
:103A300050409AF0F1F088234AF0EE0FFF1FBB1FB1
:103A4000661F771F881F91505040A9F79E3F510570
:103A500080F00C943C1C0C94C81C5F3FE4F3983E2F
:103A6000D4F3869577956795B795F795E7959F5F1A
:103A7000C1F7FE2B880F911D9695879597F90895AC
:103A8000EE0FFF1F881F8BBF0790F691E02D199452
:103A90000E949B1AB7FF0895821B930B08950F9302
:103AA0001F93CF93DF93CDB7DEB72E970FB6F89461
:103AB000DEBF0FBECDBF8C0186E08C831A830983E5
:103AC0008FEF9FE79E838D83CE0101960E94791D23
:103AD0002F813885020F131FF80110822E960FB622
:103AE000F894DEBF0FBECDBFDF91CF911F910F9134
:103AF00008952F923F924F925F926F927F928F9292
:103B00009F92AF92BF92CF92DF92EF92FF920F936C
:103B10001F93CF93DF9300D000D000D01F921F924D
:103B2000CDB7DEB77C013B018A01FC01178216820A
:103B3000838181FFDDC1CE0101965C01F701938194
:103B4000F30193FD859193FF81913F01882309F44F
:103B500053C1853239F493FD859193FF81913F01E3
:103B6000853229F4B70190E00E94911FE7CF912C94
:103B7000212C312CFFE1F31538F08B3211F190F448
:103B8000803209F1833229F137FC3CC020ED280F47
:103B90002A3050F536FE20C08AE0989E200D112470
:103BA000922E06C08D3291F0803371F7689430F810
:103BB000F30193FD859193FF81913F018111DACF4C
:103BC00021C0689431F8689432F8F2CF689433F8E1
:103BD000EFCF689434F8ECCFEAE02E9E200D11244C
:103BE000222E689435F8E4CF8E3229F436FC04C1D5
:103BF000689436F8DDCF8C3619F4689437F8D8CF4E
:103C00008836B1F2982F9F7D95549330E0F083363B
:103C1000A1F18337C1F1833509F063C02801F2E0D7
:103C20004F0E511CF801C080D180692D70E036FC28
:103C300002C06FEF7FEFC6010E947B1F4C016894AA
:103C400037F882010AC00C5F1F4FFFE3F983882415
:103C50008394912C6501E89437F833FE2DC0522CE3
:103C60008114910471F5552009F468CFB70180E201
:103C700090E00E94911F5A94F6CFF80180818983C9
:103C80000E5F1F4FE4CF2801F2E04F0E511CF801E8
:103C9000C080D180692D70E036FC02C06FEF7FEFED
:103CA000C6010E94861F4C018201D5CFB70180E278
:103CB00090E00E94911F2A942814190409F0B0F78B
:103CC000CECFF60137FC859137FE81916F01B701A8
:103CD00090E00E94911F51105A94F1E08F1A9108C0
:103CE000BFCF843619F0893609F077C0F80137FE66
:103CF0006BC060817181828193810C5F1F4FF32DB6
:103D0000FF763F2E97FF09C090958095709561953D
:103D10007F4F8F4F9F4F689437F82AE030E0A5011E
:103D20000E94C11FC82ECA188C2C432C36FE0CC012
:103D3000E89440F8C91440F434FE05C032FC03C0D6
:103D4000F32DFE7E4F2E892C44FEAAC0FE01EC0D01
:103D5000F11D8081803309F09CC0242D297E422EE4
:103D6000842D8870582E43FCAAC040FEA4C09C2C11
:103D7000821418F42C0C922C981844FEA6C0B7019B
:103D800080E390E00E94911F42FE09C088E790E026
:103D900041FE02C088E590E0B7010E94911FC9145E
:103DA00008F49FC0CA94D12C9FEFC91AD90ACA0C33
:103DB000DB1CF60182916F01B70190E00E94911F18
:103DC000AC14BD04B1F74FCF60817181072E000C98
:103DD000880B990B0E5F1F4F92CFD32CE894D4F829
:103DE0002AE030E08537E1F1232D297FD22E8F366E
:103DF000A9F1F0F4883551F1F701868197812B966E
:103E00000FB6F894DEBF0FBECDBFDF91CF911F91EB
:103E10000F91FF90EF90DF90CF90BF90AF909F9069
:103E20008F907F906F905F904F903F902F9008956C
:103E3000803749F0883701F7D4FE02C06894D2F881
:103E400020E130E00DC06894D4F8F6CF34FE03C012
:103E5000822F8660D82E20E132E002C028E030E0D8
:103E6000F801D7FE0FC060817181828193810C5F60
:103E70001F4FA5010E94C11FC82ECA183D2CE894EF
:103E800037F852CF6081718190E080E00E5F1F4F64
:103E9000F0CF42FC02C0839463CF8394839460CFBD
:103EA000842D867809F45CCFF6CFB70180E290E0EC
:103EB0000E94911F83948214C0F3512C5ECF522C28
:103EC0005818821408F459CFF8CF842D867809F455
:103ED00066CF8BE241FE80E247FC8DE2B70190E0C5
:103EE0005CCFB70180E390E00E94911F9A9457CF76
:103EF0008FEF9FEF84CFFC0105906150704001105F
:103F0000D8F7809590958E0F9F1F0895FC01615002
:103F1000704001900110D8F7809590958E0F9F1FEB
:103F200008950F931F93CF93DF93182F092FEB0161
:103F30008B8181FD09C01FEF0FEF812F902FDF9143
:103F4000CF911F910F91089582FF14C02E813F8160
:103F50008C819D81281739073CF4E881F981CF01D4
:103F600001969983888310838E819F8101969F8318
:103F70008E83E3CFE885F985812F1995892BA1F3ED
:103F8000DACFFA01AA27283051F1203181F1E894E3
:103F90006F936E7F6E5F7F4F8F4F9F4FAF4FB1E03C
:103FA0003ED0B4E03CD0670F781F891F9A1FA11D37
:103FB000680F791F8A1F911DA11D6A0F711D811D38
:103FC000911DA11D20D009F468943F912AE0269FFD
:103FD00011243019305D3193DEF6CF010895462F5C
:103FE0004770405D4193B3E00FD0C9F7F6CF462F3D
:103FF0004F70405D4A3318F0495D31FD40524193A6
:1040000002D0A9F7EACFB4E0A69597958795779562
:104010006795BA95C9F700976105710508959B01E9
:10402000AC010A2E06945795479537952795BA9572
:10403000C9F7620F731F841F951FA01D0895F89480
:02404000FFCFB0
:104042008C468C8C235F91462C8C23328C235A8C89
:1040520023840A000A00320000008C468C8C235F05
:1040620091462C8C0A328C235A8C2384140014001F
:10407200140001008C468C8C235F91462C780A3206
:104082008C235A8C23840A000A000A0000008C4602
:104092008C8C235F91462C7828328C235A8C238473
:1040A20000000000000000008C468C8C005F9146EE
:1040B2002C7828328C235A8C2384000000000000C4
:1040C20000008C468C8C006E91462C7828328C2312
:1040D2005A8C238400000000000000008C468C8C67
:1040E200236E91462C7828328C235A8C238400002C
:1040F2000000000000008C468C8C236E91462C78C8
:1041020028328C235A8C0A84000000000000000030
:104112008C468C8C236E91462C7828328C235A91B3
:104122000A8400000000000000008C468C8C236E84
:1041320091462C7828328C235A912B84000000005F
:10414200000000008C288C8C236E91462C7828323B
:104152008C235A912B840000000000000000732879
:104162008C8C236E91462C7828328C235A912B8486
:104172000000000000000000734D8C8C236E9146FD
:104182002C7828328C235A912B84000000000000E6
:104192000000734D8C8C236E91462C7828328C054E
:1041A2005A912B840000000000000000734D8C8C9B
:1041B200236E91462C7828328C054B912B8400007B
:1041C200000000000000734D8C8C236E91462C7809
:1041D20028328C234B912B84000000000000000049
:1041E200734D8C8C236E912D2C7828328C234B911D
:1041F2002B840000000000000000734D8C8C236EA5
:104202009B2D2C7828328C234B912B8400000000AC
:1042120000000000734D8C8C236E9B522C78283248
:104222008C234B912B840000000000000000784B8F
:104232008C8C236996492C7D26328C23508C2284C7
:1042420000000000000000007D498C8C236491482E
:104252002C8224328C235587218400000000000028
:10426200000082488C8C235F8C482C8723328C235D
:104272005A822184000000000000000087488C8CD4
:10428200235A87492C8C23328C235F7D22840000A1
:104292000000000000008C498C8C2355824B2C912D
:1042A20024328C2364782484000000000000000083
:1042B20091528C8C23507D4D2C962D328C23697318
:1042C2002684000000000000000091528C8C2350D4
:1042D2007D4D2C960A328C236973268400000000DF
:1042E2000000000091528C8C23507D4D2C780A32B4
:1042F2008C236973268400000000000000009152A4
:104302008C8C23507D4D2C7828328C236973268423
:10431200000000000000000091528C8C00507D4D86
:104322002C7828328C236973268400000000000058
:10433200000091528C8C006E7D4D2C7828328C239B
:1043420069732684000000000000000091528C8CEA
:10435200236E7D4D2C7828328C23697326840000CD
:1043620000000000000091528C8C236E7D4D2C7851
:1043720028328C2369730A840000000000000000C8
:1043820091528C8C236E7D4D2C7828328C2369912E
:104392000A84000000000000000091528C8C236E01
:1043A2007D4D2C7828328C2369912B8400000000EB
:1043B2000000000091288C8C236E7D4D2C782832D1
:1043C2008C2369912B8400000000000000007328F8
:1043D2008C8C236E7D4D2C7828328C2369912B8412
:1043E2000000000000000000734D8C8C236E7D4D98
:1043F2002C7828328C2369912B8400000000000065
:104402000000734D8C8C236E7D4D2C7828328C05E8
:1044120069912B840000000000000000734D8C8C19
:10442200236E7D4D2C7828328C054B912B84000015
:10443200000000000000734D8C8C236E7D4D2C78A3
:1044420028328C234B912B840000000000000000D6
:10445200734D8C8C236E7D282C7828328C234B91C3
:104462002B840000000000000000734D8C8C236E32
:104472009B282C7828328C234B912B84000000003F
:1044820000000000734D8C8C236E9B522C782832D6
:104492008C234B912B840000000000000000784B1D
:1044A2008C8C236996492C7D26328C23508C228455
:1044B20000000000000000007D498C8C23649148BC
:1044C2002C8224328C2355872184000000000000B6
:1044D200000082488C8C235F8C482C8723328C23EB
:1044E2005A822184000000000000000087488C8C62
:1044F200235A87492C8C23328C235F7D228400002F
:104502000000000000008C498C8C2355824B2C91BA
:1045120024328C2364782484000000000000000010
:1045220091528C8C23507D4D2C962D328C236973A5
:10453200268400000000000000008C468C8C235F63
:1045420091462C8C23328C235A8C23840A000A0035
:104552000A000100A7086F046F046F046F046F0460
:104562006F046F046F048C46788C235F8C46418CF9
:10457200233C8C235A7D23730000000000000000BE
:104582008C46788C235F8C46418C233C8C235A7D4D
:1045920023730000F000000000008C46788C235F3B
:1045A2008C46418C233C8C235A7D2373F0000000FF
:1045B200000000008C46788C235F8C46418C233CA3
:1045C2008C235A7D237300000000000000008C0041
:1045D200460082008C0023005F00910046004100EB
:1045E2008C0023003C008C0023005A007D00230035
:1045F2007300B40052009100B40025006E00B400B4
:1046020052007800B40032007800B4002300690040
:10461200B4002B0084007300280041007D000000DC
:1046220050007D0028002C0078000A002D007D003B
:1046320005004B0073000A003C0000000000060564
:1046420070049D045305CE04AC04C00400000000B5
:104652000808DB07A408B107D407C107B2070D0A8F
:10466200002053797374656D206E6F7420696E69D2
:10467200742000E382BFE382A4E3839EE383BCE46D
:10468200B88AE99990E382A8E383A9E383BC00E3B3
:1046920082BFE382A4E3839EE383BC4944E3818C2B
:1046A200E5AD98E59CA8E38197E381AAE3818400C4
:1046B200E38193E3828CE38282E38186E784A1E74C
:1046C2009086E38284E381A70053797374656D2039
:1046D2005374617274000A2D2D2D205445535420B9
:1046E2005354415254202D2D2D2D0A002D2D2D20B5
:1046F2005363656E6520496E7075742053746172E0
:1047020074202D2D2D002D2D2D207363656E617269
:10471200696F636F756E746572202D2D2D002D2DBE
:104722002D207363656E65636F756E746572202DDF
:104732002D2D002D2D2D20636865636B6572202D54
:104742002D2D002D2D2D20496E69745363656E65E4
:10475200496E707574202D2D2D002D2D2D20496E42
:1047620069745363656E65496E70757420636F7505
:104772006E746572206F766572202D2D2D0A002DC4
:104782002D2D205363656E6520454E44202D2D2D21
:104792002D0A002D2D2D207363656E656368656398
:1047A2006B6572202D2D2D002D2D2D207363656ECE
:1047B2006520636F756E746572206F766572202D49
:1047C2002D2D002D2D2D20616E676C652073657473
:1047D200202D2D2D002D2D2D20283829202D2D2D59
:1047E2000A00E382BFE382A4E3839EE383BCE996EB
:1047F200A2E980A3E382A8E383A9E383BC3A20254C
:1048020064002D2D2D2D20646320657272203120CD
:104812002D2D2D2D002D2D2D2D20646320657272DE
:104822002032202D2D2D2D002D2D2D2D2064742094
:104832002D2D2D2D002D2D2D2D20202D2D2D2D001A
:104842002D2D2D2D204454202D2D2D2D002D2D2D9F
:104852002D205544202D2D2D2D00727272727272F0
:104862007272000A2D2D2D20454E44202D2D2D2D06
:104872000A002D2D2D207363656E654275737920B4
:044882002D2D2D00AB
:00000001FF
