:100000000C942A010C94CF050C94A4050C9479054A
:100010000C944E050C9423050C94F8040C94CD0418
:100020000C94A2040C945B010C945B010C945B0196
:100030000C945B010C945B010C945B010C945B01D0
:100040000C945B010C945B010C945B010C945B01C0
:100050000C947A070C945B010C945B010C9458048B
:100060000C945B010C9424060C94FA050C945B012F
:100070000C945B010C945B010C945B010C945B0190
:100080000C945B010C945B010C945B010C945B0180
:100090000C945B010C945B010C945B010C945A066C
:1000A0000C945B010C945B010C945B010C945B0160
:1000B0000C945B010C945B010C945B010C945B0150
:1000C0000C945B010C945B010C945B010C945B0140
:1000D0000C945B010C945B010C945B010C945B0130
:1000E0000C945B010C94E6010C9408020C94CF0173
:1000F0000C94AC010C94C7010C94FE010C94F80113
:100100000C9467020C9445020C94D2010C94840761
:100110000C94D8010C9409020C94EC020C949F02EC
:100120000C94E2010C94B1010C94F4010C94C30101
:100130000C9402020C9436020C94F0010C945902B7
:100140000C94CB010C94EA010C94DC0100000A0B26
:1001500002090C0D0E080703040100000000000056
:10016000000000000000000000000000000000008F
:10017000000000000000000012111000000000004C
:10018000000000000000000000000000000000006F
:10019000000000002200250028002B002E00310066
:1001A000340002010000050108010B0100002100DC
:1001B000240027002A002D00300033000101000038
:1001C000040107010A0105050505070508080808D7
:1001D000020202020A0A08080404040401010101DF
:1001E00001010101030303030303030304070707DA
:1001F0000C0C0C0C0C0C0C0C02020202060606067F
:10020000060606060B0B0B0B0B0B0B0B010210204B
:10021000200808102040102040800201020108043C
:1002200002010102040810204080804020100804D0
:100230000201800402018040201008040201080429
:10024000020101020408102040800102040810206D
:100250004080840711241FBECFEFD1E2DEBFCDBFA7
:1002600000E00CBF12E0A0E0B2E0E0E2F3E100E069
:100270000BBF02C007900D92A634B107D9F723E057
:10028000A6E4B2E001C01D92A139B207E1F711E086
:10029000CAE2D1E000E006C021970109802FFE01EB
:1002A0000E948609C932D10780E00807A9F70E9499
:1002B000C4070C948E090C94000090E0FC01E45FEC
:1002C000FD4F24918A539E4FFC018491882399F01D
:1002D00090E0880F991FFC01E455FE4FA591B49161
:1002E000FC01EE56FE4F859194918FB7F894EC91F6
:1002F000E22BEC938FBF0895282F30E0F901E45BE7
:10030000FE4F9491F901E45FFD4F44912A533E4F13
:10031000F9012491222309F435C0992311F1915058
:100320009231F8F4E92FF0E08827E656FE4F8F4F20
:100330000C948609CB01CF01AC01C301C701B10107
:10034000D201D801DC01E201E601EA01F001F40189
:10035000B101F801FE010202809180008F77809345
:100360008000E22FF0E0EE0FFF1FEE56FE4FA5914A
:10037000B4918FB7F894EC91611148C040954E2329
:100380004C938FBF0895809180008F7DE8CF80913E
:100390008000877FE4CF84B58F7784BDE2CF84B5BA
:1003A0008F7DFBCF8091B0008F778093B000D9CF45
:1003B0008091B0008F7DF9CF809190008F778093EE
:1003C0009000CFCF809190008F7DF9CF80919000E9
:1003D000877FF5CF8091A0008F778093A000C1CF59
:1003E0008091A0008F7DF9CF8091A000877FF5CF0D
:1003F000809120018F7780932001B3CF80912001DD
:100400008F7DF9CF80912001877FF5CF4E2BB8CF1C
:100410000895AF92BF92CF92DF92EF92FF920F9327
:100420001F93CF93DF936C017B018B01040F151F8A
:10043000EB015E01AE18BF08C017D10759F06991F2
:10044000D601ED91FC910190F081E02DC601199546
:10045000892B79F7C501DF91CF911F910F91FF9003
:10046000EF90DF90CF90BF90AF900895FC01538D37
:10047000448D252F30E0842F90E0821B930B54177E
:1004800010F0CF96089501970895FC01918D828D0B
:10049000981761F0A28DAE0FBF2FB11D5D968C91A4
:1004A000928D9F5F9F73928F90E008958FEF9FEFE3
:1004B0000895FC01918D828D981731F0828DE80F9F
:1004C000F11D858D90E008958FEF9FEF0895FC0159
:1004D000918D228D892F90E0805C9F4F821B910926
:1004E0008F73992708958DEE92E00E94670221E0B4
:1004F000892B09F420E0822F0895FC01A48DA80F18
:10050000B92FB11DA35ABF4F2C91848D90E0019655
:100510008F739927848FA689B7892C93A089B18975
:100520008C91837080648C93938D848D981306C016
:100530000288F389E02D80818F7D80830895EF927A
:10054000FF920F931F93CF93DF93EC0181E0888F8D
:100550009B8D8C8D98131AC0E889F989808185FF5D
:1005600015C09FB7F894EE89FF896083E889F989FF
:1005700080818370806480839FBF81E090E0DF9101
:10058000CF911F910F91FF90EF900895F62E0B8D54
:1005900010E00F5F1F4F0F731127E02E8C8D8E110F
:1005A0000CC00FB607FCFACFE889F989808185FF76
:1005B000F5CFCE010E947D02F1CFEB8DEC0FFD2F28
:1005C000F11DE35AFF4FF0829FB7F8940B8FEA8931
:1005D000FB8980818062CFCFCF93DF93EC01888D40
:1005E0008823B9F0AA89BB89E889F9898C9185FDAE
:1005F00003C0808186FD0DC00FB607FCF7CF8C913C
:1006000085FFF2CF808185FFEDCFCE010E947D0274
:10061000E9CFDF91CF91089580E090E0892B29F018
:100620000E94730281110E94000080E090E0892BFB
:1006300049F080E090E0892B29F00E9400008111B0
:100640000E94000080E090E0892B49F080E090E07B
:10065000892B29F00E94000081110E94000080E097
:1006600090E0892B49F080E090E0892B29F00E94EE
:10067000000081110C940000089520917102260F52
:100680003327331F21323105ECF420919502FC0110
:1006900090E080E0243069F082E00895A09171023A
:1006A0002191AC014F5A5D4FA40FB52FB11D2C9372
:1006B0000196861798F380917102680F609371021A
:1006C00080E0089581E0089508958FEF9FEF0895E9
:1006D0008FEF9FEF089580914A0290E09195819568
:1006E00091090895CF93DF93CB01EA01642F0E9413
:1006F0003D03CE01DF91CF910895CF93DF931F92F9
:10070000CDB7DEB7698361E0CE0101960E943D035B
:1007100081E090E00F90DF91CF91089590E080E02C
:1007200008950895FC0101900020E9F73197AF0189
:10073000481B590BBC018DEE92E00C9409028F927C
:100740009F92AF92BF920F931F93CF93DF93CDB73A
:10075000DEB7A1970FB6F894DEBF0FBECDBF19A2CA
:10076000423008F44AE08E010F5D1F4F842E912C19
:10077000B12CA12CA50194010E946409E62FB901B6
:10078000CA01EA30F4F4E05DD801EE938D01232B29
:10079000242B252B79F790E080E0109719F0CD01FC
:1007A0000E949203A1960FB6F894DEBF0FBECDBF94
:1007B000DF91CF911F910F91BF90AF909F908F903D
:1007C0000895E95CE1CF1F93CF93DF9385ED80938C
:1007D000BC0080914D0290914E02A0914F02B091C9
:1007E00050020796A11DB11D23E0B695A7959795D8
:1007F00087952A95D1F72091BC0024FD03C0109263
:10080000950252C040914D0250914E0260914F02AC
:1008100070915002452B462B472B69F30097A10599
:10082000B10541F025E32A95F1F700000197A109F0
:10083000B109E1CF80914C02C1E0C0934B02882303
:1008400099F1D091B8001091BA008091BC008A7BD8
:100850008093BC0060E084E10E947C0160E085E15F
:100860000E947C0110929502C0939702109296020A
:1008700061E084E10E947C0161E085E10E947C01ED
:100880008091B9008E7F8093B9008091B9008D7FEF
:100890008093B90088E48093B80085E48093BC001D
:1008A0001093BA00D093B800DF91CF911F910895B3
:1008B0001F920F920FB60F9211242F933F938F9395
:1008C0009F93AF93BF938091E9029091EA02A09128
:1008D000EB02B091EC023091E80223E0230F2D37B8
:1008E00058F50196A11DB11D2093E8028093E902FD
:1008F0009093EA02A093EB02B093EC028091E402A1
:100900009091E502A091E602B091E7020196A11D47
:10091000B11D8093E4029093E502A093E602B093A8
:10092000E702BF91AF919F918F913F912F910F90CF
:100930000FBE0F901F90189526E8230F0296A11D59
:10094000B11DD2CF1F920F920FB60F9211240BB68A
:100950000F922F933F934F935F936F937F938F9358
:100960009F93AF93BF93EF93FF93E0910E02F091AB
:100970000F021995FF91EF91BF91AF919F918F91C8
:100980007F916F915F914F913F912F910F900BBE8F
:100990000F900FBE0F901F9018951F920F920FB6D9
:1009A0000F9211240BB60F922F933F934F935F93A7
:1009B0006F937F938F939F93AF93BF93EF93FF9327
:1009C000E0910C02F0910D021995FF91EF91BF910A
:1009D000AF919F918F917F916F915F914F913F91D7
:1009E0002F910F900BBE0F900FBE0F901F90189578
:1009F0001F920F920FB60F9211240BB60F922F93E6
:100A00003F934F935F936F937F938F939F93AF9396
:100A1000BF93EF93FF93E0910202F09103021995C7
:100A2000FF91EF91BF91AF919F918F917F916F91C6
:100A30005F914F913F912F910F900BBE0F900FBE82
:100A40000F901F9018951F920F920FB60F921124BE
:100A50000BB60F922F933F934F935F936F937F93B8
:100A60008F939F93AF93BF93EF93FF93E091000217
:100A7000F09101021995FF91EF91BF91AF919F9174
:100A80008F917F916F915F914F913F912F910F9037
:100A90000BBE0F900FBE0F901F9018951F920F92D4
:100AA0000FB60F9211240BB60F922F933F934F93D3
:100AB0005F936F937F938F939F93AF93BF93EF93C6
:100AC000FF93E0910A02F0910B021995FF91EF91CB
:100AD000BF91AF919F918F917F916F915F914F9156
:100AE0003F912F910F900BBE0F900FBE0F901F9054
:100AF00018951F920F920FB60F9211240BB60F92FA
:100B00002F933F934F935F936F937F938F939F9315
:100B1000AF93BF93EF93FF93E0910802F091090226
:100B20001995FF91EF91BF91AF919F918F917F9117
:100B30006F915F914F913F912F910F900BBE0F904E
:100B40000FBE0F901F9018951F920F920FB60F9225
:100B500011240BB60F922F933F934F935F936F9394
:100B60007F938F939F93AF93BF93EF93FF93E09106
:100B70000602F09107021995FF91EF91BF91AF9195
:100B80009F918F917F916F915F914F913F912F91A5
:100B90000F900BBE0F900FBE0F901F9018951F92D5
:100BA0000F920FB60F9211240BB60F922F933F9313
:100BB0004F935F936F937F938F939F93AF93BF9365
:100BC000EF93FF93E0910402F09105021995FF91D4
:100BD000EF91BF91AF919F918F917F916F915F91B5
:100BE0004F913F912F910F900BBE0F900FBE0F9022
:100BF0001F9018951F920F920FB60F9211240BB6EB
:100C00000F922F933F934F935F936F937F938F93A5
:100C10009F93AF93BF93EF93FF938DEE92E00E946B
:100C20007D02FF91EF91BF91AF919F918F917F9145
:100C30006F915F914F913F912F910F900BBE0F904D
:100C40000FBE0F901F9018951F920F920FB60F9224
:100C500011240BB60F922F938F939F93EF93FF93D3
:100C6000E091FD02F091FE028081E0910303F0919A
:100C7000040382FD1DC09081809106038F5F8F73F6
:100C800020910703821741F0E0910603F0E0E35161
:100C9000FD4F958F80930603FF91EF919F918F9168
:100CA0002F910F900BBE0F900FBE0F901F901895B5
:100CB0008081F2CF1F920F920FB60F9211240BB6C4
:100CC0000F922F933F934F935F936F937F938F93E5
:100CD0009F93AF93BF93EF93FF938091B900887F69
:100CE000803609F44DC008F040C0883209F4A7C02E
:100CF00028F5803109F49BC0C8F4882309F4F7C0B3
:100D0000883009F494C0FF91EF91BF91AF919F910A
:100D10008F917F916F915F914F913F912F910F90A4
:100D20000BBE0F900FBE0F901F901895883109F4DD
:100D300086C0803241F78093940214C0803409F455
:100D40009BC040F48033B9F38833E9F68093940272
:100D500085ECAEC0803509F483C0883509F494C0B1
:100D6000883489F60E94E303CECF883909F48AC01B
:100D700038F5883729F050F4883611F0803719F6A5
:100D800083E0809395021092930255C0883809F44D
:100D900079C0803919F0803809F0B5CF809193027D
:100DA000803208F06FC0E091930281E08E0F809353
:100DB00093028091BB00F0E0ED58FD4F80833BC073
:100DC000803B39F0D0F4803A09F477C0883A09F0D2
:100DD0009ACF84E080939502109272021092710271
:100DE000F0E0E0E019958091710281110FC081E07F
:100DF000809371021092510209C0803C09F4A8CF7F
:100E0000883C09F4A5CF883B09F07DCFE0917202C0
:100E100081E08E0F80937202F0E0EF5AFD4F8081E7
:100E20008093BB00909172028091710229C08091E1
:100E3000BA028093BB0085EC8093BC0064CF909194
:100E4000B9028091B802981758F5E091B90281E093
:100E50008E0F8093B902F0E0E856FD4F8081E9CF14
:100E6000E091B90281E08E0F8093B9028091BB00BE
:100E7000F0E0E856FD4F80839091B9028091B8026E
:100E80009817C8F285E8D8CFE091B90281E08E0FBB
:100E90008093B9028091BB00F0E0E856FD4F80835B
:100EA0008091970281115ECF81E08093960284EA5F
:100EB0008093BC001092950226CF85EC8093BC00F5
:100EC0001092950280919302803230F4E091930267
:100ED000F0E0ED58FD4F10826091930270E083E7DF
:100EE00092E0F0E0E0E01995109293020CCF10929E
:100EF000940238CF1F920F920FB60F9211240F90C9
:100F00000FBE0F901F901895EDEEF2E01382128243
:100F100088EE93E0A0E0B0E084839583A683B78356
:100F200084E192E09183808385EC90E095878487CB
:100F300084EC90E09787868780EC90E0918B808BA3
:100F400081EC90E0938B828B82EC90E0958B848B8C
:100F500086EC90E0978B868B118E128E138E148EFA
:100F6000EAE8F3E088E5808381E0818381E480938F
:100F70008D0382E480938C0383E480938E038093BB
:100F80008F03809390030895CF93DF93CDB7DEB79F
:100F9000A8970FB6F894DEBF0FBECDBF789484B586
:100FA000826084BD84B5816084BD85B5826085BD65
:100FB00085B5816085BD80916E00816080936E00F3
:100FC00010928100809181008260809381008091E5
:100FD0008100816080938100809180008160809396
:100FE00080008091B10084608093B1008091B00056
:100FF00081608093B0008091910082608093910025
:101000008091910081608093910080919000816037
:10101000809390008091A10082608093A1008091D4
:10102000A10081608093A1008091A00081608093E5
:10103000A000809121018260809321018091210193
:101040008160809321018091200181608093200143
:1010500080917A00846080937A0080917A00826027
:1010600080937A0080917A00816080937A008091E9
:101070007A00806880937A001092C100E091FD02AE
:10108000F091FE0282E08083E091F902F091FA0291
:101090001082E091FB02F091FC0280E180831092CB
:1010A0000503E0910103F091020386E08083E09163
:1010B000FF02F0910003808180618083E091FF0254
:1010C000F0910003808188608083E091FF02F091BD
:1010D0000003808180688083E091FF02F09100032B
:1010E00080818F7D80831FB7F8948091BB0281112E
:1010F00024C0EBEFF1E08491E1E4F2E09491E82F79
:10110000F0E0EE0FFF1FE455FE4FA591B491EC9176
:10111000E92321F461E085E30E947C0185E30E94DC
:101120005D018CB580618CBD8CB580648CBD84E321
:101130000E945D0183E30E945D018091BB028F5F8D
:101140008093BB021FBF61E085E30E947C018AEEB1
:10115000482E86ED582E8CEF682E8DE3782E94E382
:10116000C92E92E1D92E12E12BE8A22EBB24B39412
:101170004092BC025092BD026092BE027092BF02C9
:101180004092C0025092C1026092C2027092C302A9
:101190004092C4025092C5026092C6027092C70289
:1011A000D092C902C092C8021093CA021093CB0217
:1011B0001093CC021093CD021093CE021093CF0265
:1011C0001093D0021093D1021093D2021093D30245
:1011D0001093D4021093D5021093D6021093D70225
:1011E0001093D8021093D9021093DA021093DB0205
:1011F0001093DC021093DD021093DE021093DF02E5
:101200001093E0021093E1021093E2021093E302C4
:1012100082E292E00E94920383E392E00E949203B2
:1012200090918A0380918B039CBD8DBD60E085E326
:101230000E947C0188E2ECEBF2E0DE011196019065
:101240000D928A95E1F7CE0101967C0100E008320B
:1012500058F5F7019080692D70E090E080E040E162
:101260000E949F0383E392E00E9492039EBC0000D1
:101270000DB407FEFDCF8EB5C5010197F1F70F5FE5
:10128000FFEFEF1AFF0A003311F761E085E30E94D8
:101290007C0186E392E00E94920383E392E00E9445
:1012A00092030E940C0364CF40E160E070E0CB0148
:1012B0000E949F0383E392E00E9492031EBC000001
:1012C0000DB407FEFDCFD7CFA1E21A2EAA1BBB1B80
:1012D000FD010DC0AA1FBB1FEE1FFF1FA217B30702
:1012E000E407F50720F0A21BB30BE40BF50B661F18
:1012F000771F881F991F1A9469F7609570958095DC
:1013000090959B01AC01BD01CF010895EE0FFF1F29
:10131000881F8BBF0790F691E02D1994F894FFCFAA
:10132000080208020802080208020802080208026D
:10133000000000009F0209023602EC02670245022B
:1013400059020A2D2D2D205354415254202D2D2D5C
:101350002D0A000D0A000A2D2D2D20454E44202D6A
:061360002D2D2D0A0000F6
:00000001FF
