:100000000C945B010C94690E0C943E0E0C94130E30
:100010000C94E80D0C94BD0D0C94920D0C94670D8E
:100020000C943C0D0C948C010C948C010C948C0160
:100030000C948C010C948C010C948C010C948C010C
:100040000C948C010C948C010C948C010C948C01FC
:100050000C9418100C948C010C948C010C94F20CE0
:100060000C948C010C94BE0E0C94940E0C948C0188
:100070000C948C010C948C010C948C010C948C01CC
:100080000C948C010C948C010C948C010C948C01BC
:100090000C948C010C948C010C948C010C94F40E37
:1000A0000C948C010C948C010C948C010C948C019C
:1000B0000C948C010C948C010C948C010C948C018C
:1000C0000C948C010C948C010C948C010C948C017C
:1000D0000C948C010C948C010C948C010C948C016C
:1000E0000C948C010C945A060C946F040C943C0CE8
:1000F0000C9408080C94A7080C9405020C94F801C1
:100100000C94F0010C9443100C94AC040C94250254
:100110000C942A020C94DB070C9409020C941D0227
:100120000C94FF010C94BE0C0C94D4070C94930C0B
:100130000C9406050C9441040C9412030C9459067B
:100140000C94C0040C94CE040C9421020C94A408CA
:100150000C94B1070C9453050C94FC010C942B02E5
:100160000C94B2070C94EA010C949D040C941702B1
:100170000C94680C0C940F020C9470040C94C1073E
:100180000C9413020C94F4010C942F020C9477033A
:100190000C94DC0300002100240027002A002D001D
:1001A0003000330001010000040107010A010000D2
:1001B0002200250028002B002E003100340002010F
:1001C0000000050108010B010000200023002600AB
:1001D00029002C002F00320000010000030106015D
:1001E00009010505050507050808080802020202BD
:1001F0000A0A0808040404040101010101010101C3
:100200000303030303030303040707070C0C0C0C8D
:100210000C0C0C0C02020202060606060606060676
:100220000B0B0B0B0B0B0B0B010210202008081003
:100230002040102040800201020108040201010256
:10024000040810204080804020100804020180042F
:10025000020180402010080402010804020101028A
:100260000408102040800102040810204080000093
:100270000A0B02090C0D0E08070304010000000020
:10028000000000000000000000000000000000006E
:10029000000000000000000000001211100000002B
:1002A000000000000000000000000000000000004E
:1002B00000000000431011241FBECFEFD1E2DEBFCB
:1002C000CDBF00E00CBF19E0A0E0B2E0E2ECFFE33C
:1002D00000E00BBF02C007900D92A63FB107D9F70F
:1002E00020E1A6EFB9E001C01D92AC36B207E1F7FC
:1002F00011E0CBE5D1E000E006C021970109802F95
:10030000FE010E94001DCA35D10780E00807A9F749
:100310000E94E3100C94DF1F0C940000CF92DF9238
:10032000EF92FF92CF93DF93EC016EA57FA588A992
:1003300099A90E94841B9B01AC0160E070E088ECED
:1003400091E40E94DC1A6B017C01AC019B0168897D
:1003500079898A899B890E94931C688B798B8A8B07
:100360009B8BA70196016C897D898E899F890E944C
:10037000DC1A6C8B7D8B8E8B9F8B89E190E0A0E0EB
:10038000B0E08EA79FA7A8ABB9ABDF91CF91FF904C
:10039000EF90DF90CF9008958150823108F05AC0DD
:1003A000E82FF0E08827E852FE4F8F4F0C94001D95
:1003B000F801FC01EA01F001F4012A02FF01050243
:1003C00009020F02130217021D0221022A0225024E
:1003D0002B022F02809180008F77809380000895F8
:1003E000809180008F7DF9CF80918000877FF5CF4D
:1003F00084B58F7784BD089584B58F7DFBCF8091C0
:10040000B0008F778093B00008958091B0008F7D09
:10041000F9CF809190008F7780939000089580911C
:1004200090008F7DF9CF80919000877FF5CF8091EC
:10043000A0008F778093A00008958091A0008F7D09
:10044000F9CF8091A000877FF5CF809120018F7731
:10045000809320010895809120018F7DF9CF8091B4
:100460002001877FF5CFCF93DF93282F30E0F9016C
:10047000E259FD4F8491F901E85DFD4FD491F901F6
:10048000EE51FE4FC491CC23A1F081110E94CC010A
:10049000EC2FF0E0EE0FFF1FE853FE4FA591B49153
:1004A000EC91ED2381E090E009F480E0DF91CF91C1
:1004B000089580E090E0FACF1F93CF93DF93282F29
:1004C00030E0F901E259FD4F8491F901E85DFD4FFB
:1004D000D491F901EE51FE4FC491CC23A9F0162F0F
:1004E00081110E94CC01EC2FF0E0EE0FFF1FE255CE
:1004F000FE4FA591B4918FB7F894EC91111108C0FB
:10050000D095DE23DC938FBFDF91CF911F910895AB
:10051000DE2BF8CFCF93DF9390E0FC01E85DFD4F39
:1005200024918E519E4FFC0184918823D1F090E05C
:10053000880F991FFC01EC56FE4FA591B491FC0168
:10054000E255FE4FC591D49161110EC09FB7F8944A
:100550008C91E22FE0958E238C932881E223E8830F
:100560009FBFDF91CF9108958FB7F894EC91E22B64
:10057000EC938FBFF6CF3FB7F89480918E0E909199
:100580008F0EA091900EB091910E26B5A89B05C03C
:100590002F3F19F00196A11DB11D3FBFBA2FA92F02
:1005A000982F8827BC01CD01620F711D811D911DFF
:1005B00042E0660F771F881F991F4A95D1F708956B
:1005C0008F929F92AF92BF92CF92DF92EF92FF9263
:1005D0004B015C010E94BB026B017C010E94BB02CB
:1005E0006C197D098E099F09683E7340810591054C
:1005F000A8F321E0821A9108A108B10888EEC80E7C
:1006000083E0D81EE11CF11C81149104A104B10403
:1006100029F7FF90EF90DF90CF90BF90AF909F9021
:100620008F900895CF92DF92EF92FF92CF93DF9356
:1006300082E10E943302C0917A0AD0917B0A01972D
:1006400039F488E10E943302892B39F4219706C0DE
:1006500088E10E943302892BC9F72196D0937B0A47
:10066000C0937A0A60917A0A70917B0A072E000C77
:10067000880B990B0E94861B6B017C012FE832ECE2
:100680004DE850E40E948E1C1816F4F42FE832EC6A
:100690004DE850E4C701B6010E946A1A0E944E1B41
:1006A00070937B0A60937A0A80917C0A90917D0A0C
:1006B000019690937D0A80937C0ADF91CF91FF9001
:1006C000EF90DF90CF9008952FE832EC4DE850EC9A
:1006D000C701B6010E94D71A87FFEFCF2FE832EC8F
:1006E0004DE850E4C701B6010E946B1AD7CFCF92F4
:1006F000DF92EF92FF92CF93DF9382E00E9433026A
:10070000C091740AD091750A019739F486E10E946C
:100710003302892B39F4219706C086E10E94330207
:10072000892BC9F72196D093750AC093740A6091FA
:10073000740A7091750A072E000C880B990B0E94A1
:10074000861B6B017C0126E636E64EEB51E40E94E7
:100750008E1C1816F4F426E636E64EEB51E4C7017B
:10076000B6010E946A1A0E944E1B7093750A60932C
:10077000740A8091780A9091790A01969093790A87
:100780008093780ADF91CF91FF90EF90DF90CF9028
:10079000089526E636E64EEB51ECC701B6010E94FD
:1007A000D71A87FFEFCF26E636E64EEB51E4C701B6
:1007B000B6010E946B1AD7CFCF92DF92EF92FF92D1
:1007C000CF93DF9383E00E943302C091720AD091ED
:1007D000730A019739F487E10E943302892B39F4B7
:1007E000219706C087E10E943302892BC9F7219621
:1007F000D093730AC093720A6091720A7091730A5F
:10080000072E000C880B990B0E94861B6B017C0144
:1008100026E636E64EEB51E40E948E1C1816F4F4E0
:1008200026E636E64EEB51E4C701B6010E946A1A8D
:100830000E944E1B7093730A6093720A8091760A2D
:100840009091770A01969093770A8093760ADF91C8
:10085000CF91FF90EF90DF90CF90089526E636E697
:100860004EEB51ECC701B6010E94D71A87FFEFCFBC
:1008700026E636E64EEB51E4C701B6010E946B1A3C
:10088000D7CF80916D0A90916E0AA0916F0AB091B6
:10089000700A0196A11DB11D80936D0A90936E0A96
:1008A000A0936F0AB093700AEDE6FBE0808191811E
:1008B000A281B381892B8A2B8B2B59F0848195815E
:1008C000A681B7810196A11DB11D84839583A6835E
:1008D000B78370968EE0ED38F80741F708950895D4
:1008E000AF92BF92CF92DF92EF92FF920F931F933E
:1008F000CF93DF936C017B018B01040F151FEB017C
:100900005E01AE18BF08C017D10759F06991D60132
:10091000ED91FC910190F081E02DC6011995892B94
:1009200079F7C501DF91CF911F910F91FF90EF9063
:10093000DF90CF90BF90AF900895FC01538D448D10
:10094000252F30E0842F90E0821B930B541710F07A
:10095000CF96089501970895FC01918D828D981787
:1009600061F0A28DAE0FBF2FB11D5D968C91928D5F
:100970009F5F9F73928F90E008958FEF9FEF089590
:10098000FC01918D828D981731F0828DE80FF11D59
:10099000858D90E008958FEF9FEF0895FC01918D74
:1009A000228D892F90E0805C9F4F821B91098F736D
:1009B0009927089586EE9EE00E94CE0421E0892BBF
:1009C00009F420E0822F0895FC01A48DA80FB92F0F
:1009D000B11DA35ABF4F2C91848D90E001968F7367
:1009E0009927848FA689B7892C93A089B1898C9186
:1009F000837080648C93938D848D981306C00288D5
:100A0000F389E02D80818F7D80830895EF92FF929E
:100A10000F931F93CF93DF93EC0181E0888F9B8D21
:100A20008C8D98131AC0E889F989808185FF15C0DB
:100A30009FB7F894EE89FF896083E889F9898081FE
:100A40008370806480839FBF81E090E0DF91CF91CD
:100A50001F910F91FF90EF900895F62E0B8D10E0EF
:100A60000F5F1F4F0F731127E02E8C8D8E110CC05E
:100A70000FB607FCFACFE889F989808185FFF5CFA9
:100A8000CE010E94E404F1CFEB8DEC0FFD2FF11DA0
:100A9000E35AFF4FF0829FB7F8940B8FEA89FB89E6
:100AA00080818062CFCFCF93DF93EC01888D882344
:100AB000B9F0AA89BB89E889F9898C9185FD03C0C1
:100AC000808186FD0DC00FB607FCF7CF8C9185FFA6
:100AD000F2CF808185FFEDCFCE010E94E404E9CF03
:100AE000DF91CF91089580E090E0892B29F00E945A
:100AF000DA0481110E94000080E090E0892B49F027
:100B000080E090E0892B29F00E94000081110E9472
:100B1000000080E090E0892B49F080E090E0892B94
:100B200029F00E94000081110E94000080E090E006
:100B3000892B49F080E090E0892B29F00E94000089
:100B400081110C94000008952F923F924F925F9272
:100B50006F927F928F929F92AF92BF92CF92DF92CD
:100B6000EF92FF920F931F93CF93DF931C016A01C3
:100B70007B0128013901FC01C68DD78D88809980C1
:100B8000AA80BB80A9019801C501B4010E948E1CF6
:100B900018166CF5488259826A827B82F10186A020
:100BA00097A0A0A4B1A4C6A8D7A8E0ACF1ACA701B7
:100BB0009601C501B4010E948E1CF101181624F59E
:100BC000C6A2D7A2E0A6F1A6DF91CF911F910F9107
:100BD000FF90EF90DF90CF90BF90AF909F908F905D
:100BE0007F906F905F904F903F902F900895A70156
:100BF0009601C501B4010E94D71A87FFCFCFC882E2
:100C0000D982EA82FB82CACFC2A8D3A8E4A8F5A8F9
:100C1000A7019601C501B4010E94D71A87FFD4CF5E
:100C2000F101CECF8F929F92AF92BF92CF92DF927F
:100C3000EF92FF92CF93DF93EC01EE8DFF8DC0809A
:100C4000D180E280F380CEA2DFA2E8A6F9A6EC8DE7
:100C5000FD8D80819181A281B3818AA79BA7ACA7DA
:100C6000BDA78EA89FA8A8ACB9ACA5019401C701E7
:100C7000B6010E948E1C18162CF48EA29FA2A8A664
:100C8000B9A60CC08AA89BA8ACA8BDA8A5019401D0
:100C9000C701B6010E94D71A87FDEFCFDF91CF9130
:100CA000FF90EF90DF90CF90BF90AF909F908F908C
:100CB0000895089508952091210A260F3327331FA0
:100CC00021323105ECF42091B80EFC0190E080E077
:100CD000243069F082E00895A091210A2191AC01AD
:100CE0004F5F554FA40FB52FB11D2C93019686175A
:100CF00098F38091210A680F6093210A80E008959B
:100D000081E008951092B80E81E08093B70E1092A2
:100D1000920E61E084E10E945C0261E085E10E9444
:100D20005C02E9EBF0E080818E7F808380818D7FA3
:100D3000808388E48093B80085E48093BC000895A4
:100D4000CF93DF9391E09093000A8823B9F0C0918C
:100D5000B800D091BA008091BC008A7B8093BC001F
:100D600060E084E10E945C0260E085E10E945C0238
:100D70000E948206D093BA00C093B800DF91CF9151
:100D800008958F929F92AF92BF92CF92DF92EF928F
:100D9000FF920F931F93CF93DF93D091E10ED13247
:100DA00008F0D7C0182FC091E00E0E94BB026B0163
:100DB0007C018091B80E81116BC082E08093B80EE7
:100DC0001093B70E8FEF8093B60E1092B50ED0939E
:100DD000B40EA0ECBEE0E4E9FEE080E0D81391C0E0
:100DE0001092930E8091930ECC0FC82BC093930E4C
:100DF0008091920E813009F088C01092920E0E946C
:100E0000BB026B017C018091930E8093BB008091AB
:100E1000BA0E9091BB0EA091BC0EB091BD0E892B65
:100E20008A2B8B2BA1F00E94BB020091BA0E10916D
:100E3000BB0E2091BC0E3091BD0E6C197D098E0940
:100E40009F09061717072807390708F442C0809141
:100E5000BC0083FDD8CF85EC8093BC000E94BB0210
:100E60006B017C018091B80E823009F450C08091F2
:100E7000B60E8F3F09F46FC08091B60E803209F430
:100E80006CC08091B60E803309F469C084E026C03E
:100E90008091BA0E9091BB0EA091BC0EB091BD0E88
:100EA000892B8A2B8B2B09F484CF0E94BB02809064
:100EB000BA0E9090BB0EA090BC0EB090BD0E6C19F7
:100EC0007D098E099F0986169706A806B90608F0BF
:100ED00070CF8091B90E0E94A00685E01092BF0EDF
:100EE0001092E10E1092BE0EDF91CF911F910F91E3
:100EF000FF90EF90DF90CF90BF90AF909F908F903A
:100F000008959D9191938F5F69CF85EEA5CF8091D4
:100F1000BA0E9091BB0EA091BC0EB091BD0E892B64
:100F20008A2B8B2B09F49ECF0E94BB020091BA0E34
:100F30001091BB0E2091BC0E3091BD0E6C197D0935
:100F40008E099F09061717072807390708F08ACF67
:100F5000C0CF81E0C3CF80E0C1CF82E0BFCF83E0CC
:100F6000BDCF0895E091490A8091480AE81730F40E
:100F7000F0E0E65BF54F808190E008958FEF9FEF02
:100F800008959091490A8091480A2FEF3FEF9817F2
:100F900048F4E92FF0E0E65BF54F208130E09F5FF9
:100FA0009093490AC90108958091480A9091490A8D
:100FB000891B990B0895CF92DF92EF92FF920F93C6
:100FC0001F93CF93DF937C01CB018A012091BE0E4A
:100FD000222389F0EB016B01C40ED51ECC15DD0573
:100FE00069F06991D701ED91FC910190F081E02DBC
:100FF000C7011995F3CF642F0E945B06C801DF91EA
:10100000CF911F910F91FF90EF90DF90CF900895B7
:10101000CF93DF931F92CDB7DEB769832091BE0EC9
:101020002223F9F02091E10E203258F021E030E047
:10103000FC013383228390E080E00F90DF91CF9119
:1010400008958091BF0EE82FF0E0E054F14F9981B0
:1010500090838F5F8093BF0E8093E10E81E090E0DC
:10106000ECCF61E0CE0101960E945B06F7CF682FBE
:1010700083E89FE00C940808CF93DF93D42FC52F0B
:10108000FC01808191E09093BE0E8093E00E10925F
:10109000BF0E1092E10EF4E06F9FB00111246A5F61
:1010A0007F4F83E89FE00E94080890E080E00E9464
:1010B000370890E080E00E9437088D2F9C2F0E9417
:1010C00037088C2F90E00E94370881E0DF91CF91A4
:1010D0000C94C106CF93C42FFC01808191E09093C2
:1010E000BE0E8093E00E1092BF0E1092E10E83E8C8
:1010F0009FE00E9408086C2F83E89FE00E94080888
:1011000081E0CF910C94C106CF93DF93EC01109254
:10111000490A1092480A1092BF0E1092E10E0E94E6
:10112000820689E596E09093470A8093460A8AE50D
:1011300096E09093450A8093440A40E060E0CE0137
:10114000DF91CF910C946A0890E080E008950895B3
:101150004F925F926F927F928F929F92AF92BF92C7
:10116000CF92DF92EF92FF920F931F93CF93DF9373
:10117000CDB7DEB74C0127013801DC015F965C93E7
:101180004E935E975D967C936E935C9791963C939D
:101190002E939097DA961C92FC0112AA13AA14AA15
:1011A00015AA80E090E0AFE7B3E486AB97ABA0AFC1
:1011B000B1AF84E690E0A0E0B0E086A797A7A0AB2F
:1011C000B1AB118E108E20E030E0A901C801B7014B
:1011D0000E94D71A87FD53C020E030E0A901C60164
:1011E000B5010E94D71A87FD4AC020E030E0A9016E
:1011F0006C897D898E899F890E94D71A87FD3FC09F
:1012000081E090E0D4015B969C938E935A97DB9695
:101210008C93DB97F4014082518262827382149630
:10122000AD92BD92CD92DC9217978C899D89AE8943
:10123000BF8980879187A287B38744865586668653
:1012400077862DEC3CEC4CEC5DE3C601B5010E94C9
:10125000931CF401608B718B828B938B2DEC3CEC97
:101260004CEC5DE36C897D898E899F890E94DC1A34
:10127000D40154966D937D938D939C9357972FB77C
:10128000F8948091E20E9091E30EA091E40EB0915B
:10129000E50E2FBFF40146A557A560A971A9841BCF
:1012A000950BA60BB70B82A393A3A4A3B5A3DF91C1
:1012B000CF911F910F91FF90EF90DF90CF90BF9053
:1012C000AF909F908F907F906F905F904F90089518
:1012D000FC0101900020E9F73197AF01481B590B41
:1012E000BC0186EE9EE00C9470048F929F92AF92A8
:1012F000BF920F931F93CF93DF93CDB7DEB7A19724
:101300000FB6F894DEBF0FBECDBF19A2423008F46D
:101310004AE08E010F5D1F4F842E912CB12CA12C21
:10132000A50194010E94391AE62FB901CA01EA30D9
:10133000F4F4E05DD801EE938D01232B242B252BB3
:1013400079F790E080E0109719F0CD010E946809CC
:10135000A1960FB6F894DEBF0FBECDBFDF91CF913F
:101360001F910F91BF90AF909F908F900895E95C6F
:10137000E1CFCF92DF92EF92FF92CF93DF936C0198
:10138000990FEE08FF08F7FE1FC06DE286EE9EE0A3
:101390000E940605EC0166277727CB016C197D09B1
:1013A0008E099F094AE00E947509C80FD91F80ED78
:1013B00097E00E9468098C0F9D1FDF91CF91FF90ED
:1013C000EF90DF90CF9008954AE0C701B6010E94E8
:1013D0007509EC01ECCFCF93DF930E946809EC0113
:1013E00080ED97E00E9468098C0F9D1FDF91CF91DF
:1013F0000895CF93DF93682F70E090E080E04AE09B
:101400000E947509EC0180ED97E00E9468098C0F3D
:101410009D1FDF91CF910895CF93DF93BC0190E0A2
:1014200080E04AE00E947509EC0180ED97E00E949F
:1014300068098C0F9D1FDF91CF9108958F929F9225
:10144000AF92BF92CF92DF92EF92FF920F931F93D2
:10145000CF93DF93EC019A01AB0160E27CEB8EEB62
:1014600095E40E94DC1A20E030E040E85FE30E944F
:101470006A1A20E030E040E05FE30E946B1A0E94AD
:10148000C11B0E94551B062F888191E09093BE0ED0
:101490008093E00E1092BF0E1092E10E60E083E8A0
:1014A0009FE00E94080881E00E94C10618810E9406
:1014B000BB026B017C018091B80E811164C081E098
:1014C0008093B80E8093B70E9FEF9093B60E109254
:1014D000B50E1092B40E8093930E8091930E110F5F
:1014E000182B1093930E8091920E813009F0A3C0B7
:1014F0001092920E0E94BB026B017C018091930EB0
:101500008093BB008091BA0E9091BB0EA091BC0E4F
:10151000B091BD0E892B8A2B8B2BA1F00E94BB02B0
:101520008090BA0E9090BB0EA090BC0EB090BD0EF5
:101530006C197D098E099F0986169706A806B906BB
:1015400008F442C08091BC0083FDD8CF85EC809325
:10155000BC000E94BB026B017C018091B80E8130FF
:1015600009F46BC08091B50E811189C08091B50ED0
:10157000E4E9FEE0AAE4BAE090E0981751F1219185
:101580002D939F5FFACF8091BA0E9091BB0EA091E0
:10159000BC0EB091BD0E892B8A2B8B2B09F48BCFFF
:1015A0000E94BB028090BA0E9090BB0EA090BC0E21
:1015B000B090BD0E6C197D098E099F09861697069D
:1015C000A806B90608F077CF8091B90E0E94A00650
:1015D00080E01092490A8093480A83E89FE00E94C5
:1015E000C107182F482F4F76406160E0CE010E945E
:1015F0006A08402F6EEFCE010E946A08412F60E01A
:10160000CE010E946A0865E070E080E090E00E94F0
:10161000E002412F416A60E0CE01DF91CF911F913E
:101620000F91FF90EF90DF90CF90BF90AF909F9081
:101630008F900C946A0885EE8ACF8091BA0E9091B3
:10164000BB0EA091BC0EB091BD0E892B8A2B8B2BAB
:1016500009F483CF0E94BB028090BA0E9090BB0E1B
:10166000A090BC0EB090BD0E6C197D098E099F092B
:1016700086169706A806B90608F06FCFA5CF81E0B9
:1016800077CF85ED8093BC008091BA0E9091BB0E10
:10169000A091BC0EB091BD0E0796A11DB11D23E017
:1016A000B695A795979587952A95D1F72091BC0077
:1016B00024FD03C01092B80E08954091BA0E5091C7
:1016C000BB0E6091BC0E7091BD0E452B462B472B77
:1016D00069F30097A105B10541F025E32A95F1F7DB
:1016E00000000197A109B109E1CF8091B90E0C94D6
:1016F000A0060F931F93CF93DF93CDB7DEB7DA9594
:101700000FB6F894DEBF0FBECDBF8091710A813055
:1017100079F083ED97E00E94EB09D3950FB6F8942A
:10172000DEBF0FBECDBFDF91CF911F910F91089506
:10173000F89478948E010F5F1F4F80E091E0F801DC
:101740009C01119221503040E1F7AE01465F5E4F9F
:10175000C85FDE4F68817981C850D140C8010E94BE
:101760000F1DC801D8CFCF92DF92EF92FF926B018D
:101770007C01EDE6FBE080E090E0DC0162857385B2
:10178000672BD1F00196A11DB11D70968233910592
:10179000A105B10599F785EE97E09F938F930E947D
:1017A000790B0F900F906DEF7FEF8FEF9FEFFF9012
:1017B000EF90DF90CF90089564E0880F991F6A95AD
:1017C000E1F7FC01E359F44FC082D182E282F38257
:1017D00014821582168217825187408733872287A9
:1017E00060916B0A70916C0A6F5F7F4F70936C0A07
:1017F00060936B0A90E080E064877587868797879F
:10180000D6CF0F931F93AB01BC01EDE6FBE080E068
:1018100090E0DC01048515852685378504171507BA
:101820002607370799F424E0880F991F2A95E1F7D6
:10183000FC01E359F44F80E1DF011D928A95E9F73D
:1018400060E070E0CB011F910F9108950196A11DFA
:10185000B11D709682339105A105B105D9F681E0DD
:1018600098E09F938F930E94790B0F900F906EEFEB
:101870007FEF8FEF9FEFE7CF0F931F93CF93DF9310
:10188000EC016C817D818E819F810E94010C098514
:101890001A85209741F088819981AA81BB8142975E
:1018A000A105B10578F082E298E09F938F930E94A2
:1018B000790B0F900F901A870987DF91CF911F91B5
:1018C0000F9108951C821D821E821F821886F3CFFD
:1018D0000F931F93CF93DF93EC01688179818A8105
:1018E0009B810E94010C50E040E063E08AED9FE0A4
:1018F0000E943C080D811E81209779F482E298E0D5
:101900009F938F930E94790B0F900F901E830D83EE
:10191000DF91CF911F910F910895188219821A8239
:101920001B821C82F3CF0F931F93CF93DF93EC01A5
:10193000688179818A819B810E94010C50E040E09E
:1019400062E081E99FE00E943C080D811E812097A2
:1019500079F482E298E09F938F930E94790B0F9025
:101960000F901E830D83DF91CF911F910F910895EA
:10197000188219821A821B821C82F3CF0F931F9345
:10198000CF93DF93EC016C817D818E819F810E94DA
:10199000010C88819981AA81BB8150E040E060E020
:1019A000892B8A2B8B2B09F061E08BED9FE00E9445
:1019B0003C0809851A85209779F482E298E09F9384
:1019C0008F930E94790B0F900F901A870987DF91F0
:1019D000CF911F910F9108951C821D821E821F823C
:1019E0001886F3CF1F920F920FB60F9211242F93E8
:1019F0003F938F939F93AF93BF938091E20E90910B
:101A0000E30EA091E40EB091E50E30918D0E23E02F
:101A1000230F2D3758F50196A11DB11D20938D0E72
:101A20008093E20E9093E30EA093E40EB093E50E44
:101A300080918E0E90918F0EA091900EB091910E8C
:101A40000196A11DB11D80938E0E90938F0EA093D1
:101A5000900EB093910EBF91AF919F918F913F9156
:101A60002F910F900FBE0F901F90189526E8230F0F
:101A70000296A11DB11DD2CF1F920F920FB60F92E9
:101A800011240BB60F922F933F934F935F936F9355
:101A90007F938F939F93AF93BF93EF93FF93E091C7
:101AA0002407F09125071995FF91EF91BF91AF9110
:101AB0009F918F917F916F915F914F913F912F9166
:101AC0000F900BBE0F900FBE0F901F9018951F9296
:101AD0000F920FB60F9211240BB60F922F933F93D4
:101AE0004F935F936F937F938F939F93AF93BF9326
:101AF000EF93FF93E0912207F09123071995FF914F
:101B0000EF91BF91AF919F918F917F916F915F9175
:101B10004F913F912F910F900BBE0F900FBE0F90E2
:101B20001F9018951F920F920FB60F9211240BB6AB
:101B30000F922F933F934F935F936F937F938F9366
:101B40009F93AF93BF93EF93FF93E0911807F091AA
:101B500019071995FF91EF91BF91AF919F918F91C7
:101B60007F916F915F914F913F912F910F900BBE9D
:101B70000F900FBE0F901F9018951F920F920FB6E7
:101B80000F9211240BB60F922F933F934F935F93B5
:101B90006F937F938F939F93AF93BF93EF93FF9335
:101BA000E0911607F09117071995FF91EF91BF91FA
:101BB000AF919F918F917F916F915F914F913F91E5
:101BC0002F910F900BBE0F900FBE0F901F90189586
:101BD0001F920F920FB60F9211240BB60F922F93F4
:101BE0003F934F935F936F937F938F939F93AF93A5
:101BF000BF93EF93FF93E0912007F0912107199590
:101C0000FF91EF91BF91AF919F918F917F916F91D4
:101C10005F914F913F912F910F900BBE0F900FBE90
:101C20000F901F9018951F920F920FB60F921124CC
:101C30000BB60F922F933F934F935F936F937F93C6
:101C40008F939F93AF93BF93EF93FF93E0911E0702
:101C5000F0911F071995FF91EF91BF91AF919F915F
:101C60008F917F916F915F914F913F912F910F9045
:101C70000BBE0F900FBE0F901F9018951F920F92E2
:101C80000FB60F9211240BB60F922F933F934F93E1
:101C90005F936F937F938F939F93AF93BF93EF93D4
:101CA000FF93E0911C07F0911D071995FF91EF91AB
:101CB000BF91AF919F918F917F916F915F914F9164
:101CC0003F912F910F900BBE0F900FBE0F901F9062
:101CD00018951F920F920FB60F9211240BB60F9208
:101CE0002F933F934F935F936F937F938F939F9324
:101CF000AF93BF93EF93FF93E0911A07F0911B0707
:101D00001995FF91EF91BF91AF919F918F917F9125
:101D10006F915F914F913F912F910F900BBE0F905C
:101D20000FBE0F901F9018951F920F920FB60F9233
:101D300011240BB60F922F933F934F935F936F93A2
:101D40007F938F939F93AF93BF93EF93FF9386EE11
:101D50009EE00E94E404FF91EF91BF91AF919F91AB
:101D60008F917F916F915F914F913F912F910F9044
:101D70000BBE0F900FBE0F901F9018951F920F92E1
:101D80000FB60F9211240BB60F922F938F939F9340
:101D9000EF93FF93E091F60EF091F70E8081E091C2
:101DA000FC0EF091FD0E82FD1DC090818091FF0E12
:101DB0008F5F8F732091000F821741F0E091FF0E2B
:101DC000F0E0EA51F14F958F8093FF0EFF91EF9174
:101DD0009F918F912F910F900BBE0F900FBE0F9080
:101DE0001F9018958081F2CF1F920F920FB60F921D
:101DF00011240BB60F922F933F934F935F936F93E2
:101E00007F938F939F93AF93BF93EF93FF938091B3
:101E1000B900887F803609F44DC008F040C0883290
:101E200009F4A9C028F5803109F49DC0C8F48823BD
:101E300009F4FBC0883009F496C0FF91EF91BF917F
:101E4000AF919F918F917F916F915F914F913F9152
:101E50002F910F900BBE0F900FBE0F901F901895F3
:101E6000883109F488C0803241F78093B60E14C0DF
:101E7000803409F49DC040F48033B9F38833E9F627
:101E80008093B60E85ECB0C0803509F485C08835E6
:101E900009F496C0883489F60E94410BCECF883968
:101EA00009F48CC038F5883729F050F4883611F0E1
:101EB000803719F683E08093B80E1092430A57C01A
:101EC000883809F47BC0803919F0803809F0B5CF23
:101ED0008091430A803208F071C0E091430A81E0AA
:101EE0008E0F8093430A8091BB00F0E0ED5DF54FCB
:101EF00080833DC0803B39F0E0F4803A09F479C03A
:101F0000883A09F09ACF84E08093B80E1092220AA2
:101F10001092210AE091460AF091470A19958091A2
:101F2000210A81110FC081E08093210A1092010AD9
:101F300009C0803C09F4A6CF883C09F4A3CF883BB4
:101F400009F07BCFE091220A81E08E0F8093220A74
:101F5000F0E0EF5FF54F80818093BB009091220A03
:101F60008091210A29C08091930E8093BB0085EC5B
:101F70008093BC0062CF9091B50E8091B40E9817FB
:101F800058F5E091B50E81E08E0F8093B50EF0E02C
:101F9000EC56F14F8081E9CFE091B50E81E08E0FD4
:101FA0008093B50E8091BB00F0E0EC56F14F80833A
:101FB0009091B50E8091B40E9817C8F285E8D8CFED
:101FC000E091B50E81E08E0F8093B50E8091BB003D
:101FD000F0E0EC56F14F80838091B70E81115CCF19
:101FE00081E08093920E84EA8093BC001092B80E38
:101FF00024CF85EC8093BC001092B80E8091430AE8
:10200000803230F4E091430AF0E0ED5DF54F10824C
:102010006091430A70E0E091440AF091450A83E23E
:102020009AE019951092430A08CF1092B60E34CF59
:102030001F920F920FB60F9211240BB60F922F938F
:102040003F934F935F936F937F938F939F93AF9340
:10205000BF93EF93FF93E0911407F0911507199543
:10206000FF91EF91BF91AF919F918F917F916F9170
:102070005F914F913F912F910F900BBE0F900FBE2C
:102080000F901F9018957F928F929F92AF92BF9260
:10209000CF92DF92EF92FF920F931F93CF93DF9334
:1020A000E6EEFEE01382128288EE93E0A0E0B0E05C
:1020B00084839583A683B78320EB37E03183208325
:1020C00025EC30E03587248724EC30E037872687FD
:1020D00020EC30E0318B208B21EC30E0338B228BF5
:1020E00022EC30E0358B248B26EC30E0378B268BCE
:1020F000118E128E138E148EE3E8FFE0138212828B
:1021000084839583A683B78382EC97E09183808351
:1021100081E48093900F82E480938F0F8EE3782E7A
:102120007F929CE4892E8F922CEC922E9F92DDEC74
:10213000DF93A12CB12C6501E12CF12C00E810E417
:1021400022E93FE046E95FE06AE97FE08EE99FE04F
:102150000E94A808C3E4C093910FC093DA0F7F9246
:102160008F929F92DF9324E230E148E250E16CE2EB
:1021700070E180E390E10E94A8087F928F929F9285
:10218000DF932CED3FE040EE5FE064EE7FE088EE11
:102190009FE00E94A808C093DB0F8DB79EB70C96F6
:1021A0000FB6F8949EBF0FBE8DBFDF91CF911F91E8
:1021B0000F91FF90EF90DF90CF90BF90AF909F90E6
:1021C0008F907F900895CF93DF93CDB7DEB7C75A36
:1021D000D1090FB6F894DEBF0FBECDBF789484B599
:1021E000826084BD84B5816084BD85B5826085BD13
:1021F00085B5816085BD80916E00816080936E00A1
:102200001092810080918100826080938100809192
:102210008100816080938100809180008160809343
:1022200080008091B10084608093B1008091B00003
:1022300081608093B00080919100826080939100D2
:1022400080919100816080939100809190008160E5
:10225000809390008091A10082608093A100809182
:10226000A10081608093A1008091A0008160809393
:10227000A000809121018260809321018091210141
:1022800081608093210180912001816080932001F1
:1022900080917A00846080937A0080917A008260D5
:1022A00080937A0080917A00816080937A00809197
:1022B0007A00806880937A001092C100E091F60E57
:1022C000F091F70E82E08083E091F20EF091F30E30
:1022D0001082E091F40EF091F50E90E1908310924F
:1022E000FE0EE091FA0EF091FB0E86E08083E09105
:1022F000F80EF091F90E808180618083E091F80EF4
:10230000F091F90E808188608083E091F80EF09161
:10231000F90E808180688083E091F80EF091F90ECB
:1023200080818F7D808310926D0A10926E0A1092C8
:102330006F0A1092700A10926C0A10926B0AEDE606
:10234000FBE020E233E0DF01A9011D924150504043
:10235000E1F7909381001092800081E080936A0AF7
:1023600020E43FE1309387002093860091E1909331
:10237000810021E434E03093150720931407809303
:102380006F0010928100109285001092840090914D
:102390006A0A9061909381008093710AA0E4B7E08B
:1023A000E3E8FAE040E050E0BA0140835183628301
:1023B0007383148215821682178210868D919D91E7
:1023C000928781874F5F5F4F6F4F7F4F3B964231C0
:1023D00051056105710549F780E99FE00E94840875
:1023E0008FE89FE00E94840860E084E10E948A02F6
:1023F00060E085E10E948A0218E41093B80080E949
:102400009FE00E9484088FE89FE00E94840860E0BB
:1024100084E10E948A0260E085E10E948A021093B2
:10242000B80040E050E068EC72E480E99FE00E9470
:102430001E0A40E050E068EC72E48FE89FE00E94E2
:102440001E0A1092490B10924A0B10924B0B1092DD
:102450004C0B10924D0B10924E0B10924F0B109292
:10246000500B1092510B1092530B1092520B81E0B3
:1024700090E0A0E0B0E08093540B9093550BA093B4
:10248000560BB093570B1092580B1092590B109299
:102490005A0B10925B0B10925C0B10925E0B109219
:1024A0005D0B1092790A1092780A1092770A1092B6
:1024B000760A1092750A1092740A1092730A10929A
:1024C000720A10922C1010922D1010922E10109251
:1024D0002F101092E40F1092E50F1092E60F109259
:1024E000E70F1092241010922510109226101092CF
:1024F00027101092DC0F1092DD0F1092DE0F109259
:10250000DF0F61E080E00E948A0261E086E00E94C5
:102510008A0261E081E00E948A0261E087E00E9415
:102520008A0260E082E00E948A0260E086E10E9406
:102530008A0260E083E00E948A0260E087E10E94F4
:102540008A0287E793E0909317078093160780919C
:102550006A008C7F816080936A00EC9A8CED93E036
:10256000909319078093180780916A00837F846095
:1025700080936A00ED9A80916A10811104C080E313
:1025800090E10E94120681E080936A1080E390E15E
:102590000E948E0180E090E0AFE7B3EC8093621080
:1025A00090936310A0936410B093651080E090E066
:1025B000AFE7B3E48093661090936710A093681020
:1025C000B093691080916A10882361F000E010E0F8
:1025D0002FE733E440E050E06FE773EC80E390E1F5
:1025E0000E94A40580912210811104C088EE9FE012
:1025F0000E94120681E08093221088EE9FE00E94E4
:102600008E0180E090E0AFE7B3EC80931A109093D6
:102610001B10A0931C10B0931D1080E090E0AFE75A
:10262000B3E480931E1090931F10A0932010B093DA
:10263000211080912210882361F000E010E02FE744
:1026400033E440E050E06FE773EC88EE9FE00E94D7
:10265000A4058BED9FE00E94840860E084E10E9465
:102660008A0260E085E10E948A0210E21093B800BD
:1026700040E050E06AE774E48BED9FE00E941E0AA0
:1026800050E040E060E08BED9FE00E943C0861E09C
:1026900086E00E945C0261E087E00E945C0210928A
:1026A000660B1092670B1092680B1092690B1092D8
:1026B0006A0B10926C0B10926B0B61E083E00E942E
:1026C0008A0261E089E00E948A028AED9FE00E940E
:1026D000840860E084E10E948A0260E085E10E9453
:1026E0008A021093B80040E050E06AE774E48AED93
:1026F0009FE00E941E0A50E040E060E08AED9FE00B
:102700000E943C0861E089E00E945C0210925F0B2D
:102710001092600B1092610B1092620B1092630B7F
:102720001092650B1092640B10927D0A10927C0A35
:1027300010927B0A10927A0A10929A0F10929B0FB5
:1027400010929C0F10929D0F1092920F1092930F67
:102750001092940F1092950F61E082E00E948A021D
:1027600061E088E00E948A0260E082E10E948A02C1
:1027700060E088E10E948A0282E193E09093210761
:1027800080932007809169008F7380648093690033
:10279000EB9A8091D80F811104C08EE99FE00E94CE
:1027A000120681E08093D80F8EE99FE00E948E018F
:1027B00080E090EFAFE7B5EC8093D00F9093D10F0E
:1027C000A093D20FB093D30F80E090EFAFE7B5E4C2
:1027D0008093D40F9093D50FA093D60FB093D70FBB
:1027E0008091D80F882361F000E010EF2FE735E4E7
:1027F00040E050EF6FE775EC8EE99FE00E94A40582
:1028000081E99FE00E94840860E084E10E948A02DE
:1028100060E085E10E948A0280E28093B80040E097
:1028200050E06AE774E481E99FE00E941E0A50E0EC
:1028300040E060E081E99FE00E943C0861E088E0C0
:102840000E945C021FB7F89480917E0A811127C014
:10285000E7E1F2E08491EDE5F2E09491E82FF0E019
:10286000EE0FFF1FEC56FE4FA591B491EC919E2305
:1028700021F461E085E30E945C0261E085E30E944F
:102880008A028CB580618CBD8CB580648CBD61E0A2
:1028900084E30E948A0261E083E30E948A028091BD
:1028A0007E0A8F5F80937E0A1FBF61E085E30E94EE
:1028B0005C028BE398E00E94EB0961E070E080E04D
:1028C00090E00E94E0024E0159E4850E911C88E4DC
:1028D00098E00E94EB0984E2D4011D928A95E9F701
:1028E000C957DF4F19821882C758D040C757DF4FEA
:1028F00019821882C958D0408E010F5F1F4F82E1A4
:10290000F80111928A95E9F7D801E3E8FAE08085A9
:102910008D933B962BE0E934F207C9F780916A0B5F
:10292000882329F084EE99E00E94EB0999C48091F4
:10293000630B8111F7CF8091510B8111F3CF8091FF
:102940005C0B8111EFCF89818111ECCF8A818111DC
:10295000E9CF8B818111E6CF8C818111E3CF8D810D
:102960008111E0CF8E818111DDCF8F818111DACF8E
:1029700088858111D7CF89858111D4CF8A8581112E
:10298000D1CF8B858111CECF8C858111CBCF8D8519
:102990008111C8CF8E858111C5CF8F858111C2CF9E
:1029A00088898111BFCF89898111BCCF3A89C357EA
:1029B000DF4F3883CD58D0403111B4CF8EE598E049
:1029C0000E94EB0964E670E080E090E00E94E00283
:1029D00088E798E00E94EB098091810A9091820A31
:1029E0000E940C0A80E998E00E94EB0980917F0A1E
:1029F0009091800A0E940C0A8091810A9091820A2B
:102A0000892B79F081E090E09093820A8093810A8B
:102A100085EA98E00E94EB0982E00E94F90912E041
:102A2000D5C0E0907F0AF090800A8AE1E6E2F7E004
:102A3000DE01A359BF4F01900D928A95E1F785EB16
:102A400098E00E94EB09C7010E940C0AEF28F1F000
:102A50008CEC98E09F938F930E94790B1092800AE0
:102A600010927F0A8091810A9091820A0196909338
:102A7000820A8093810A81EF98E09F938F930E944E
:102A8000790B0F900F900F900F90C9CF8AE1FE0144
:102A9000E359FF4FD80101900D928A95E1F780919B
:102AA0007F0A9091800A01969093800A80937F0A12
:102AB00085EA98E00E94EB0980E00E94F9094981CB
:102AC000C456DF4F4883CC59D0405A81CB56DF4F94
:102AD0005883C559D0408B81CE56DF4F8883C25969
:102AE000D0409C81C556DF4F9883CB59D040AD81F3
:102AF000CC56DF4FA883C459D040BE81CA55DF4FA2
:102B0000B883C65AD040EF81C756DF4FE883C95912
:102B1000D040F885C955DF4FF883C75AD040298582
:102B2000CD56DF4F2883C359D0403A85CF55DF4F6C
:102B30003883C15AD0404B85C656DF4F4883CA59A7
:102B4000D0405C85C256DF4F5883CE59D0408D852A
:102B5000CB55DF4F8883C55AD0409E85C356DF4F83
:102B60009883CD59D040AF85CE55DF4FA883C25A48
:102B7000D040B889CA56DF4FB883C659D040E989DA
:102B8000C156DF4FE883CF59D040FA89C056DF4F96
:102B9000F883C05AD0402B893C89C956DF4F39830E
:102BA0002883C759D0404D895E89CD55DF4F598361
:102BB0004883C35AD0402F88388C898D9A8DC0574E
:102BC000DF4F99838883C059D04010E085E099E0B9
:102BD0000E94EB09812F0E94F9098AE199E01230E5
:102BE00009F4A2CE85E399E00E94EB09C456DF4FB9
:102BF000A881CC59D0408A2F90E0F4019183808342
:102C0000CB56DF4FF881C559D0408F2F90E0D401CB
:102C100013969C938E931297CE56DF4FB881C2596C
:102C2000D0408B2F90E0F40195838483C556DF4F0D
:102C3000F881CB59D0408F2F90E0D40117969C9308
:102C40008E931697CC56DF4FB881C459D0408B2F46
:102C500090E0F40191878087CA55DF4FF881C65A0A
:102C6000D0408F2F90E0D4011B969C938E931A979F
:102C7000C756DF4FB881C959D0408B2F90E0F4017F
:102C800095878487C955DF4FF881C75AD0408F2F69
:102C900090E0D4011F969C938E931E97CD56DF4FE4
:102CA000B881C359D0408B2F90E0F401918B808B79
:102CB000CF55DF4FF881C15AD0408F2F90E0D4011B
:102CC00053969C938E935297C656DF4FB881CA593C
:102CD000D0408B2F90E0F401958B848BC256DF4F50
:102CE000F881CE59D0408F2F90E0D40157969C9315
:102CF0008E935697CB55DF4FB881C55AD0408B2F56
:102D000090E0F401918F808FC356DF4FF881CD5949
:102D1000D0408F2F90E0D4015B969C938E935A976E
:102D2000CE55DF4FB881C25AD0408B2F90E0F401CE
:102D3000958F848FCA56DF4FF881C659D0408F2FA8
:102D400090E0D4015F969C938E935E97C156DF4FBF
:102D5000B881CF59D0408B2F90E0F40191A380A38C
:102D6000C056DF4FF881C05AD0408F2F90E0D40179
:102D700093969C938E939297C956DF4FE881F98181
:102D8000C759D040C957DF4FF983E883C758D040AF
:102D9000CD55DF4F28813981C35AD040C757DF4F07
:102DA00039832883C958D040AE014F5F5F4FC25767
:102DB000DF4F59834883CE58D040740184E697E0B2
:102DC000C557DF4F99838883CB58D04028E8A22E7F
:102DD00027E0B22E6A0103E81AE0412C512C32019F
:102DE000D80118968C91833091F587E499E00E9480
:102DF000EB0923E030E040E050E0D6012D933D9315
:102E00004D935C9313974FEF441A540A640A740A63
:102E1000055F1F4F54E0C50ED11C82E0E80EF11C87
:102E2000C557DF4FA881B981CB58D0401296C557FE
:102E3000DF4FB983A883CB58D040B2E0AB0EB11CB2
:102E4000E2E14E1651046104710451F657C0F701D6
:102E500020813181D5018D919C912817390778F017
:102E6000C557DF4FE881F981CB58D04080819181EF
:102E70008217930748F42F3FFFEE3F0729F02EEF0C
:102E80003FEF4FEF5FEFB9CFF80181859285821B4D
:102E9000930B97FF03C0919581959109F6E0F89FF8
:102EA000B001F99F700D11246115710511F461E0F5
:102EB00070E0072E000C880B990B2CE33CE0A80176
:102EC0000E94B30B9B01AC012D5F3F4F4F4F5F4FF3
:102ED000223031054105510508F050C09F938F9372
:102EE0007F936F9384E599E09F938F930E94790B72
:102EF0000F900F900F900F900F900F9009E41BE030
:102F00005E01F7E8AF0EB11C412C512C3201D80103
:102F100018968C91833009F07BC023E030E040E0CC
:102F200050E0C257DF4FA881B981CE58D0402D93D1
:102F30003D934D935C93139784E799E00E94EB09CE
:102F4000055F1F4FC257DF4F48815981CE58D0408F
:102F50004C5F5F4FC257DF4F59834883CE58D040F4
:102F600052E0A50EB11C4A9445284628472809F48A
:102F7000C5C0412C512C32014394C9CFE3E0D801A4
:102F80001896EC93189714966D937D938D939C935C
:102F90001797F701A081B181F801B287A18720EDD1
:102FA00037E00E94081DF1E04F16510461047104DE
:102FB00031F027E0421651046104710421F52EE03E
:102FC00031E040E050E00E941A1AD901AC50BE4FE7
:102FD0002FEF3FE00E94081D20E137E240E050E083
:102FE0000E941A1AA901642D80E99FE039E0431676
:102FF00051046104710424F067EF640D8FE89FE0D1
:103000000E943C0800CF24EB30E040E050E0DBCFF2
:10301000F501808191818F30F1E09F07A8F08F3F0B
:103020002FEE920789F08EEF9FEFAFEFBFEFC25701
:10303000DF4FE881F981CE58D04080839183A2830D
:10304000B38387E899E07ACFD8011996ED90FC9088
:10305000E81AF90A8AE999E00E94EB09C7010E947F
:10306000B90987EA99E00E94EB09F7FE27C1F194BC
:10307000E194F108B1E0C557DF4FB883CB58D04099
:10308000EAE0EE9D6001EF9DD00C1124C114D10443
:1030900019F4CC24C394D12C82EB99E00E94EB0963
:1030A000C6010E94B90987EA99E00E94EB09B601BE
:1030B000DD0C880B990B2EEB3CE0A8010E94B30BB2
:1030C0006B017C01F3E0CF0ED11CE11CF11C22E06E
:1030D000C216D104E104F10408F0F6C09F938F9367
:1030E0007F936F9384E599E09F938F930E94790B70
:1030F0000F900F900F900F900F900F908091630B97
:10310000833041F423E030E040E050E029833A830B
:103110004B835C8333E32316310468F04FEF2416AE
:103120004FEE340641F08EEF9FEFAFEFBFEF898394
:103130009A83AB83BC838091640B9091650B821959
:10314000930910E097FF04C091958195910911E0D2
:103150002DE0289FB001299F700D112411110EC080
:10316000072E000C880B990B0E94861B2AE939E96F
:1031700049E95FE30E94931C0E944E1B6115710593
:1031800011F461E070E0072E000C880B990B23E925
:103190003CE04FE55BE00E94B30B6B017C01A3E0D8
:1031A000CA0ED11CE11CF11CB2E0CB16D104E10423
:1031B000F10408F0DCC09F938F937F936F9384E5B5
:1031C00099E09F938F930E94790B0F900F900F902F
:1031D0000F900F900F9080916A0B833009F440C0DC
:1031E000C057DF4FE881F981C059D040E230F10586
:1031F000B8F580916B0B90916C0BE817F90751F0C3
:103200008E179F070CF0D1C0F1E0C357DF4FF88352
:10321000CD58D04028E63CE046E65BE060ED77E044
:1032200080E090E00E94B30B8B019C010D5F1F4F6B
:103230002F4F3F4F023011052105310508F0BCC06A
:103240009F938F937F936F9384E599E09F938F93E0
:103250000E94790B0F900F900F900F900F900F908E
:1032600085ED99E00E94EB090DE61BE0F8018081F5
:103270009181A281B3810097A105B105B1F044818C
:10328000558166817781481759076A077B0768F07F
:103290000284F385E02DD80118968D919C911995A3
:1032A000F8011482158216821782005F1F4FFEE01C
:1032B0000D381F07D9F60E94730509CBC557DF4F9C
:1032C0001882CB58D040DCCEE3E0D8011896EC93BE
:1032D000189714966D937D938D939C931797F50192
:1032E000808191811A969C938E931997F1E04F16E5
:1032F00051046104710459F1C557DF4F2881CB583F
:10330000D0408FEB99E02223B1F00E94EB0981E0DD
:1033100090E00E94B90987EA99E00E94EB0960E019
:1033200086E00E945C024FEF5FE060E08BED9FE083
:103330000E943C0805CE0E94EB0990E080E00E94CC
:10334000B90987EA99E00E94EB0961E0E9CFC55726
:10335000DF4F3881CB58D04060E0311101C061E0CF
:1033600087E00E945C024FEF5FE061E0DFCF23E087
:103370002093630B60935F0B7093600B8093610BE2
:103380009093620B3092650B2092640B60E01111F8
:1033900001C061E088E00E945C024FEF5FE062E004
:1033A00081E99FE00E943C0816CF22E0C357DF4F1F
:1033B0002883CD58D0402ECF23E020936A0B609312
:1033C000660B7093670B8093680B9093690BC057E3
:1033D000DF4F48815981C059D04050936C0B4093C6
:1033E0006B0B8CEC99E00E94EB09C357DF4F88818F
:1033F000CD58D0400E94F909C357DF4F5881CD58AE
:10340000D040511108C050E040E063E08AED9FE0F9
:103410000E943C0825CFC357DF4F8881CD58D0404C
:1034200061E0813009F060E089E00E945C024FEFCA
:103430005FE0EBCF052E97FB1EF400940E94311A3B
:1034400057FD07D00E94391A07FC03D04EF40C94A4
:10345000311A50954095309521953F4F4F4F5F4F12
:10346000089590958095709561957F4F8F4F9F4FF0
:103470000895A1E21A2EAA1BBB1BFD010DC0AA1FB5
:10348000BB1FEE1FFF1FA217B307E407F50720F0CD
:10349000A21BB30BE40BF50B661F771F881F991F48
:1034A0001A9469F760957095809590959B01AC0191
:1034B000BD01CF010895A29FB001B39FC001A39F9A
:1034C000700D811D1124911DB29F700D811D11245D
:1034D000911D08955058BB27AA270E94821A0C9468
:1034E0003C1C0E942E1C38F00E94351C20F039F440
:1034F0009F3F19F426F40C942B1C0EF4E095E7FB87
:103500000C94FC1BE92F0E944D1C58F3BA1762075C
:1035100073078407950720F079F4A6F50C94871CAF
:103520000EF4E0950B2EBA2FA02D0B01B9019001DE
:103530000C01CA01A0011124FF27591B99F0593F22
:1035400050F4503E68F11A16F040A22F232F342F6A
:103550004427585FF3CF469537952795A795F040B8
:103560005395C9F77EF41F16BA0B620B730B840BCD
:10357000BAF09150A1F0FF0FBB1F661F771F881F85
:10358000C2F70EC0BA0F621F731F841F48F48795DD
:1035900077956795B795F7959E3F08F0B0CF9395CF
:1035A000880F08F09927EE0F9795879508950E9448
:1035B000D81B08F481E008950E94F01A0C943C1C7A
:1035C0000E94351C58F00E942E1C40F029F45F3FE9
:1035D00029F00C94FC1B51110C94881C0C942B1C8E
:1035E0000E944D1C68F39923B1F3552391F3951B69
:1035F000550BBB27AA2762177307840738F09F5F14
:103600005F4F220F331F441FAA1FA9F335D00E2E80
:103610003AF0E0E832D091505040E695001CCAF7ED
:103620002BD0FE2F29D0660F771F881FBB1F2617B0
:1036300037074807AB07B0E809F0BB0B802DBF0187
:10364000FF2793585F4F3AF09E3F510578F00C9456
:10365000FC1B0C94881C5F3FE4F3983ED4F38695E2
:1036600077956795B795F7959F5FC9F7880F911D77
:103670009695879597F90895E1E0660F771F881F63
:10368000BB1F621773078407BA0720F0621B730B16
:10369000840BBA0BEE1F88F7E09508950E94551B26
:1036A0006894B1110C94881C08950E94551C88F0F0
:1036B0009F5798F0B92F9927B751B0F0E1F0660FF6
:1036C000771F881F991F1AF0BA95C9F714C0B13037
:1036D00091F00E94871CB1E008950C94871C672F1D
:1036E000782F8827B85F39F0B93FCCF38695779566
:1036F0006795B395D9F73EF490958095709561954F
:103700007F4F8F4F9F4F0895E89409C097FB3EF479
:1037100090958095709561957F4F8F4F9F4F99231E
:10372000A9F0F92F96E9BB279395F695879577959C
:103730006795B795F111F8CFFAF4BB0F11F460FF5C
:103740001BC06F5F7F4F8F4F9F4F16C0882311F0B4
:1037500096E911C0772321F09EE8872F762F05C0C8
:10376000662371F096E8862F70E060E02AF09A9563
:10377000660F771F881FDAF7880F9695879597F958
:1037800008950E946F1C90F09F3748F4911116F035
:103790000C94881C60E070E080E89FEB089526F4AC
:1037A0001B16611D711D811D0C94021C0C941D1CA7
:1037B000990F0008550FAA0BE0E8FEEF1616170642
:1037C000E807F907C0F012161306E407F50798F0AA
:1037D000621B730B840B950B39F40A2661F0232BC3
:1037E000242B252B21F408950A2609F4A140A6953F
:1037F0008FEF811D811D089597F99F6780E870E024
:1038000060E00895882371F4772321F09850872B86
:10381000762F07C0662311F499270DC09051862B8F
:1038200070E060E02AF09A95660F771F881FDAF73C
:10383000880F9695879597F908959F3F31F091509D
:1038400020F4879577956795B795880F911D969584
:10385000879597F908959FEF80EC089500240A94C6
:103860001616170618060906089500240A9412165B
:103870001306140605060895092E0394000C11F48E
:10388000882352F0BB0F40F4BF2B11F460FF04C03B
:103890006F5F7F4F8F4F9F4F089557FD9058440F94
:1038A000551F59F05F3F71F04795880F97FB991F9F
:1038B00061F09F3F79F0879508951216130614065C
:1038C000551FF2CF4695F1DF08C0161617061806E9
:1038D000991FF1CF869571056105089408950E949E
:1038E000551CA0F0BEE7B91788F4BB279F3860F4D9
:1038F0001616B11D672F782F8827985FF7CF86950A
:1039000077956795B11D93959639C8F30895E89416
:10391000BB2766277727CB0197F908950E94D81B0C
:1039200008F48FEF08950E94A61C0C943C1C0E9482
:103930002E1C38F00E94351C20F0952311F00C94B9
:10394000FC1B0C942B1C11240C94881C0E944D1CF5
:1039500070F3959FC1F3950F50E0551F629FF001E2
:10396000729FBB27F00DB11D639FAA27F00DB11DFB
:10397000AA1F649F6627B00DA11D661F829F222784
:10398000B00DA11D621F739FB00DA11D621F839F0B
:10399000A00D611D221F749F3327A00D611D231FE1
:1039A000849F600D211D822F762F6A2F11249F572F
:1039B00050409AF0F1F088234AF0EE0FFF1FBB1F32
:1039C000661F771F881F91505040A9F79E3F5105F1
:1039D00080F00C94FC1B0C94881C5F3FE4F3983E31
:1039E000D4F3869577956795B795F795E7959F5F9B
:1039F000C1F7FE2B880F911D9695879597F908952D
:103A0000EE0FFF1F881F8BBF0790F691E02D1994D2
:103A10000E945B1AB7FF0895821B930B08950F93C2
:103A20001F93CF93DF93CDB7DEB72E970FB6F894E1
:103A3000DEBF0FBECDBF8C0186E08C831A83098365
:103A40008FEF9FE79E838D83CE0101960E94391DE3
:103A50002F813885020F131FF80110822E960FB6A2
:103A6000F894DEBF0FBECDBFDF91CF911F910F91B4
:103A700008952F923F924F925F926F927F928F9212
:103A80009F92AF92BF92CF92DF92EF92FF920F93ED
:103A90001F93CF93DF9300D000D000D01F921F92CE
:103AA000CDB7DEB77C013B018A01FC01178216828B
:103AB000838181FFDDC1CE0101965C01F701938115
:103AC000F30193FD859193FF81913F01882309F4D0
:103AD00053C1853239F493FD859193FF81913F0164
:103AE000853229F4B70190E00E94511FE7CF912C55
:103AF000212C312CFFE1F31538F08B3211F190F4C9
:103B0000803209F1833229F137FC3CC020ED280FC7
:103B10002A3050F536FE20C08AE0989E200D1124F0
:103B2000922E06C08D3291F0803371F7689430F890
:103B3000F30193FD859193FF81913F018111DACFCC
:103B400021C0689431F8689432F8F2CF689433F861
:103B5000EFCF689434F8ECCFEAE02E9E200D1124CC
:103B6000222E689435F8E4CF8E3229F436FC04C155
:103B7000689436F8DDCF8C3619F4689437F8D8CFCE
:103B80008836B1F2982F9F7D95549330E0F08336BC
:103B9000A1F18337C1F1833509F063C02801F2E058
:103BA0004F0E511CF801C080D180692D70E036FCA9
:103BB00002C06FEF7FEFC6010E943B1F4C0168946B
:103BC00037F882010AC00C5F1F4FFFE3F983882496
:103BD0008394912C6501E89437F833FE2DC0522C64
:103BE0008114910471F5552009F468CFB70180E282
:103BF00090E00E94511F5A94F6CFF801808189838A
:103C00000E5F1F4FE4CF2801F2E04F0E511CF80168
:103C1000C080D180692D70E036FC02C06FEF7FEF6D
:103C2000C6010E94461F4C018201D5CFB70180E238
:103C300090E00E94511F2A942814190409F0B0F74B
:103C4000CECFF60137FC859137FE81916F01B70128
:103C500090E00E94511F51105A94F1E08F1A910880
:103C6000BFCF843619F0893609F077C0F80137FEE6
:103C70006BC060817181828193810C5F1F4FF32D36
:103C8000FF763F2E97FF09C09095809570956195BE
:103C90007F4F8F4F9F4F689437F82AE030E0A5019F
:103CA0000E94811FC82ECA188C2C432C36FE0CC0D3
:103CB000E89440F8C91440F434FE05C032FC03C057
:103CC000F32DFE7E4F2E892C44FEAAC0FE01EC0D82
:103CD000F11D8081803309F09CC0242D297E422E65
:103CE000842D8870582E43FCAAC040FEA4C09C2C92
:103CF000821418F42C0C922C981844FEA6C0B7011C
:103D000080E390E00E94511F42FE09C088E790E0E6
:103D100041FE02C088E590E0B7010E94511FC9141E
:103D200008F49FC0CA94D12C9FEFC91AD90ACA0CB3
:103D3000DB1CF60182916F01B70190E00E94511FD8
:103D4000AC14BD04B1F74FCF60817181072E000C18
:103D5000880B990B0E5F1F4F92CFD32CE894D4F8A9
:103D60002AE030E08537E1F1232D297FD22E8F36EE
:103D7000A9F1F0F4883551F1F701868197812B96EE
:103D80000FB6F894DEBF0FBECDBFDF91CF911F916C
:103D90000F91FF90EF90DF90CF90BF90AF909F90EA
:103DA0008F907F906F905F904F903F902F900895ED
:103DB000803749F0883701F7D4FE02C06894D2F802
:103DC00020E130E00DC06894D4F8F6CF34FE03C093
:103DD000822F8660D82E20E132E002C028E030E059
:103DE000F801D7FE0FC060817181828193810C5FE1
:103DF0001F4FA5010E94811FC82ECA183D2CE894B0
:103E000037F852CF6081718190E080E00E5F1F4FE4
:103E1000F0CF42FC02C0839463CF8394839460CF3D
:103E2000842D867809F45CCFF6CFB70180E290E06C
:103E30000E94511F83948214C0F3512C5ECF522CE8
:103E40005818821408F459CFF8CF842D867809F4D5
:103E500066CF8BE241FE80E247FC8DE2B70190E045
:103E60005CCFB70180E390E00E94511F9A9457CF36
:103E70008FEF9FEF84CFFC010590615070400110DF
:103E8000D8F7809590958E0F9F1F0895FC01615083
:103E9000704001900110D8F7809590958E0F9F1F6C
:103EA00008950F931F93CF93DF93182F092FEB01E2
:103EB0008B8181FD09C01FEF0FEF812F902FDF91C4
:103EC000CF911F910F91089582FF14C02E813F81E1
:103ED0008C819D81281739073CF4E881F981CF0155
:103EE00001969983888310838E819F8101969F8399
:103EF0008E83E3CFE885F985812F1995892BA1F36E
:103F0000DACFFA01AA27283051F1203181F1E89463
:103F10006F936E7F6E5F7F4F8F4F9F4FAF4FB1E0BC
:103F20003ED0B4E03CD0670F781F891F9A1FA11DB7
:103F3000680F791F8A1F911DA11D6A0F711D811DB8
:103F4000911DA11D20D009F468943F912AE0269F7D
:103F500011243019305D3193DEF6CF010895462FDC
:103F60004770405D4193B3E00FD0C9F7F6CF462FBD
:103F70004F70405D4A3318F0495D31FD4052419326
:103F800002D0A9F7EACFB4E0A695979587957795E3
:103F90006795BA95C9F700976105710508959B016A
:103FA000AC010A2E06945795479537952795BA95F3
:103FB000C9F7620F731F841F951FA01D0895F89401
:023FC000FFCF31
:103FC2008C468C8C235F91462C8C23328C235A8C0A
:103FD20023840A000A00320000008C468C8C235F86
:103FE20091462C8C0A328C235A8C238414001400A0
:103FF200140001008C468C8C235F91462C780A3287
:104002008C235A8C23840A000A000A0000008C4682
:104012008C8C235F91462C7828328C235A8C2384F3
:1040220000000000000000008C468C8C005F91466E
:104032002C7828328C235A8C238400000000000044
:1040420000008C468C8C006E91462C7828328C2392
:104052005A8C238400000000000000008C468C8CE7
:10406200236E91462C7828328C235A8C23840000AC
:104072000000000000008C468C8C236E91462C7848
:1040820028328C235A8C0A840000000000000000B1
:104092008C468C8C236E91462C7828328C235A9134
:1040A2000A8400000000000000008C468C8C236E05
:1040B20091462C7828328C235A912B8400000000E0
:1040C200000000008C288C8C236E91462C782832BC
:1040D2008C235A912B8400000000000000007328FA
:1040E2008C8C236E91462C7828328C235A912B8407
:1040F2000000000000000000734D8C8C236E91467E
:104102002C7828328C235A912B8400000000000066
:104112000000734D8C8C236E91462C7828328C05CE
:104122005A912B840000000000000000734D8C8C1B
:10413200236E91462C7828328C054B912B840000FB
:10414200000000000000734D8C8C236E91462C7889
:1041520028328C234B912B840000000000000000C9
:10416200734D8C8C236E912D2C7828328C234B919D
:104172002B840000000000000000734D8C8C236E25
:104182009B2D2C7828328C234B912B84000000002D
:1041920000000000734D8C8C236E9B522C782832C9
:1041A2008C234B912B840000000000000000784B10
:1041B2008C8C236996492C7D26328C23508C228448
:1041C20000000000000000007D498C8C23649148AF
:1041D2002C8224328C2355872184000000000000A9
:1041E200000082488C8C235F8C482C8723328C23DE
:1041F2005A822184000000000000000087488C8C55
:10420200235A87492C8C23328C235F7D2284000021
:104212000000000000008C498C8C2355824B2C91AD
:1042220024328C2364782484000000000000000003
:1042320091528C8C23507D4D2C962D328C23697398
:104242002684000000000000000091528C8C235054
:104252007D4D2C960A328C2369732684000000005F
:104262000000000091528C8C23507D4D2C780A3234
:104272008C23697326840000000000000000915224
:104282008C8C23507D4D2C7828328C2369732684A4
:10429200000000000000000091528C8C00507D4D07
:1042A2002C7828328C2369732684000000000000D9
:1042B200000091528C8C006E7D4D2C7828328C231C
:1042C20069732684000000000000000091528C8C6B
:1042D200236E7D4D2C7828328C236973268400004E
:1042E20000000000000091528C8C236E7D4D2C78D2
:1042F20028328C2369730A84000000000000000049
:1043020091528C8C236E7D4D2C7828328C236991AE
:104312000A84000000000000000091528C8C236E81
:104322007D4D2C7828328C2369912B84000000006B
:104332000000000091288C8C236E7D4D2C78283251
:104342008C2369912B840000000000000000732878
:104352008C8C236E7D4D2C7828328C2369912B8492
:104362000000000000000000734D8C8C236E7D4D18
:104372002C7828328C2369912B84000000000000E5
:104382000000734D8C8C236E7D4D2C7828328C0569
:1043920069912B840000000000000000734D8C8C9A
:1043A200236E7D4D2C7828328C054B912B84000096
:1043B200000000000000734D8C8C236E7D4D2C7824
:1043C20028328C234B912B84000000000000000057
:1043D200734D8C8C236E7D282C7828328C234B9144
:1043E2002B840000000000000000734D8C8C236EB3
:1043F2009B282C7828328C234B912B8400000000C0
:1044020000000000734D8C8C236E9B522C78283256
:104412008C234B912B840000000000000000784B9D
:104422008C8C236996492C7D26328C23508C2284D5
:1044320000000000000000007D498C8C236491483C
:104442002C8224328C235587218400000000000036
:10445200000082488C8C235F8C482C8723328C236B
:104462005A822184000000000000000087488C8CE2
:10447200235A87492C8C23328C235F7D22840000AF
:104482000000000000008C498C8C2355824B2C913B
:1044920024328C2364782484000000000000000091
:1044A20091528C8C23507D4D2C962D328C23697326
:1044B200268400000000000000008C468C8C235FE4
:1044C20091462C8C23328C235A8C23840A000A00B6
:1044D2000A000100A7086F046F046F046F046F04E1
:1044E2006F046F046F048C46788C235F8C46418C7A
:1044F200233C8C235A7D237300000000000000003F
:104502008C00460082008C0023005F009100460070
:1045120041008C0023003C008C0023005A007D00E7
:1045220023007300B40052009100B40025006E0015
:10453200B40052007800B40032007800B4002300C6
:104542006900B4002B0084007300280041007D0044
:10455200000050007D0028002C0078000A002D0089
:104562007D0005004B0073000A003C0000000000C3
:10457200060570049D045305CE04AC04C00400007B
:1045820000000808DB07A408B107D407C107B20777
:104592000D0A002053797374656D206E6F74206963
:1045A2006E69742000E382BFE382A4E3839EE38307
:1045B200BCE4B88AE99990E382A8E383A9E383BCC7
:1045C20000E382BFE382A4E3839EE383BC4944E326
:1045D200818CE5AD98E59CA8E38197E381AAE3810C
:1045E2008400E38193E3828CE38282E38186E78421
:1045F200A1E79086E38284E381A70053797374650F
:104602006D205374617274000A2D2D2D2054455370
:1046120054205354415254202D2D2D2D0A002D2D5E
:104622002D205363656E6520496E70757420537436
:10463200617274202D2D2D002D2D2D207363656E3A
:104642006172696F636F756E746572202D2D2D0016
:104652002D2D2D207363656E65636F756E746572A3
:10466200202D2D2D002D2D2D20636865636B657225
:10467200202D2D2D002D2D2D20496E69745363653B
:104682006E65496E707574202D2D2D002D2D2D20F7
:10469200496E69745363656E65496E707574206303
:1046A2006F756E746572206F766572202D2D2D0ADE
:1046B200002D2D2D205363656E6520454E44202D1F
:1046C2002D2D2D0A002D2D2D207363656E656368D7
:1046D20065636B6572202D2D2D002D2D2D207363AA
:1046E200656E6520636F756E746572206F76657294
:1046F200202D2D2D002D2D2D20616E676C652073D0
:104702006574202D2D2D002D2D2D20283829202DAA
:104712002D2D0A00E382BFE382A4E3839EE383BCE0
:10472200E996A2E980A3E382A8E383A9E383BC3AE2
:10473200202564002D2D2D2D2064632065727220AA
:1047420031202D2D2D2D002D2D2D2D206463206542
:1047520072722032202D2D2D2D002D2D2D2D206415
:1047620074202D2D2D2D002D2D2D2D20202D2D2D84
:104772002D002D2D2D2D204454202D2D2D2D002D9D
:104782002D2D2D205544202D2D2D2D00727272724B
:1047920072727272000A2D2D2D20454E44202D2D4D
:1047A2002D2D0A002D2D2D207363656E65427573C4
:0647B20079202D2D2D00E1
:00000001FF
